{
  "address": "0x886ABa0b1853b2677A5b7c5dA0984ad4F57EE7bc",
  "abi": [
    {
      "inputs": [
        {
          "internalType": "bool",
          "name": "needDisableInitializers",
          "type": "bool"
        }
      ],
      "stateMutability": "nonpayable",
      "type": "constructor"
    },
    {
      "inputs": [],
      "name": "CallerIsNotAVault",
      "type": "error"
    },
    {
      "inputs": [],
      "name": "CannotWorkNow",
      "type": "error"
    },
    {
      "inputs": [],
      "name": "HealthCheckFailed",
      "type": "error"
    },
    {
      "inputs": [],
      "name": "IncompatibleCTokenContract",
      "type": "error"
    },
    {
      "inputs": [],
      "name": "IncompatiblePriceFeeds",
      "type": "error"
    },
    {
      "inputs": [
        {
          "internalType": "uint256",
          "name": "code",
          "type": "uint256"
        }
      ],
      "name": "MintError",
      "type": "error"
    },
    {
      "inputs": [],
      "name": "PayableWorkNotAllowed",
      "type": "error"
    },
    {
      "inputs": [
        {
          "internalType": "uint256",
          "name": "code",
          "type": "uint256"
        }
      ],
      "name": "RedeemError",
      "type": "error"
    },
    {
      "inputs": [
        {
          "internalType": "uint256",
          "name": "_givenTime",
          "type": "uint256"
        }
      ],
      "name": "TimeMinimumBetweenExecutionsIncorrect",
      "type": "error"
    },
    {
      "inputs": [],
      "name": "UnsupportedDecimals",
      "type": "error"
    },
    {
      "anonymous": false,
      "inputs": [
        {
          "indexed": false,
          "internalType": "address",
          "name": "previousAdmin",
          "type": "address"
        },
        {
          "indexed": false,
          "internalType": "address",
          "name": "newAdmin",
          "type": "address"
        }
      ],
      "name": "AdminChanged",
      "type": "event"
    },
    {
      "anonymous": false,
      "inputs": [
        {
          "indexed": true,
          "internalType": "address",
          "name": "beacon",
          "type": "address"
        }
      ],
      "name": "BeaconUpgraded",
      "type": "event"
    },
    {
      "anonymous": false,
      "inputs": [
        {
          "indexed": false,
          "internalType": "uint256",
          "name": "debtThreshold",
          "type": "uint256"
        }
      ],
      "name": "DebtThresholdUpdated",
      "type": "event"
    },
    {
      "anonymous": false,
      "inputs": [
        {
          "indexed": false,
          "internalType": "uint256",
          "name": "estimatedWorkGas",
          "type": "uint256"
        }
      ],
      "name": "EstimatedWorkGasUpdated",
      "type": "event"
    },
    {
      "anonymous": false,
      "inputs": [
        {
          "indexed": false,
          "internalType": "uint256",
          "name": "profit",
          "type": "uint256"
        },
        {
          "indexed": false,
          "internalType": "uint256",
          "name": "loss",
          "type": "uint256"
        },
        {
          "indexed": false,
          "internalType": "uint256",
          "name": "debtPayment",
          "type": "uint256"
        },
        {
          "indexed": false,
          "internalType": "uint256",
          "name": "outstandingDebt",
          "type": "uint256"
        }
      ],
      "name": "Harvested",
      "type": "event"
    },
    {
      "anonymous": false,
      "inputs": [
        {
          "indexed": false,
          "internalType": "address",
          "name": "",
          "type": "address"
        }
      ],
      "name": "HealthCheckChanged",
      "type": "event"
    },
    {
      "anonymous": false,
      "inputs": [
        {
          "indexed": false,
          "internalType": "bool",
          "name": "",
          "type": "bool"
        }
      ],
      "name": "HealthCheckEnabledChanged",
      "type": "event"
    },
    {
      "anonymous": false,
      "inputs": [
        {
          "indexed": false,
          "internalType": "uint8",
          "name": "version",
          "type": "uint8"
        }
      ],
      "name": "Initialized",
      "type": "event"
    },
    {
      "anonymous": false,
      "inputs": [
        {
          "indexed": true,
          "internalType": "address",
          "name": "previousOwner",
          "type": "address"
        },
        {
          "indexed": true,
          "internalType": "address",
          "name": "newOwner",
          "type": "address"
        }
      ],
      "name": "OwnershipTransferred",
      "type": "event"
    },
    {
      "anonymous": false,
      "inputs": [
        {
          "indexed": false,
          "internalType": "address",
          "name": "account",
          "type": "address"
        }
      ],
      "name": "Paused",
      "type": "event"
    },
    {
      "anonymous": false,
      "inputs": [
        {
          "indexed": false,
          "internalType": "address",
          "name": "account",
          "type": "address"
        }
      ],
      "name": "Unpaused",
      "type": "event"
    },
    {
      "anonymous": false,
      "inputs": [
        {
          "indexed": false,
          "internalType": "uint256",
          "name": "profitFactor",
          "type": "uint256"
        }
      ],
      "name": "UpdatedProfitFactor",
      "type": "event"
    },
    {
      "anonymous": false,
      "inputs": [
        {
          "indexed": true,
          "internalType": "address",
          "name": "implementation",
          "type": "address"
        }
      ],
      "name": "Upgraded",
      "type": "event"
    },
    {
      "anonymous": false,
      "inputs": [
        {
          "indexed": true,
          "internalType": "address",
          "name": "worker",
          "type": "address"
        }
      ],
      "name": "Worked",
      "type": "event"
    },
    {
      "inputs": [],
      "name": "BANANA",
      "outputs": [
        {
          "internalType": "address",
          "name": "",
          "type": "address"
        }
      ],
      "stateMutability": "view",
      "type": "function"
    },
    {
      "inputs": [],
      "name": "PANCAKE_ROUTER",
      "outputs": [
        {
          "internalType": "address",
          "name": "",
          "type": "address"
        }
      ],
      "stateMutability": "view",
      "type": "function"
    },
    {
      "inputs": [],
      "name": "RAIN_MAKER",
      "outputs": [
        {
          "internalType": "address",
          "name": "",
          "type": "address"
        }
      ],
      "stateMutability": "view",
      "type": "function"
    },
    {
      "inputs": [],
      "name": "WBNB",
      "outputs": [
        {
          "internalType": "address",
          "name": "",
          "type": "address"
        }
      ],
      "stateMutability": "view",
      "type": "function"
    },
    {
      "inputs": [],
      "name": "asset",
      "outputs": [
        {
          "internalType": "contract IERC20Upgradeable",
          "name": "",
          "type": "address"
        }
      ],
      "stateMutability": "view",
      "type": "function"
    },
    {
      "inputs": [],
      "name": "cToken",
      "outputs": [
        {
          "internalType": "contract ICToken",
          "name": "",
          "type": "address"
        }
      ],
      "stateMutability": "view",
      "type": "function"
    },
    {
      "inputs": [],
      "name": "canWork",
      "outputs": [
        {
          "internalType": "bool",
          "name": "",
          "type": "bool"
        }
      ],
      "stateMutability": "view",
      "type": "function"
    },
    {
      "inputs": [],
      "name": "checker",
      "outputs": [
        {
          "internalType": "bool",
          "name": "canExec",
          "type": "bool"
        },
        {
          "internalType": "bytes",
          "name": "execPayload",
          "type": "bytes"
        }
      ],
      "stateMutability": "view",
      "type": "function"
    },
    {
      "inputs": [],
      "name": "debtThreshold",
      "outputs": [
        {
          "internalType": "uint256",
          "name": "",
          "type": "uint256"
        }
      ],
      "stateMutability": "view",
      "type": "function"
    },
    {
      "inputs": [],
      "name": "depositedBalance",
      "outputs": [
        {
          "internalType": "uint256",
          "name": "",
          "type": "uint256"
        }
      ],
      "stateMutability": "nonpayable",
      "type": "function"
    },
    {
      "inputs": [],
      "name": "depositedBalanceSnapshot",
      "outputs": [
        {
          "internalType": "uint256",
          "name": "",
          "type": "uint256"
        }
      ],
      "stateMutability": "view",
      "type": "function"
    },
    {
      "inputs": [],
      "name": "estimatedTotalAssets",
      "outputs": [
        {
          "internalType": "uint256",
          "name": "",
          "type": "uint256"
        }
      ],
      "stateMutability": "view",
      "type": "function"
    },
    {
      "inputs": [],
      "name": "estimatedWorkGas",
      "outputs": [
        {
          "internalType": "uint256",
          "name": "",
          "type": "uint256"
        }
      ],
      "stateMutability": "view",
      "type": "function"
    },
    {
      "inputs": [],
      "name": "gelato",
      "outputs": [
        {
          "internalType": "address payable",
          "name": "",
          "type": "address"
        }
      ],
      "stateMutability": "view",
      "type": "function"
    },
    {
      "inputs": [],
      "name": "healthCheck",
      "outputs": [
        {
          "internalType": "contract IHealthCheck",
          "name": "",
          "type": "address"
        }
      ],
      "stateMutability": "view",
      "type": "function"
    },
    {
      "inputs": [],
      "name": "healthCheckEnabled",
      "outputs": [
        {
          "internalType": "bool",
          "name": "",
          "type": "bool"
        }
      ],
      "stateMutability": "view",
      "type": "function"
    },
    {
      "inputs": [
        {
          "internalType": "address",
          "name": "_vault",
          "type": "address"
        },
        {
          "internalType": "address",
          "name": "_cToken",
          "type": "address"
        },
        {
          "internalType": "address",
          "name": "_ops",
          "type": "address"
        },
        {
          "internalType": "address",
          "name": "_nativeTokenPriceFeed",
          "type": "address"
        },
        {
          "internalType": "address",
          "name": "_assetPriceFeed",
          "type": "address"
        },
        {
          "internalType": "uint256",
          "name": "_minReportInterval",
          "type": "uint256"
        },
        {
          "internalType": "bool",
          "name": "_isPrepaid",
          "type": "bool"
        }
      ],
      "name": "initialize",
      "outputs": [],
      "stateMutability": "nonpayable",
      "type": "function"
    },
    {
      "inputs": [],
      "name": "isPrepaid",
      "outputs": [
        {
          "internalType": "bool",
          "name": "",
          "type": "bool"
        }
      ],
      "stateMutability": "view",
      "type": "function"
    },
    {
      "inputs": [],
      "name": "lastWorkTime",
      "outputs": [
        {
          "internalType": "uint256",
          "name": "",
          "type": "uint256"
        }
      ],
      "stateMutability": "view",
      "type": "function"
    },
    {
      "inputs": [],
      "name": "minBananaToSell",
      "outputs": [
        {
          "internalType": "uint256",
          "name": "",
          "type": "uint256"
        }
      ],
      "stateMutability": "view",
      "type": "function"
    },
    {
      "inputs": [],
      "name": "minimumBetweenExecutions",
      "outputs": [
        {
          "internalType": "uint256",
          "name": "",
          "type": "uint256"
        }
      ],
      "stateMutability": "view",
      "type": "function"
    },
    {
      "inputs": [],
      "name": "name",
      "outputs": [
        {
          "internalType": "string",
          "name": "",
          "type": "string"
        }
      ],
      "stateMutability": "view",
      "type": "function"
    },
    {
      "inputs": [],
      "name": "ops",
      "outputs": [
        {
          "internalType": "contract IOps",
          "name": "",
          "type": "address"
        }
      ],
      "stateMutability": "view",
      "type": "function"
    },
    {
      "inputs": [],
      "name": "owner",
      "outputs": [
        {
          "internalType": "address",
          "name": "",
          "type": "address"
        }
      ],
      "stateMutability": "view",
      "type": "function"
    },
    {
      "inputs": [],
      "name": "pancakeRouter",
      "outputs": [
        {
          "internalType": "contract IPancakeRouter",
          "name": "",
          "type": "address"
        }
      ],
      "stateMutability": "view",
      "type": "function"
    },
    {
      "inputs": [],
      "name": "paused",
      "outputs": [
        {
          "internalType": "bool",
          "name": "",
          "type": "bool"
        }
      ],
      "stateMutability": "view",
      "type": "function"
    },
    {
      "inputs": [],
      "name": "payableWork",
      "outputs": [],
      "stateMutability": "nonpayable",
      "type": "function"
    },
    {
      "inputs": [],
      "name": "profitFactor",
      "outputs": [
        {
          "internalType": "uint256",
          "name": "",
          "type": "uint256"
        }
      ],
      "stateMutability": "view",
      "type": "function"
    },
    {
      "inputs": [],
      "name": "proxiableUUID",
      "outputs": [
        {
          "internalType": "bytes32",
          "name": "",
          "type": "bytes32"
        }
      ],
      "stateMutability": "view",
      "type": "function"
    },
    {
      "inputs": [],
      "name": "rainMaker",
      "outputs": [
        {
          "internalType": "contract IRainMaker",
          "name": "",
          "type": "address"
        }
      ],
      "stateMutability": "view",
      "type": "function"
    },
    {
      "inputs": [],
      "name": "renounceOwnership",
      "outputs": [],
      "stateMutability": "nonpayable",
      "type": "function"
    },
    {
      "inputs": [
        {
          "internalType": "uint256",
          "name": "_debtThreshold",
          "type": "uint256"
        }
      ],
      "name": "setDebtThreshold",
      "outputs": [],
      "stateMutability": "nonpayable",
      "type": "function"
    },
    {
      "inputs": [
        {
          "internalType": "uint256",
          "name": "_estimatedWorkGas",
          "type": "uint256"
        }
      ],
      "name": "setEstimatedWorkGas",
      "outputs": [],
      "stateMutability": "nonpayable",
      "type": "function"
    },
    {
      "inputs": [
        {
          "internalType": "address",
          "name": "_healthCheck",
          "type": "address"
        }
      ],
      "name": "setHealthCheck",
      "outputs": [],
      "stateMutability": "nonpayable",
      "type": "function"
    },
    {
      "inputs": [
        {
          "internalType": "bool",
          "name": "_healthCheckEnabled",
          "type": "bool"
        }
      ],
      "name": "setHealthCheckEnabled",
      "outputs": [],
      "stateMutability": "nonpayable",
      "type": "function"
    },
    {
      "inputs": [
        {
          "internalType": "uint256",
          "name": "_minBananaToSell",
          "type": "uint256"
        }
      ],
      "name": "setMinBananaToSell",
      "outputs": [],
      "stateMutability": "nonpayable",
      "type": "function"
    },
    {
      "inputs": [
        {
          "internalType": "uint256",
          "name": "_profitFactor",
          "type": "uint256"
        }
      ],
      "name": "setProfitFactor",
      "outputs": [],
      "stateMutability": "nonpayable",
      "type": "function"
    },
    {
      "inputs": [],
      "name": "shutdown",
      "outputs": [],
      "stateMutability": "nonpayable",
      "type": "function"
    },
    {
      "inputs": [],
      "name": "timeFromLastExecution",
      "outputs": [
        {
          "internalType": "uint256",
          "name": "",
          "type": "uint256"
        }
      ],
      "stateMutability": "view",
      "type": "function"
    },
    {
      "inputs": [
        {
          "internalType": "address",
          "name": "newOwner",
          "type": "address"
        }
      ],
      "name": "transferOwnership",
      "outputs": [],
      "stateMutability": "nonpayable",
      "type": "function"
    },
    {
      "inputs": [
        {
          "internalType": "address",
          "name": "newImplementation",
          "type": "address"
        }
      ],
      "name": "upgradeTo",
      "outputs": [],
      "stateMutability": "nonpayable",
      "type": "function"
    },
    {
      "inputs": [
        {
          "internalType": "address",
          "name": "newImplementation",
          "type": "address"
        },
        {
          "internalType": "bytes",
          "name": "data",
          "type": "bytes"
        }
      ],
      "name": "upgradeToAndCall",
      "outputs": [],
      "stateMutability": "payable",
      "type": "function"
    },
    {
      "inputs": [],
      "name": "vault",
      "outputs": [
        {
          "internalType": "contract IVault",
          "name": "",
          "type": "address"
        }
      ],
      "stateMutability": "view",
      "type": "function"
    },
    {
      "inputs": [
        {
          "internalType": "uint256",
          "name": "assets",
          "type": "uint256"
        }
      ],
      "name": "withdraw",
      "outputs": [
        {
          "internalType": "uint256",
          "name": "loss",
          "type": "uint256"
        }
      ],
      "stateMutability": "nonpayable",
      "type": "function"
    },
    {
      "inputs": [],
      "name": "work",
      "outputs": [],
      "stateMutability": "nonpayable",
      "type": "function"
    }
  ],
  "transactionHash": "0x404d96c6a20b999f454d208f74f6861176adff3e126bf02edaab20b5d8175b6a",
  "args": [
    true
  ],
  "numDeployments": 1,
  "solcInputHash": "0c4d0139548935f7b53ecbadb1907752",
  "bytecode": "0x60a0604052306080523480156200001557600080fd5b50604051620046d7380380620046d7833981016040819052620000389162000114565b8080156200004a576200004a62000052565b50506200013f565b600054610100900460ff1615620000bf5760405162461bcd60e51b815260206004820152602760248201527f496e697469616c697a61626c653a20636f6e747261637420697320696e697469604482015266616c697a696e6760c81b606482015260840160405180910390fd5b60005460ff908116101562000112576000805460ff191660ff9081179091556040519081527f7f26b83ff96e1f2b6a682f133852f6798a09c465da95921460cefb38474024989060200160405180910390a15b565b6000602082840312156200012757600080fd5b815180151581146200013857600080fd5b9392505050565b60805161456062000177600039600081816109a3015281816109ec01528181610b3e01528181610b7e0152610c1101526145606000f3fe6080604052600436106102725760003560e01c80638011cc9d1161014f578063c8b35c7a116100c1578063e70abe921161007a578063e70abe9214610726578063eb67821414610747578063efbb5cb01461075c578063f2fde38b14610771578063fbfa77cf14610791578063fc0e74d1146107b257600080fd5b8063c8b35c7a14610659578063cdb7265914610681578063cee2b04e146106a2578063cf5303cf146106c4578063d98a1c17146106e7578063e08836dd146106fe57600080fd5b806391397ab41161011357806391397ab4146105ad57806391b00bd9146105cd578063b252720b146105e2578063c21ebd0714610603578063c2fa3cae14610624578063c702ee871461063957600080fd5b80638011cc9d146105075780638cdfe1661461052f5780638da5cb5b146105465780638dd95002146105655780638efdfe461461058d57600080fd5b806347f76df2116101e857806359cad75d116101ac57806359cad75d1461046b5780635c975abb14610482578063635005d61461049b5780636848d47d146104b157806369e527da146104d1578063715018a6146104f257600080fd5b806347f76df2146103f75780634f1ef2861461040d57806352d1902d1461042057806353c309de14610435578063573ea5751461044a57600080fd5b8063322e9f041161023a578063322e9f04146103295780633659cfe61461033e57806338d52e0f1461035e578063417a570d1461039757806344bfc6bf146103b757806347eb98a2146103cc57600080fd5b806306fdde03146102775780630f969b87146102a257806311bc8245146102c45780631d12f28b146102e45780632e1a7d4d14610309575b600080fd5b34801561028357600080fd5b5061028c6107c7565b6040516102999190613caa565b60405180910390f35b3480156102ae57600080fd5b506102c26102bd366004613cbd565b61085e565b005b3480156102d057600080fd5b506102c26102df366004613ceb565b6108a3565b3480156102f057600080fd5b506102fb6102615481565b604051908152602001610299565b34801561031557600080fd5b506102fb610324366004613cbd565b6108fa565b34801561033557600080fd5b506102c2610958565b34801561034a57600080fd5b506102c2610359366004613ceb565b610999565b34801561036a57600080fd5b506102605461037f906001600160a01b031681565b6040516001600160a01b039091168152602001610299565b3480156103a357600080fd5b506102c26103b2366004613cbd565b610a81565b3480156103c357600080fd5b506102fb610abf565b3480156103d857600080fd5b50610163546103e79060ff1681565b6040519015158152602001610299565b34801561040357600080fd5b506102fb60fc5481565b6102c261041b366004613d77565b610b34565b34801561042c57600080fd5b506102fb610c04565b34801561044157600080fd5b506102c2610cb7565b34801561045657600080fd5b506101305461037f906001600160a01b031681565b34801561047757600080fd5b506102fb6102625481565b34801561048e57600080fd5b5061022d5460ff166103e7565b3480156104a757600080fd5b506102fb60fb5481565b3480156104bd57600080fd5b506102c26104cc366004613e18565b610d43565b3480156104dd57600080fd5b5061029a5461037f906001600160a01b031681565b3480156104fe57600080fd5b506102c2610d99565b34801561051357600080fd5b5061037f735cb93c0ade6b7f2760ec4389833b0cccb5e4efda81565b34801561053b57600080fd5b506102fb6102635481565b34801561055257600080fd5b50610196546001600160a01b031661037f565b34801561057157600080fd5b5061037f73bb4cdb9cbd36b01bd1cbaebf2de08d9173bc095c81565b34801561059957600080fd5b506102c26105a8366004613cbd565b610dab565b3480156105b957600080fd5b506102c26105c8366004613cbd565b610db9565b3480156105d957600080fd5b506102fb610df7565b3480156105ee57600080fd5b506101fa5461037f906001600160a01b031681565b34801561060f57600080fd5b5061029b5461037f906001600160a01b031681565b34801561063057600080fd5b506102fb610e07565b34801561064557600080fd5b506102c2610654366004613e35565b610ea5565b34801561066557600080fd5b5061037f73603c7f932ed1fc6575303d8fb018fdcbb0f39a9581565b34801561068d57600080fd5b5061029c5461037f906001600160a01b031681565b3480156106ae57600080fd5b506101fa546103e790600160a01b900460ff1681565b3480156106d057600080fd5b506106d9610fd6565b604051610299929190613ec2565b3480156106f357600080fd5b506102fb6102995481565b34801561070a57600080fd5b5061037f7310ed43c718714eb63d5aa57b78b54704e256024e81565b34801561073257600080fd5b5061012f5461037f906001600160a01b031681565b34801561075357600080fd5b506103e761103d565b34801561076857600080fd5b506102fb611059565b34801561077d57600080fd5b506102c261078c366004613ceb565b6110ec565b34801561079d57600080fd5b5061025f5461037f906001600160a01b031681565b3480156107be57600080fd5b506102c2611162565b61026054604080516395d89b4160e01b815290516060926001600160a01b0316916395d89b419160048083019260009291908290030181865afa158015610812573d6000803e3d6000fd5b505050506040513d6000823e601f3d908101601f1916820160405261083a9190810190613edd565b60405160200161084a9190613f4b565b604051602081830303815290604052905090565b6108666111d2565b6102618190556040518181527fc9535537e8d84b9f2b1de4393633cf857ba693878894a0f280211615d850d7e8906020015b60405180910390a150565b6108ab6111d2565b6101fa80546001600160a01b0319166001600160a01b0383169081179091556040519081527f237b727bcd9a5527fd4043c1560a9bdf8eb934bc035e4656ee6e4bebca7a6b4790602001610898565b61025f546000906001600160a01b031633146109295760405163348a645f60e11b815260040160405180910390fd5b60006109348361122d565b61026054909350909150610952906001600160a01b0316338361137e565b50919050565b6109606113e6565b61096861103d565b61098557604051630728f52160e21b815260040160405180910390fd5b61098d61143f565b610997600160c955565b565b6001600160a01b037f00000000000000000000000000000000000000000000000000000000000000001630036109ea5760405162461bcd60e51b81526004016109e190613f83565b60405180910390fd5b7f00000000000000000000000000000000000000000000000000000000000000006001600160a01b0316610a336000805160206144e4833981519152546001600160a01b031690565b6001600160a01b031614610a595760405162461bcd60e51b81526004016109e190613fcf565b610a6281611484565b60408051600080825260208201909252610a7e9183919061148c565b50565b610a896111d2565b6102628190556040518181527f76a2e56642491d2ca27c5ad2ac9a12dc4264911b4ddcc90fc0b2c44fb2a01fea90602001610898565b61029a54604051633af9e66960e01b81523060048201526000916001600160a01b031690633af9e669906024016020604051808303816000875af1158015610b0b573d6000803e3d6000fd5b505050506040513d601f19601f82011682018060405250810190610b2f919061401b565b905090565b6001600160a01b037f0000000000000000000000000000000000000000000000000000000000000000163003610b7c5760405162461bcd60e51b81526004016109e190613f83565b7f00000000000000000000000000000000000000000000000000000000000000006001600160a01b0316610bc56000805160206144e4833981519152546001600160a01b031690565b6001600160a01b031614610beb5760405162461bcd60e51b81526004016109e190613fcf565b610bf482611484565b610c008282600161148c565b5050565b6000306001600160a01b037f00000000000000000000000000000000000000000000000000000000000000001614610ca45760405162461bcd60e51b815260206004820152603860248201527f555550535570677261646561626c653a206d757374206e6f742062652063616c60448201527f6c6564207468726f7567682064656c656761746563616c6c000000000000000060648201526084016109e1565b506000805160206144e483398151915290565b610cbf6113e6565b61012f546001600160a01b03163314610d0e5760405162461bcd60e51b81526020600482015260116024820152704f707352656164793a206f6e6c794f707360781b60448201526064016109e1565b6101635460ff1615610d33576040516301b5ad6760e01b815260040160405180910390fd5b610d3b61143f565b61098d6115f7565b610d4b6111d2565b6101fa8054821515600160a01b0260ff60a01b199091161790556040517f3723564e400cf869a1ec2a588cf7f8c3e1d7564a7e00d6ef949b251b90c93f699061089890831515815260200190565b610da16111d2565b6109976000611683565b610db36111d2565b61029955565b610dc16111d2565b6102638190556040518181527fd94596337df4c2f0f44d30a7fc5db1c7bb60d9aca4185ed77c6fd96eb45ec29890602001610898565b600060fb5442610b2f919061404a565b61029a546040516361bfb47160e11b8152306004820152600091829182916001600160a01b03169063c37f68e290602401608060405180830381865afa158015610e55573d6000803e3d6000fd5b505050506040513d601f19601f82011682018060405250810190610e79919061405d565b935050925050670de0b6b3a76400008183610e949190614093565b610e9e91906140aa565b9250505090565b600054610100900460ff1615808015610ec55750600054600160ff909116105b80610edf5750303b158015610edf575060005460ff166001145b610f425760405162461bcd60e51b815260206004820152602e60248201527f496e697469616c697a61626c653a20636f6e747261637420697320616c72656160448201526d191e481a5b9a5d1a585b1a5e995960921b60648201526084016109e1565b6000805460ff191660011790558015610f65576000805461ff0019166101001790555b610f6d6116d6565b610f7d8887858589896000611705565b610f868761175c565b8015610fcc576000805461ff0019169055604051600181527f7f26b83ff96e1f2b6a682f133852f6798a09c465da95921460cefb38474024989060200160405180910390a15b5050505050505050565b60006060610fe261103d565b6101635490925060ff16610ffd576329e184ef60e11b611006565b630c8ba7c160e21b5b6040805160048152602481019091526020810180516001600160e01b03166001600160e01b03199093169290921790915291929050565b600061104a60fc5461196d565b8015610b2f5750610b2f61197f565b6000611063611b4d565b61106b610e07565b610260546040516370a0823160e01b81523060048201526001600160a01b03909116906370a0823190602401602060405180830381865afa1580156110b4573d6000803e3d6000fd5b505050506040513d601f19601f820116820180604052508101906110d8919061401b565b6110e291906140cc565b610b2f91906140cc565b6110f46111d2565b6001600160a01b0381166111595760405162461bcd60e51b815260206004820152602660248201527f4f776e61626c653a206e6577206f776e657220697320746865207a65726f206160448201526564647265737360d01b60648201526084016109e1565b610a7e81611683565b61116a6111d2565b611172611c6b565b61025f5460405163177329a960e31b81523060048201526001600160a01b039091169063bb994d4890602401600060405180830381600087803b1580156111b857600080fd5b505af11580156111cc573d6000803e3d6000fd5b50505050565b610196546001600160a01b031633146109975760405162461bcd60e51b815260206004820181905260248201527f4f776e61626c653a2063616c6c6572206973206e6f7420746865206f776e657260448201526064016109e1565b610260546040516370a0823160e01b8152306004820152600091829182916001600160a01b0316906370a0823190602401602060405180830381865afa15801561127b573d6000803e3d6000fd5b505050506040513d601f19601f8201168201806040525081019061129f919061401b565b9050838110156113745760006112b3610abf565b905060006112c18287611cc6565b61029a5460405163852a12e360e01b8152600481018390529192506000916001600160a01b039091169063852a12e3906024016020604051808303816000875af1158015611313573d6000803e3d6000fd5b505050506040513d601f19601f82011682018060405250810190611337919061401b565b9050801561135b576040516305ee2ff160e11b8152600481018290526024016109e1565b819550858761136a919061404a565b9450505050611378565b8392505b50915091565b6040516001600160a01b0383166024820152604481018290526113e190849063a9059cbb60e01b906064015b60408051601f198184030181529190526020810180516001600160e01b03166001600160e01b031990931692909217909152611ce0565b505050565b600260c954036114385760405162461bcd60e51b815260206004820152601f60248201527f5265656e7472616e637947756172643a207265656e7472616e742063616c6c0060448201526064016109e1565b600260c955565b6114484260fb55565b611450611db2565b60405133907f8065c96ce68645eb5e1342fb74a5b4646b6712a1bb6a5e86280c1526eca8d25690600090a2565b600160c955565b610a7e6111d2565b7f4910fdfa16fed3260ed0e7147f7cc6da11a60208b5b9406d12a635614ffd91435460ff16156114bf576113e18361219e565b826001600160a01b03166352d1902d6040518163ffffffff1660e01b8152600401602060405180830381865afa925050508015611519575060408051601f3d908101601f191682019092526115169181019061401b565b60015b61157c5760405162461bcd60e51b815260206004820152602e60248201527f45524331393637557067726164653a206e657720696d706c656d656e7461746960448201526d6f6e206973206e6f74205555505360901b60648201526084016109e1565b6000805160206144e483398151915281146115eb5760405162461bcd60e51b815260206004820152602960248201527f45524331393637557067726164653a20756e737570706f727465642070726f786044820152681a58589b195555525160ba1b60648201526084016109e1565b506113e183838361223a565b61012f5460408051635c08631b60e11b8152815160009384936001600160a01b039091169263b810c63692600480830193928290030181865afa158015611642573d6000803e3d6000fd5b505050506040513d601f19601f8201168201806040525081019061166691906140df565b610130549193509150610c00906001600160a01b0316828461225f565b61019680546001600160a01b038381166001600160a01b0319831681179093556040519116919082907f8be0079c531659141344cd1fd0a4f28419497f9722a3daafe3b4186f6b6457e090600090a35050565b600054610100900460ff166116fd5760405162461bcd60e51b81526004016109e19061410f565b610997612299565b600054610100900460ff1661172c5760405162461bcd60e51b81526004016109e19061410f565b611735816122c0565b61173d6122f8565b611748868686612327565b611753878484612369565b50505050505050565b600054610100900460ff166117835760405162461bcd60e51b81526004016109e19061410f565b61029a80546001600160a01b0383166001600160a01b0319918216811790925561029b805482167310ed43c718714eb63d5aa57b78b54704e256024e17905561029c8054909116735cb93c0ade6b7f2760ec4389833b0cccb5e4efda1790556040805163313ce56760e01b8152905163313ce5679160048082019260209290919082900301816000875af115801561181f573d6000803e3d6000fd5b505050506040513d601f19601f82011682018060405250810190611843919061415a565b60ff166008141580611859575061026654601214155b1561187757604051636a78e98160e11b815260040160405180910390fd5b6102605461029a5460408051636f307dc360e01b815290516001600160a01b039384169390921691636f307dc39160048082019260209290919082900301816000875af11580156118cc573d6000803e3d6000fd5b505050506040513d601f19601f820116820180604052508101906118f0919061417d565b6001600160a01b0316146119175760405163bd3cf18d60e01b815260040160405180910390fd5b67016345785d8a00006102995561195673603c7f932ed1fc6575303d8fb018fdcbb0f39a957310ed43c718714eb63d5aa57b78b54704e256024e6125ea565b61026054610a7e906001600160a01b0316826125ea565b600081611978610df7565b1192915050565b61025f54604080516312a307ed60e21b815290516000926001600160a01b031691634a8c1fb49160048083019260209291908290030181865afa1580156119ca573d6000803e3d6000fd5b505050506040513d601f19601f820116820180604052508101906119ee919061419a565b6119f85750600090565b61025f54604080516306f94a0d60e01b815290516000926001600160a01b0316916306f94a0d9160048083019260209291908290030181865afa158015611a43573d6000803e3d6000fd5b505050506040513d601f19601f82011682018060405250810190611a67919061401b565b905061026154811115611a7c57600191505090565b6000611a86611059565b9050600061025f60009054906101000a90046001600160a01b03166001600160a01b031663759076e56040518163ffffffff1660e01b8152600401602060405180830381865afa158015611ade573d6000803e3d6000fd5b505050506040513d601f19601f82011682018060405250810190611b02919061401b565b9050806102615483611b1491906140cc565b1015611b24576001935050505090565b600081831115611b3b57611b38828461404a565b90505b611b4481612600565b94505050505090565b600080611b586126c1565b611b6061277a565b611b6a91906140cc565b905080600003611b7c57600091505090565b61029b54610260546000916001600160a01b039081169163d06ca61f918591611bbb9173603c7f932ed1fc6575303d8fb018fdcbb0f39a9591166127cc565b6040518363ffffffff1660e01b8152600401611bd89291906141fb565b600060405180830381865afa158015611bf5573d6000803e3d6000fd5b505050506040513d6000823e601f3d908101601f19168201604052611c1d9190810190614214565b905060008160018351611c30919061404a565b81518110611c4057611c406142ba565b602002602001015190506064605a82611c599190614093565b611c6391906140aa565b935050505090565b611c73612966565b61022d805460ff191660011790557f62e78cea01bee320cd4e420270b5ea74000d11b0c9f74754ebdbfc544b05a258611ca93390565b6040516001600160a01b03909116815260200160405180910390a1565b6000818310611cd55781611cd7565b825b90505b92915050565b6000611d35826040518060400160405280602081526020017f5361666545524332303a206c6f772d6c6576656c2063616c6c206661696c6564815250856001600160a01b03166129ad9092919063ffffffff16565b8051909150156113e15780806020019051810190611d53919061419a565b6113e15760405162461bcd60e51b815260206004820152602a60248201527f5361666545524332303a204552433230206f7065726174696f6e20646964206e6044820152691bdd081cdd58d8d9595960b21b60648201526084016109e1565b60008060008061025f60009054906101000a90046001600160a01b03166001600160a01b03166306f94a0d6040518163ffffffff1660e01b8152600401602060405180830381865afa158015611e0c573d6000803e3d6000fd5b505050506040513d601f19601f82011682018060405250810190611e30919061401b565b9050611e3f61022d5460ff1690565b15611e5957611e4d816129c6565b91955093509150611e6a565b611e6281612a17565b919550935091505b8315611edb5761025f5460405163dd723c1b60e01b815260048101869052602481018490526001600160a01b039091169063dd723c1b90604401600060405180830381600087803b158015611ebe57600080fd5b505af1158015611ed2573d6000803e3d6000fd5b50505050611f42565b61025f546040516339d97c5360e01b815260048101859052602481018490526001600160a01b03909116906339d97c5390604401600060405180830381600087803b158015611f2957600080fd5b505af1158015611f3d573d6000803e3d6000fd5b505050505b61025f60009054906101000a90046001600160a01b03166001600160a01b03166306f94a0d6040518163ffffffff1660e01b8152600401602060405180830381865afa158015611f96573d6000803e3d6000fd5b505050506040513d601f19601f82011682018060405250810190611fba919061401b565b905061025f60009054906101000a90046001600160a01b03166001600160a01b0316630baabd7a6040518163ffffffff1660e01b8152600401602060405180830381865afa158015612010573d6000803e3d6000fd5b505050506040513d601f19601f82011682018060405250810190612034919061401b565b15806120b3575061025f60009054906101000a90046001600160a01b03166001600160a01b0316635c975abb6040518163ffffffff1660e01b8152600401602060405180830381865afa15801561208f573d6000803e3d6000fd5b505050506040513d601f19601f820116820180604052508101906120b3919061419a565b6120bd57806120c5565b6120c5611059565b90506120d081612caa565b61025f546040805163759076e560e01b815290516000926001600160a01b03169163759076e59160048083019260209291908290030181865afa15801561211b573d6000803e3d6000fd5b505050506040513d601f19601f8201168201806040525081019061213f919061401b565b905061214f308686868686612e60565b6040805186815260208101869052908101849052606081018390527f4c0f499ffe6befa0ca7c826b0916cf87bea98de658013e76938489368d60d5099060800160405180910390a15050505050565b6001600160a01b0381163b61220b5760405162461bcd60e51b815260206004820152602d60248201527f455243313936373a206e657720696d706c656d656e746174696f6e206973206e60448201526c1bdd08184818dbdb9d1c9858dd609a1b60648201526084016109e1565b6000805160206144e483398151915280546001600160a01b0319166001600160a01b0392909216919091179055565b61224383612f4e565b6000825111806122505750805b156113e1576111cc8383612f8e565b73eeeeeeeeeeeeeeeeeeeeeeeeeeeeeeeeeeeeeeed196001600160a01b0383160161228e576113e18382613082565b6113e182848361137e565b600054610100900460ff166109975760405162461bcd60e51b81526004016109e19061410f565b600054610100900460ff166122e75760405162461bcd60e51b81526004016109e19061410f565b6122ef61311e565b610a7e8161314d565b600054610100900460ff1661231f5760405162461bcd60e51b81526004016109e19061410f565b610997613187565b600054610100900460ff1661234e5760405162461bcd60e51b81526004016109e19061410f565b612357836131bb565b61236082613284565b6113e1816132c4565b600054610100900460ff166123905760405162461bcd60e51b81526004016109e19061410f565b61025f80546001600160a01b0319166001600160a01b038516908117909155604080516338d52e0f60e01b815290516338d52e0f916004808201926020929091908290030181865afa1580156123ea573d6000803e3d6000fd5b505050506040513d601f19601f8201168201806040525081019061240e919061417d565b61026080546001600160a01b03199081166001600160a01b039384161790915560006102618190556102625560646102635561026480548216858416179055610265805490911691831691821790556040805163313ce56760e01b8152905163313ce567916004808201926020929091908290030181865afa158015612498573d6000803e3d6000fd5b505050506040513d601f19601f820116820180604052508101906124bc919061415a565b60ff1661026460009054906101000a90046001600160a01b03166001600160a01b031663313ce5676040518163ffffffff1660e01b8152600401602060405180830381865afa158015612513573d6000803e3d6000fd5b505050506040513d601f19601f82011682018060405250810190612537919061415a565b60ff1614612558576040516362655f5160e01b815260040160405180910390fd5b61026060009054906101000a90046001600160a01b03166001600160a01b031663313ce5676040518163ffffffff1660e01b8152600401602060405180830381865afa1580156125ac573d6000803e3d6000fd5b505050506040513d601f19601f820116820180604052508101906125d0919061415a565b60ff1661026655610260546113e1906001600160a01b0316845b610c006001600160a01b038316826000196132ff565b60008061025f60009054906101000a90046001600160a01b03166001600160a01b03166307cc692f6040518163ffffffff1660e01b8152600401602060405180830381865afa158015612657573d6000803e3d6000fd5b505050506040513d601f19601f8201168201806040525081019061267b919061401b565b905060006102625461268b613414565b6126959190614093565b90506126a96126a485846140cc565b613430565b81610263546126b89190614093565b10949350505050565b6000806126cc613450565b9050806000036126de57600091505090565b6000600361025f60009054906101000a90046001600160a01b03166001600160a01b031663c3535b526040518163ffffffff1660e01b8152600401602060405180830381865afa158015612736573d6000803e3d6000fd5b505050506040513d601f19601f8201168201806040525081019061275a919061401b565b612764904261404a565b61276e91906140aa565b9050610e9e8282614093565b6040516370a0823160e01b815230600482015260009073603c7f932ed1fc6575303d8fb018fdcbb0f39a95906370a0823190602401602060405180830381865afa158015610b0b573d6000803e3d6000fd5b606060006001600160a01b03841673bb4cdb9cbd36b01bd1cbaebf2de08d9173bc095c148061281757506001600160a01b03831673bb4cdb9cbd36b01bd1cbaebf2de08d9173bc095c145b905080612825576003612828565b60025b60ff1667ffffffffffffffff81111561284357612843613d08565b60405190808252806020026020018201604052801561286c578160200160208202803683370190505b5091508382600081518110612883576128836142ba565b60200260200101906001600160a01b031690816001600160a01b03168152505080156128e25782826001815181106128bd576128bd6142ba565b60200260200101906001600160a01b031690816001600160a01b03168152505061295f565b73bb4cdb9cbd36b01bd1cbaebf2de08d9173bc095c8260018151811061290a5761290a6142ba565b60200260200101906001600160a01b031690816001600160a01b031681525050828260028151811061293e5761293e6142ba565b60200260200101906001600160a01b031690816001600160a01b0316815250505b5092915050565b61022d5460ff16156109975760405162461bcd60e51b815260206004820152601060248201526f14185d5cd8589b194e881c185d5cd95960821b60448201526064016109e1565b60606129bc8484600085613611565b90505b9392505050565b6000806000806129d46136ee565b9050848110156129ef576129e8818661404a565b9250612a04565b84811115612a0457612a01858261404a565b93505b612a0e838661404a565b93959294505050565b61029a546040516370a0823160e01b8152306004820152600091829182916001600160a01b0316906370a0823190602401602060405180830381865afa158015612a65573d6000803e3d6000fd5b505050506040513d601f19601f82011682018060405250810190612a89919061401b565b600003612b0c57610260546040516370a0823160e01b8152306004820152612b05916001600160a01b0316906370a0823190602401602060405180830381865afa158015612adb573d6000803e3d6000fd5b505050506040513d601f19601f82011682018060405250810190612aff919061401b565b85611cc6565b9050612ca3565b6000612b16610abf565b9050612b20613793565b612b2861384a565b610260546040516370a0823160e01b81523060048201526000916001600160a01b0316906370a0823190602401602060405180830381865afa158015612b72573d6000803e3d6000fd5b505050506040513d601f19601f82011682018060405250810190612b96919061401b565b90506000612ba482846140cc565b9050600061025f60009054906101000a90046001600160a01b03166001600160a01b031663759076e56040518163ffffffff1660e01b8152600401602060405180830381865afa158015612bfc573d6000803e3d6000fd5b505050506040513d601f19601f82011682018060405250810190612c20919061401b565b905080821115612c8557612c34818361404a565b965086831015612c5b57612c488389611cc6565b9450612c54858461404a565b9650612c9e565b612c6588886140cc565b831115612c7457879450612c9e565b612c7e878461404a565b9450612c9e565b612c8f828261404a565b9550612c9b8389611cc6565b94505b505050505b9193909250565b61022d5460ff1615612cb95750565b610260546040516370a0823160e01b81523060048201526000916001600160a01b0316906370a0823190602401602060405180830381865afa158015612d03573d6000803e3d6000fd5b505050506040513d601f19601f82011682018060405250810190612d27919061401b565b905081811015612db75761029a546040516370a0823160e01b81523060048201526001916001600160a01b0316906370a0823190602401602060405180830381865afa158015612d7b573d6000803e3d6000fd5b505050506040513d601f19601f82011682018060405250810190612d9f919061401b565b1115610c00576111cc612db2828461404a565b61122d565b6000612dc3838361404a565b905080156113e15761029a5460405163140e25ad60e31b8152600481018390526000916001600160a01b03169063a0712d68906024016020604051808303816000875af1158015612e18573d6000803e3d6000fd5b505050506040513d601f19601f82011682018060405250810190612e3c919061401b565b905080156111cc57604051638c32d69360e01b8152600481018290526024016109e1565b6101fa546001600160a01b031615612f46576101fa54600160a01b900460ff16612e9357612e8e6001610d43565b612f46565b6101fa546040516301afebc160e21b81526001600160a01b0388811660048301526024820188905260448201879052606482018690526084820185905260a4820184905260009216906306bfaf049060c401602060405180830381865afa158015612f02573d6000803e3d6000fd5b505050506040513d601f19601f82011682018060405250810190612f26919061419a565b9050806117535760405163c196dcf360e01b815260040160405180910390fd5b505050505050565b612f578161219e565b6040516001600160a01b038216907fbc7cd75a20ee27fd9adebab32041f755214dbc6bffa90cc0225b39da2e5c2d3b90600090a250565b60606001600160a01b0383163b612ff65760405162461bcd60e51b815260206004820152602660248201527f416464726573733a2064656c65676174652063616c6c20746f206e6f6e2d636f6044820152651b9d1c9858dd60d21b60648201526084016109e1565b600080846001600160a01b03168460405161301191906142d0565b600060405180830381855af49150503d806000811461304c576040519150601f19603f3d011682016040523d82523d6000602084013e613051565b606091505b5091509150613079828260405180606001604052806027815260200161450460279139613978565b95945050505050565b6000826001600160a01b03168260405160006040518083038185875af1925050503d80600081146130cf576040519150601f19603f3d011682016040523d82523d6000602084013e6130d4565b606091505b50509050806113e15760405162461bcd60e51b815260206004820152601660248201527513985d1a5d99481d1c985b9cd9995c8819985a5b195960521b60448201526064016109e1565b600054610100900460ff166131455760405162461bcd60e51b81526004016109e19061410f565b610997613991565b600054610100900460ff166131745760405162461bcd60e51b81526004016109e19061410f565b61317d816108a3565b610a7e6001610d43565b600054610100900460ff166131ae5760405162461bcd60e51b81526004016109e19061410f565b61022d805460ff19169055565b600054610100900460ff166131e25760405162461bcd60e51b81526004016109e19061410f565b61012f80546001600160a01b0319166001600160a01b0383169081179091556040805163573ea57560e01b8152905163573ea575916004808201926020929091908290030181865afa15801561323c573d6000803e3d6000fd5b505050506040513d601f19601f82011682018060405250810190613260919061417d565b61013080546001600160a01b0319166001600160a01b039290921691909117905550565b600054610100900460ff166132ab5760405162461bcd60e51b81526004016109e19061410f565b6132b3612299565b6132bb6139c1565b610a7e816139f0565b600054610100900460ff166132eb5760405162461bcd60e51b81526004016109e19061410f565b610163805460ff1916911515919091179055565b8015806133795750604051636eb1769f60e11b81523060048201526001600160a01b03838116602483015284169063dd62ed3e90604401602060405180830381865afa158015613353573d6000803e3d6000fd5b505050506040513d601f19601f82011682018060405250810190613377919061401b565b155b6133e45760405162461bcd60e51b815260206004820152603660248201527f5361666545524332303a20617070726f76652066726f6d206e6f6e2d7a65726f60448201527520746f206e6f6e2d7a65726f20616c6c6f77616e636560501b60648201526084016109e1565b6040516001600160a01b0383166024820152604481018290526113e190849063095ea7b360e01b906064016113aa565b61026454600090610b2f906001600160a01b03163a6012613a20565b6102665461026554600091611cda916001600160a01b0316908490613a20565b60008061345b610e07565b90508060000361346d57600091505090565b61029c5461029a54604051636aa875b560e01b81526001600160a01b0391821660048201526000929190911690636aa875b590602401602060405180830381865afa1580156134c0573d6000803e3d6000fd5b505050506040513d601f19601f820116820180604052508101906134e4919061401b565b90506000670de0b6b3a764000061029a60009054906101000a90046001600160a01b03166001600160a01b031663182df0f56040518163ffffffff1660e01b8152600401602060405180830381865afa158015613545573d6000803e3d6000fd5b505050506040513d601f19601f82011682018060405250810190613569919061401b565b61029a60009054906101000a90046001600160a01b03166001600160a01b03166318160ddd6040518163ffffffff1660e01b8152600401602060405180830381865afa1580156135bd573d6000803e3d6000fd5b505050506040513d601f19601f820116820180604052508101906135e1919061401b565b6135eb9190614093565b6135f591906140aa565b905060008111613606576000611c63565b80611c598385614093565b6060824710156136725760405162461bcd60e51b815260206004820152602660248201527f416464726573733a20696e73756666696369656e742062616c616e636520666f6044820152651c8818d85b1b60d21b60648201526084016109e1565b600080866001600160a01b0316858760405161368e91906142d0565b60006040518083038185875af1925050503d80600081146136cb576040519150601f19603f3d011682016040523d82523d6000602084013e6136d0565b606091505b50915091506136e187838387613b44565b925050505b949350505050565b6000806136f9610abf565b61029a5460405163852a12e360e01b8152600481018390529192506000916001600160a01b039091169063852a12e3906024016020604051808303816000875af115801561374b573d6000803e3d6000fd5b505050506040513d601f19601f8201168201806040525081019061376f919061401b565b90508015610952576040516305ee2ff160e11b8152600481018290526024016109e1565b60408051600180825281830190925260009160208083019080368337505061029a5482519293506001600160a01b0316918391506000906137d6576137d66142ba565b6001600160a01b03928316602091820292909201015261029c5460405162e1ed9760e51b8152911690631c3db2e09061381590309085906004016142ec565b600060405180830381600087803b15801561382f57600080fd5b505af1158015613843573d6000803e3d6000fd5b5050505050565b6040516370a0823160e01b815230600482015260009073603c7f932ed1fc6575303d8fb018fdcbb0f39a95906370a0823190602401602060405180830381865afa15801561389c573d6000803e3d6000fd5b505050506040513d601f19601f820116820180604052508101906138c0919061401b565b9050610299548110156138d05750565b61029b54610260546001600160a01b03918216916338ed173991849160009161390f9173603c7f932ed1fc6575303d8fb018fdcbb0f39a9591166127cc565b30426040518663ffffffff1660e01b8152600401613931959493929190614348565b6000604051808303816000875af1158015613950573d6000803e3d6000fd5b505050506040513d6000823e601f3d908101601f19168201604052610c009190810190614214565b606083156139875750816129bf565b6129bf8383613bb9565b600054610100900460ff166139b85760405162461bcd60e51b81526004016109e19061410f565b61099733611683565b600054610100900460ff166139e85760405162461bcd60e51b81526004016109e19061410f565b610997613be3565b600054610100900460ff16613a175760405162461bcd60e51b81526004016109e19061410f565b610a7e81613c0a565b600080846001600160a01b031663feaf968c6040518163ffffffff1660e01b815260040160a060405180830381865afa158015613a61573d6000803e3d6000fd5b505050506040513d601f19601f82011682018060405250810190613a8591906143a3565b5050509150506000856001600160a01b031663313ce5676040518163ffffffff1660e01b8152600401602060405180830381865afa158015613acb573d6000803e3d6000fd5b505050506040513d601f19601f82011682018060405250810190613aef919061415a565b60ff1690506000613b01601283613c34565b9150613b10905085600a6144d7565b613b1b82600a6144d7565b613b258589614093565b613b2f9190614093565b613b3991906140aa565b979650505050505050565b60608315613bb3578251600003613bac576001600160a01b0385163b613bac5760405162461bcd60e51b815260206004820152601d60248201527f416464726573733a2063616c6c20746f206e6f6e2d636f6e747261637400000060448201526064016109e1565b50816136e6565b6136e683835b815115613bc95781518083602001fd5b8060405162461bcd60e51b81526004016109e19190613caa565b600054610100900460ff1661147d5760405162461bcd60e51b81526004016109e19061410f565b6103e88111613c2f5760405163034b4ee160e01b8152600481018290526024016109e1565b60fc55565b60008083831115613c4a57506000905080613c53565b50600190508183035b9250929050565b60005b83811015613c75578181015183820152602001613c5d565b50506000910152565b60008151808452613c96816020860160208601613c5a565b601f01601f19169290920160200192915050565b602081526000611cd76020830184613c7e565b600060208284031215613ccf57600080fd5b5035919050565b6001600160a01b0381168114610a7e57600080fd5b600060208284031215613cfd57600080fd5b81356129bf81613cd6565b634e487b7160e01b600052604160045260246000fd5b604051601f8201601f1916810167ffffffffffffffff81118282101715613d4757613d47613d08565b604052919050565b600067ffffffffffffffff821115613d6957613d69613d08565b50601f01601f191660200190565b60008060408385031215613d8a57600080fd5b8235613d9581613cd6565b9150602083013567ffffffffffffffff811115613db157600080fd5b8301601f81018513613dc257600080fd5b8035613dd5613dd082613d4f565b613d1e565b818152866020838501011115613dea57600080fd5b816020840160208301376000602083830101528093505050509250929050565b8015158114610a7e57600080fd5b600060208284031215613e2a57600080fd5b81356129bf81613e0a565b600080600080600080600060e0888a031215613e5057600080fd5b8735613e5b81613cd6565b96506020880135613e6b81613cd6565b95506040880135613e7b81613cd6565b94506060880135613e8b81613cd6565b93506080880135613e9b81613cd6565b925060a0880135915060c0880135613eb281613e0a565b8091505092959891949750929550565b82151581526040602082015260006129bc6040830184613c7e565b600060208284031215613eef57600080fd5b815167ffffffffffffffff811115613f0657600080fd5b8201601f81018413613f1757600080fd5b8051613f25613dd082613d4f565b818152856020838501011115613f3a57600080fd5b613079826020830160208601613c5a565b60008251613f5d818460208701613c5a565b73204170654c656e64696e6720537472617465677960601b920191825250601401919050565b6020808252602c908201527f46756e6374696f6e206d7573742062652063616c6c6564207468726f7567682060408201526b19195b1959d85d1958d85b1b60a21b606082015260800190565b6020808252602c908201527f46756e6374696f6e206d7573742062652063616c6c6564207468726f7567682060408201526b6163746976652070726f787960a01b606082015260800190565b60006020828403121561402d57600080fd5b5051919050565b634e487b7160e01b600052601160045260246000fd5b81810381811115611cda57611cda614034565b6000806000806080858703121561407357600080fd5b505082516020840151604085015160609095015191969095509092509050565b8082028115828204841417611cda57611cda614034565b6000826140c757634e487b7160e01b600052601260045260246000fd5b500490565b80820180821115611cda57611cda614034565b600080604083850312156140f257600080fd5b82519150602083015161410481613cd6565b809150509250929050565b6020808252602b908201527f496e697469616c697a61626c653a20636f6e7472616374206973206e6f74206960408201526a6e697469616c697a696e6760a81b606082015260800190565b60006020828403121561416c57600080fd5b815160ff811681146129bf57600080fd5b60006020828403121561418f57600080fd5b81516129bf81613cd6565b6000602082840312156141ac57600080fd5b81516129bf81613e0a565b600081518084526020808501945080840160005b838110156141f05781516001600160a01b0316875295820195908201906001016141cb565b509495945050505050565b8281526040602082015260006129bc60408301846141b7565b6000602080838503121561422757600080fd5b825167ffffffffffffffff8082111561423f57600080fd5b818501915085601f83011261425357600080fd5b81518181111561426557614265613d08565b8060051b9150614276848301613d1e565b818152918301840191848101908884111561429057600080fd5b938501935b838510156142ae57845182529385019390850190614295565b98975050505050505050565b634e487b7160e01b600052603260045260246000fd5b600082516142e2818460208701613c5a565b9190910192915050565b6001600160a01b038381168252604060208084018290528451918401829052600092858201929091906060860190855b8181101561433a57855185168352948301949183019160010161431c565b509098975050505050505050565b85815284602082015260a06040820152600061436760a08301866141b7565b6001600160a01b0394909416606083015250608001529392505050565b805169ffffffffffffffffffff8116811461439e57600080fd5b919050565b600080600080600060a086880312156143bb57600080fd5b6143c486614384565b94506020860151935060408601519250606086015191506143e760808701614384565b90509295509295909350565b600181815b8085111561442e57816000190482111561441457614414614034565b8085161561442157918102915b93841c93908002906143f8565b509250929050565b60008261444557506001611cda565b8161445257506000611cda565b816001811461446857600281146144725761448e565b6001915050611cda565b60ff84111561448357614483614034565b50506001821b611cda565b5060208310610133831016604e8410600b84101617156144b1575081810a611cda565b6144bb83836143f3565b80600019048211156144cf576144cf614034565b029392505050565b6000611cd7838361443656fe360894a13ba1a3210667c828492db98dca3e2076cc3735a920a3ca505d382bbc416464726573733a206c6f772d6c6576656c2064656c65676174652063616c6c206661696c6564a2646970667358221220a6d1cf6fe7df76d8ecf28ef5e6d237329f1c89034216b74cd4ce054c8086846f64736f6c63430008130033",
  "devdoc": {
    "events": {
      "AdminChanged(address,address)": {
        "details": "Emitted when the admin account has changed."
      },
      "BeaconUpgraded(address)": {
        "details": "Emitted when the beacon is upgraded."
      },
      "Initialized(uint8)": {
        "details": "Triggered when the contract has been initialized or reinitialized."
      },
      "Paused(address)": {
        "details": "Emitted when the pause is triggered by `account`."
      },
      "Unpaused(address)": {
        "details": "Emitted when the pause is lifted by `account`."
      },
      "Upgraded(address)": {
        "details": "Emitted when the implementation is upgraded."
      }
    },
    "kind": "dev",
    "methods": {
      "canWork()": {
        "details": "Will be executed by keeper and before `work` method execution."
      },
      "constructor": {
        "custom:oz-upgrades-unsafe-allow": "constructor"
      },
      "depositedBalance()": {
        "details": "Unlike the snapshot function, this function recalculates the value of the deposit."
      },
      "depositedBalanceSnapshot()": {
        "details": "The exchange rate is recalculated at the last time someone touched the cToken contract.      Transactions are not performed too often on this contract, perhaps we should consider recalculating the rate ourselves."
      },
      "owner()": {
        "details": "Returns the address of the current owner."
      },
      "paused()": {
        "details": "Returns true if the contract is paused, and false otherwise."
      },
      "proxiableUUID()": {
        "details": "Implementation of the ERC1822 {proxiableUUID} function. This returns the storage slot used by the implementation. It is used to validate the implementation's compatibility when performing an upgrade. IMPORTANT: A proxy pointing at a proxiable contract should not be considered proxiable itself, because this risks bricking a proxy that upgrades to it, by delegating to itself until out of gas. Thus it is critical that this function revert if invoked through a proxy. This is guaranteed by the `notDelegated` modifier."
      },
      "renounceOwnership()": {
        "details": "Leaves the contract without owner. It will not be possible to call `onlyOwner` functions anymore. Can only be called by the current owner. NOTE: Renouncing ownership will leave the contract without an owner, thereby removing any functionality that is only available to the owner."
      },
      "setDebtThreshold(uint256)": {
        "params": {
          "_debtThreshold": "The new debt threshold value."
        }
      },
      "setEstimatedWorkGas(uint256)": {
        "params": {
          "_estimatedWorkGas": "The estimated \"work\" gas value."
        }
      },
      "setHealthCheck(address)": {
        "details": "Emits the \"HealthCheckChanged\" event.",
        "params": {
          "_healthCheck": "A new health check contract address."
        }
      },
      "setHealthCheckEnabled(bool)": {
        "details": "Emits the \"HealthCheckEnabledChanged\" event. Do not disable the health check, unless you need to perform \"report\" in an emergency.",
        "params": {
          "_healthCheckEnabled": "If \"true\" - health check will be disabled."
        }
      },
      "setProfitFactor(uint256)": {
        "params": {
          "_profitFactor": "The new profit factor value."
        }
      },
      "timeFromLastExecution()": {
        "returns": {
          "_0": "seconds from last execution in a range of 900 seconds"
        }
      },
      "transferOwnership(address)": {
        "details": "Transfers ownership of the contract to a new account (`newOwner`). Can only be called by the current owner."
      },
      "upgradeTo(address)": {
        "details": "Upgrade the implementation of the proxy to `newImplementation`. Calls {_authorizeUpgrade}. Emits an {Upgraded} event."
      },
      "upgradeToAndCall(address,bytes)": {
        "details": "Upgrade the implementation of the proxy to `newImplementation`, and subsequently execute the function call encoded in `data`. Calls {_authorizeUpgrade}. Emits an {Upgraded} event."
      },
      "withdraw(uint256)": {
        "params": {
          "assets": "A amount of tokens to withdraw."
        },
        "returns": {
          "loss": "A number of tokens that the strategy could not return."
        }
      },
      "work()": {
        "details": "`nonReentrant` modifier might be excess there, since we have `isTimePassFromLastExecution` check and `refreshLastWorkTime` at start (see `onlyWhenCanWork` modifier). Let's keep it, as `canWork` can be overridden."
      }
    },
    "stateVariables": {
      "__gap": {
        "details": "This empty reserved space is put in place to allow future versions to add new variables without shifting down storage in the inheritance chain. See https://docs.openzeppelin.com/contracts/4.x/upgradeable#storage_gaps"
      }
    },
    "version": 1
  },
  "userdoc": {
    "errors": {
      "CannotWorkNow()": [
        {
          "notice": "Someone tried to execute work function while `canWork` is `false`"
        }
      ],
      "PayableWorkNotAllowed()": [
        {
          "notice": "Contract expect work will be prepayd, so it cannot pay for work"
        }
      ],
      "TimeMinimumBetweenExecutionsIncorrect(uint256)": [
        {
          "notice": "Given time minimum between execution must be greater then 1000"
        }
      ]
    },
    "events": {
      "Worked(address)": {
        "notice": "Job work function was executed by worker bot"
      }
    },
    "kind": "user",
    "methods": {
      "asset()": {
        "notice": "Returns the contract address of the underlying asset of this strategy."
      },
      "canWork()": {
        "notice": "If work can be executed by keeper at this moment returns true"
      },
      "checker()": {
        "notice": "Resolver checker that says if the work can be performed and with what params."
      },
      "debtThreshold()": {
        "notice": "Use this to adjust the threshold at which running a debt causes a work trigger."
      },
      "depositedBalance()": {
        "notice": "Returns current deposited balance (in asset)."
      },
      "depositedBalanceSnapshot()": {
        "notice": "Returns current deposited balance (in asset)."
      },
      "estimatedTotalAssets()": {
        "notice": "Estimates the total amount of strategy funds (including those invested in the base protocol)."
      },
      "estimatedWorkGas()": {
        "notice": "The estimated amount of gas required for the \"work\" execution."
      },
      "isPrepaid()": {
        "notice": "If job is prepaid, then it not will try to pay on executed work."
      },
      "lastWorkTime()": {
        "notice": "Timestamp of last work execution block in seconds."
      },
      "minBananaToSell()": {
        "notice": "Minimum BANANA token amount to sell."
      },
      "minimumBetweenExecutions()": {
        "notice": "Mininmal time which must pass between executions of the job in seconds. Better set hours, but at least set to greater then 900 seconds, node opperators able to manipulate timestamp in 900 seconds range, on some blockchains maybe bigger."
      },
      "name()": {
        "notice": "Returns the name of this strategy."
      },
      "payableWork()": {
        "notice": "Bot will call this method when `checker` returns `true`. Will pay caller `_doWork` method stay as it is, to allow a call off-chain"
      },
      "profitFactor()": {
        "notice": "Shows how many times the gas price spent for the \"work\" function should be lower than the profit to trigger."
      },
      "setDebtThreshold(uint256)": {
        "notice": "Sets the debt threshold."
      },
      "setEstimatedWorkGas(uint256)": {
        "notice": "Sets the estimated gas that will be required for \"work\" function."
      },
      "setHealthCheck(address)": {
        "notice": "Sets the health check implementation contract."
      },
      "setHealthCheckEnabled(bool)": {
        "notice": "Enables or disables the health check."
      },
      "setMinBananaToSell(uint256)": {
        "notice": "Sets the minimum number of BANANA tokens that must be on the contract to sell."
      },
      "setProfitFactor(uint256)": {
        "notice": "Sets the profit factor."
      },
      "shutdown()": {
        "notice": "Shutdown the strategy and revoke it form the vault."
      },
      "timeFromLastExecution()": {
        "notice": "Time that passed since the last exection"
      },
      "vault()": {
        "notice": "Returns the contract address of the Vault to which this strategy is connected."
      },
      "withdraw(uint256)": {
        "notice": "Transfers a specified amount of tokens to the vault."
      },
      "work()": {
        "notice": "A handle that allows the `_doWork` function to be invoked externally by everyone. Perform a `canWork` check to avoid unnecessary and (maybe) malicious calls."
      }
    },
    "version": 1
  },
  "storageLayout": {
    "storage": [
      {
        "astId": 573,
        "contract": "src/strategies/ApeLendingStrategy.sol:ApeLendingStrategy",
        "label": "_initialized",
        "offset": 0,
        "slot": "0",
        "type": "t_uint8"
      },
      {
        "astId": 576,
        "contract": "src/strategies/ApeLendingStrategy.sol:ApeLendingStrategy",
        "label": "_initializing",
        "offset": 1,
        "slot": "0",
        "type": "t_bool"
      },
      {
        "astId": 555,
        "contract": "src/strategies/ApeLendingStrategy.sol:ApeLendingStrategy",
        "label": "__gap",
        "offset": 0,
        "slot": "1",
        "type": "t_array(t_uint256)50_storage"
      },
      {
        "astId": 870,
        "contract": "src/strategies/ApeLendingStrategy.sol:ApeLendingStrategy",
        "label": "__gap",
        "offset": 0,
        "slot": "51",
        "type": "t_array(t_uint256)50_storage"
      },
      {
        "astId": 12010,
        "contract": "src/strategies/ApeLendingStrategy.sol:ApeLendingStrategy",
        "label": "__gap",
        "offset": 0,
        "slot": "101",
        "type": "t_array(t_uint256)50_storage"
      },
      {
        "astId": 3139,
        "contract": "src/strategies/ApeLendingStrategy.sol:ApeLendingStrategy",
        "label": "__gap",
        "offset": 0,
        "slot": "151",
        "type": "t_array(t_uint256)50_storage"
      },
      {
        "astId": 1012,
        "contract": "src/strategies/ApeLendingStrategy.sol:ApeLendingStrategy",
        "label": "_status",
        "offset": 0,
        "slot": "201",
        "type": "t_uint256"
      },
      {
        "astId": 1070,
        "contract": "src/strategies/ApeLendingStrategy.sol:ApeLendingStrategy",
        "label": "__gap",
        "offset": 0,
        "slot": "202",
        "type": "t_array(t_uint256)49_storage"
      },
      {
        "astId": 7337,
        "contract": "src/strategies/ApeLendingStrategy.sol:ApeLendingStrategy",
        "label": "lastWorkTime",
        "offset": 0,
        "slot": "251",
        "type": "t_uint256"
      },
      {
        "astId": 7340,
        "contract": "src/strategies/ApeLendingStrategy.sol:ApeLendingStrategy",
        "label": "minimumBetweenExecutions",
        "offset": 0,
        "slot": "252",
        "type": "t_uint256"
      },
      {
        "astId": 7345,
        "contract": "src/strategies/ApeLendingStrategy.sol:ApeLendingStrategy",
        "label": "__gap",
        "offset": 0,
        "slot": "253",
        "type": "t_array(t_uint256)50_storage"
      },
      {
        "astId": 7733,
        "contract": "src/strategies/ApeLendingStrategy.sol:ApeLendingStrategy",
        "label": "ops",
        "offset": 0,
        "slot": "303",
        "type": "t_contract(IOps)7705"
      },
      {
        "astId": 7735,
        "contract": "src/strategies/ApeLendingStrategy.sol:ApeLendingStrategy",
        "label": "gelato",
        "offset": 0,
        "slot": "304",
        "type": "t_address_payable"
      },
      {
        "astId": 7747,
        "contract": "src/strategies/ApeLendingStrategy.sol:ApeLendingStrategy",
        "label": "__gap",
        "offset": 0,
        "slot": "305",
        "type": "t_array(t_uint256)50_storage"
      },
      {
        "astId": 7213,
        "contract": "src/strategies/ApeLendingStrategy.sol:ApeLendingStrategy",
        "label": "isPrepaid",
        "offset": 0,
        "slot": "355",
        "type": "t_bool"
      },
      {
        "astId": 7218,
        "contract": "src/strategies/ApeLendingStrategy.sol:ApeLendingStrategy",
        "label": "__gap",
        "offset": 0,
        "slot": "356",
        "type": "t_array(t_uint256)50_storage"
      },
      {
        "astId": 56,
        "contract": "src/strategies/ApeLendingStrategy.sol:ApeLendingStrategy",
        "label": "_owner",
        "offset": 0,
        "slot": "406",
        "type": "t_address"
      },
      {
        "astId": 176,
        "contract": "src/strategies/ApeLendingStrategy.sol:ApeLendingStrategy",
        "label": "__gap",
        "offset": 0,
        "slot": "407",
        "type": "t_array(t_uint256)49_storage"
      },
      {
        "astId": 12044,
        "contract": "src/strategies/ApeLendingStrategy.sol:ApeLendingStrategy",
        "label": "__gap",
        "offset": 0,
        "slot": "456",
        "type": "t_array(t_uint256)50_storage"
      },
      {
        "astId": 7829,
        "contract": "src/strategies/ApeLendingStrategy.sol:ApeLendingStrategy",
        "label": "healthCheck",
        "offset": 0,
        "slot": "506",
        "type": "t_contract(IHealthCheck)7982"
      },
      {
        "astId": 7831,
        "contract": "src/strategies/ApeLendingStrategy.sol:ApeLendingStrategy",
        "label": "healthCheckEnabled",
        "offset": 20,
        "slot": "506",
        "type": "t_bool"
      },
      {
        "astId": 7836,
        "contract": "src/strategies/ApeLendingStrategy.sol:ApeLendingStrategy",
        "label": "__gap",
        "offset": 0,
        "slot": "507",
        "type": "t_array(t_uint256)50_storage"
      },
      {
        "astId": 892,
        "contract": "src/strategies/ApeLendingStrategy.sol:ApeLendingStrategy",
        "label": "_paused",
        "offset": 0,
        "slot": "557",
        "type": "t_bool"
      },
      {
        "astId": 997,
        "contract": "src/strategies/ApeLendingStrategy.sol:ApeLendingStrategy",
        "label": "__gap",
        "offset": 0,
        "slot": "558",
        "type": "t_array(t_uint256)49_storage"
      },
      {
        "astId": 9933,
        "contract": "src/strategies/ApeLendingStrategy.sol:ApeLendingStrategy",
        "label": "vault",
        "offset": 0,
        "slot": "607",
        "type": "t_contract(IVault)6312"
      },
      {
        "astId": 9936,
        "contract": "src/strategies/ApeLendingStrategy.sol:ApeLendingStrategy",
        "label": "asset",
        "offset": 0,
        "slot": "608",
        "type": "t_contract(IERC20Upgradeable)1149"
      },
      {
        "astId": 9939,
        "contract": "src/strategies/ApeLendingStrategy.sol:ApeLendingStrategy",
        "label": "debtThreshold",
        "offset": 0,
        "slot": "609",
        "type": "t_uint256"
      },
      {
        "astId": 9942,
        "contract": "src/strategies/ApeLendingStrategy.sol:ApeLendingStrategy",
        "label": "estimatedWorkGas",
        "offset": 0,
        "slot": "610",
        "type": "t_uint256"
      },
      {
        "astId": 9945,
        "contract": "src/strategies/ApeLendingStrategy.sol:ApeLendingStrategy",
        "label": "profitFactor",
        "offset": 0,
        "slot": "611",
        "type": "t_uint256"
      },
      {
        "astId": 9949,
        "contract": "src/strategies/ApeLendingStrategy.sol:ApeLendingStrategy",
        "label": "_nativeTokenPriceFeed",
        "offset": 0,
        "slot": "612",
        "type": "t_contract(AggregatorV3Interface)45"
      },
      {
        "astId": 9953,
        "contract": "src/strategies/ApeLendingStrategy.sol:ApeLendingStrategy",
        "label": "_assetPriceFeed",
        "offset": 0,
        "slot": "613",
        "type": "t_contract(AggregatorV3Interface)45"
      },
      {
        "astId": 9956,
        "contract": "src/strategies/ApeLendingStrategy.sol:ApeLendingStrategy",
        "label": "_assetDecimals",
        "offset": 0,
        "slot": "614",
        "type": "t_uint256"
      },
      {
        "astId": 9961,
        "contract": "src/strategies/ApeLendingStrategy.sol:ApeLendingStrategy",
        "label": "__gap",
        "offset": 0,
        "slot": "615",
        "type": "t_array(t_uint256)50_storage"
      },
      {
        "astId": 9016,
        "contract": "src/strategies/ApeLendingStrategy.sol:ApeLendingStrategy",
        "label": "minBananaToSell",
        "offset": 0,
        "slot": "665",
        "type": "t_uint256"
      },
      {
        "astId": 9019,
        "contract": "src/strategies/ApeLendingStrategy.sol:ApeLendingStrategy",
        "label": "cToken",
        "offset": 0,
        "slot": "666",
        "type": "t_contract(ICToken)10815"
      },
      {
        "astId": 9022,
        "contract": "src/strategies/ApeLendingStrategy.sol:ApeLendingStrategy",
        "label": "pancakeRouter",
        "offset": 0,
        "slot": "667",
        "type": "t_contract(IPancakeRouter)10847"
      },
      {
        "astId": 9025,
        "contract": "src/strategies/ApeLendingStrategy.sol:ApeLendingStrategy",
        "label": "rainMaker",
        "offset": 0,
        "slot": "668",
        "type": "t_contract(IRainMaker)10919"
      },
      {
        "astId": 9030,
        "contract": "src/strategies/ApeLendingStrategy.sol:ApeLendingStrategy",
        "label": "__gap",
        "offset": 0,
        "slot": "669",
        "type": "t_array(t_uint256)50_storage"
      }
    ],
    "types": {
      "t_address": {
        "encoding": "inplace",
        "label": "address",
        "numberOfBytes": "20"
      },
      "t_address_payable": {
        "encoding": "inplace",
        "label": "address payable",
        "numberOfBytes": "20"
      },
      "t_array(t_uint256)49_storage": {
        "base": "t_uint256",
        "encoding": "inplace",
        "label": "uint256[49]",
        "numberOfBytes": "1568"
      },
      "t_array(t_uint256)50_storage": {
        "base": "t_uint256",
        "encoding": "inplace",
        "label": "uint256[50]",
        "numberOfBytes": "1600"
      },
      "t_bool": {
        "encoding": "inplace",
        "label": "bool",
        "numberOfBytes": "1"
      },
      "t_contract(AggregatorV3Interface)45": {
        "encoding": "inplace",
        "label": "contract AggregatorV3Interface",
        "numberOfBytes": "20"
      },
      "t_contract(ICToken)10815": {
        "encoding": "inplace",
        "label": "contract ICToken",
        "numberOfBytes": "20"
      },
      "t_contract(IERC20Upgradeable)1149": {
        "encoding": "inplace",
        "label": "contract IERC20Upgradeable",
        "numberOfBytes": "20"
      },
      "t_contract(IHealthCheck)7982": {
        "encoding": "inplace",
        "label": "contract IHealthCheck",
        "numberOfBytes": "20"
      },
      "t_contract(IOps)7705": {
        "encoding": "inplace",
        "label": "contract IOps",
        "numberOfBytes": "20"
      },
      "t_contract(IPancakeRouter)10847": {
        "encoding": "inplace",
        "label": "contract IPancakeRouter",
        "numberOfBytes": "20"
      },
      "t_contract(IRainMaker)10919": {
        "encoding": "inplace",
        "label": "contract IRainMaker",
        "numberOfBytes": "20"
      },
      "t_contract(IVault)6312": {
        "encoding": "inplace",
        "label": "contract IVault",
        "numberOfBytes": "20"
      },
      "t_uint256": {
        "encoding": "inplace",
        "label": "uint256",
        "numberOfBytes": "32"
      },
      "t_uint8": {
        "encoding": "inplace",
        "label": "uint8",
        "numberOfBytes": "1"
      }
    }
  }
}