{
  "address": "0xd561F3cDD39A6bcE5059A79522d25350b35Ae5B6",
  "abi": [
    {
      "inputs": [
        {
          "internalType": "bool",
          "name": "needDisableInitializers",
          "type": "bool"
        }
      ],
      "stateMutability": "nonpayable",
      "type": "constructor"
    },
    {
      "inputs": [],
      "name": "CallerIsNotALender",
      "type": "error"
    },
    {
      "inputs": [],
      "name": "CannotWorkNow",
      "type": "error"
    },
    {
      "inputs": [],
      "name": "IncompatibleCTokenContract",
      "type": "error"
    },
    {
      "inputs": [],
      "name": "IncompatiblePriceFeeds",
      "type": "error"
    },
    {
      "inputs": [
        {
          "internalType": "uint256",
          "name": "code",
          "type": "uint256"
        }
      ],
      "name": "MintError",
      "type": "error"
    },
    {
      "inputs": [],
      "name": "NegativePrice",
      "type": "error"
    },
    {
      "inputs": [],
      "name": "PayableWorkNotAllowed",
      "type": "error"
    },
    {
      "inputs": [
        {
          "internalType": "uint256",
          "name": "code",
          "type": "uint256"
        }
      ],
      "name": "RedeemError",
      "type": "error"
    },
    {
      "inputs": [
        {
          "internalType": "uint256",
          "name": "_givenTime",
          "type": "uint256"
        }
      ],
      "name": "TimeMinimumBetweenExecutionsIncorrect",
      "type": "error"
    },
    {
      "inputs": [],
      "name": "UnsupportedDecimals",
      "type": "error"
    },
    {
      "anonymous": false,
      "inputs": [
        {
          "indexed": false,
          "internalType": "address",
          "name": "previousAdmin",
          "type": "address"
        },
        {
          "indexed": false,
          "internalType": "address",
          "name": "newAdmin",
          "type": "address"
        }
      ],
      "name": "AdminChanged",
      "type": "event"
    },
    {
      "anonymous": false,
      "inputs": [
        {
          "indexed": true,
          "internalType": "address",
          "name": "beacon",
          "type": "address"
        }
      ],
      "name": "BeaconUpgraded",
      "type": "event"
    },
    {
      "anonymous": false,
      "inputs": [
        {
          "indexed": false,
          "internalType": "uint256",
          "name": "debtThreshold",
          "type": "uint256"
        }
      ],
      "name": "DebtThresholdUpdated",
      "type": "event"
    },
    {
      "anonymous": false,
      "inputs": [
        {
          "indexed": false,
          "internalType": "uint256",
          "name": "amount",
          "type": "uint256"
        },
        {
          "indexed": false,
          "internalType": "uint256",
          "name": "sharesBefore",
          "type": "uint256"
        },
        {
          "indexed": false,
          "internalType": "uint256",
          "name": "underlyingBefore",
          "type": "uint256"
        },
        {
          "indexed": false,
          "internalType": "uint256",
          "name": "sharesAfter",
          "type": "uint256"
        },
        {
          "indexed": false,
          "internalType": "uint256",
          "name": "underlyingAfter",
          "type": "uint256"
        }
      ],
      "name": "DepositedToProtocol",
      "type": "event"
    },
    {
      "anonymous": false,
      "inputs": [
        {
          "indexed": false,
          "internalType": "uint256",
          "name": "estimatedWorkGas",
          "type": "uint256"
        }
      ],
      "name": "EstimatedWorkGasUpdated",
      "type": "event"
    },
    {
      "anonymous": false,
      "inputs": [
        {
          "indexed": false,
          "internalType": "uint256",
          "name": "profit",
          "type": "uint256"
        },
        {
          "indexed": false,
          "internalType": "uint256",
          "name": "loss",
          "type": "uint256"
        },
        {
          "indexed": false,
          "internalType": "uint256",
          "name": "debtPayment",
          "type": "uint256"
        },
        {
          "indexed": false,
          "internalType": "uint256",
          "name": "outstandingDebt",
          "type": "uint256"
        }
      ],
      "name": "Harvested",
      "type": "event"
    },
    {
      "anonymous": false,
      "inputs": [
        {
          "indexed": false,
          "internalType": "address",
          "name": "healthCheck",
          "type": "address"
        }
      ],
      "name": "HealthCheckChanged",
      "type": "event"
    },
    {
      "anonymous": false,
      "inputs": [
        {
          "indexed": false,
          "internalType": "bool",
          "name": "enabled",
          "type": "bool"
        }
      ],
      "name": "HealthCheckEnabledChanged",
      "type": "event"
    },
    {
      "anonymous": false,
      "inputs": [
        {
          "indexed": false,
          "internalType": "uint8",
          "name": "result",
          "type": "uint8"
        }
      ],
      "name": "HealthCheckTriggered",
      "type": "event"
    },
    {
      "anonymous": false,
      "inputs": [
        {
          "indexed": false,
          "internalType": "uint8",
          "name": "version",
          "type": "uint8"
        }
      ],
      "name": "Initialized",
      "type": "event"
    },
    {
      "anonymous": false,
      "inputs": [
        {
          "indexed": true,
          "internalType": "address",
          "name": "previousOwner",
          "type": "address"
        },
        {
          "indexed": true,
          "internalType": "address",
          "name": "newOwner",
          "type": "address"
        }
      ],
      "name": "OwnershipTransferred",
      "type": "event"
    },
    {
      "anonymous": false,
      "inputs": [
        {
          "indexed": false,
          "internalType": "address",
          "name": "account",
          "type": "address"
        }
      ],
      "name": "Paused",
      "type": "event"
    },
    {
      "anonymous": false,
      "inputs": [
        {
          "indexed": false,
          "internalType": "address",
          "name": "account",
          "type": "address"
        }
      ],
      "name": "Unpaused",
      "type": "event"
    },
    {
      "anonymous": false,
      "inputs": [
        {
          "indexed": false,
          "internalType": "uint256",
          "name": "profitFactor",
          "type": "uint256"
        }
      ],
      "name": "UpdatedProfitFactor",
      "type": "event"
    },
    {
      "anonymous": false,
      "inputs": [
        {
          "indexed": true,
          "internalType": "address",
          "name": "implementation",
          "type": "address"
        }
      ],
      "name": "Upgraded",
      "type": "event"
    },
    {
      "anonymous": false,
      "inputs": [
        {
          "indexed": false,
          "internalType": "uint256",
          "name": "amount",
          "type": "uint256"
        },
        {
          "indexed": false,
          "internalType": "uint256",
          "name": "sharesBefore",
          "type": "uint256"
        },
        {
          "indexed": false,
          "internalType": "uint256",
          "name": "underlyingBefore",
          "type": "uint256"
        },
        {
          "indexed": false,
          "internalType": "uint256",
          "name": "sharesAfter",
          "type": "uint256"
        },
        {
          "indexed": false,
          "internalType": "uint256",
          "name": "underlyingAfter",
          "type": "uint256"
        },
        {
          "indexed": false,
          "internalType": "uint256",
          "name": "redeemedAmount",
          "type": "uint256"
        }
      ],
      "name": "WithdrawnFromProtocol",
      "type": "event"
    },
    {
      "anonymous": false,
      "inputs": [
        {
          "indexed": true,
          "internalType": "address",
          "name": "worker",
          "type": "address"
        }
      ],
      "name": "Worked",
      "type": "event"
    },
    {
      "inputs": [],
      "name": "BANANA",
      "outputs": [
        {
          "internalType": "address",
          "name": "",
          "type": "address"
        }
      ],
      "stateMutability": "view",
      "type": "function"
    },
    {
      "inputs": [],
      "name": "MAX_BPS",
      "outputs": [
        {
          "internalType": "uint256",
          "name": "",
          "type": "uint256"
        }
      ],
      "stateMutability": "view",
      "type": "function"
    },
    {
      "inputs": [],
      "name": "PANCAKE_ROUTER",
      "outputs": [
        {
          "internalType": "address",
          "name": "",
          "type": "address"
        }
      ],
      "stateMutability": "view",
      "type": "function"
    },
    {
      "inputs": [],
      "name": "RAIN_MAKER",
      "outputs": [
        {
          "internalType": "address",
          "name": "",
          "type": "address"
        }
      ],
      "stateMutability": "view",
      "type": "function"
    },
    {
      "inputs": [],
      "name": "REWARD_ESTIMATION_ACCURACY",
      "outputs": [
        {
          "internalType": "uint256",
          "name": "",
          "type": "uint256"
        }
      ],
      "stateMutability": "view",
      "type": "function"
    },
    {
      "inputs": [],
      "name": "SECONDS_PER_BLOCK",
      "outputs": [
        {
          "internalType": "uint256",
          "name": "",
          "type": "uint256"
        }
      ],
      "stateMutability": "view",
      "type": "function"
    },
    {
      "inputs": [],
      "name": "WBNB",
      "outputs": [
        {
          "internalType": "address",
          "name": "",
          "type": "address"
        }
      ],
      "stateMutability": "view",
      "type": "function"
    },
    {
      "inputs": [
        {
          "internalType": "contract IStrategiesLender",
          "name": "_lender",
          "type": "address"
        },
        {
          "internalType": "contract IERC20Upgradeable",
          "name": "_asset",
          "type": "address"
        },
        {
          "internalType": "contract ICToken",
          "name": "_cToken",
          "type": "address"
        },
        {
          "internalType": "contract IRainMaker",
          "name": "_rainMaker",
          "type": "address"
        },
        {
          "internalType": "contract IERC20Upgradeable",
          "name": "_compToken",
          "type": "address"
        },
        {
          "internalType": "contract IOps",
          "name": "_ops",
          "type": "address"
        },
        {
          "internalType": "contract AggregatorV3Interface",
          "name": "_nativeTokenPriceFeed",
          "type": "address"
        },
        {
          "internalType": "contract AggregatorV3Interface",
          "name": "_assetPriceFeed",
          "type": "address"
        },
        {
          "internalType": "uint256",
          "name": "_minReportInterval",
          "type": "uint256"
        },
        {
          "internalType": "bool",
          "name": "_isPrepaid",
          "type": "bool"
        },
        {
          "internalType": "address",
          "name": "_healthCheck",
          "type": "address"
        }
      ],
      "name": "__CTokenBaseStrategy_init",
      "outputs": [],
      "stateMutability": "nonpayable",
      "type": "function"
    },
    {
      "inputs": [],
      "name": "accrueInterest",
      "outputs": [
        {
          "internalType": "uint256",
          "name": "",
          "type": "uint256"
        }
      ],
      "stateMutability": "nonpayable",
      "type": "function"
    },
    {
      "inputs": [],
      "name": "asset",
      "outputs": [
        {
          "internalType": "contract IERC20Upgradeable",
          "name": "",
          "type": "address"
        }
      ],
      "stateMutability": "view",
      "type": "function"
    },
    {
      "inputs": [],
      "name": "borrowRatePerBlock",
      "outputs": [
        {
          "internalType": "uint256",
          "name": "",
          "type": "uint256"
        }
      ],
      "stateMutability": "view",
      "type": "function"
    },
    {
      "inputs": [],
      "name": "cToken",
      "outputs": [
        {
          "internalType": "contract ICToken",
          "name": "",
          "type": "address"
        }
      ],
      "stateMutability": "view",
      "type": "function"
    },
    {
      "inputs": [],
      "name": "canWork",
      "outputs": [
        {
          "internalType": "bool",
          "name": "",
          "type": "bool"
        }
      ],
      "stateMutability": "view",
      "type": "function"
    },
    {
      "inputs": [],
      "name": "checker",
      "outputs": [
        {
          "internalType": "bool",
          "name": "canExec",
          "type": "bool"
        },
        {
          "internalType": "bytes",
          "name": "execPayload",
          "type": "bytes"
        }
      ],
      "stateMutability": "view",
      "type": "function"
    },
    {
      "inputs": [],
      "name": "compToken",
      "outputs": [
        {
          "internalType": "contract IERC20Upgradeable",
          "name": "",
          "type": "address"
        }
      ],
      "stateMutability": "view",
      "type": "function"
    },
    {
      "inputs": [],
      "name": "debtThreshold",
      "outputs": [
        {
          "internalType": "uint256",
          "name": "",
          "type": "uint256"
        }
      ],
      "stateMutability": "view",
      "type": "function"
    },
    {
      "inputs": [],
      "name": "depositedBalance",
      "outputs": [
        {
          "internalType": "uint256",
          "name": "",
          "type": "uint256"
        }
      ],
      "stateMutability": "nonpayable",
      "type": "function"
    },
    {
      "inputs": [],
      "name": "depositedBalanceSnapshot",
      "outputs": [
        {
          "internalType": "uint256",
          "name": "",
          "type": "uint256"
        },
        {
          "internalType": "uint256",
          "name": "",
          "type": "uint256"
        }
      ],
      "stateMutability": "view",
      "type": "function"
    },
    {
      "inputs": [],
      "name": "estimatedTotalAssets",
      "outputs": [
        {
          "internalType": "uint256",
          "name": "",
          "type": "uint256"
        }
      ],
      "stateMutability": "view",
      "type": "function"
    },
    {
      "inputs": [],
      "name": "estimatedWorkGas",
      "outputs": [
        {
          "internalType": "uint256",
          "name": "",
          "type": "uint256"
        }
      ],
      "stateMutability": "view",
      "type": "function"
    },
    {
      "inputs": [],
      "name": "exchangeRateCurrent",
      "outputs": [
        {
          "internalType": "uint256",
          "name": "",
          "type": "uint256"
        }
      ],
      "stateMutability": "nonpayable",
      "type": "function"
    },
    {
      "inputs": [],
      "name": "exchangeRateStored",
      "outputs": [
        {
          "internalType": "uint256",
          "name": "",
          "type": "uint256"
        }
      ],
      "stateMutability": "view",
      "type": "function"
    },
    {
      "inputs": [],
      "name": "gelato",
      "outputs": [
        {
          "internalType": "address payable",
          "name": "",
          "type": "address"
        }
      ],
      "stateMutability": "view",
      "type": "function"
    },
    {
      "inputs": [],
      "name": "healthCheck",
      "outputs": [
        {
          "internalType": "contract IHealthCheck",
          "name": "",
          "type": "address"
        }
      ],
      "stateMutability": "view",
      "type": "function"
    },
    {
      "inputs": [],
      "name": "healthCheckEnabled",
      "outputs": [
        {
          "internalType": "bool",
          "name": "",
          "type": "bool"
        }
      ],
      "stateMutability": "view",
      "type": "function"
    },
    {
      "inputs": [
        {
          "internalType": "address",
          "name": "_vault",
          "type": "address"
        },
        {
          "internalType": "address",
          "name": "_asset",
          "type": "address"
        },
        {
          "internalType": "address",
          "name": "_cToken",
          "type": "address"
        },
        {
          "internalType": "address",
          "name": "_ops",
          "type": "address"
        },
        {
          "internalType": "address",
          "name": "_nativeTokenPriceFeed",
          "type": "address"
        },
        {
          "internalType": "address",
          "name": "_assetPriceFeed",
          "type": "address"
        },
        {
          "internalType": "uint256",
          "name": "_minReportInterval",
          "type": "uint256"
        },
        {
          "internalType": "bool",
          "name": "_isPrepaid",
          "type": "bool"
        },
        {
          "internalType": "address",
          "name": "_healthCheck",
          "type": "address"
        }
      ],
      "name": "initialize",
      "outputs": [],
      "stateMutability": "nonpayable",
      "type": "function"
    },
    {
      "inputs": [],
      "name": "interestRatePerBlock",
      "outputs": [
        {
          "internalType": "uint256",
          "name": "",
          "type": "uint256"
        }
      ],
      "stateMutability": "view",
      "type": "function"
    },
    {
      "inputs": [],
      "name": "isPrepaid",
      "outputs": [
        {
          "internalType": "bool",
          "name": "",
          "type": "bool"
        }
      ],
      "stateMutability": "view",
      "type": "function"
    },
    {
      "inputs": [],
      "name": "lastWorkTime",
      "outputs": [
        {
          "internalType": "uint256",
          "name": "",
          "type": "uint256"
        }
      ],
      "stateMutability": "view",
      "type": "function"
    },
    {
      "inputs": [],
      "name": "lender",
      "outputs": [
        {
          "internalType": "contract IStrategiesLender",
          "name": "",
          "type": "address"
        }
      ],
      "stateMutability": "view",
      "type": "function"
    },
    {
      "inputs": [],
      "name": "minBananaToSell",
      "outputs": [
        {
          "internalType": "uint256",
          "name": "",
          "type": "uint256"
        }
      ],
      "stateMutability": "view",
      "type": "function"
    },
    {
      "inputs": [],
      "name": "minimumBetweenExecutions",
      "outputs": [
        {
          "internalType": "uint256",
          "name": "",
          "type": "uint256"
        }
      ],
      "stateMutability": "view",
      "type": "function"
    },
    {
      "inputs": [],
      "name": "name",
      "outputs": [
        {
          "internalType": "string",
          "name": "",
          "type": "string"
        }
      ],
      "stateMutability": "view",
      "type": "function"
    },
    {
      "inputs": [],
      "name": "ops",
      "outputs": [
        {
          "internalType": "contract IOps",
          "name": "",
          "type": "address"
        }
      ],
      "stateMutability": "view",
      "type": "function"
    },
    {
      "inputs": [],
      "name": "owner",
      "outputs": [
        {
          "internalType": "address",
          "name": "",
          "type": "address"
        }
      ],
      "stateMutability": "view",
      "type": "function"
    },
    {
      "inputs": [],
      "name": "pancakeRouter",
      "outputs": [
        {
          "internalType": "contract IPancakeRouter",
          "name": "",
          "type": "address"
        }
      ],
      "stateMutability": "view",
      "type": "function"
    },
    {
      "inputs": [],
      "name": "paused",
      "outputs": [
        {
          "internalType": "bool",
          "name": "",
          "type": "bool"
        }
      ],
      "stateMutability": "view",
      "type": "function"
    },
    {
      "inputs": [],
      "name": "payableWork",
      "outputs": [],
      "stateMutability": "nonpayable",
      "type": "function"
    },
    {
      "inputs": [],
      "name": "profitFactor",
      "outputs": [
        {
          "internalType": "uint256",
          "name": "",
          "type": "uint256"
        }
      ],
      "stateMutability": "view",
      "type": "function"
    },
    {
      "inputs": [],
      "name": "proxiableUUID",
      "outputs": [
        {
          "internalType": "bytes32",
          "name": "",
          "type": "bytes32"
        }
      ],
      "stateMutability": "view",
      "type": "function"
    },
    {
      "inputs": [],
      "name": "rainMaker",
      "outputs": [
        {
          "internalType": "contract IRainMaker",
          "name": "",
          "type": "address"
        }
      ],
      "stateMutability": "view",
      "type": "function"
    },
    {
      "inputs": [],
      "name": "renounceOwnership",
      "outputs": [],
      "stateMutability": "nonpayable",
      "type": "function"
    },
    {
      "inputs": [],
      "name": "secondPerBlock",
      "outputs": [
        {
          "internalType": "uint256",
          "name": "",
          "type": "uint256"
        }
      ],
      "stateMutability": "view",
      "type": "function"
    },
    {
      "inputs": [
        {
          "internalType": "uint256",
          "name": "_debtThreshold",
          "type": "uint256"
        }
      ],
      "name": "setDebtThreshold",
      "outputs": [],
      "stateMutability": "nonpayable",
      "type": "function"
    },
    {
      "inputs": [
        {
          "internalType": "uint256",
          "name": "_estimatedWorkGas",
          "type": "uint256"
        }
      ],
      "name": "setEstimatedWorkGas",
      "outputs": [],
      "stateMutability": "nonpayable",
      "type": "function"
    },
    {
      "inputs": [
        {
          "internalType": "address",
          "name": "_healthCheck",
          "type": "address"
        }
      ],
      "name": "setHealthCheck",
      "outputs": [],
      "stateMutability": "nonpayable",
      "type": "function"
    },
    {
      "inputs": [
        {
          "internalType": "bool",
          "name": "_healthCheckEnabled",
          "type": "bool"
        }
      ],
      "name": "setHealthCheckEnabled",
      "outputs": [],
      "stateMutability": "nonpayable",
      "type": "function"
    },
    {
      "inputs": [
        {
          "internalType": "uint256",
          "name": "_minBananaToSell",
          "type": "uint256"
        }
      ],
      "name": "setMinBananaToSell",
      "outputs": [],
      "stateMutability": "nonpayable",
      "type": "function"
    },
    {
      "inputs": [
        {
          "internalType": "uint256",
          "name": "time",
          "type": "uint256"
        }
      ],
      "name": "setMinimumBetweenExecutions",
      "outputs": [],
      "stateMutability": "nonpayable",
      "type": "function"
    },
    {
      "inputs": [
        {
          "internalType": "uint256",
          "name": "_profitFactor",
          "type": "uint256"
        }
      ],
      "name": "setProfitFactor",
      "outputs": [],
      "stateMutability": "nonpayable",
      "type": "function"
    },
    {
      "inputs": [],
      "name": "shutdown",
      "outputs": [],
      "stateMutability": "nonpayable",
      "type": "function"
    },
    {
      "inputs": [],
      "name": "supplyRatePerBlock",
      "outputs": [
        {
          "internalType": "uint256",
          "name": "",
          "type": "uint256"
        }
      ],
      "stateMutability": "view",
      "type": "function"
    },
    {
      "inputs": [],
      "name": "timeFromLastExecution",
      "outputs": [
        {
          "internalType": "uint256",
          "name": "",
          "type": "uint256"
        }
      ],
      "stateMutability": "view",
      "type": "function"
    },
    {
      "inputs": [
        {
          "internalType": "address",
          "name": "newOwner",
          "type": "address"
        }
      ],
      "name": "transferOwnership",
      "outputs": [],
      "stateMutability": "nonpayable",
      "type": "function"
    },
    {
      "inputs": [
        {
          "internalType": "address",
          "name": "newImplementation",
          "type": "address"
        }
      ],
      "name": "upgradeTo",
      "outputs": [],
      "stateMutability": "nonpayable",
      "type": "function"
    },
    {
      "inputs": [
        {
          "internalType": "address",
          "name": "newImplementation",
          "type": "address"
        },
        {
          "internalType": "bytes",
          "name": "data",
          "type": "bytes"
        }
      ],
      "name": "upgradeToAndCall",
      "outputs": [],
      "stateMutability": "payable",
      "type": "function"
    },
    {
      "inputs": [],
      "name": "version",
      "outputs": [
        {
          "internalType": "string",
          "name": "",
          "type": "string"
        }
      ],
      "stateMutability": "pure",
      "type": "function"
    },
    {
      "inputs": [
        {
          "internalType": "uint256",
          "name": "assets",
          "type": "uint256"
        }
      ],
      "name": "withdraw",
      "outputs": [
        {
          "internalType": "uint256",
          "name": "loss",
          "type": "uint256"
        }
      ],
      "stateMutability": "nonpayable",
      "type": "function"
    },
    {
      "inputs": [],
      "name": "work",
      "outputs": [],
      "stateMutability": "nonpayable",
      "type": "function"
    }
  ],
  "transactionHash": "0x3746f5b56b9d743c9a87f84d05bc5887d3ae3b4b27f095b6a228952aa64b758a",
  "args": [
    true
  ],
  "numDeployments": 1,
  "solcInputHash": "1cd7d600bf00bd76aa64ea84efe3a154",
  "bytecode": "0x60a0604052306080523480156200001557600080fd5b5060405162004f1038038062004f10833981016040819052620000389162000113565b8080156200004a576200004a62000052565b50506200013e565b600054610100900460ff1615620000bf5760405162461bcd60e51b815260206004820152602760248201527f496e697469616c697a61626c653a20636f6e747261637420697320696e697469604482015266616c697a696e6760c81b606482015260840160405180910390fd5b60005460ff9081161462000111576000805460ff191660ff9081179091556040519081527f7f26b83ff96e1f2b6a682f133852f6798a09c465da95921460cefb38474024989060200160405180910390a15b565b6000602082840312156200012657600080fd5b815180151581146200013757600080fd5b9392505050565b608051614d9a6200017660003960008181610d5301528181610d9301528181610ea701528181610ee70152610f630152614d9a6000f3fe60806040526004361061029c5760003560e01c806306fdde03146102a15780630f969b87146102cc57806311bc8245146102ee57806312b6cbbf1461030e578063182df0f51461032e5780631d12f28b146103515780631e76484c146103685780632e1a7d4d146103885780632ff7709e146103a8578063322e9f04146103bd5780633659cfe6146103d257806338d52e0f146103f2578063417a570d1461042057806344bfc6bf1461044057806347eb98a21461045557806347f76df2146104805780634f1ef2861461049657806352d1902d146104a957806353c309de146104be57806354fd4d50146104d3578063573ea57514610501578063574a00cb1461052257806359cad75d146105375780635c975abb1461054e578063635005d6146105675780636605dfa71461057d5780636848d47d1461059e57806369e527da146105be578063715018a6146105df5780638011cc9d146105f45780638cdfe1661461061c5780638da5cb5b146106335780638dd95002146106485780638efdfe461461067057806391397ab41461069057806391b00bd9146106b0578063a6afed95146106c5578063ae9d70b0146106da578063b252720b146106ef578063bcead63e14610710578063bd6d894d14610731578063c1d7425814610746578063c21ebd071461075b578063c2fa3cae1461077c578063c467d559146107a6578063c8b35c7a146107bd578063cdb72659146107e5578063cee2b04e14610806578063cf5303cf14610828578063d98a1c171461084b578063e08836dd14610862578063e534d1061461088a578063e70abe92146108aa578063eb678214146108cb578063efbb5cb0146108e0578063f2fde38b146108f5578063f8f9da2814610915578063fc0e74d11461092a578063fd967f471461093f575b600080fd5b3480156102ad57600080fd5b506102b6610955565b6040516102c391906143b7565b60405180910390f35b3480156102d857600080fd5b506102ec6102e73660046143ca565b6109ec565b005b3480156102fa57600080fd5b506102ec610309366004614408565b610a31565b34801561031a57600080fd5b506102ec6103293660046143ca565b610a85565b34801561033a57600080fd5b50610343610a99565b6040519081526020016102c3565b34801561035d57600080fd5b506103436102615481565b34801561037457600080fd5b506102ec61038336600461443a565b610b0d565b34801561039457600080fd5b506103436103a33660046143ca565b610ca0565b3480156103b457600080fd5b50610343610cfe565b3480156103c957600080fd5b506102ec610d08565b3480156103de57600080fd5b506102ec6103ed366004614408565b610d49565b3480156103fe57600080fd5b5061026054610413906001600160a01b031681565b6040516102c391906144ed565b34801561042c57600080fd5b506102ec61043b3660046143ca565b610e0e565b34801561044c57600080fd5b50610343610e4c565b34801561046157600080fd5b50610163546104709060ff1681565b60405190151581526020016102c3565b34801561048c57600080fd5b5061034360fc5481565b6102ec6104a436600461456e565b610e9d565b3480156104b557600080fd5b50610343610f56565b3480156104ca57600080fd5b506102ec611004565b3480156104df57600080fd5b50604080518082019091526005815264302e342e3360d81b60208201526102b6565b34801561050d57600080fd5b5061013054610413906001600160a01b031681565b34801561052e57600080fd5b50610343605a81565b34801561054357600080fd5b506103436102625481565b34801561055a57600080fd5b5061022d5460ff16610470565b34801561057357600080fd5b5061034360fb5481565b34801561058957600080fd5b5061029b54610413906001600160a01b031681565b3480156105aa57600080fd5b506102ec6105b9366004614600565b611090565b3480156105ca57600080fd5b5061029954610413906001600160a01b031681565b3480156105eb57600080fd5b506102ec6110e6565b34801561060057600080fd5b50610413735cb93c0ade6b7f2760ec4389833b0cccb5e4efda81565b34801561062857600080fd5b506103436102635481565b34801561063f57600080fd5b506104136110f8565b34801561065457600080fd5b5061041373bb4cdb9cbd36b01bd1cbaebf2de08d9173bc095c81565b34801561067c57600080fd5b506102ec61068b3660046143ca565b611108565b34801561069c57600080fd5b506102ec6106ab3660046143ca565b611116565b3480156106bc57600080fd5b50610343611154565b3480156106d157600080fd5b50610343611164565b3480156106e657600080fd5b506103436111b0565b3480156106fb57600080fd5b506101fa54610413906001600160a01b031681565b34801561071c57600080fd5b5061025f54610413906001600160a01b031681565b34801561073d57600080fd5b506103436112fe565b34801561075257600080fd5b50610343600381565b34801561076757600080fd5b506102d054610413906001600160a01b031681565b34801561078857600080fd5b5061079161134a565b604080519283526020830191909152016102c3565b3480156107b257600080fd5b5061034361029c5481565b3480156107c957600080fd5b5061041373603c7f932ed1fc6575303d8fb018fdcbb0f39a9581565b3480156107f157600080fd5b5061029a54610413906001600160a01b031681565b34801561081257600080fd5b506101fa5461047090600160a01b900460ff1681565b34801561083457600080fd5b5061083d6113f5565b6040516102c392919061461d565b34801561085757600080fd5b506103436102cf5481565b34801561086e57600080fd5b506104137310ed43c718714eb63d5aa57b78b54704e256024e81565b34801561089657600080fd5b506102ec6108a5366004614638565b61145c565b3480156108b657600080fd5b5061012f54610413906001600160a01b031681565b3480156108d757600080fd5b506104706114ab565b3480156108ec57600080fd5b506103436114c7565b34801561090157600080fd5b506102ec610910366004614408565b611569565b34801561092157600080fd5b506103436115df565b34801561093657600080fd5b506102ec6116ff565b34801561094b57600080fd5b5061034361271081565b61026054604080516395d89b4160e01b815290516060926001600160a01b0316916395d89b419160048083019260009291908290030181865afa1580156109a0573d6000803e3d6000fd5b505050506040513d6000823e601f3d908101601f191682016040526109c8919081019061470f565b6040516020016109d89190614785565b604051602081830303815290604052905090565b6109f4611784565b6102618190556040518181527fc9535537e8d84b9f2b1de4393633cf857ba693878894a0f280211615d850d7e8906020015b60405180910390a150565b610a39611784565b6101fa80546001600160a01b0319166001600160a01b0383161790556040517f237b727bcd9a5527fd4043c1560a9bdf8eb934bc035e4656ee6e4bebca7a6b4790610a269083906144ed565b610a8d611784565b610a96816117e3565b50565b610299546040805163182df0f560e01b815290516000926001600160a01b03169163182df0f59160048083019260209291908290030181865afa158015610ae4573d6000803e3d6000fd5b505050506040513d601f19601f82011682018060405250810190610b0891906147bd565b905090565b600054610100900460ff1615808015610b2d5750600054600160ff909116105b80610b4e5750610b3c3061180d565b158015610b4e575060005460ff166001145b610bb65760405162461bcd60e51b815260206004820152602e60248201527f496e697469616c697a61626c653a20636f6e747261637420697320616c72656160448201526d191e481a5b9a5d1a585b1a5e995960921b60648201526084015b60405180910390fd5b6000805460ff191660011790558015610bd9576000805461ff0019166101001790555b610be161181c565b610c1c8a8a8a735cb93c0ade6b7f2760ec4389833b0cccb5e4efda73603c7f932ed1fc6575303d8fb018fdcbb0f39a958c8c8c8c8c8c61145c565b610c4e73603c7f932ed1fc6575303d8fb018fdcbb0f39a957310ed43c718714eb63d5aa57b78b54704e256024e61184b565b8015610c94576000805461ff0019169055604051600181527f7f26b83ff96e1f2b6a682f133852f6798a09c465da95921460cefb38474024989060200160405180910390a15b50505050505050505050565b61025f546000906001600160a01b03163314610ccf57604051633a0c5cef60e01b815260040160405180910390fd5b6000610cda836118a5565b61026054909350909150610cf8906001600160a01b0316338361194c565b50919050565b6000610b086111b0565b610d106119a7565b610d186114ab565b610d3557604051630728f52160e21b815260040160405180910390fd5b610d3d611a00565b610d47600160c955565b565b6001600160a01b037f0000000000000000000000000000000000000000000000000000000000000000163003610d915760405162461bcd60e51b8152600401610bad906147d6565b7f00000000000000000000000000000000000000000000000000000000000000006001600160a01b0316610dc3611a45565b6001600160a01b031614610de95760405162461bcd60e51b8152600401610bad90614810565b610df281611a61565b60408051600080825260208201909252610a9691839190611a69565b610e16611784565b6102628190556040518181527f76a2e56642491d2ca27c5ad2ac9a12dc4264911b4ddcc90fc0b2c44fb2a01fea90602001610a26565b61029954604051633af9e66960e01b81526000916001600160a01b031690633af9e66990610e7e9030906004016144ed565b6020604051808303816000875af1158015610ae4573d6000803e3d6000fd5b6001600160a01b037f0000000000000000000000000000000000000000000000000000000000000000163003610ee55760405162461bcd60e51b8152600401610bad906147d6565b7f00000000000000000000000000000000000000000000000000000000000000006001600160a01b0316610f17611a45565b6001600160a01b031614610f3d5760405162461bcd60e51b8152600401610bad90614810565b610f4682611a61565b610f5282826001611a69565b5050565b6000306001600160a01b037f00000000000000000000000000000000000000000000000000000000000000001614610ff15760405162461bcd60e51b815260206004820152603860248201527f555550535570677261646561626c653a206d757374206e6f742062652063616c6044820152771b1959081d1a1c9bdd59da0819195b1959d85d1958d85b1b60421b6064820152608401610bad565b50600080516020614d1e83398151915290565b61100c6119a7565b61012f546001600160a01b0316331461105b5760405162461bcd60e51b81526020600482015260116024820152704f707352656164793a206f6e6c794f707360781b6044820152606401610bad565b6101635460ff1615611080576040516301b5ad6760e01b815260040160405180910390fd5b611088611a00565b610d3d611bd4565b611098611784565b6101fa8054821515600160a01b0260ff60a01b199091161790556040517f3723564e400cf869a1ec2a588cf7f8c3e1d7564a7e00d6ef949b251b90c93f6990610a2690831515815260200190565b6110ee611784565b610d476000611c60565b610196546001600160a01b031690565b611110611784565b6102cf55565b61111e611784565b6102638190556040518181527fd94596337df4c2f0f44d30a7fc5db1c7bb60d9aca4185ed77c6fd96eb45ec29890602001610a26565b600060fb5442610b089190614860565b610299546040805163a6afed9560e01b815290516000926001600160a01b03169163a6afed95916004808301926020929190829003018187875af1158015610ae4573d6000803e3d6000fd5b610299546040805163b9ab55eb60e01b815290516000926001600160a01b03169163b9ab55eb9160048083019260209291908290030181865afa1580156111fb573d6000803e3d6000fd5b505050506040513d601f19601f8201168201806040525081019061121f9190614873565b156112785761029960009054906101000a90046001600160a01b03166001600160a01b031663ae9d70b06040518163ffffffff1660e01b8152600401602060405180830381865afa158015610ae4573d6000803e3d6000fd5b61029c5461029960009054906101000a90046001600160a01b03166001600160a01b031663ae9d70b06040518163ffffffff1660e01b8152600401602060405180830381865afa1580156112d0573d6000803e3d6000fd5b505050506040513d601f19601f820116820180604052508101906112f491906147bd565b610b089190614890565b610299546040805163bd6d894d60e01b815290516000926001600160a01b03169163bd6d894d916004808301926020929190829003018187875af1158015610ae4573d6000803e3d6000fd5b610299546040516361bfb47160e11b81526000918291829182916001600160a01b039091169063c37f68e2906113849030906004016144ed565b608060405180830381865afa1580156113a1573d6000803e3d6000fd5b505050506040513d601f19601f820116820180604052508101906113c591906148a7565b93505092505081670de0b6b3a764000082846113e19190614890565b6113eb91906148dd565b9350935050509091565b600060606114016114ab565b6101635490925060ff1661141c576329e184ef60e11b611425565b630c8ba7c160e21b5b6040805160048152602481019091526020810180516001600160e01b03166001600160e01b03199093169290921790915291929050565b600054610100900460ff166114835760405162461bcd60e51b8152600401610bad906148ff565b6114938b8b8886868a8a88611cb3565b61149e898989611d0c565b5050505050505050505050565b60006114b860fc54611ebf565b8015610b085750610b08611ed1565b6000806114d261134a565b9150506114dd61209f565b610260546040516370a0823160e01b815283916001600160a01b0316906370a082319061150e9030906004016144ed565b602060405180830381865afa15801561152b573d6000803e3d6000fd5b505050506040513d601f19601f8201168201806040525081019061154f91906147bd565b611559919061494a565b611563919061494a565b91505090565b611571611784565b6001600160a01b0381166115d65760405162461bcd60e51b815260206004820152602660248201527f4f776e61626c653a206e6577206f776e657220697320746865207a65726f206160448201526564647265737360d01b6064820152608401610bad565b610a9681611c60565b610299546040805163b9ab55eb60e01b815290516000926001600160a01b03169163b9ab55eb9160048083019260209291908290030181865afa15801561162a573d6000803e3d6000fd5b505050506040513d601f19601f8201168201806040525081019061164e9190614873565b156116a75761029960009054906101000a90046001600160a01b03166001600160a01b031663f8f9da286040518163ffffffff1660e01b8152600401602060405180830381865afa158015610ae4573d6000803e3d6000fd5b61029c5461029960009054906101000a90046001600160a01b03166001600160a01b031663f8f9da286040518163ffffffff1660e01b8152600401602060405180830381865afa1580156112d0573d6000803e3d6000fd5b6117076119a7565b61170f611784565b6117176121bd565b61025f5460405163177329a960e31b81526001600160a01b039091169063bb994d48906117489030906004016144ed565b600060405180830381600087803b15801561176257600080fd5b505af1158015611776573d6000803e3d6000fd5b50505050610d47600160c955565b3361178d6110f8565b6001600160a01b031614610d475760405162461bcd60e51b815260206004820181905260248201527f4f776e61626c653a2063616c6c6572206973206e6f7420746865206f776e65726044820152606401610bad565b6103e881116118085760405163034b4ee160e01b815260048101829052602401610bad565b60fc55565b6001600160a01b03163b151590565b600054610100900460ff166118435760405162461bcd60e51b8152600401610bad906148ff565b610d47612212565b600054610100900460ff166118725760405162461bcd60e51b8152600401610bad906148ff565b6102d080546001600160a01b0319166001600160a01b03831617905567016345785d8a00006102cf55610f528282612239565b610260546040516370a0823160e01b8152600091829182916001600160a01b0316906370a08231906118db9030906004016144ed565b602060405180830381865afa1580156118f8573d6000803e3d6000fd5b505050506040513d601f19601f8201168201806040525081019061191c91906147bd565b9050838110156119425761192f8461224f565b925061193b8385614860565b9150611946565b8392505b50915091565b6119a28363a9059cbb60e01b848460405160240161196b92919061495d565b60408051601f198184030181529190526020810180516001600160e01b03166001600160e01b0319909316929092179091526123a9565b505050565b600260c954036119f95760405162461bcd60e51b815260206004820152601f60248201527f5265656e7472616e637947756172643a207265656e7472616e742063616c6c006044820152606401610bad565b600260c955565b611a094260fb55565b611a1161247e565b60405133907f8065c96ce68645eb5e1342fb74a5b4646b6712a1bb6a5e86280c1526eca8d25690600090a2565b600160c955565b600080516020614d1e833981519152546001600160a01b031690565b610a96611784565b7f4910fdfa16fed3260ed0e7147f7cc6da11a60208b5b9406d12a635614ffd91435460ff1615611a9c576119a283612879565b826001600160a01b03166352d1902d6040518163ffffffff1660e01b8152600401602060405180830381865afa925050508015611af6575060408051601f3d908101601f19168201909252611af3918101906147bd565b60015b611b595760405162461bcd60e51b815260206004820152602e60248201527f45524331393637557067726164653a206e657720696d706c656d656e7461746960448201526d6f6e206973206e6f74205555505360901b6064820152608401610bad565b600080516020614d1e8339815191528114611bc85760405162461bcd60e51b815260206004820152602960248201527f45524331393637557067726164653a20756e737570706f727465642070726f786044820152681a58589b195555525160ba1b6064820152608401610bad565b506119a2838383612913565b61012f5460408051635c08631b60e11b8152815160009384936001600160a01b039091169263b810c63692600480830193928290030181865afa158015611c1f573d6000803e3d6000fd5b505050506040513d601f19601f82011682018060405250810190611c439190614976565b610130549193509150610f52906001600160a01b0316828461293e565b61019680546001600160a01b038381166001600160a01b0319831681179093556040519116919082907f8be0079c531659141344cd1fd0a4f28419497f9722a3daafe3b4186f6b6457e090600090a35050565b600054610100900460ff16611cda5760405162461bcd60e51b8152600401610bad906148ff565b611ce381612978565b611ceb6129b0565b611cf68686866129df565b611d0288888585612a21565b5050505050505050565b600054610100900460ff16611d335760405162461bcd60e51b8152600401610bad906148ff565b600361029c5561029980546001600160a01b038086166001600160a01b0319928316811790935561029a805486831690841617905561029b8054918516919092161790556040805163313ce56760e01b8152905163313ce567916004808201926020929091908290030181865afa158015611db2573d6000803e3d6000fd5b505050506040513d601f19601f82011682018060405250810190611dd691906149a6565b60ff166008141580611dec575061026654601214155b15611e0a57604051636a78e98160e11b815260040160405180910390fd5b610260546102995460408051636f307dc360e01b815290516001600160a01b039384169390921691636f307dc3916004808201926020929091908290030181865afa158015611e5d573d6000803e3d6000fd5b505050506040513d601f19601f82011682018060405250810190611e8191906149c9565b6001600160a01b031614611ea85760405163bd3cf18d60e01b815260040160405180910390fd5b610260546119a2906001600160a01b031684612239565b600081611eca611154565b1192915050565b61025f54604080516312a307ed60e21b815290516000926001600160a01b031691634a8c1fb49160048083019260209291908290030181865afa158015611f1c573d6000803e3d6000fd5b505050506040513d601f19601f82011682018060405250810190611f409190614873565b611f4a5750600090565b61025f54604080516306f94a0d60e01b815290516000926001600160a01b0316916306f94a0d9160048083019260209291908290030181865afa158015611f95573d6000803e3d6000fd5b505050506040513d601f19601f82011682018060405250810190611fb991906147bd565b905061026154811115611fce57600191505090565b6000611fd86114c7565b9050600061025f60009054906101000a90046001600160a01b03166001600160a01b031663759076e56040518163ffffffff1660e01b8152600401602060405180830381865afa158015612030573d6000803e3d6000fd5b505050506040513d601f19601f8201168201806040525081019061205491906147bd565b9050806102615483612066919061494a565b1015612076576001935050505090565b60008183111561208d5761208a8284614860565b90505b61209681612c37565b94505050505090565b6000806120aa612cea565b6120b2612daa565b6120bc919061494a565b9050806000036120ce57600091505090565b6102d054610260546000916001600160a01b039081169163d06ca61f91859161210d9173603c7f932ed1fc6575303d8fb018fdcbb0f39a959116612df9565b6040518363ffffffff1660e01b815260040161212a929190614a2a565b600060405180830381865afa158015612147573d6000803e3d6000fd5b505050506040513d6000823e601f3d908101601f1916820160405261216f9190810190614a43565b9050600081600183516121829190614860565b8151811061219257612192614adc565b602002602001015190506064605a826121ab9190614890565b6121b591906148dd565b935050505090565b6121c5612f92565b61022d805460ff191660011790557f62e78cea01bee320cd4e420270b5ea74000d11b0c9f74754ebdbfc544b05a2586121fb3390565b60405161220891906144ed565b60405180910390a1565b600054610100900460ff16610d475760405162461bcd60e51b8152600401610bad906148ff565b610f526001600160a01b03831682600019612fd9565b60008061225a61134a565b50905060006122676130dd565b90506000612273610e4c565b90506000612281828761310f565b6102995460405163852a12e360e01b8152600481018390529192506000916001600160a01b039091169063852a12e3906024016020604051808303816000875af11580156122d3573d6000803e3d6000fd5b505050506040513d601f19601f820116820180604052508101906122f791906147bd565b9050801561231b576040516305ee2ff160e11b815260048101829052602401610bad565b60008061232661134a565b9150915060006123346130dd565b905060006123428883614860565b60408051888152602081018c9052908101899052606081018690526080810185905260a081018290529091507f112d155f03fa8b4d47c2fe6f5f11d872d7a19497cb85ce6dfdb0d64ba59b64b49060c00160405180910390a19a9950505050505050505050565b60006123fe826040518060400160405280602081526020017f5361666545524332303a206c6f772d6c6576656c2063616c6c206661696c6564815250856001600160a01b03166131299092919063ffffffff16565b905080516000148061241f57508080602001905181019061241f9190614873565b6119a25760405162461bcd60e51b815260206004820152602a60248201527f5361666545524332303a204552433230206f7065726174696f6e20646964206e6044820152691bdd081cdd58d8d9595960b21b6064820152608401610bad565b60008060008061025f60009054906101000a90046001600160a01b03166001600160a01b03166306f94a0d6040518163ffffffff1660e01b8152600401602060405180830381865afa1580156124d8573d6000803e3d6000fd5b505050506040513d601f19601f820116820180604052508101906124fc91906147bd565b905061250b61022d5460ff1690565b156125255761251981613140565b91955093509150612536565b61252e8161319b565b919550935091505b83156125a75761025f5460405163dd723c1b60e01b815260048101869052602481018490526001600160a01b039091169063dd723c1b90604401600060405180830381600087803b15801561258a57600080fd5b505af115801561259e573d6000803e3d6000fd5b5050505061260e565b61025f546040516339d97c5360e01b815260048101859052602481018490526001600160a01b03909116906339d97c5390604401600060405180830381600087803b1580156125f557600080fd5b505af1158015612609573d6000803e3d6000fd5b505050505b61025f60009054906101000a90046001600160a01b03166001600160a01b03166306f94a0d6040518163ffffffff1660e01b8152600401602060405180830381865afa158015612662573d6000803e3d6000fd5b505050506040513d601f19601f8201168201806040525081019061268691906147bd565b905061025f60009054906101000a90046001600160a01b03166001600160a01b0316630baabd7a6040518163ffffffff1660e01b8152600401602060405180830381865afa1580156126dc573d6000803e3d6000fd5b505050506040513d601f19601f8201168201806040525081019061270091906147bd565b158061277f575061025f60009054906101000a90046001600160a01b03166001600160a01b0316635c975abb6040518163ffffffff1660e01b8152600401602060405180830381865afa15801561275b573d6000803e3d6000fd5b505050506040513d601f19601f8201168201806040525081019061277f9190614873565b6127895780612791565b6127916114c7565b905061279c81613448565b61025f546040805163759076e560e01b815290516000926001600160a01b03169163759076e59160048083019260209291908290030181865afa1580156127e7573d6000803e3d6000fd5b505050506040513d601f19601f8201168201806040525081019061280b91906147bd565b9050600061281761357c565b6040805188815260208101889052908101869052606081018590529091507f4c0f499ffe6befa0ca7c826b0916cf87bea98de658013e76938489368d60d5099060800160405180910390a16128713087878787878761358a565b505050505050565b6128828161180d565b6128e45760405162461bcd60e51b815260206004820152602d60248201527f455243313936373a206e657720696d706c656d656e746174696f6e206973206e60448201526c1bdd08184818dbdb9d1c9858dd609a1b6064820152608401610bad565b600080516020614d1e83398151915280546001600160a01b0319166001600160a01b0392909216919091179055565b61291c836136c3565b6000825111806129295750805b156119a2576129388383613703565b50505050565b73eeeeeeeeeeeeeeeeeeeeeeeeeeeeeeeeeeeeeeed196001600160a01b0383160161296d576119a28382613728565b6119a282848361194c565b600054610100900460ff1661299f5760405162461bcd60e51b8152600401610bad906148ff565b6129a76137c4565b610a96816137f3565b600054610100900460ff166129d75760405162461bcd60e51b8152600401610bad906148ff565b610d4761382d565b600054610100900460ff16612a065760405162461bcd60e51b8152600401610bad906148ff565b612a0f83613861565b612a188261392a565b6119a28161396a565b600054610100900460ff16612a485760405162461bcd60e51b8152600401610bad906148ff565b61025f80546001600160a01b038087166001600160a01b03199283161790925561026080548684169083161790556000610261819055610262556064610263556102648054858416908316179055610265805492841692909116821790556040805163313ce56760e01b8152905163313ce567916004808201926020929091908290030181865afa158015612ae1573d6000803e3d6000fd5b505050506040513d601f19601f82011682018060405250810190612b0591906149a6565b60ff1661026460009054906101000a90046001600160a01b03166001600160a01b031663313ce5676040518163ffffffff1660e01b8152600401602060405180830381865afa158015612b5c573d6000803e3d6000fd5b505050506040513d601f19601f82011682018060405250810190612b8091906149a6565b60ff1614612ba1576040516362655f5160e01b815260040160405180910390fd5b61026060009054906101000a90046001600160a01b03166001600160a01b031663313ce5676040518163ffffffff1660e01b8152600401602060405180830381865afa158015612bf5573d6000803e3d6000fd5b505050506040513d601f19601f82011682018060405250810190612c1991906149a6565b60ff166102665561026054612938906001600160a01b031685612239565b60008061025f60009054906101000a90046001600160a01b03166001600160a01b03166307cc692f6040518163ffffffff1660e01b8152600401602060405180830381865afa158015612c8e573d6000803e3d6000fd5b505050506040513d601f19601f82011682018060405250810190612cb291906147bd565b90506000612cbe61357c565b9050612cd2612ccd858461494a565b6139a5565b8161026354612ce19190614890565b10949350505050565b600080612cf56139c5565b905080600003612d0757600091505090565b6000600361025f60009054906101000a90046001600160a01b03166001600160a01b031663c3535b526040518163ffffffff1660e01b8152600401602060405180830381865afa158015612d5f573d6000803e3d6000fd5b505050506040513d601f19601f82011682018060405250810190612d8391906147bd565b612d8d9042614860565b612d9791906148dd565b9050612da38282614890565b9250505090565b61029b546040516370a0823160e01b81526000916001600160a01b0316906370a0823190612ddc9030906004016144ed565b602060405180830381865afa158015610ae4573d6000803e3d6000fd5b606060006001600160a01b03841673bb4cdb9cbd36b01bd1cbaebf2de08d9173bc095c1480612e4457506001600160a01b03831673bb4cdb9cbd36b01bd1cbaebf2de08d9173bc095c145b905080612e52576003612e55565b60025b60ff166001600160401b03811115612e6f57612e6f614501565b604051908082528060200260200182016040528015612e98578160200160208202803683370190505b5091508382600081518110612eaf57612eaf614adc565b60200260200101906001600160a01b031690816001600160a01b0316815250508015612f0e578282600181518110612ee957612ee9614adc565b60200260200101906001600160a01b031690816001600160a01b031681525050612f8b565b73bb4cdb9cbd36b01bd1cbaebf2de08d9173bc095c82600181518110612f3657612f36614adc565b60200260200101906001600160a01b031690816001600160a01b0316815250508282600281518110612f6a57612f6a614adc565b60200260200101906001600160a01b031690816001600160a01b0316815250505b5092915050565b61022d5460ff1615610d475760405162461bcd60e51b815260206004820152601060248201526f14185d5cd8589b194e881c185d5cd95960821b6044820152606401610bad565b8015806130535750604051636eb1769f60e11b81523060048201526001600160a01b03838116602483015284169063dd62ed3e90604401602060405180830381865afa15801561302d573d6000803e3d6000fd5b505050506040513d601f19601f8201168201806040525081019061305191906147bd565b155b6130be5760405162461bcd60e51b815260206004820152603660248201527f5361666545524332303a20617070726f76652066726f6d206e6f6e2d7a65726f60448201527520746f206e6f6e2d7a65726f20616c6c6f77616e636560501b6064820152608401610bad565b6119a28363095ea7b360e01b848460405160240161196b92919061495d565b610260546040516370a0823160e01b81526000916001600160a01b0316906370a0823190612ddc9030906004016144ed565b600081831061311e5781613120565b825b90505b92915050565b60606131388484600085613b8b565b949350505050565b600080600061314d613c66565b5060006131586130dd565b9050848110156131735761316c8186614860565b9250613188565b84811115613188576131858582614860565b93505b6131928386614860565b93959294505050565b610299546040516370a0823160e01b8152600091829182916001600160a01b0316906370a08231906131d19030906004016144ed565b602060405180830381865afa1580156131ee573d6000803e3d6000fd5b505050506040513d601f19601f8201168201806040525081019061321291906147bd565b60000361329a57610260546040516370a0823160e01b8152613293916001600160a01b0316906370a082319061324c9030906004016144ed565b602060405180830381865afa158015613269573d6000803e3d6000fd5b505050506040513d601f19601f8201168201806040525081019061328d91906147bd565b8561310f565b9050613441565b60006132a4610e4c565b90506132ae613c73565b6132b6613d2a565b610260546040516370a0823160e01b81526000916001600160a01b0316906370a08231906132e89030906004016144ed565b602060405180830381865afa158015613305573d6000803e3d6000fd5b505050506040513d601f19601f8201168201806040525081019061332991906147bd565b90506000613337828461494a565b9050600061025f60009054906101000a90046001600160a01b03166001600160a01b031663759076e56040518163ffffffff1660e01b8152600401602060405180830381865afa15801561338f573d6000803e3d6000fd5b505050506040513d601f19601f820116820180604052508101906133b391906147bd565b90508082116133dd576133c68282614860565b95506133d2838961310f565b945050505050613441565b6133e78183614860565b965086831015613413576134046133fe8489614860565b89613e46565b96509650965050505050613441565b61341d888861494a565b8311156134305787945050505050613441565b61343a8784614860565b9450505050505b9193909250565b61022d5460ff16156134575750565b610260546040516370a0823160e01b81526000916001600160a01b0316906370a08231906134899030906004016144ed565b602060405180830381865afa1580156134a6573d6000803e3d6000fd5b505050506040513d601f19601f820116820180604052508101906134ca91906147bd565b90508181101561355f57610299546040516370a0823160e01b81526001916001600160a01b0316906370a08231906135069030906004016144ed565b602060405180830381865afa158015613523573d6000803e3d6000fd5b505050506040513d601f19601f8201168201806040525081019061354791906147bd565b1115610f525761293861355a8284614860565b6118a5565b600061356b8383614860565b905080156119a2576119a281613eea565b6000610262546112f4613ff9565b6101fa546001600160a01b0316156136ba576101fa54600160a01b900460ff166135bd576135b86001611090565b6136ba565b6101fa5460405163408ddb0160e01b81526001600160a01b0389811660048301526024820189905260448201889052606482018790526084820186905260a4820185905260c48201849052600092169063408ddb019060e401602060405180830381865afa158015613633573d6000803e3d6000fd5b505050506040513d601f19601f8201168201806040525081019061365791906149a6565b60405160ff821681529091507fee834fe0afe38b5c99616da786acbd4dd1c9fd18dd9473bb39006a939831b83b9060200160405180910390a160011960ff8216016136a9576136a4614015565b611d02565b60001960ff821601611d0257611d02565b50505050505050565b6136cc81612879565b6040516001600160a01b038216907fbc7cd75a20ee27fd9adebab32041f755214dbc6bffa90cc0225b39da2e5c2d3b90600090a250565b60606131208383604051806060016040528060278152602001614d3e60279139614030565b6000826001600160a01b03168260405160006040518083038185875af1925050503d8060008114613775576040519150601f19603f3d011682016040523d82523d6000602084013e61377a565b606091505b50509050806119a25760405162461bcd60e51b815260206004820152601660248201527513985d1a5d99481d1c985b9cd9995c8819985a5b195960521b6044820152606401610bad565b600054610100900460ff166137eb5760405162461bcd60e51b8152600401610bad906148ff565b610d476140a8565b600054610100900460ff1661381a5760405162461bcd60e51b8152600401610bad906148ff565b61382381610a31565b610a966001611090565b600054610100900460ff166138545760405162461bcd60e51b8152600401610bad906148ff565b61022d805460ff19169055565b600054610100900460ff166138885760405162461bcd60e51b8152600401610bad906148ff565b61012f80546001600160a01b0319166001600160a01b0383169081179091556040805163573ea57560e01b8152905163573ea575916004808201926020929091908290030181865afa1580156138e2573d6000803e3d6000fd5b505050506040513d601f19601f8201168201806040525081019061390691906149c9565b61013080546001600160a01b0319166001600160a01b039290921691909117905550565b600054610100900460ff166139515760405162461bcd60e51b8152600401610bad906148ff565b613959612212565b6139616140d8565b610a9681614107565b600054610100900460ff166139915760405162461bcd60e51b8152600401610bad906148ff565b610163805460ff1916911515919091179055565b6102665461026554600091613123916001600160a01b031690849061412e565b6000806139d061134a565b915050806000036139e357600091505090565b61029a5461029954604051636aa875b560e01b81526000926001600160a01b0390811692636aa875b592613a1d92909116906004016144ed565b602060405180830381865afa158015613a3a573d6000803e3d6000fd5b505050506040513d601f19601f82011682018060405250810190613a5e91906147bd565b90506000670de0b6b3a764000061029960009054906101000a90046001600160a01b03166001600160a01b031663182df0f56040518163ffffffff1660e01b8152600401602060405180830381865afa158015613abf573d6000803e3d6000fd5b505050506040513d601f19601f82011682018060405250810190613ae391906147bd565b61029960009054906101000a90046001600160a01b03166001600160a01b03166318160ddd6040518163ffffffff1660e01b8152600401602060405180830381865afa158015613b37573d6000803e3d6000fd5b505050506040513d601f19601f82011682018060405250810190613b5b91906147bd565b613b659190614890565b613b6f91906148dd565b905060008111613b805760006121b5565b806121ab8385614890565b606082471015613bec5760405162461bcd60e51b815260206004820152602660248201527f416464726573733a20696e73756666696369656e742062616c616e636520666f6044820152651c8818d85b1b60d21b6064820152608401610bad565b600080866001600160a01b03168587604051613c089190614af2565b60006040518083038185875af1925050503d8060008114613c45576040519150601f19603f3d011682016040523d82523d6000602084013e613c4a565b606091505b5091509150613c5b87838387614279565b979650505050505050565b6000610b0860001961224f565b6040805160018082528183019092526000916020808301908036833750506102995482519293506001600160a01b031691839150600090613cb657613cb6614adc565b6001600160a01b03928316602091820292909201015261029a5460405162e1ed9760e51b8152911690631c3db2e090613cf59030908590600401614b0e565b600060405180830381600087803b158015613d0f57600080fd5b505af1158015613d23573d6000803e3d6000fd5b5050505050565b61029b546040516370a0823160e01b81526000916001600160a01b0316906370a0823190613d5c9030906004016144ed565b602060405180830381865afa158015613d79573d6000803e3d6000fd5b505050506040513d601f19601f82011682018060405250810190613d9d91906147bd565b90506102cf54811015613dad5750565b6102d05461029b54610260546001600160a01b03928316926338ed1739928592600092613ddd9281169116612df9565b30426040518663ffffffff1660e01b8152600401613dff959493929190614b6a565b6000604051808303816000875af1158015613e1e573d6000803e3d6000fd5b505050506040513d6000823e601f3d908101601f19168201604052610f529190810190614a43565b6000806000613e548561224f565b50610260546040516370a0823160e01b81526000916001600160a01b0316906370a0823190613e879030906004016144ed565b602060405180830381865afa158015613ea4573d6000803e3d6000fd5b505050506040513d601f19601f82011682018060405250810190613ec891906147bd565b9050613ed4818661310f565b9150613ee08282614860565b9350509250925092565b600080613ef561134a565b6102995460405163140e25ad60e31b8152600481018790529294509092506000916001600160a01b039091169063a0712d68906024016020604051808303816000875af1158015613f4a573d6000803e3d6000fd5b505050506040513d601f19601f82011682018060405250810190613f6e91906147bd565b90508015613f9257604051638c32d69360e01b815260048101829052602401610bad565b600080613f9d61134a565b6040805189815260208101899052908101879052606081018390526080810182905291935091507f28562cae8c7e746e4f7dea10adc3714f229306a8ffe60133a23da7b1a97d40bb9060a00160405180910390a1505050505050565b61026454600090610b08906001600160a01b03163a601261412e565b61022d5460ff16610d47576140286116ff565b610d4761247e565b6060600080856001600160a01b03168560405161404d9190614af2565b600060405180830381855af49150503d8060008114614088576040519150601f19603f3d011682016040523d82523d6000602084013e61408d565b606091505b509150915061409e86838387614279565b9695505050505050565b600054610100900460ff166140cf5760405162461bcd60e51b8152600401610bad906148ff565b610d4733611c60565b600054610100900460ff166140ff5760405162461bcd60e51b8152600401610bad906148ff565b610d476142f0565b600054610100900460ff16610a8d5760405162461bcd60e51b8152600401610bad906148ff565b600080846001600160a01b031663feaf968c6040518163ffffffff1660e01b815260040160a060405180830381865afa15801561416f573d6000803e3d6000fd5b505050506040513d601f19601f820116820180604052508101906141939190614bbd565b50505091505060008112156141bb576040516330e53b6960e11b815260040160405180910390fd5b6000856001600160a01b031663313ce5676040518163ffffffff1660e01b8152600401602060405180830381865afa1580156141fb573d6000803e3d6000fd5b505050506040513d601f19601f8201168201806040525081019061421f91906149a6565b60ff1690506000614231601283614317565b91506000905061424282600a614cf1565b61424c9085614890565b905061425986600a614cf1565b6142638289614890565b61426d91906148dd565b98975050505050505050565b606083156142e65782516000036142df576142938561180d565b6142df5760405162461bcd60e51b815260206004820152601d60248201527f416464726573733a2063616c6c20746f206e6f6e2d636f6e74726163740000006044820152606401610bad565b5081613138565b613138838361433d565b600054610100900460ff16611a3e5760405162461bcd60e51b8152600401610bad906148ff565b6000808383111561432d57506000905080614336565b50600190508183035b9250929050565b81511561434d5781518083602001fd5b8060405162461bcd60e51b8152600401610bad91906143b7565b60005b8381101561438257818101518382015260200161436a565b50506000910152565b600081518084526143a3816020860160208601614367565b601f01601f19169290920160200192915050565b602081526000613120602083018461438b565b6000602082840312156143dc57600080fd5b5035919050565b6001600160a01b0381168114610a9657600080fd5b8035614403816143e3565b919050565b60006020828403121561441a57600080fd5b8135614425816143e3565b9392505050565b8015158114610a9657600080fd5b60008060008060008060008060006101208a8c03121561445957600080fd5b8935614464816143e3565b985060208a0135614474816143e3565b975060408a0135614484816143e3565b965060608a0135614494816143e3565b955060808a01356144a4816143e3565b945060a08a01356144b4816143e3565b935060c08a0135925060e08a01356144cb8161442c565b91506101008a01356144dc816143e3565b809150509295985092959850929598565b6001600160a01b0391909116815260200190565b634e487b7160e01b600052604160045260246000fd5b604051601f8201601f191681016001600160401b038111828210171561453f5761453f614501565b604052919050565b60006001600160401b0382111561456057614560614501565b50601f01601f191660200190565b6000806040838503121561458157600080fd5b823561458c816143e3565b915060208301356001600160401b038111156145a757600080fd5b8301601f810185136145b857600080fd5b80356145cb6145c682614547565b614517565b8181528660208385010111156145e057600080fd5b816020840160208301376000602083830101528093505050509250929050565b60006020828403121561461257600080fd5b81356144258161442c565b8215158152604060208201526000613138604083018461438b565b60008060008060008060008060008060006101608c8e03121561465a57600080fd5b8b35614665816143e3565b9a5060208c0135614675816143e3565b995060408c0135614685816143e3565b985060608c0135614695816143e3565b975060808c01356146a5816143e3565b965060a08c01356146b5816143e3565b955060c08c01356146c5816143e3565b945060e08c01356146d5816143e3565b93506101008c013592506101208c01356146ee8161442c565b91506146fd6101408d016143f8565b90509295989b509295989b9093969950565b60006020828403121561472157600080fd5b81516001600160401b0381111561473757600080fd5b8201601f8101841361474857600080fd5b80516147566145c682614547565b81815285602083850101111561476b57600080fd5b61477c826020830160208601614367565b95945050505050565b60008251614797818460208701614367565b73204170654c656e64696e6720537472617465677960601b920191825250601401919050565b6000602082840312156147cf57600080fd5b5051919050565b6020808252602c90820152600080516020614cfe83398151915260408201526b19195b1959d85d1958d85b1b60a21b606082015260800190565b6020808252602c90820152600080516020614cfe83398151915260408201526b6163746976652070726f787960a01b606082015260800190565b634e487b7160e01b600052601160045260246000fd5b818103818111156131235761312361484a565b60006020828403121561488557600080fd5b81516144258161442c565b80820281158282048414176131235761312361484a565b600080600080608085870312156148bd57600080fd5b505082516020840151604085015160609095015191969095509092509050565b6000826148fa57634e487b7160e01b600052601260045260246000fd5b500490565b6020808252602b908201527f496e697469616c697a61626c653a20636f6e7472616374206973206e6f74206960408201526a6e697469616c697a696e6760a81b606082015260800190565b808201808211156131235761312361484a565b6001600160a01b03929092168252602082015260400190565b6000806040838503121561498957600080fd5b82519150602083015161499b816143e3565b809150509250929050565b6000602082840312156149b857600080fd5b815160ff8116811461442557600080fd5b6000602082840312156149db57600080fd5b8151614425816143e3565b600081518084526020808501945080840160005b83811015614a1f5781516001600160a01b0316875295820195908201906001016149fa565b509495945050505050565b82815260406020820152600061313860408301846149e6565b60006020808385031215614a5657600080fd5b82516001600160401b0380821115614a6d57600080fd5b818501915085601f830112614a8157600080fd5b815181811115614a9357614a93614501565b8060051b9150614aa4848301614517565b8181529183018401918481019088841115614abe57600080fd5b938501935b8385101561426d57845182529385019390850190614ac3565b634e487b7160e01b600052603260045260246000fd5b60008251614b04818460208701614367565b9190910192915050565b6001600160a01b038381168252604060208084018290528451918401829052600092858201929091906060860190855b81811015614b5c578551851683529483019491830191600101614b3e565b509098975050505050505050565b85815284602082015260a060408201526000614b8960a08301866149e6565b6001600160a01b0394909416606083015250608001529392505050565b80516001600160501b038116811461440357600080fd5b600080600080600060a08688031215614bd557600080fd5b614bde86614ba6565b9450602086015193506040860151925060608601519150614c0160808701614ba6565b90509295509295909350565b600181815b80851115614c48578160001904821115614c2e57614c2e61484a565b80851615614c3b57918102915b93841c9390800290614c12565b509250929050565b600082614c5f57506001613123565b81614c6c57506000613123565b8160018114614c825760028114614c8c57614ca8565b6001915050613123565b60ff841115614c9d57614c9d61484a565b50506001821b613123565b5060208310610133831016604e8410600b8410161715614ccb575081810a613123565b614cd58383614c0d565b8060001904821115614ce957614ce961484a565b029392505050565b60006131208383614c5056fe46756e6374696f6e206d7573742062652063616c6c6564207468726f75676820360894a13ba1a3210667c828492db98dca3e2076cc3735a920a3ca505d382bbc416464726573733a206c6f772d6c6576656c2064656c65676174652063616c6c206661696c6564a26469706673582212205b01f29c3d032167feabc5ec5541dd5109ac786f84e75d95a5d3d3894c35e39f64736f6c63430008130033",
  "devdoc": {
    "events": {
      "AdminChanged(address,address)": {
        "details": "Emitted when the admin account has changed."
      },
      "BeaconUpgraded(address)": {
        "details": "Emitted when the beacon is changed."
      },
      "Initialized(uint8)": {
        "details": "Triggered when the contract has been initialized or reinitialized."
      },
      "Paused(address)": {
        "details": "Emitted when the pause is triggered by `account`."
      },
      "Unpaused(address)": {
        "details": "Emitted when the pause is lifted by `account`."
      },
      "Upgraded(address)": {
        "details": "Emitted when the implementation is upgraded."
      }
    },
    "kind": "dev",
    "methods": {
      "accrueInterest()": {
        "details": "This calculates interest accrued from the last checkpointed block   up to the current block and writes new checkpoint to storage."
      },
      "borrowRatePerBlock()": {
        "returns": {
          "_0": "The borrow interest rate per block, scaled by 1e18"
        }
      },
      "canWork()": {
        "details": "Will be executed by keeper and before `work` method execution."
      },
      "constructor": {
        "custom:oz-upgrades-unsafe-allow": "constructor"
      },
      "depositedBalance()": {
        "details": "Unlike the snapshot function, this function recalculates the value of the deposit."
      },
      "depositedBalanceSnapshot()": {
        "details": "The exchange rate is recalculated at the last time someone touched the cToken contract.      Transactions are not performed too often on this contract, perhaps we should consider recalculating the rate ourselves."
      },
      "exchangeRateCurrent()": {
        "returns": {
          "_0": "Calculated exchange rate scaled by 1e18"
        }
      },
      "exchangeRateStored()": {
        "details": "This function does not accrue interest before calculating the exchange rate",
        "returns": {
          "_0": "Calculated exchange rate scaled by 1e18"
        }
      },
      "interestRatePerBlock()": {
        "details": "Can be calculated not for all strategies and usally not such accurate as sliding window averages,  but still can be usafull for on chain calculations and as fallback method.",
        "returns": {
          "_0": "The interest rate per block, scaled by 1e18"
        }
      },
      "owner()": {
        "details": "Returns the address of the current owner."
      },
      "paused()": {
        "details": "Returns true if the contract is paused, and false otherwise."
      },
      "proxiableUUID()": {
        "details": "Implementation of the ERC1822 {proxiableUUID} function. This returns the storage slot used by the implementation. It is used to validate the implementation's compatibility when performing an upgrade. IMPORTANT: A proxy pointing at a proxiable contract should not be considered proxiable itself, because this risks bricking a proxy that upgrades to it, by delegating to itself until out of gas. Thus it is critical that this function revert if invoked through a proxy. This is guaranteed by the `notDelegated` modifier."
      },
      "renounceOwnership()": {
        "details": "Leaves the contract without owner. It will not be possible to call `onlyOwner` functions. Can only be called by the current owner. NOTE: Renouncing ownership will leave the contract without an owner, thereby disabling any functionality that is only available to the owner."
      },
      "setDebtThreshold(uint256)": {
        "params": {
          "_debtThreshold": "The new debt threshold value."
        }
      },
      "setEstimatedWorkGas(uint256)": {
        "params": {
          "_estimatedWorkGas": "The estimated \"work\" gas value."
        }
      },
      "setHealthCheck(address)": {
        "details": "Emits the \"HealthCheckChanged\" event.",
        "params": {
          "_healthCheck": "A new health check contract address."
        }
      },
      "setHealthCheckEnabled(bool)": {
        "details": "Emits the \"HealthCheckEnabledChanged\" event. Do not disable the health check, unless you need to perform \"report\" in an emergency.",
        "params": {
          "_healthCheckEnabled": "If \"true\" - health check will be disabled."
        }
      },
      "setMinimumBetweenExecutions(uint256)": {
        "params": {
          "time": "- required time which must pass between executions of the job in seconds. Set in hours to prevent block timestamp vulnerability"
        }
      },
      "setProfitFactor(uint256)": {
        "params": {
          "_profitFactor": "The new profit factor value."
        }
      },
      "supplyRatePerBlock()": {
        "returns": {
          "_0": "The supply interest rate per block, scaled by 1e18"
        }
      },
      "timeFromLastExecution()": {
        "returns": {
          "_0": "seconds from last execution in a range of 900 seconds"
        }
      },
      "transferOwnership(address)": {
        "details": "Transfers ownership of the contract to a new account (`newOwner`). Can only be called by the current owner."
      },
      "upgradeTo(address)": {
        "custom:oz-upgrades-unsafe-allow-reachable": "delegatecall",
        "details": "Upgrade the implementation of the proxy to `newImplementation`. Calls {_authorizeUpgrade}. Emits an {Upgraded} event."
      },
      "upgradeToAndCall(address,bytes)": {
        "custom:oz-upgrades-unsafe-allow-reachable": "delegatecall",
        "details": "Upgrade the implementation of the proxy to `newImplementation`, and subsequently execute the function call encoded in `data`. Calls {_authorizeUpgrade}. Emits an {Upgraded} event."
      },
      "version()": {
        "returns": {
          "_0": "a version in semantic versioning format"
        }
      },
      "withdraw(uint256)": {
        "params": {
          "assets": "A amount of tokens to withdraw."
        },
        "returns": {
          "loss": "A number of tokens that the strategy could not return."
        }
      },
      "work()": {
        "details": "`nonReentrant` modifier might be excess there, since we have `isTimePassFromLastExecution` check and `refreshLastWorkTime` at start (see `onlyWhenCanWork` modifier). Let's keep it, as `canWork` can be overridden."
      }
    },
    "stateVariables": {
      "__gap": {
        "details": "This empty reserved space is put in place to allow future versions to add new variables without shifting down storage in the inheritance chain. See https://docs.openzeppelin.com/contracts/4.x/upgradeable#storage_gaps"
      }
    },
    "version": 1
  },
  "userdoc": {
    "errors": {
      "CannotWorkNow()": [
        {
          "notice": "Someone tried to execute work function while `canWork` is `false`"
        }
      ],
      "PayableWorkNotAllowed()": [
        {
          "notice": "Contract expect work will be prepayd, so it cannot pay for work"
        }
      ],
      "TimeMinimumBetweenExecutionsIncorrect(uint256)": [
        {
          "notice": "Given time minimum between execution must be greater then 1000"
        }
      ]
    },
    "events": {
      "DepositedToProtocol(uint256,uint256,uint256,uint256,uint256)": {
        "notice": "Emitted when assets are moved to the protocol "
      },
      "WithdrawnFromProtocol(uint256,uint256,uint256,uint256,uint256,uint256)": {
        "notice": "Emitted when assets are moved from the protocol "
      },
      "Worked(address)": {
        "notice": "Job work function was executed by worker bot"
      }
    },
    "kind": "user",
    "methods": {
      "accrueInterest()": {
        "notice": "Applies accrued interest to total borrows and reserves"
      },
      "asset()": {
        "notice": "Returns the contract address of the underlying asset of this strategy."
      },
      "borrowRatePerBlock()": {
        "notice": "Returns the current per-block borrow interest rate for this cToken"
      },
      "cToken()": {
        "notice": "Market on top of which strategy operates "
      },
      "canWork()": {
        "notice": "If work can be executed by keeper at this moment returns true"
      },
      "checker()": {
        "notice": "Resolver checker that says if the work can be performed and with what params."
      },
      "compToken()": {
        "notice": "Token which is used for reward, COMP for Compund "
      },
      "debtThreshold()": {
        "notice": "Use this to adjust the threshold at which running a debt causes a work trigger."
      },
      "depositedBalance()": {
        "notice": "Returns current deposited balance (in asset)."
      },
      "depositedBalanceSnapshot()": {
        "notice": "Returns current deposited balance (in shares, in asset)."
      },
      "estimatedTotalAssets()": {
        "notice": "Estimates the total amount of strategy funds (including those invested in the base protocol)."
      },
      "estimatedWorkGas()": {
        "notice": "The estimated amount of gas required for the \"work\" execution."
      },
      "exchangeRateCurrent()": {
        "notice": "Accrue interest then return the up-to-date exchange rate"
      },
      "exchangeRateStored()": {
        "notice": "Calculates the exchange rate from the underlying to the CToken"
      },
      "interestRatePerBlock()": {
        "notice": "Returns interst rate of strategy per block, for current block or block prior to this one."
      },
      "isPrepaid()": {
        "notice": "If job is prepaid, then it not will try to pay on executed work."
      },
      "lastWorkTime()": {
        "notice": "Timestamp of last work execution block in seconds."
      },
      "lender()": {
        "notice": "Returns the contract address of the Lender to which this strategy is connected."
      },
      "minBananaToSell()": {
        "notice": "Minimum BANANA token amount to sell."
      },
      "minimumBetweenExecutions()": {
        "notice": "Mininmal time which must pass between executions of the job in seconds. Better set hours, but at least set to greater then 900 seconds, node opperators able to manipulate timestamp in 900 seconds range, on some blockchains maybe bigger."
      },
      "name()": {
        "notice": "Returns the name of this strategy."
      },
      "payableWork()": {
        "notice": "Bot will call this method when `checker` returns `true`. Will pay caller `_doWork` method stay as it is, to allow a call off-chain"
      },
      "profitFactor()": {
        "notice": "Shows how many times the gas price spent for the \"work\" function should be lower than the profit to trigger."
      },
      "rainMaker()": {
        "notice": "Contract which allow claim compToken reward "
      },
      "secondPerBlock()": {
        "notice": "Required for mapping of interest rate calculated per second to rate calculated per block "
      },
      "setDebtThreshold(uint256)": {
        "notice": "Sets the debt threshold."
      },
      "setEstimatedWorkGas(uint256)": {
        "notice": "Sets the estimated gas that will be required for \"work\" function."
      },
      "setHealthCheck(address)": {
        "notice": "Sets the health check implementation contract."
      },
      "setHealthCheckEnabled(bool)": {
        "notice": "Enables or disables the health check."
      },
      "setMinBananaToSell(uint256)": {
        "notice": "Sets the minimum number of BANANA tokens that must be on the contract to sell."
      },
      "setMinimumBetweenExecutions(uint256)": {
        "notice": "Set minimum time between executions."
      },
      "setProfitFactor(uint256)": {
        "notice": "Sets the profit factor."
      },
      "shutdown()": {
        "notice": "Shutdown the strategy and revoke it form the lender."
      },
      "supplyRatePerBlock()": {
        "notice": "Returns the current per-block supply interest rate for this cToken"
      },
      "timeFromLastExecution()": {
        "notice": "Time that passed since the last exection"
      },
      "version()": {
        "notice": "Returns the current version of this contract"
      },
      "withdraw(uint256)": {
        "notice": "Transfers a specified amount of tokens to the vault."
      },
      "work()": {
        "notice": "A handle that allows the `_doWork` function to be invoked externally by everyone. Perform a `canWork` check to avoid unnecessary and (maybe) malicious calls."
      }
    },
    "version": 1
  },
  "storageLayout": {
    "storage": [
      {
        "astId": 986,
        "contract": "src/strategies/ApeLendingStrategy.sol:ApeLendingStrategy",
        "label": "_initialized",
        "offset": 0,
        "slot": "0",
        "type": "t_uint8"
      },
      {
        "astId": 989,
        "contract": "src/strategies/ApeLendingStrategy.sol:ApeLendingStrategy",
        "label": "_initializing",
        "offset": 1,
        "slot": "0",
        "type": "t_bool"
      },
      {
        "astId": 968,
        "contract": "src/strategies/ApeLendingStrategy.sol:ApeLendingStrategy",
        "label": "__gap",
        "offset": 0,
        "slot": "1",
        "type": "t_array(t_uint256)50_storage"
      },
      {
        "astId": 1283,
        "contract": "src/strategies/ApeLendingStrategy.sol:ApeLendingStrategy",
        "label": "__gap",
        "offset": 0,
        "slot": "51",
        "type": "t_array(t_uint256)50_storage"
      },
      {
        "astId": 17858,
        "contract": "src/strategies/ApeLendingStrategy.sol:ApeLendingStrategy",
        "label": "__gap",
        "offset": 0,
        "slot": "101",
        "type": "t_array(t_uint256)50_storage"
      },
      {
        "astId": 5398,
        "contract": "src/strategies/ApeLendingStrategy.sol:ApeLendingStrategy",
        "label": "__gap",
        "offset": 0,
        "slot": "151",
        "type": "t_array(t_uint256)50_storage"
      },
      {
        "astId": 1425,
        "contract": "src/strategies/ApeLendingStrategy.sol:ApeLendingStrategy",
        "label": "_status",
        "offset": 0,
        "slot": "201",
        "type": "t_uint256"
      },
      {
        "astId": 1494,
        "contract": "src/strategies/ApeLendingStrategy.sol:ApeLendingStrategy",
        "label": "__gap",
        "offset": 0,
        "slot": "202",
        "type": "t_array(t_uint256)49_storage"
      },
      {
        "astId": 10074,
        "contract": "src/strategies/ApeLendingStrategy.sol:ApeLendingStrategy",
        "label": "lastWorkTime",
        "offset": 0,
        "slot": "251",
        "type": "t_uint256"
      },
      {
        "astId": 10077,
        "contract": "src/strategies/ApeLendingStrategy.sol:ApeLendingStrategy",
        "label": "minimumBetweenExecutions",
        "offset": 0,
        "slot": "252",
        "type": "t_uint256"
      },
      {
        "astId": 10082,
        "contract": "src/strategies/ApeLendingStrategy.sol:ApeLendingStrategy",
        "label": "__gap",
        "offset": 0,
        "slot": "253",
        "type": "t_array(t_uint256)50_storage"
      },
      {
        "astId": 10485,
        "contract": "src/strategies/ApeLendingStrategy.sol:ApeLendingStrategy",
        "label": "ops",
        "offset": 0,
        "slot": "303",
        "type": "t_contract(IOps)10457"
      },
      {
        "astId": 10487,
        "contract": "src/strategies/ApeLendingStrategy.sol:ApeLendingStrategy",
        "label": "gelato",
        "offset": 0,
        "slot": "304",
        "type": "t_address_payable"
      },
      {
        "astId": 10499,
        "contract": "src/strategies/ApeLendingStrategy.sol:ApeLendingStrategy",
        "label": "__gap",
        "offset": 0,
        "slot": "305",
        "type": "t_array(t_uint256)50_storage"
      },
      {
        "astId": 9949,
        "contract": "src/strategies/ApeLendingStrategy.sol:ApeLendingStrategy",
        "label": "isPrepaid",
        "offset": 0,
        "slot": "355",
        "type": "t_bool"
      },
      {
        "astId": 9954,
        "contract": "src/strategies/ApeLendingStrategy.sol:ApeLendingStrategy",
        "label": "__gap",
        "offset": 0,
        "slot": "356",
        "type": "t_array(t_uint256)50_storage"
      },
      {
        "astId": 465,
        "contract": "src/strategies/ApeLendingStrategy.sol:ApeLendingStrategy",
        "label": "_owner",
        "offset": 0,
        "slot": "406",
        "type": "t_address"
      },
      {
        "astId": 585,
        "contract": "src/strategies/ApeLendingStrategy.sol:ApeLendingStrategy",
        "label": "__gap",
        "offset": 0,
        "slot": "407",
        "type": "t_array(t_uint256)49_storage"
      },
      {
        "astId": 17892,
        "contract": "src/strategies/ApeLendingStrategy.sol:ApeLendingStrategy",
        "label": "__gap",
        "offset": 0,
        "slot": "456",
        "type": "t_array(t_uint256)50_storage"
      },
      {
        "astId": 10589,
        "contract": "src/strategies/ApeLendingStrategy.sol:ApeLendingStrategy",
        "label": "healthCheck",
        "offset": 0,
        "slot": "506",
        "type": "t_contract(IHealthCheck)10782"
      },
      {
        "astId": 10591,
        "contract": "src/strategies/ApeLendingStrategy.sol:ApeLendingStrategy",
        "label": "healthCheckEnabled",
        "offset": 20,
        "slot": "506",
        "type": "t_bool"
      },
      {
        "astId": 10596,
        "contract": "src/strategies/ApeLendingStrategy.sol:ApeLendingStrategy",
        "label": "__gap",
        "offset": 0,
        "slot": "507",
        "type": "t_array(t_uint256)50_storage"
      },
      {
        "astId": 1305,
        "contract": "src/strategies/ApeLendingStrategy.sol:ApeLendingStrategy",
        "label": "_paused",
        "offset": 0,
        "slot": "557",
        "type": "t_bool"
      },
      {
        "astId": 1410,
        "contract": "src/strategies/ApeLendingStrategy.sol:ApeLendingStrategy",
        "label": "__gap",
        "offset": 0,
        "slot": "558",
        "type": "t_array(t_uint256)49_storage"
      },
      {
        "astId": 13578,
        "contract": "src/strategies/ApeLendingStrategy.sol:ApeLendingStrategy",
        "label": "lender",
        "offset": 0,
        "slot": "607",
        "type": "t_contract(IStrategiesLender)11049"
      },
      {
        "astId": 13581,
        "contract": "src/strategies/ApeLendingStrategy.sol:ApeLendingStrategy",
        "label": "asset",
        "offset": 0,
        "slot": "608",
        "type": "t_contract(IERC20Upgradeable)1573"
      },
      {
        "astId": 13584,
        "contract": "src/strategies/ApeLendingStrategy.sol:ApeLendingStrategy",
        "label": "debtThreshold",
        "offset": 0,
        "slot": "609",
        "type": "t_uint256"
      },
      {
        "astId": 13587,
        "contract": "src/strategies/ApeLendingStrategy.sol:ApeLendingStrategy",
        "label": "estimatedWorkGas",
        "offset": 0,
        "slot": "610",
        "type": "t_uint256"
      },
      {
        "astId": 13590,
        "contract": "src/strategies/ApeLendingStrategy.sol:ApeLendingStrategy",
        "label": "profitFactor",
        "offset": 0,
        "slot": "611",
        "type": "t_uint256"
      },
      {
        "astId": 13594,
        "contract": "src/strategies/ApeLendingStrategy.sol:ApeLendingStrategy",
        "label": "_nativeTokenPriceFeed",
        "offset": 0,
        "slot": "612",
        "type": "t_contract(AggregatorV3Interface)45"
      },
      {
        "astId": 13598,
        "contract": "src/strategies/ApeLendingStrategy.sol:ApeLendingStrategy",
        "label": "_assetPriceFeed",
        "offset": 0,
        "slot": "613",
        "type": "t_contract(AggregatorV3Interface)45"
      },
      {
        "astId": 13601,
        "contract": "src/strategies/ApeLendingStrategy.sol:ApeLendingStrategy",
        "label": "_assetDecimals",
        "offset": 0,
        "slot": "614",
        "type": "t_uint256"
      },
      {
        "astId": 13606,
        "contract": "src/strategies/ApeLendingStrategy.sol:ApeLendingStrategy",
        "label": "__gap",
        "offset": 0,
        "slot": "615",
        "type": "t_array(t_uint256)50_storage"
      },
      {
        "astId": 14336,
        "contract": "src/strategies/ApeLendingStrategy.sol:ApeLendingStrategy",
        "label": "cToken",
        "offset": 0,
        "slot": "665",
        "type": "t_contract(ICToken)15065"
      },
      {
        "astId": 14340,
        "contract": "src/strategies/ApeLendingStrategy.sol:ApeLendingStrategy",
        "label": "rainMaker",
        "offset": 0,
        "slot": "666",
        "type": "t_contract(IRainMaker)15169"
      },
      {
        "astId": 14344,
        "contract": "src/strategies/ApeLendingStrategy.sol:ApeLendingStrategy",
        "label": "compToken",
        "offset": 0,
        "slot": "667",
        "type": "t_contract(IERC20Upgradeable)1573"
      },
      {
        "astId": 14347,
        "contract": "src/strategies/ApeLendingStrategy.sol:ApeLendingStrategy",
        "label": "secondPerBlock",
        "offset": 0,
        "slot": "668",
        "type": "t_uint256"
      },
      {
        "astId": 14352,
        "contract": "src/strategies/ApeLendingStrategy.sol:ApeLendingStrategy",
        "label": "__gap",
        "offset": 0,
        "slot": "669",
        "type": "t_array(t_uint256)50_storage"
      },
      {
        "astId": 12757,
        "contract": "src/strategies/ApeLendingStrategy.sol:ApeLendingStrategy",
        "label": "minBananaToSell",
        "offset": 0,
        "slot": "719",
        "type": "t_uint256"
      },
      {
        "astId": 12760,
        "contract": "src/strategies/ApeLendingStrategy.sol:ApeLendingStrategy",
        "label": "pancakeRouter",
        "offset": 0,
        "slot": "720",
        "type": "t_contract(IPancakeRouter)15097"
      },
      {
        "astId": 12765,
        "contract": "src/strategies/ApeLendingStrategy.sol:ApeLendingStrategy",
        "label": "__gap",
        "offset": 0,
        "slot": "721",
        "type": "t_array(t_uint256)50_storage"
      }
    ],
    "types": {
      "t_address": {
        "encoding": "inplace",
        "label": "address",
        "numberOfBytes": "20"
      },
      "t_address_payable": {
        "encoding": "inplace",
        "label": "address payable",
        "numberOfBytes": "20"
      },
      "t_array(t_uint256)49_storage": {
        "base": "t_uint256",
        "encoding": "inplace",
        "label": "uint256[49]",
        "numberOfBytes": "1568"
      },
      "t_array(t_uint256)50_storage": {
        "base": "t_uint256",
        "encoding": "inplace",
        "label": "uint256[50]",
        "numberOfBytes": "1600"
      },
      "t_bool": {
        "encoding": "inplace",
        "label": "bool",
        "numberOfBytes": "1"
      },
      "t_contract(AggregatorV3Interface)45": {
        "encoding": "inplace",
        "label": "contract AggregatorV3Interface",
        "numberOfBytes": "20"
      },
      "t_contract(ICToken)15065": {
        "encoding": "inplace",
        "label": "contract ICToken",
        "numberOfBytes": "20"
      },
      "t_contract(IERC20Upgradeable)1573": {
        "encoding": "inplace",
        "label": "contract IERC20Upgradeable",
        "numberOfBytes": "20"
      },
      "t_contract(IHealthCheck)10782": {
        "encoding": "inplace",
        "label": "contract IHealthCheck",
        "numberOfBytes": "20"
      },
      "t_contract(IOps)10457": {
        "encoding": "inplace",
        "label": "contract IOps",
        "numberOfBytes": "20"
      },
      "t_contract(IPancakeRouter)15097": {
        "encoding": "inplace",
        "label": "contract IPancakeRouter",
        "numberOfBytes": "20"
      },
      "t_contract(IRainMaker)15169": {
        "encoding": "inplace",
        "label": "contract IRainMaker",
        "numberOfBytes": "20"
      },
      "t_contract(IStrategiesLender)11049": {
        "encoding": "inplace",
        "label": "contract IStrategiesLender",
        "numberOfBytes": "20"
      },
      "t_uint256": {
        "encoding": "inplace",
        "label": "uint256",
        "numberOfBytes": "32"
      },
      "t_uint8": {
        "encoding": "inplace",
        "label": "uint8",
        "numberOfBytes": "1"
      }
    }
  }
}