{
  "address": "0x2536d530221B5383e2E6AA1C0F05F84A79FD7579",
  "abi": [
    {
      "inputs": [
        {
          "internalType": "bool",
          "name": "needDisableInitializers",
          "type": "bool"
        }
      ],
      "stateMutability": "nonpayable",
      "type": "constructor"
    },
    {
      "inputs": [],
      "name": "CallerIsNotAVault",
      "type": "error"
    },
    {
      "inputs": [],
      "name": "CannotWorkNow",
      "type": "error"
    },
    {
      "inputs": [],
      "name": "HealthCheckFailed",
      "type": "error"
    },
    {
      "inputs": [],
      "name": "IncompatibleCTokenContract",
      "type": "error"
    },
    {
      "inputs": [],
      "name": "IncompatiblePriceFeeds",
      "type": "error"
    },
    {
      "inputs": [
        {
          "internalType": "uint256",
          "name": "code",
          "type": "uint256"
        }
      ],
      "name": "MintError",
      "type": "error"
    },
    {
      "inputs": [],
      "name": "PayableWorkNotAllowed",
      "type": "error"
    },
    {
      "inputs": [
        {
          "internalType": "uint256",
          "name": "code",
          "type": "uint256"
        }
      ],
      "name": "RedeemError",
      "type": "error"
    },
    {
      "inputs": [
        {
          "internalType": "uint256",
          "name": "_givenTime",
          "type": "uint256"
        }
      ],
      "name": "TimeMinimumBetweenExecutionsIncorrect",
      "type": "error"
    },
    {
      "inputs": [],
      "name": "UnsupportedDecimals",
      "type": "error"
    },
    {
      "anonymous": false,
      "inputs": [
        {
          "indexed": false,
          "internalType": "address",
          "name": "previousAdmin",
          "type": "address"
        },
        {
          "indexed": false,
          "internalType": "address",
          "name": "newAdmin",
          "type": "address"
        }
      ],
      "name": "AdminChanged",
      "type": "event"
    },
    {
      "anonymous": false,
      "inputs": [
        {
          "indexed": true,
          "internalType": "address",
          "name": "beacon",
          "type": "address"
        }
      ],
      "name": "BeaconUpgraded",
      "type": "event"
    },
    {
      "anonymous": false,
      "inputs": [
        {
          "indexed": false,
          "internalType": "uint256",
          "name": "debtThreshold",
          "type": "uint256"
        }
      ],
      "name": "DebtThresholdUpdated",
      "type": "event"
    },
    {
      "anonymous": false,
      "inputs": [
        {
          "indexed": false,
          "internalType": "uint256",
          "name": "estimatedWorkGas",
          "type": "uint256"
        }
      ],
      "name": "EstimatedWorkGasUpdated",
      "type": "event"
    },
    {
      "anonymous": false,
      "inputs": [
        {
          "indexed": false,
          "internalType": "uint256",
          "name": "profit",
          "type": "uint256"
        },
        {
          "indexed": false,
          "internalType": "uint256",
          "name": "loss",
          "type": "uint256"
        },
        {
          "indexed": false,
          "internalType": "uint256",
          "name": "debtPayment",
          "type": "uint256"
        },
        {
          "indexed": false,
          "internalType": "uint256",
          "name": "outstandingDebt",
          "type": "uint256"
        }
      ],
      "name": "Harvested",
      "type": "event"
    },
    {
      "anonymous": false,
      "inputs": [
        {
          "indexed": false,
          "internalType": "address",
          "name": "",
          "type": "address"
        }
      ],
      "name": "HealthCheckChanged",
      "type": "event"
    },
    {
      "anonymous": false,
      "inputs": [
        {
          "indexed": false,
          "internalType": "bool",
          "name": "",
          "type": "bool"
        }
      ],
      "name": "HealthCheckEnabledChanged",
      "type": "event"
    },
    {
      "anonymous": false,
      "inputs": [
        {
          "indexed": false,
          "internalType": "uint8",
          "name": "version",
          "type": "uint8"
        }
      ],
      "name": "Initialized",
      "type": "event"
    },
    {
      "anonymous": false,
      "inputs": [
        {
          "indexed": true,
          "internalType": "address",
          "name": "previousOwner",
          "type": "address"
        },
        {
          "indexed": true,
          "internalType": "address",
          "name": "newOwner",
          "type": "address"
        }
      ],
      "name": "OwnershipTransferred",
      "type": "event"
    },
    {
      "anonymous": false,
      "inputs": [
        {
          "indexed": false,
          "internalType": "address",
          "name": "account",
          "type": "address"
        }
      ],
      "name": "Paused",
      "type": "event"
    },
    {
      "anonymous": false,
      "inputs": [
        {
          "indexed": false,
          "internalType": "address",
          "name": "account",
          "type": "address"
        }
      ],
      "name": "Unpaused",
      "type": "event"
    },
    {
      "anonymous": false,
      "inputs": [
        {
          "indexed": false,
          "internalType": "uint256",
          "name": "profitFactor",
          "type": "uint256"
        }
      ],
      "name": "UpdatedProfitFactor",
      "type": "event"
    },
    {
      "anonymous": false,
      "inputs": [
        {
          "indexed": true,
          "internalType": "address",
          "name": "implementation",
          "type": "address"
        }
      ],
      "name": "Upgraded",
      "type": "event"
    },
    {
      "anonymous": false,
      "inputs": [
        {
          "indexed": true,
          "internalType": "address",
          "name": "worker",
          "type": "address"
        }
      ],
      "name": "Worked",
      "type": "event"
    },
    {
      "inputs": [],
      "name": "BANANA",
      "outputs": [
        {
          "internalType": "address",
          "name": "",
          "type": "address"
        }
      ],
      "stateMutability": "view",
      "type": "function"
    },
    {
      "inputs": [],
      "name": "PANCAKE_ROUTER",
      "outputs": [
        {
          "internalType": "address",
          "name": "",
          "type": "address"
        }
      ],
      "stateMutability": "view",
      "type": "function"
    },
    {
      "inputs": [],
      "name": "RAIN_MAKER",
      "outputs": [
        {
          "internalType": "address",
          "name": "",
          "type": "address"
        }
      ],
      "stateMutability": "view",
      "type": "function"
    },
    {
      "inputs": [],
      "name": "WBNB",
      "outputs": [
        {
          "internalType": "address",
          "name": "",
          "type": "address"
        }
      ],
      "stateMutability": "view",
      "type": "function"
    },
    {
      "inputs": [],
      "name": "asset",
      "outputs": [
        {
          "internalType": "contract IERC20Upgradeable",
          "name": "",
          "type": "address"
        }
      ],
      "stateMutability": "view",
      "type": "function"
    },
    {
      "inputs": [],
      "name": "cToken",
      "outputs": [
        {
          "internalType": "contract ICToken",
          "name": "",
          "type": "address"
        }
      ],
      "stateMutability": "view",
      "type": "function"
    },
    {
      "inputs": [],
      "name": "canWork",
      "outputs": [
        {
          "internalType": "bool",
          "name": "",
          "type": "bool"
        }
      ],
      "stateMutability": "view",
      "type": "function"
    },
    {
      "inputs": [],
      "name": "checker",
      "outputs": [
        {
          "internalType": "bool",
          "name": "canExec",
          "type": "bool"
        },
        {
          "internalType": "bytes",
          "name": "execPayload",
          "type": "bytes"
        }
      ],
      "stateMutability": "view",
      "type": "function"
    },
    {
      "inputs": [],
      "name": "debtThreshold",
      "outputs": [
        {
          "internalType": "uint256",
          "name": "",
          "type": "uint256"
        }
      ],
      "stateMutability": "view",
      "type": "function"
    },
    {
      "inputs": [],
      "name": "depositedBalance",
      "outputs": [
        {
          "internalType": "uint256",
          "name": "",
          "type": "uint256"
        }
      ],
      "stateMutability": "nonpayable",
      "type": "function"
    },
    {
      "inputs": [],
      "name": "depositedBalanceSnapshot",
      "outputs": [
        {
          "internalType": "uint256",
          "name": "",
          "type": "uint256"
        }
      ],
      "stateMutability": "view",
      "type": "function"
    },
    {
      "inputs": [],
      "name": "estimatedTotalAssets",
      "outputs": [
        {
          "internalType": "uint256",
          "name": "",
          "type": "uint256"
        }
      ],
      "stateMutability": "view",
      "type": "function"
    },
    {
      "inputs": [],
      "name": "estimatedWorkGas",
      "outputs": [
        {
          "internalType": "uint256",
          "name": "",
          "type": "uint256"
        }
      ],
      "stateMutability": "view",
      "type": "function"
    },
    {
      "inputs": [],
      "name": "gelato",
      "outputs": [
        {
          "internalType": "address payable",
          "name": "",
          "type": "address"
        }
      ],
      "stateMutability": "view",
      "type": "function"
    },
    {
      "inputs": [],
      "name": "healthCheck",
      "outputs": [
        {
          "internalType": "contract IHealthCheck",
          "name": "",
          "type": "address"
        }
      ],
      "stateMutability": "view",
      "type": "function"
    },
    {
      "inputs": [],
      "name": "healthCheckEnabled",
      "outputs": [
        {
          "internalType": "bool",
          "name": "",
          "type": "bool"
        }
      ],
      "stateMutability": "view",
      "type": "function"
    },
    {
      "inputs": [
        {
          "internalType": "address",
          "name": "_vault",
          "type": "address"
        },
        {
          "internalType": "address",
          "name": "_cToken",
          "type": "address"
        },
        {
          "internalType": "address",
          "name": "_ops",
          "type": "address"
        },
        {
          "internalType": "address",
          "name": "_nativeTokenPriceFeed",
          "type": "address"
        },
        {
          "internalType": "address",
          "name": "_assetPriceFeed",
          "type": "address"
        },
        {
          "internalType": "uint256",
          "name": "_minReportInterval",
          "type": "uint256"
        },
        {
          "internalType": "bool",
          "name": "_isPrepaid",
          "type": "bool"
        }
      ],
      "name": "initialize",
      "outputs": [],
      "stateMutability": "nonpayable",
      "type": "function"
    },
    {
      "inputs": [],
      "name": "isPrepaid",
      "outputs": [
        {
          "internalType": "bool",
          "name": "",
          "type": "bool"
        }
      ],
      "stateMutability": "view",
      "type": "function"
    },
    {
      "inputs": [],
      "name": "lastWorkTime",
      "outputs": [
        {
          "internalType": "uint256",
          "name": "",
          "type": "uint256"
        }
      ],
      "stateMutability": "view",
      "type": "function"
    },
    {
      "inputs": [],
      "name": "minBananaToSell",
      "outputs": [
        {
          "internalType": "uint256",
          "name": "",
          "type": "uint256"
        }
      ],
      "stateMutability": "view",
      "type": "function"
    },
    {
      "inputs": [],
      "name": "minimumBetweenExecutions",
      "outputs": [
        {
          "internalType": "uint256",
          "name": "",
          "type": "uint256"
        }
      ],
      "stateMutability": "view",
      "type": "function"
    },
    {
      "inputs": [],
      "name": "name",
      "outputs": [
        {
          "internalType": "string",
          "name": "",
          "type": "string"
        }
      ],
      "stateMutability": "view",
      "type": "function"
    },
    {
      "inputs": [],
      "name": "ops",
      "outputs": [
        {
          "internalType": "contract IOps",
          "name": "",
          "type": "address"
        }
      ],
      "stateMutability": "view",
      "type": "function"
    },
    {
      "inputs": [],
      "name": "owner",
      "outputs": [
        {
          "internalType": "address",
          "name": "",
          "type": "address"
        }
      ],
      "stateMutability": "view",
      "type": "function"
    },
    {
      "inputs": [],
      "name": "pancakeRouter",
      "outputs": [
        {
          "internalType": "contract IPancakeRouter",
          "name": "",
          "type": "address"
        }
      ],
      "stateMutability": "view",
      "type": "function"
    },
    {
      "inputs": [],
      "name": "paused",
      "outputs": [
        {
          "internalType": "bool",
          "name": "",
          "type": "bool"
        }
      ],
      "stateMutability": "view",
      "type": "function"
    },
    {
      "inputs": [],
      "name": "payableWork",
      "outputs": [],
      "stateMutability": "nonpayable",
      "type": "function"
    },
    {
      "inputs": [],
      "name": "profitFactor",
      "outputs": [
        {
          "internalType": "uint256",
          "name": "",
          "type": "uint256"
        }
      ],
      "stateMutability": "view",
      "type": "function"
    },
    {
      "inputs": [],
      "name": "proxiableUUID",
      "outputs": [
        {
          "internalType": "bytes32",
          "name": "",
          "type": "bytes32"
        }
      ],
      "stateMutability": "view",
      "type": "function"
    },
    {
      "inputs": [],
      "name": "rainMaker",
      "outputs": [
        {
          "internalType": "contract IRainMaker",
          "name": "",
          "type": "address"
        }
      ],
      "stateMutability": "view",
      "type": "function"
    },
    {
      "inputs": [],
      "name": "renounceOwnership",
      "outputs": [],
      "stateMutability": "nonpayable",
      "type": "function"
    },
    {
      "inputs": [
        {
          "internalType": "uint256",
          "name": "_debtThreshold",
          "type": "uint256"
        }
      ],
      "name": "setDebtThreshold",
      "outputs": [],
      "stateMutability": "nonpayable",
      "type": "function"
    },
    {
      "inputs": [
        {
          "internalType": "uint256",
          "name": "_estimatedWorkGas",
          "type": "uint256"
        }
      ],
      "name": "setEstimatedWorkGas",
      "outputs": [],
      "stateMutability": "nonpayable",
      "type": "function"
    },
    {
      "inputs": [
        {
          "internalType": "address",
          "name": "_healthCheck",
          "type": "address"
        }
      ],
      "name": "setHealthCheck",
      "outputs": [],
      "stateMutability": "nonpayable",
      "type": "function"
    },
    {
      "inputs": [
        {
          "internalType": "bool",
          "name": "_healthCheckEnabled",
          "type": "bool"
        }
      ],
      "name": "setHealthCheckEnabled",
      "outputs": [],
      "stateMutability": "nonpayable",
      "type": "function"
    },
    {
      "inputs": [
        {
          "internalType": "uint256",
          "name": "_minBananaToSell",
          "type": "uint256"
        }
      ],
      "name": "setMinBananaToSell",
      "outputs": [],
      "stateMutability": "nonpayable",
      "type": "function"
    },
    {
      "inputs": [
        {
          "internalType": "uint256",
          "name": "_profitFactor",
          "type": "uint256"
        }
      ],
      "name": "setProfitFactor",
      "outputs": [],
      "stateMutability": "nonpayable",
      "type": "function"
    },
    {
      "inputs": [],
      "name": "shutdown",
      "outputs": [],
      "stateMutability": "nonpayable",
      "type": "function"
    },
    {
      "inputs": [],
      "name": "timeFromLastExecution",
      "outputs": [
        {
          "internalType": "uint256",
          "name": "",
          "type": "uint256"
        }
      ],
      "stateMutability": "view",
      "type": "function"
    },
    {
      "inputs": [
        {
          "internalType": "address",
          "name": "newOwner",
          "type": "address"
        }
      ],
      "name": "transferOwnership",
      "outputs": [],
      "stateMutability": "nonpayable",
      "type": "function"
    },
    {
      "inputs": [
        {
          "internalType": "address",
          "name": "newImplementation",
          "type": "address"
        }
      ],
      "name": "upgradeTo",
      "outputs": [],
      "stateMutability": "nonpayable",
      "type": "function"
    },
    {
      "inputs": [
        {
          "internalType": "address",
          "name": "newImplementation",
          "type": "address"
        },
        {
          "internalType": "bytes",
          "name": "data",
          "type": "bytes"
        }
      ],
      "name": "upgradeToAndCall",
      "outputs": [],
      "stateMutability": "payable",
      "type": "function"
    },
    {
      "inputs": [],
      "name": "vault",
      "outputs": [
        {
          "internalType": "contract IVault",
          "name": "",
          "type": "address"
        }
      ],
      "stateMutability": "view",
      "type": "function"
    },
    {
      "inputs": [],
      "name": "version",
      "outputs": [
        {
          "internalType": "string",
          "name": "",
          "type": "string"
        }
      ],
      "stateMutability": "pure",
      "type": "function"
    },
    {
      "inputs": [
        {
          "internalType": "uint256",
          "name": "assets",
          "type": "uint256"
        }
      ],
      "name": "withdraw",
      "outputs": [
        {
          "internalType": "uint256",
          "name": "loss",
          "type": "uint256"
        }
      ],
      "stateMutability": "nonpayable",
      "type": "function"
    },
    {
      "inputs": [],
      "name": "work",
      "outputs": [],
      "stateMutability": "nonpayable",
      "type": "function"
    }
  ],
  "transactionHash": "0x2faf7e1000713b7a709db98a8a3881e7eff08fd4e83754be2ea320c374d19473",
  "args": [
    true
  ],
  "numDeployments": 1,
  "solcInputHash": "188ebcefbe2f97d1b387bbb68a213921",
  "bytecode": "0x60a0604052306080523480156200001557600080fd5b506040516200472638038062004726833981016040819052620000389162000114565b8080156200004a576200004a62000052565b50506200013f565b600054610100900460ff1615620000bf5760405162461bcd60e51b815260206004820152602760248201527f496e697469616c697a61626c653a20636f6e747261637420697320696e697469604482015266616c697a696e6760c81b606482015260840160405180910390fd5b60005460ff908116101562000112576000805460ff191660ff9081179091556040519081527f7f26b83ff96e1f2b6a682f133852f6798a09c465da95921460cefb38474024989060200160405180910390a15b565b6000602082840312156200012757600080fd5b815180151581146200013857600080fd5b9392505050565b6080516145af62000177600039600081816109dc01528181610a2501528181610b7701528181610bb70152610c4a01526145af6000f3fe60806040526004361061027d5760003560e01c80638011cc9d1161014f578063c8b35c7a116100c1578063e70abe921161007a578063e70abe921461075f578063eb67821414610780578063efbb5cb014610795578063f2fde38b146107aa578063fbfa77cf146107ca578063fc0e74d1146107eb57600080fd5b8063c8b35c7a14610692578063cdb72659146106ba578063cee2b04e146106db578063cf5303cf146106fd578063d98a1c1714610720578063e08836dd1461073757600080fd5b806391397ab41161011357806391397ab4146105e657806391b00bd914610606578063b252720b1461061b578063c21ebd071461063c578063c2fa3cae1461065d578063c702ee871461067257600080fd5b80638011cc9d146105405780638cdfe166146105685780638da5cb5b1461057f5780638dd950021461059e5780638efdfe46146105c657600080fd5b806347f76df2116101f357806359cad75d116101ac57806359cad75d146104a45780635c975abb146104bb578063635005d6146104d45780636848d47d146104ea57806369e527da1461050a578063715018a61461052b57600080fd5b806347f76df2146104025780634f1ef2861461041857806352d1902d1461042b57806353c309de1461044057806354fd4d5014610455578063573ea5751461048357600080fd5b8063322e9f0411610245578063322e9f04146103345780633659cfe61461034957806338d52e0f14610369578063417a570d146103a257806344bfc6bf146103c257806347eb98a2146103d757600080fd5b806306fdde03146102825780630f969b87146102ad57806311bc8245146102cf5780631d12f28b146102ef5780632e1a7d4d14610314575b600080fd5b34801561028e57600080fd5b50610297610800565b6040516102a49190613cf9565b60405180910390f35b3480156102b957600080fd5b506102cd6102c8366004613d0c565b610897565b005b3480156102db57600080fd5b506102cd6102ea366004613d3a565b6108dc565b3480156102fb57600080fd5b506103066102615481565b6040519081526020016102a4565b34801561032057600080fd5b5061030661032f366004613d0c565b610933565b34801561034057600080fd5b506102cd610991565b34801561035557600080fd5b506102cd610364366004613d3a565b6109d2565b34801561037557600080fd5b506102605461038a906001600160a01b031681565b6040516001600160a01b0390911681526020016102a4565b3480156103ae57600080fd5b506102cd6103bd366004613d0c565b610aba565b3480156103ce57600080fd5b50610306610af8565b3480156103e357600080fd5b50610163546103f29060ff1681565b60405190151581526020016102a4565b34801561040e57600080fd5b5061030660fc5481565b6102cd610426366004613dc6565b610b6d565b34801561043757600080fd5b50610306610c3d565b34801561044c57600080fd5b506102cd610cf0565b34801561046157600080fd5b50604080518082019091526005815264302e312e3360d81b6020820152610297565b34801561048f57600080fd5b506101305461038a906001600160a01b031681565b3480156104b057600080fd5b506103066102625481565b3480156104c757600080fd5b5061022d5460ff166103f2565b3480156104e057600080fd5b5061030660fb5481565b3480156104f657600080fd5b506102cd610505366004613e67565b610d7c565b34801561051657600080fd5b5061029a5461038a906001600160a01b031681565b34801561053757600080fd5b506102cd610dd2565b34801561054c57600080fd5b5061038a735cb93c0ade6b7f2760ec4389833b0cccb5e4efda81565b34801561057457600080fd5b506103066102635481565b34801561058b57600080fd5b50610196546001600160a01b031661038a565b3480156105aa57600080fd5b5061038a73bb4cdb9cbd36b01bd1cbaebf2de08d9173bc095c81565b3480156105d257600080fd5b506102cd6105e1366004613d0c565b610de4565b3480156105f257600080fd5b506102cd610601366004613d0c565b610df2565b34801561061257600080fd5b50610306610e30565b34801561062757600080fd5b506101fa5461038a906001600160a01b031681565b34801561064857600080fd5b5061029b5461038a906001600160a01b031681565b34801561066957600080fd5b50610306610e40565b34801561067e57600080fd5b506102cd61068d366004613e84565b610ede565b34801561069e57600080fd5b5061038a73603c7f932ed1fc6575303d8fb018fdcbb0f39a9581565b3480156106c657600080fd5b5061029c5461038a906001600160a01b031681565b3480156106e757600080fd5b506101fa546103f290600160a01b900460ff1681565b34801561070957600080fd5b5061071261100f565b6040516102a4929190613f11565b34801561072c57600080fd5b506103066102995481565b34801561074357600080fd5b5061038a7310ed43c718714eb63d5aa57b78b54704e256024e81565b34801561076b57600080fd5b5061012f5461038a906001600160a01b031681565b34801561078c57600080fd5b506103f2611076565b3480156107a157600080fd5b50610306611092565b3480156107b657600080fd5b506102cd6107c5366004613d3a565b611125565b3480156107d657600080fd5b5061025f5461038a906001600160a01b031681565b3480156107f757600080fd5b506102cd61119b565b61026054604080516395d89b4160e01b815290516060926001600160a01b0316916395d89b419160048083019260009291908290030181865afa15801561084b573d6000803e3d6000fd5b505050506040513d6000823e601f3d908101601f191682016040526108739190810190613f2c565b6040516020016108839190613f9a565b604051602081830303815290604052905090565b61089f61121b565b6102618190556040518181527fc9535537e8d84b9f2b1de4393633cf857ba693878894a0f280211615d850d7e8906020015b60405180910390a150565b6108e461121b565b6101fa80546001600160a01b0319166001600160a01b0383169081179091556040519081527f237b727bcd9a5527fd4043c1560a9bdf8eb934bc035e4656ee6e4bebca7a6b47906020016108d1565b61025f546000906001600160a01b031633146109625760405163348a645f60e11b815260040160405180910390fd5b600061096d83611276565b6102605490935090915061098b906001600160a01b031633836113c7565b50919050565b61099961142f565b6109a1611076565b6109be57604051630728f52160e21b815260040160405180910390fd5b6109c6611488565b6109d0600160c955565b565b6001600160a01b037f0000000000000000000000000000000000000000000000000000000000000000163003610a235760405162461bcd60e51b8152600401610a1a90613fd2565b60405180910390fd5b7f00000000000000000000000000000000000000000000000000000000000000006001600160a01b0316610a6c600080516020614533833981519152546001600160a01b031690565b6001600160a01b031614610a925760405162461bcd60e51b8152600401610a1a9061401e565b610a9b816114cd565b60408051600080825260208201909252610ab7918391906114d5565b50565b610ac261121b565b6102628190556040518181527f76a2e56642491d2ca27c5ad2ac9a12dc4264911b4ddcc90fc0b2c44fb2a01fea906020016108d1565b61029a54604051633af9e66960e01b81523060048201526000916001600160a01b031690633af9e669906024016020604051808303816000875af1158015610b44573d6000803e3d6000fd5b505050506040513d601f19601f82011682018060405250810190610b68919061406a565b905090565b6001600160a01b037f0000000000000000000000000000000000000000000000000000000000000000163003610bb55760405162461bcd60e51b8152600401610a1a90613fd2565b7f00000000000000000000000000000000000000000000000000000000000000006001600160a01b0316610bfe600080516020614533833981519152546001600160a01b031690565b6001600160a01b031614610c245760405162461bcd60e51b8152600401610a1a9061401e565b610c2d826114cd565b610c39828260016114d5565b5050565b6000306001600160a01b037f00000000000000000000000000000000000000000000000000000000000000001614610cdd5760405162461bcd60e51b815260206004820152603860248201527f555550535570677261646561626c653a206d757374206e6f742062652063616c60448201527f6c6564207468726f7567682064656c656761746563616c6c00000000000000006064820152608401610a1a565b5060008051602061453383398151915290565b610cf861142f565b61012f546001600160a01b03163314610d475760405162461bcd60e51b81526020600482015260116024820152704f707352656164793a206f6e6c794f707360781b6044820152606401610a1a565b6101635460ff1615610d6c576040516301b5ad6760e01b815260040160405180910390fd5b610d74611488565b6109c6611640565b610d8461121b565b6101fa8054821515600160a01b0260ff60a01b199091161790556040517f3723564e400cf869a1ec2a588cf7f8c3e1d7564a7e00d6ef949b251b90c93f69906108d190831515815260200190565b610dda61121b565b6109d060006116cc565b610dec61121b565b61029955565b610dfa61121b565b6102638190556040518181527fd94596337df4c2f0f44d30a7fc5db1c7bb60d9aca4185ed77c6fd96eb45ec298906020016108d1565b600060fb5442610b689190614099565b61029a546040516361bfb47160e11b8152306004820152600091829182916001600160a01b03169063c37f68e290602401608060405180830381865afa158015610e8e573d6000803e3d6000fd5b505050506040513d601f19601f82011682018060405250810190610eb291906140ac565b935050925050670de0b6b3a76400008183610ecd91906140e2565b610ed791906140f9565b9250505090565b600054610100900460ff1615808015610efe5750600054600160ff909116105b80610f185750303b158015610f18575060005460ff166001145b610f7b5760405162461bcd60e51b815260206004820152602e60248201527f496e697469616c697a61626c653a20636f6e747261637420697320616c72656160448201526d191e481a5b9a5d1a585b1a5e995960921b6064820152608401610a1a565b6000805460ff191660011790558015610f9e576000805461ff0019166101001790555b610fa661171f565b610fb6888785858989600061174e565b610fbf876117a5565b8015611005576000805461ff0019169055604051600181527f7f26b83ff96e1f2b6a682f133852f6798a09c465da95921460cefb38474024989060200160405180910390a15b5050505050505050565b6000606061101b611076565b6101635490925060ff16611036576329e184ef60e11b61103f565b630c8ba7c160e21b5b6040805160048152602481019091526020810180516001600160e01b03166001600160e01b03199093169290921790915291929050565b600061108360fc546119b6565b8015610b685750610b686119c8565b600061109c611b96565b6110a4610e40565b610260546040516370a0823160e01b81523060048201526001600160a01b03909116906370a0823190602401602060405180830381865afa1580156110ed573d6000803e3d6000fd5b505050506040513d601f19601f82011682018060405250810190611111919061406a565b61111b919061411b565b610b68919061411b565b61112d61121b565b6001600160a01b0381166111925760405162461bcd60e51b815260206004820152602660248201527f4f776e61626c653a206e6577206f776e657220697320746865207a65726f206160448201526564647265737360d01b6064820152608401610a1a565b610ab7816116cc565b6111a361142f565b6111ab61121b565b6111b3611cb4565b61025f5460405163177329a960e31b81523060048201526001600160a01b039091169063bb994d4890602401600060405180830381600087803b1580156111f957600080fd5b505af115801561120d573d6000803e3d6000fd5b505050506109d0600160c955565b610196546001600160a01b031633146109d05760405162461bcd60e51b815260206004820181905260248201527f4f776e61626c653a2063616c6c6572206973206e6f7420746865206f776e65726044820152606401610a1a565b610260546040516370a0823160e01b8152306004820152600091829182916001600160a01b0316906370a0823190602401602060405180830381865afa1580156112c4573d6000803e3d6000fd5b505050506040513d601f19601f820116820180604052508101906112e8919061406a565b9050838110156113bd5760006112fc610af8565b9050600061130a8287611d0f565b61029a5460405163852a12e360e01b8152600481018390529192506000916001600160a01b039091169063852a12e3906024016020604051808303816000875af115801561135c573d6000803e3d6000fd5b505050506040513d601f19601f82011682018060405250810190611380919061406a565b905080156113a4576040516305ee2ff160e11b815260048101829052602401610a1a565b81955085876113b39190614099565b94505050506113c1565b8392505b50915091565b6040516001600160a01b03831660248201526044810182905261142a90849063a9059cbb60e01b906064015b60408051601f198184030181529190526020810180516001600160e01b03166001600160e01b031990931692909217909152611d29565b505050565b600260c954036114815760405162461bcd60e51b815260206004820152601f60248201527f5265656e7472616e637947756172643a207265656e7472616e742063616c6c006044820152606401610a1a565b600260c955565b6114914260fb55565b611499611dfb565b60405133907f8065c96ce68645eb5e1342fb74a5b4646b6712a1bb6a5e86280c1526eca8d25690600090a2565b600160c955565b610ab761121b565b7f4910fdfa16fed3260ed0e7147f7cc6da11a60208b5b9406d12a635614ffd91435460ff16156115085761142a836121e7565b826001600160a01b03166352d1902d6040518163ffffffff1660e01b8152600401602060405180830381865afa925050508015611562575060408051601f3d908101601f1916820190925261155f9181019061406a565b60015b6115c55760405162461bcd60e51b815260206004820152602e60248201527f45524331393637557067726164653a206e657720696d706c656d656e7461746960448201526d6f6e206973206e6f74205555505360901b6064820152608401610a1a565b60008051602061453383398151915281146116345760405162461bcd60e51b815260206004820152602960248201527f45524331393637557067726164653a20756e737570706f727465642070726f786044820152681a58589b195555525160ba1b6064820152608401610a1a565b5061142a838383612283565b61012f5460408051635c08631b60e11b8152815160009384936001600160a01b039091169263b810c63692600480830193928290030181865afa15801561168b573d6000803e3d6000fd5b505050506040513d601f19601f820116820180604052508101906116af919061412e565b610130549193509150610c39906001600160a01b031682846122ae565b61019680546001600160a01b038381166001600160a01b0319831681179093556040519116919082907f8be0079c531659141344cd1fd0a4f28419497f9722a3daafe3b4186f6b6457e090600090a35050565b600054610100900460ff166117465760405162461bcd60e51b8152600401610a1a9061415e565b6109d06122e8565b600054610100900460ff166117755760405162461bcd60e51b8152600401610a1a9061415e565b61177e8161230f565b611786612347565b611791868686612376565b61179c8784846123b8565b50505050505050565b600054610100900460ff166117cc5760405162461bcd60e51b8152600401610a1a9061415e565b61029a80546001600160a01b0383166001600160a01b0319918216811790925561029b805482167310ed43c718714eb63d5aa57b78b54704e256024e17905561029c8054909116735cb93c0ade6b7f2760ec4389833b0cccb5e4efda1790556040805163313ce56760e01b8152905163313ce5679160048082019260209290919082900301816000875af1158015611868573d6000803e3d6000fd5b505050506040513d601f19601f8201168201806040525081019061188c91906141a9565b60ff1660081415806118a2575061026654601214155b156118c057604051636a78e98160e11b815260040160405180910390fd5b6102605461029a5460408051636f307dc360e01b815290516001600160a01b039384169390921691636f307dc39160048082019260209290919082900301816000875af1158015611915573d6000803e3d6000fd5b505050506040513d601f19601f8201168201806040525081019061193991906141cc565b6001600160a01b0316146119605760405163bd3cf18d60e01b815260040160405180910390fd5b67016345785d8a00006102995561199f73603c7f932ed1fc6575303d8fb018fdcbb0f39a957310ed43c718714eb63d5aa57b78b54704e256024e612639565b61026054610ab7906001600160a01b031682612639565b6000816119c1610e30565b1192915050565b61025f54604080516312a307ed60e21b815290516000926001600160a01b031691634a8c1fb49160048083019260209291908290030181865afa158015611a13573d6000803e3d6000fd5b505050506040513d601f19601f82011682018060405250810190611a3791906141e9565b611a415750600090565b61025f54604080516306f94a0d60e01b815290516000926001600160a01b0316916306f94a0d9160048083019260209291908290030181865afa158015611a8c573d6000803e3d6000fd5b505050506040513d601f19601f82011682018060405250810190611ab0919061406a565b905061026154811115611ac557600191505090565b6000611acf611092565b9050600061025f60009054906101000a90046001600160a01b03166001600160a01b031663759076e56040518163ffffffff1660e01b8152600401602060405180830381865afa158015611b27573d6000803e3d6000fd5b505050506040513d601f19601f82011682018060405250810190611b4b919061406a565b9050806102615483611b5d919061411b565b1015611b6d576001935050505090565b600081831115611b8457611b818284614099565b90505b611b8d8161264f565b94505050505090565b600080611ba1612710565b611ba96127c9565b611bb3919061411b565b905080600003611bc557600091505090565b61029b54610260546000916001600160a01b039081169163d06ca61f918591611c049173603c7f932ed1fc6575303d8fb018fdcbb0f39a95911661281b565b6040518363ffffffff1660e01b8152600401611c2192919061424a565b600060405180830381865afa158015611c3e573d6000803e3d6000fd5b505050506040513d6000823e601f3d908101601f19168201604052611c669190810190614263565b905060008160018351611c799190614099565b81518110611c8957611c89614309565b602002602001015190506064605a82611ca291906140e2565b611cac91906140f9565b935050505090565b611cbc6129b5565b61022d805460ff191660011790557f62e78cea01bee320cd4e420270b5ea74000d11b0c9f74754ebdbfc544b05a258611cf23390565b6040516001600160a01b03909116815260200160405180910390a1565b6000818310611d1e5781611d20565b825b90505b92915050565b6000611d7e826040518060400160405280602081526020017f5361666545524332303a206c6f772d6c6576656c2063616c6c206661696c6564815250856001600160a01b03166129fc9092919063ffffffff16565b80519091501561142a5780806020019051810190611d9c91906141e9565b61142a5760405162461bcd60e51b815260206004820152602a60248201527f5361666545524332303a204552433230206f7065726174696f6e20646964206e6044820152691bdd081cdd58d8d9595960b21b6064820152608401610a1a565b60008060008061025f60009054906101000a90046001600160a01b03166001600160a01b03166306f94a0d6040518163ffffffff1660e01b8152600401602060405180830381865afa158015611e55573d6000803e3d6000fd5b505050506040513d601f19601f82011682018060405250810190611e79919061406a565b9050611e8861022d5460ff1690565b15611ea257611e9681612a15565b91955093509150611eb3565b611eab81612a66565b919550935091505b8315611f245761025f5460405163dd723c1b60e01b815260048101869052602481018490526001600160a01b039091169063dd723c1b90604401600060405180830381600087803b158015611f0757600080fd5b505af1158015611f1b573d6000803e3d6000fd5b50505050611f8b565b61025f546040516339d97c5360e01b815260048101859052602481018490526001600160a01b03909116906339d97c5390604401600060405180830381600087803b158015611f7257600080fd5b505af1158015611f86573d6000803e3d6000fd5b505050505b61025f60009054906101000a90046001600160a01b03166001600160a01b03166306f94a0d6040518163ffffffff1660e01b8152600401602060405180830381865afa158015611fdf573d6000803e3d6000fd5b505050506040513d601f19601f82011682018060405250810190612003919061406a565b905061025f60009054906101000a90046001600160a01b03166001600160a01b0316630baabd7a6040518163ffffffff1660e01b8152600401602060405180830381865afa158015612059573d6000803e3d6000fd5b505050506040513d601f19601f8201168201806040525081019061207d919061406a565b15806120fc575061025f60009054906101000a90046001600160a01b03166001600160a01b0316635c975abb6040518163ffffffff1660e01b8152600401602060405180830381865afa1580156120d8573d6000803e3d6000fd5b505050506040513d601f19601f820116820180604052508101906120fc91906141e9565b612106578061210e565b61210e611092565b905061211981612cf9565b61025f546040805163759076e560e01b815290516000926001600160a01b03169163759076e59160048083019260209291908290030181865afa158015612164573d6000803e3d6000fd5b505050506040513d601f19601f82011682018060405250810190612188919061406a565b9050612198308686868686612eaf565b6040805186815260208101869052908101849052606081018390527f4c0f499ffe6befa0ca7c826b0916cf87bea98de658013e76938489368d60d5099060800160405180910390a15050505050565b6001600160a01b0381163b6122545760405162461bcd60e51b815260206004820152602d60248201527f455243313936373a206e657720696d706c656d656e746174696f6e206973206e60448201526c1bdd08184818dbdb9d1c9858dd609a1b6064820152608401610a1a565b60008051602061453383398151915280546001600160a01b0319166001600160a01b0392909216919091179055565b61228c83612f9d565b6000825111806122995750805b1561142a576122a88383612fdd565b50505050565b73eeeeeeeeeeeeeeeeeeeeeeeeeeeeeeeeeeeeeeed196001600160a01b038316016122dd5761142a83826130d1565b61142a8284836113c7565b600054610100900460ff166109d05760405162461bcd60e51b8152600401610a1a9061415e565b600054610100900460ff166123365760405162461bcd60e51b8152600401610a1a9061415e565b61233e61316d565b610ab78161319c565b600054610100900460ff1661236e5760405162461bcd60e51b8152600401610a1a9061415e565b6109d06131d6565b600054610100900460ff1661239d5760405162461bcd60e51b8152600401610a1a9061415e565b6123a68361320a565b6123af826132d3565b61142a81613313565b600054610100900460ff166123df5760405162461bcd60e51b8152600401610a1a9061415e565b61025f80546001600160a01b0319166001600160a01b038516908117909155604080516338d52e0f60e01b815290516338d52e0f916004808201926020929091908290030181865afa158015612439573d6000803e3d6000fd5b505050506040513d601f19601f8201168201806040525081019061245d91906141cc565b61026080546001600160a01b03199081166001600160a01b039384161790915560006102618190556102625560646102635561026480548216858416179055610265805490911691831691821790556040805163313ce56760e01b8152905163313ce567916004808201926020929091908290030181865afa1580156124e7573d6000803e3d6000fd5b505050506040513d601f19601f8201168201806040525081019061250b91906141a9565b60ff1661026460009054906101000a90046001600160a01b03166001600160a01b031663313ce5676040518163ffffffff1660e01b8152600401602060405180830381865afa158015612562573d6000803e3d6000fd5b505050506040513d601f19601f8201168201806040525081019061258691906141a9565b60ff16146125a7576040516362655f5160e01b815260040160405180910390fd5b61026060009054906101000a90046001600160a01b03166001600160a01b031663313ce5676040518163ffffffff1660e01b8152600401602060405180830381865afa1580156125fb573d6000803e3d6000fd5b505050506040513d601f19601f8201168201806040525081019061261f91906141a9565b60ff16610266556102605461142a906001600160a01b0316845b610c396001600160a01b0383168260001961334e565b60008061025f60009054906101000a90046001600160a01b03166001600160a01b03166307cc692f6040518163ffffffff1660e01b8152600401602060405180830381865afa1580156126a6573d6000803e3d6000fd5b505050506040513d601f19601f820116820180604052508101906126ca919061406a565b90506000610262546126da613463565b6126e491906140e2565b90506126f86126f3858461411b565b61347f565b816102635461270791906140e2565b10949350505050565b60008061271b61349f565b90508060000361272d57600091505090565b6000600361025f60009054906101000a90046001600160a01b03166001600160a01b031663c3535b526040518163ffffffff1660e01b8152600401602060405180830381865afa158015612785573d6000803e3d6000fd5b505050506040513d601f19601f820116820180604052508101906127a9919061406a565b6127b39042614099565b6127bd91906140f9565b9050610ed782826140e2565b6040516370a0823160e01b815230600482015260009073603c7f932ed1fc6575303d8fb018fdcbb0f39a95906370a0823190602401602060405180830381865afa158015610b44573d6000803e3d6000fd5b606060006001600160a01b03841673bb4cdb9cbd36b01bd1cbaebf2de08d9173bc095c148061286657506001600160a01b03831673bb4cdb9cbd36b01bd1cbaebf2de08d9173bc095c145b905080612874576003612877565b60025b60ff1667ffffffffffffffff81111561289257612892613d57565b6040519080825280602002602001820160405280156128bb578160200160208202803683370190505b50915083826000815181106128d2576128d2614309565b60200260200101906001600160a01b031690816001600160a01b031681525050801561293157828260018151811061290c5761290c614309565b60200260200101906001600160a01b031690816001600160a01b0316815250506129ae565b73bb4cdb9cbd36b01bd1cbaebf2de08d9173bc095c8260018151811061295957612959614309565b60200260200101906001600160a01b031690816001600160a01b031681525050828260028151811061298d5761298d614309565b60200260200101906001600160a01b031690816001600160a01b0316815250505b5092915050565b61022d5460ff16156109d05760405162461bcd60e51b815260206004820152601060248201526f14185d5cd8589b194e881c185d5cd95960821b6044820152606401610a1a565b6060612a0b8484600085613660565b90505b9392505050565b600080600080612a2361373d565b905084811015612a3e57612a378186614099565b9250612a53565b84811115612a5357612a508582614099565b93505b612a5d8386614099565b93959294505050565b61029a546040516370a0823160e01b8152306004820152600091829182916001600160a01b0316906370a0823190602401602060405180830381865afa158015612ab4573d6000803e3d6000fd5b505050506040513d601f19601f82011682018060405250810190612ad8919061406a565b600003612b5b57610260546040516370a0823160e01b8152306004820152612b54916001600160a01b0316906370a0823190602401602060405180830381865afa158015612b2a573d6000803e3d6000fd5b505050506040513d601f19601f82011682018060405250810190612b4e919061406a565b85611d0f565b9050612cf2565b6000612b65610af8565b9050612b6f6137e2565b612b77613899565b610260546040516370a0823160e01b81523060048201526000916001600160a01b0316906370a0823190602401602060405180830381865afa158015612bc1573d6000803e3d6000fd5b505050506040513d601f19601f82011682018060405250810190612be5919061406a565b90506000612bf3828461411b565b9050600061025f60009054906101000a90046001600160a01b03166001600160a01b031663759076e56040518163ffffffff1660e01b8152600401602060405180830381865afa158015612c4b573d6000803e3d6000fd5b505050506040513d601f19601f82011682018060405250810190612c6f919061406a565b905080821115612cd457612c838183614099565b965086831015612caa57612c978389611d0f565b9450612ca38584614099565b9650612ced565b612cb4888861411b565b831115612cc357879450612ced565b612ccd8784614099565b9450612ced565b612cde8282614099565b9550612cea8389611d0f565b94505b505050505b9193909250565b61022d5460ff1615612d085750565b610260546040516370a0823160e01b81523060048201526000916001600160a01b0316906370a0823190602401602060405180830381865afa158015612d52573d6000803e3d6000fd5b505050506040513d601f19601f82011682018060405250810190612d76919061406a565b905081811015612e065761029a546040516370a0823160e01b81523060048201526001916001600160a01b0316906370a0823190602401602060405180830381865afa158015612dca573d6000803e3d6000fd5b505050506040513d601f19601f82011682018060405250810190612dee919061406a565b1115610c39576122a8612e018284614099565b611276565b6000612e128383614099565b9050801561142a5761029a5460405163140e25ad60e31b8152600481018390526000916001600160a01b03169063a0712d68906024016020604051808303816000875af1158015612e67573d6000803e3d6000fd5b505050506040513d601f19601f82011682018060405250810190612e8b919061406a565b905080156122a857604051638c32d69360e01b815260048101829052602401610a1a565b6101fa546001600160a01b031615612f95576101fa54600160a01b900460ff16612ee257612edd6001610d7c565b612f95565b6101fa546040516301afebc160e21b81526001600160a01b0388811660048301526024820188905260448201879052606482018690526084820185905260a4820184905260009216906306bfaf049060c401602060405180830381865afa158015612f51573d6000803e3d6000fd5b505050506040513d601f19601f82011682018060405250810190612f7591906141e9565b90508061179c5760405163c196dcf360e01b815260040160405180910390fd5b505050505050565b612fa6816121e7565b6040516001600160a01b038216907fbc7cd75a20ee27fd9adebab32041f755214dbc6bffa90cc0225b39da2e5c2d3b90600090a250565b60606001600160a01b0383163b6130455760405162461bcd60e51b815260206004820152602660248201527f416464726573733a2064656c65676174652063616c6c20746f206e6f6e2d636f6044820152651b9d1c9858dd60d21b6064820152608401610a1a565b600080846001600160a01b031684604051613060919061431f565b600060405180830381855af49150503d806000811461309b576040519150601f19603f3d011682016040523d82523d6000602084013e6130a0565b606091505b50915091506130c88282604051806060016040528060278152602001614553602791396139c7565b95945050505050565b6000826001600160a01b03168260405160006040518083038185875af1925050503d806000811461311e576040519150601f19603f3d011682016040523d82523d6000602084013e613123565b606091505b505090508061142a5760405162461bcd60e51b815260206004820152601660248201527513985d1a5d99481d1c985b9cd9995c8819985a5b195960521b6044820152606401610a1a565b600054610100900460ff166131945760405162461bcd60e51b8152600401610a1a9061415e565b6109d06139e0565b600054610100900460ff166131c35760405162461bcd60e51b8152600401610a1a9061415e565b6131cc816108dc565b610ab76001610d7c565b600054610100900460ff166131fd5760405162461bcd60e51b8152600401610a1a9061415e565b61022d805460ff19169055565b600054610100900460ff166132315760405162461bcd60e51b8152600401610a1a9061415e565b61012f80546001600160a01b0319166001600160a01b0383169081179091556040805163573ea57560e01b8152905163573ea575916004808201926020929091908290030181865afa15801561328b573d6000803e3d6000fd5b505050506040513d601f19601f820116820180604052508101906132af91906141cc565b61013080546001600160a01b0319166001600160a01b039290921691909117905550565b600054610100900460ff166132fa5760405162461bcd60e51b8152600401610a1a9061415e565b6133026122e8565b61330a613a10565b610ab781613a3f565b600054610100900460ff1661333a5760405162461bcd60e51b8152600401610a1a9061415e565b610163805460ff1916911515919091179055565b8015806133c85750604051636eb1769f60e11b81523060048201526001600160a01b03838116602483015284169063dd62ed3e90604401602060405180830381865afa1580156133a2573d6000803e3d6000fd5b505050506040513d601f19601f820116820180604052508101906133c6919061406a565b155b6134335760405162461bcd60e51b815260206004820152603660248201527f5361666545524332303a20617070726f76652066726f6d206e6f6e2d7a65726f60448201527520746f206e6f6e2d7a65726f20616c6c6f77616e636560501b6064820152608401610a1a565b6040516001600160a01b03831660248201526044810182905261142a90849063095ea7b360e01b906064016113f3565b61026454600090610b68906001600160a01b03163a6012613a6f565b6102665461026554600091611d23916001600160a01b0316908490613a6f565b6000806134aa610e40565b9050806000036134bc57600091505090565b61029c5461029a54604051636aa875b560e01b81526001600160a01b0391821660048201526000929190911690636aa875b590602401602060405180830381865afa15801561350f573d6000803e3d6000fd5b505050506040513d601f19601f82011682018060405250810190613533919061406a565b90506000670de0b6b3a764000061029a60009054906101000a90046001600160a01b03166001600160a01b031663182df0f56040518163ffffffff1660e01b8152600401602060405180830381865afa158015613594573d6000803e3d6000fd5b505050506040513d601f19601f820116820180604052508101906135b8919061406a565b61029a60009054906101000a90046001600160a01b03166001600160a01b03166318160ddd6040518163ffffffff1660e01b8152600401602060405180830381865afa15801561360c573d6000803e3d6000fd5b505050506040513d601f19601f82011682018060405250810190613630919061406a565b61363a91906140e2565b61364491906140f9565b905060008111613655576000611cac565b80611ca283856140e2565b6060824710156136c15760405162461bcd60e51b815260206004820152602660248201527f416464726573733a20696e73756666696369656e742062616c616e636520666f6044820152651c8818d85b1b60d21b6064820152608401610a1a565b600080866001600160a01b031685876040516136dd919061431f565b60006040518083038185875af1925050503d806000811461371a576040519150601f19603f3d011682016040523d82523d6000602084013e61371f565b606091505b509150915061373087838387613b93565b925050505b949350505050565b600080613748610af8565b61029a5460405163852a12e360e01b8152600481018390529192506000916001600160a01b039091169063852a12e3906024016020604051808303816000875af115801561379a573d6000803e3d6000fd5b505050506040513d601f19601f820116820180604052508101906137be919061406a565b9050801561098b576040516305ee2ff160e11b815260048101829052602401610a1a565b60408051600180825281830190925260009160208083019080368337505061029a5482519293506001600160a01b03169183915060009061382557613825614309565b6001600160a01b03928316602091820292909201015261029c5460405162e1ed9760e51b8152911690631c3db2e090613864903090859060040161433b565b600060405180830381600087803b15801561387e57600080fd5b505af1158015613892573d6000803e3d6000fd5b5050505050565b6040516370a0823160e01b815230600482015260009073603c7f932ed1fc6575303d8fb018fdcbb0f39a95906370a0823190602401602060405180830381865afa1580156138eb573d6000803e3d6000fd5b505050506040513d601f19601f8201168201806040525081019061390f919061406a565b90506102995481101561391f5750565b61029b54610260546001600160a01b03918216916338ed173991849160009161395e9173603c7f932ed1fc6575303d8fb018fdcbb0f39a95911661281b565b30426040518663ffffffff1660e01b8152600401613980959493929190614397565b6000604051808303816000875af115801561399f573d6000803e3d6000fd5b505050506040513d6000823e601f3d908101601f19168201604052610c399190810190614263565b606083156139d6575081612a0e565b612a0e8383613c08565b600054610100900460ff16613a075760405162461bcd60e51b8152600401610a1a9061415e565b6109d0336116cc565b600054610100900460ff16613a375760405162461bcd60e51b8152600401610a1a9061415e565b6109d0613c32565b600054610100900460ff16613a665760405162461bcd60e51b8152600401610a1a9061415e565b610ab781613c59565b600080846001600160a01b031663feaf968c6040518163ffffffff1660e01b815260040160a060405180830381865afa158015613ab0573d6000803e3d6000fd5b505050506040513d601f19601f82011682018060405250810190613ad491906143f2565b5050509150506000856001600160a01b031663313ce5676040518163ffffffff1660e01b8152600401602060405180830381865afa158015613b1a573d6000803e3d6000fd5b505050506040513d601f19601f82011682018060405250810190613b3e91906141a9565b60ff1690506000613b50601283613c83565b9150613b5f905085600a614526565b613b6a82600a614526565b613b7485896140e2565b613b7e91906140e2565b613b8891906140f9565b979650505050505050565b60608315613c02578251600003613bfb576001600160a01b0385163b613bfb5760405162461bcd60e51b815260206004820152601d60248201527f416464726573733a2063616c6c20746f206e6f6e2d636f6e74726163740000006044820152606401610a1a565b5081613735565b61373583835b815115613c185781518083602001fd5b8060405162461bcd60e51b8152600401610a1a9190613cf9565b600054610100900460ff166114c65760405162461bcd60e51b8152600401610a1a9061415e565b6103e88111613c7e5760405163034b4ee160e01b815260048101829052602401610a1a565b60fc55565b60008083831115613c9957506000905080613ca2565b50600190508183035b9250929050565b60005b83811015613cc4578181015183820152602001613cac565b50506000910152565b60008151808452613ce5816020860160208601613ca9565b601f01601f19169290920160200192915050565b602081526000611d206020830184613ccd565b600060208284031215613d1e57600080fd5b5035919050565b6001600160a01b0381168114610ab757600080fd5b600060208284031215613d4c57600080fd5b8135612a0e81613d25565b634e487b7160e01b600052604160045260246000fd5b604051601f8201601f1916810167ffffffffffffffff81118282101715613d9657613d96613d57565b604052919050565b600067ffffffffffffffff821115613db857613db8613d57565b50601f01601f191660200190565b60008060408385031215613dd957600080fd5b8235613de481613d25565b9150602083013567ffffffffffffffff811115613e0057600080fd5b8301601f81018513613e1157600080fd5b8035613e24613e1f82613d9e565b613d6d565b818152866020838501011115613e3957600080fd5b816020840160208301376000602083830101528093505050509250929050565b8015158114610ab757600080fd5b600060208284031215613e7957600080fd5b8135612a0e81613e59565b600080600080600080600060e0888a031215613e9f57600080fd5b8735613eaa81613d25565b96506020880135613eba81613d25565b95506040880135613eca81613d25565b94506060880135613eda81613d25565b93506080880135613eea81613d25565b925060a0880135915060c0880135613f0181613e59565b8091505092959891949750929550565b8215158152604060208201526000612a0b6040830184613ccd565b600060208284031215613f3e57600080fd5b815167ffffffffffffffff811115613f5557600080fd5b8201601f81018413613f6657600080fd5b8051613f74613e1f82613d9e565b818152856020838501011115613f8957600080fd5b6130c8826020830160208601613ca9565b60008251613fac818460208701613ca9565b73204170654c656e64696e6720537472617465677960601b920191825250601401919050565b6020808252602c908201527f46756e6374696f6e206d7573742062652063616c6c6564207468726f7567682060408201526b19195b1959d85d1958d85b1b60a21b606082015260800190565b6020808252602c908201527f46756e6374696f6e206d7573742062652063616c6c6564207468726f7567682060408201526b6163746976652070726f787960a01b606082015260800190565b60006020828403121561407c57600080fd5b5051919050565b634e487b7160e01b600052601160045260246000fd5b81810381811115611d2357611d23614083565b600080600080608085870312156140c257600080fd5b505082516020840151604085015160609095015191969095509092509050565b8082028115828204841417611d2357611d23614083565b60008261411657634e487b7160e01b600052601260045260246000fd5b500490565b80820180821115611d2357611d23614083565b6000806040838503121561414157600080fd5b82519150602083015161415381613d25565b809150509250929050565b6020808252602b908201527f496e697469616c697a61626c653a20636f6e7472616374206973206e6f74206960408201526a6e697469616c697a696e6760a81b606082015260800190565b6000602082840312156141bb57600080fd5b815160ff81168114612a0e57600080fd5b6000602082840312156141de57600080fd5b8151612a0e81613d25565b6000602082840312156141fb57600080fd5b8151612a0e81613e59565b600081518084526020808501945080840160005b8381101561423f5781516001600160a01b03168752958201959082019060010161421a565b509495945050505050565b828152604060208201526000612a0b6040830184614206565b6000602080838503121561427657600080fd5b825167ffffffffffffffff8082111561428e57600080fd5b818501915085601f8301126142a257600080fd5b8151818111156142b4576142b4613d57565b8060051b91506142c5848301613d6d565b81815291830184019184810190888411156142df57600080fd5b938501935b838510156142fd578451825293850193908501906142e4565b98975050505050505050565b634e487b7160e01b600052603260045260246000fd5b60008251614331818460208701613ca9565b9190910192915050565b6001600160a01b038381168252604060208084018290528451918401829052600092858201929091906060860190855b8181101561438957855185168352948301949183019160010161436b565b509098975050505050505050565b85815284602082015260a0604082015260006143b660a0830186614206565b6001600160a01b0394909416606083015250608001529392505050565b805169ffffffffffffffffffff811681146143ed57600080fd5b919050565b600080600080600060a0868803121561440a57600080fd5b614413866143d3565b9450602086015193506040860151925060608601519150614436608087016143d3565b90509295509295909350565b600181815b8085111561447d57816000190482111561446357614463614083565b8085161561447057918102915b93841c9390800290614447565b509250929050565b60008261449457506001611d23565b816144a157506000611d23565b81600181146144b757600281146144c1576144dd565b6001915050611d23565b60ff8411156144d2576144d2614083565b50506001821b611d23565b5060208310610133831016604e8410600b8410161715614500575081810a611d23565b61450a8383614442565b806000190482111561451e5761451e614083565b029392505050565b6000611d20838361448556fe360894a13ba1a3210667c828492db98dca3e2076cc3735a920a3ca505d382bbc416464726573733a206c6f772d6c6576656c2064656c65676174652063616c6c206661696c6564a2646970667358221220e5bea3daf8c9014e1e82b4601dea2bccd89e2e649ecd9dc3ebb9d89933591c2064736f6c63430008130033",
  "devdoc": {
    "events": {
      "AdminChanged(address,address)": {
        "details": "Emitted when the admin account has changed."
      },
      "BeaconUpgraded(address)": {
        "details": "Emitted when the beacon is changed."
      },
      "Initialized(uint8)": {
        "details": "Triggered when the contract has been initialized or reinitialized."
      },
      "Paused(address)": {
        "details": "Emitted when the pause is triggered by `account`."
      },
      "Unpaused(address)": {
        "details": "Emitted when the pause is lifted by `account`."
      },
      "Upgraded(address)": {
        "details": "Emitted when the implementation is upgraded."
      }
    },
    "kind": "dev",
    "methods": {
      "canWork()": {
        "details": "Will be executed by keeper and before `work` method execution."
      },
      "constructor": {
        "custom:oz-upgrades-unsafe-allow": "constructor"
      },
      "depositedBalance()": {
        "details": "Unlike the snapshot function, this function recalculates the value of the deposit."
      },
      "depositedBalanceSnapshot()": {
        "details": "The exchange rate is recalculated at the last time someone touched the cToken contract.      Transactions are not performed too often on this contract, perhaps we should consider recalculating the rate ourselves."
      },
      "owner()": {
        "details": "Returns the address of the current owner."
      },
      "paused()": {
        "details": "Returns true if the contract is paused, and false otherwise."
      },
      "proxiableUUID()": {
        "details": "Implementation of the ERC1822 {proxiableUUID} function. This returns the storage slot used by the implementation. It is used to validate the implementation's compatibility when performing an upgrade. IMPORTANT: A proxy pointing at a proxiable contract should not be considered proxiable itself, because this risks bricking a proxy that upgrades to it, by delegating to itself until out of gas. Thus it is critical that this function revert if invoked through a proxy. This is guaranteed by the `notDelegated` modifier."
      },
      "renounceOwnership()": {
        "details": "Leaves the contract without owner. It will not be possible to call `onlyOwner` functions anymore. Can only be called by the current owner. NOTE: Renouncing ownership will leave the contract without an owner, thereby removing any functionality that is only available to the owner."
      },
      "setDebtThreshold(uint256)": {
        "params": {
          "_debtThreshold": "The new debt threshold value."
        }
      },
      "setEstimatedWorkGas(uint256)": {
        "params": {
          "_estimatedWorkGas": "The estimated \"work\" gas value."
        }
      },
      "setHealthCheck(address)": {
        "details": "Emits the \"HealthCheckChanged\" event.",
        "params": {
          "_healthCheck": "A new health check contract address."
        }
      },
      "setHealthCheckEnabled(bool)": {
        "details": "Emits the \"HealthCheckEnabledChanged\" event. Do not disable the health check, unless you need to perform \"report\" in an emergency.",
        "params": {
          "_healthCheckEnabled": "If \"true\" - health check will be disabled."
        }
      },
      "setProfitFactor(uint256)": {
        "params": {
          "_profitFactor": "The new profit factor value."
        }
      },
      "timeFromLastExecution()": {
        "returns": {
          "_0": "seconds from last execution in a range of 900 seconds"
        }
      },
      "transferOwnership(address)": {
        "details": "Transfers ownership of the contract to a new account (`newOwner`). Can only be called by the current owner."
      },
      "upgradeTo(address)": {
        "details": "Upgrade the implementation of the proxy to `newImplementation`. Calls {_authorizeUpgrade}. Emits an {Upgraded} event."
      },
      "upgradeToAndCall(address,bytes)": {
        "details": "Upgrade the implementation of the proxy to `newImplementation`, and subsequently execute the function call encoded in `data`. Calls {_authorizeUpgrade}. Emits an {Upgraded} event."
      },
      "version()": {
        "returns": {
          "_0": "a version in semantic versioning format"
        }
      },
      "withdraw(uint256)": {
        "params": {
          "assets": "A amount of tokens to withdraw."
        },
        "returns": {
          "loss": "A number of tokens that the strategy could not return."
        }
      },
      "work()": {
        "details": "`nonReentrant` modifier might be excess there, since we have `isTimePassFromLastExecution` check and `refreshLastWorkTime` at start (see `onlyWhenCanWork` modifier). Let's keep it, as `canWork` can be overridden."
      }
    },
    "stateVariables": {
      "__gap": {
        "details": "This empty reserved space is put in place to allow future versions to add new variables without shifting down storage in the inheritance chain. See https://docs.openzeppelin.com/contracts/4.x/upgradeable#storage_gaps"
      }
    },
    "version": 1
  },
  "userdoc": {
    "errors": {
      "CannotWorkNow()": [
        {
          "notice": "Someone tried to execute work function while `canWork` is `false`"
        }
      ],
      "PayableWorkNotAllowed()": [
        {
          "notice": "Contract expect work will be prepayd, so it cannot pay for work"
        }
      ],
      "TimeMinimumBetweenExecutionsIncorrect(uint256)": [
        {
          "notice": "Given time minimum between execution must be greater then 1000"
        }
      ]
    },
    "events": {
      "Worked(address)": {
        "notice": "Job work function was executed by worker bot"
      }
    },
    "kind": "user",
    "methods": {
      "asset()": {
        "notice": "Returns the contract address of the underlying asset of this strategy."
      },
      "canWork()": {
        "notice": "If work can be executed by keeper at this moment returns true"
      },
      "checker()": {
        "notice": "Resolver checker that says if the work can be performed and with what params."
      },
      "debtThreshold()": {
        "notice": "Use this to adjust the threshold at which running a debt causes a work trigger."
      },
      "depositedBalance()": {
        "notice": "Returns current deposited balance (in asset)."
      },
      "depositedBalanceSnapshot()": {
        "notice": "Returns current deposited balance (in asset)."
      },
      "estimatedTotalAssets()": {
        "notice": "Estimates the total amount of strategy funds (including those invested in the base protocol)."
      },
      "estimatedWorkGas()": {
        "notice": "The estimated amount of gas required for the \"work\" execution."
      },
      "isPrepaid()": {
        "notice": "If job is prepaid, then it not will try to pay on executed work."
      },
      "lastWorkTime()": {
        "notice": "Timestamp of last work execution block in seconds."
      },
      "minBananaToSell()": {
        "notice": "Minimum BANANA token amount to sell."
      },
      "minimumBetweenExecutions()": {
        "notice": "Mininmal time which must pass between executions of the job in seconds. Better set hours, but at least set to greater then 900 seconds, node opperators able to manipulate timestamp in 900 seconds range, on some blockchains maybe bigger."
      },
      "name()": {
        "notice": "Returns the name of this strategy."
      },
      "payableWork()": {
        "notice": "Bot will call this method when `checker` returns `true`. Will pay caller `_doWork` method stay as it is, to allow a call off-chain"
      },
      "profitFactor()": {
        "notice": "Shows how many times the gas price spent for the \"work\" function should be lower than the profit to trigger."
      },
      "setDebtThreshold(uint256)": {
        "notice": "Sets the debt threshold."
      },
      "setEstimatedWorkGas(uint256)": {
        "notice": "Sets the estimated gas that will be required for \"work\" function."
      },
      "setHealthCheck(address)": {
        "notice": "Sets the health check implementation contract."
      },
      "setHealthCheckEnabled(bool)": {
        "notice": "Enables or disables the health check."
      },
      "setMinBananaToSell(uint256)": {
        "notice": "Sets the minimum number of BANANA tokens that must be on the contract to sell."
      },
      "setProfitFactor(uint256)": {
        "notice": "Sets the profit factor."
      },
      "shutdown()": {
        "notice": "Shutdown the strategy and revoke it form the vault."
      },
      "timeFromLastExecution()": {
        "notice": "Time that passed since the last exection"
      },
      "vault()": {
        "notice": "Returns the contract address of the Vault to which this strategy is connected."
      },
      "version()": {
        "notice": "Returns the current version of this contract"
      },
      "withdraw(uint256)": {
        "notice": "Transfers a specified amount of tokens to the vault."
      },
      "work()": {
        "notice": "A handle that allows the `_doWork` function to be invoked externally by everyone. Perform a `canWork` check to avoid unnecessary and (maybe) malicious calls."
      }
    },
    "version": 1
  },
  "storageLayout": {
    "storage": [
      {
        "astId": 580,
        "contract": "src/strategies/ApeLendingStrategy.sol:ApeLendingStrategy",
        "label": "_initialized",
        "offset": 0,
        "slot": "0",
        "type": "t_uint8"
      },
      {
        "astId": 583,
        "contract": "src/strategies/ApeLendingStrategy.sol:ApeLendingStrategy",
        "label": "_initializing",
        "offset": 1,
        "slot": "0",
        "type": "t_bool"
      },
      {
        "astId": 562,
        "contract": "src/strategies/ApeLendingStrategy.sol:ApeLendingStrategy",
        "label": "__gap",
        "offset": 0,
        "slot": "1",
        "type": "t_array(t_uint256)50_storage"
      },
      {
        "astId": 877,
        "contract": "src/strategies/ApeLendingStrategy.sol:ApeLendingStrategy",
        "label": "__gap",
        "offset": 0,
        "slot": "51",
        "type": "t_array(t_uint256)50_storage"
      },
      {
        "astId": 12060,
        "contract": "src/strategies/ApeLendingStrategy.sol:ApeLendingStrategy",
        "label": "__gap",
        "offset": 0,
        "slot": "101",
        "type": "t_array(t_uint256)50_storage"
      },
      {
        "astId": 3146,
        "contract": "src/strategies/ApeLendingStrategy.sol:ApeLendingStrategy",
        "label": "__gap",
        "offset": 0,
        "slot": "151",
        "type": "t_array(t_uint256)50_storage"
      },
      {
        "astId": 1019,
        "contract": "src/strategies/ApeLendingStrategy.sol:ApeLendingStrategy",
        "label": "_status",
        "offset": 0,
        "slot": "201",
        "type": "t_uint256"
      },
      {
        "astId": 1077,
        "contract": "src/strategies/ApeLendingStrategy.sol:ApeLendingStrategy",
        "label": "__gap",
        "offset": 0,
        "slot": "202",
        "type": "t_array(t_uint256)49_storage"
      },
      {
        "astId": 7347,
        "contract": "src/strategies/ApeLendingStrategy.sol:ApeLendingStrategy",
        "label": "lastWorkTime",
        "offset": 0,
        "slot": "251",
        "type": "t_uint256"
      },
      {
        "astId": 7350,
        "contract": "src/strategies/ApeLendingStrategy.sol:ApeLendingStrategy",
        "label": "minimumBetweenExecutions",
        "offset": 0,
        "slot": "252",
        "type": "t_uint256"
      },
      {
        "astId": 7355,
        "contract": "src/strategies/ApeLendingStrategy.sol:ApeLendingStrategy",
        "label": "__gap",
        "offset": 0,
        "slot": "253",
        "type": "t_array(t_uint256)50_storage"
      },
      {
        "astId": 7755,
        "contract": "src/strategies/ApeLendingStrategy.sol:ApeLendingStrategy",
        "label": "ops",
        "offset": 0,
        "slot": "303",
        "type": "t_contract(IOps)7727"
      },
      {
        "astId": 7757,
        "contract": "src/strategies/ApeLendingStrategy.sol:ApeLendingStrategy",
        "label": "gelato",
        "offset": 0,
        "slot": "304",
        "type": "t_address_payable"
      },
      {
        "astId": 7769,
        "contract": "src/strategies/ApeLendingStrategy.sol:ApeLendingStrategy",
        "label": "__gap",
        "offset": 0,
        "slot": "305",
        "type": "t_array(t_uint256)50_storage"
      },
      {
        "astId": 7223,
        "contract": "src/strategies/ApeLendingStrategy.sol:ApeLendingStrategy",
        "label": "isPrepaid",
        "offset": 0,
        "slot": "355",
        "type": "t_bool"
      },
      {
        "astId": 7228,
        "contract": "src/strategies/ApeLendingStrategy.sol:ApeLendingStrategy",
        "label": "__gap",
        "offset": 0,
        "slot": "356",
        "type": "t_array(t_uint256)50_storage"
      },
      {
        "astId": 56,
        "contract": "src/strategies/ApeLendingStrategy.sol:ApeLendingStrategy",
        "label": "_owner",
        "offset": 0,
        "slot": "406",
        "type": "t_address"
      },
      {
        "astId": 176,
        "contract": "src/strategies/ApeLendingStrategy.sol:ApeLendingStrategy",
        "label": "__gap",
        "offset": 0,
        "slot": "407",
        "type": "t_array(t_uint256)49_storage"
      },
      {
        "astId": 12094,
        "contract": "src/strategies/ApeLendingStrategy.sol:ApeLendingStrategy",
        "label": "__gap",
        "offset": 0,
        "slot": "456",
        "type": "t_array(t_uint256)50_storage"
      },
      {
        "astId": 7851,
        "contract": "src/strategies/ApeLendingStrategy.sol:ApeLendingStrategy",
        "label": "healthCheck",
        "offset": 0,
        "slot": "506",
        "type": "t_contract(IHealthCheck)8004"
      },
      {
        "astId": 7853,
        "contract": "src/strategies/ApeLendingStrategy.sol:ApeLendingStrategy",
        "label": "healthCheckEnabled",
        "offset": 20,
        "slot": "506",
        "type": "t_bool"
      },
      {
        "astId": 7858,
        "contract": "src/strategies/ApeLendingStrategy.sol:ApeLendingStrategy",
        "label": "__gap",
        "offset": 0,
        "slot": "507",
        "type": "t_array(t_uint256)50_storage"
      },
      {
        "astId": 899,
        "contract": "src/strategies/ApeLendingStrategy.sol:ApeLendingStrategy",
        "label": "_paused",
        "offset": 0,
        "slot": "557",
        "type": "t_bool"
      },
      {
        "astId": 1004,
        "contract": "src/strategies/ApeLendingStrategy.sol:ApeLendingStrategy",
        "label": "__gap",
        "offset": 0,
        "slot": "558",
        "type": "t_array(t_uint256)49_storage"
      },
      {
        "astId": 9967,
        "contract": "src/strategies/ApeLendingStrategy.sol:ApeLendingStrategy",
        "label": "vault",
        "offset": 0,
        "slot": "607",
        "type": "t_contract(IVault)6320"
      },
      {
        "astId": 9970,
        "contract": "src/strategies/ApeLendingStrategy.sol:ApeLendingStrategy",
        "label": "asset",
        "offset": 0,
        "slot": "608",
        "type": "t_contract(IERC20Upgradeable)1156"
      },
      {
        "astId": 9973,
        "contract": "src/strategies/ApeLendingStrategy.sol:ApeLendingStrategy",
        "label": "debtThreshold",
        "offset": 0,
        "slot": "609",
        "type": "t_uint256"
      },
      {
        "astId": 9976,
        "contract": "src/strategies/ApeLendingStrategy.sol:ApeLendingStrategy",
        "label": "estimatedWorkGas",
        "offset": 0,
        "slot": "610",
        "type": "t_uint256"
      },
      {
        "astId": 9979,
        "contract": "src/strategies/ApeLendingStrategy.sol:ApeLendingStrategy",
        "label": "profitFactor",
        "offset": 0,
        "slot": "611",
        "type": "t_uint256"
      },
      {
        "astId": 9983,
        "contract": "src/strategies/ApeLendingStrategy.sol:ApeLendingStrategy",
        "label": "_nativeTokenPriceFeed",
        "offset": 0,
        "slot": "612",
        "type": "t_contract(AggregatorV3Interface)45"
      },
      {
        "astId": 9987,
        "contract": "src/strategies/ApeLendingStrategy.sol:ApeLendingStrategy",
        "label": "_assetPriceFeed",
        "offset": 0,
        "slot": "613",
        "type": "t_contract(AggregatorV3Interface)45"
      },
      {
        "astId": 9990,
        "contract": "src/strategies/ApeLendingStrategy.sol:ApeLendingStrategy",
        "label": "_assetDecimals",
        "offset": 0,
        "slot": "614",
        "type": "t_uint256"
      },
      {
        "astId": 9995,
        "contract": "src/strategies/ApeLendingStrategy.sol:ApeLendingStrategy",
        "label": "__gap",
        "offset": 0,
        "slot": "615",
        "type": "t_array(t_uint256)50_storage"
      },
      {
        "astId": 9040,
        "contract": "src/strategies/ApeLendingStrategy.sol:ApeLendingStrategy",
        "label": "minBananaToSell",
        "offset": 0,
        "slot": "665",
        "type": "t_uint256"
      },
      {
        "astId": 9043,
        "contract": "src/strategies/ApeLendingStrategy.sol:ApeLendingStrategy",
        "label": "cToken",
        "offset": 0,
        "slot": "666",
        "type": "t_contract(ICToken)10851"
      },
      {
        "astId": 9046,
        "contract": "src/strategies/ApeLendingStrategy.sol:ApeLendingStrategy",
        "label": "pancakeRouter",
        "offset": 0,
        "slot": "667",
        "type": "t_contract(IPancakeRouter)10883"
      },
      {
        "astId": 9049,
        "contract": "src/strategies/ApeLendingStrategy.sol:ApeLendingStrategy",
        "label": "rainMaker",
        "offset": 0,
        "slot": "668",
        "type": "t_contract(IRainMaker)10955"
      },
      {
        "astId": 9054,
        "contract": "src/strategies/ApeLendingStrategy.sol:ApeLendingStrategy",
        "label": "__gap",
        "offset": 0,
        "slot": "669",
        "type": "t_array(t_uint256)50_storage"
      }
    ],
    "types": {
      "t_address": {
        "encoding": "inplace",
        "label": "address",
        "numberOfBytes": "20"
      },
      "t_address_payable": {
        "encoding": "inplace",
        "label": "address payable",
        "numberOfBytes": "20"
      },
      "t_array(t_uint256)49_storage": {
        "base": "t_uint256",
        "encoding": "inplace",
        "label": "uint256[49]",
        "numberOfBytes": "1568"
      },
      "t_array(t_uint256)50_storage": {
        "base": "t_uint256",
        "encoding": "inplace",
        "label": "uint256[50]",
        "numberOfBytes": "1600"
      },
      "t_bool": {
        "encoding": "inplace",
        "label": "bool",
        "numberOfBytes": "1"
      },
      "t_contract(AggregatorV3Interface)45": {
        "encoding": "inplace",
        "label": "contract AggregatorV3Interface",
        "numberOfBytes": "20"
      },
      "t_contract(ICToken)10851": {
        "encoding": "inplace",
        "label": "contract ICToken",
        "numberOfBytes": "20"
      },
      "t_contract(IERC20Upgradeable)1156": {
        "encoding": "inplace",
        "label": "contract IERC20Upgradeable",
        "numberOfBytes": "20"
      },
      "t_contract(IHealthCheck)8004": {
        "encoding": "inplace",
        "label": "contract IHealthCheck",
        "numberOfBytes": "20"
      },
      "t_contract(IOps)7727": {
        "encoding": "inplace",
        "label": "contract IOps",
        "numberOfBytes": "20"
      },
      "t_contract(IPancakeRouter)10883": {
        "encoding": "inplace",
        "label": "contract IPancakeRouter",
        "numberOfBytes": "20"
      },
      "t_contract(IRainMaker)10955": {
        "encoding": "inplace",
        "label": "contract IRainMaker",
        "numberOfBytes": "20"
      },
      "t_contract(IVault)6320": {
        "encoding": "inplace",
        "label": "contract IVault",
        "numberOfBytes": "20"
      },
      "t_uint256": {
        "encoding": "inplace",
        "label": "uint256",
        "numberOfBytes": "32"
      },
      "t_uint8": {
        "encoding": "inplace",
        "label": "uint8",
        "numberOfBytes": "1"
      }
    }
  }
}