{
  "address": "0x254F008fb17cB11A873CE4C3eDA65999B14A6196",
  "abi": [
    {
      "inputs": [
        {
          "internalType": "bool",
          "name": "needDisableInitializers",
          "type": "bool"
        }
      ],
      "stateMutability": "nonpayable",
      "type": "constructor"
    },
    {
      "inputs": [],
      "name": "CallerIsNotALender",
      "type": "error"
    },
    {
      "inputs": [],
      "name": "CannotWorkNow",
      "type": "error"
    },
    {
      "inputs": [],
      "name": "HealthCheckFailed",
      "type": "error"
    },
    {
      "inputs": [],
      "name": "IncompatibleCTokenContract",
      "type": "error"
    },
    {
      "inputs": [],
      "name": "IncompatiblePriceFeeds",
      "type": "error"
    },
    {
      "inputs": [
        {
          "internalType": "uint256",
          "name": "code",
          "type": "uint256"
        }
      ],
      "name": "MintError",
      "type": "error"
    },
    {
      "inputs": [],
      "name": "NegativePrice",
      "type": "error"
    },
    {
      "inputs": [],
      "name": "PayableWorkNotAllowed",
      "type": "error"
    },
    {
      "inputs": [
        {
          "internalType": "uint256",
          "name": "code",
          "type": "uint256"
        }
      ],
      "name": "RedeemError",
      "type": "error"
    },
    {
      "inputs": [
        {
          "internalType": "uint256",
          "name": "_givenTime",
          "type": "uint256"
        }
      ],
      "name": "TimeMinimumBetweenExecutionsIncorrect",
      "type": "error"
    },
    {
      "inputs": [],
      "name": "UnsupportedDecimals",
      "type": "error"
    },
    {
      "anonymous": false,
      "inputs": [
        {
          "indexed": false,
          "internalType": "address",
          "name": "previousAdmin",
          "type": "address"
        },
        {
          "indexed": false,
          "internalType": "address",
          "name": "newAdmin",
          "type": "address"
        }
      ],
      "name": "AdminChanged",
      "type": "event"
    },
    {
      "anonymous": false,
      "inputs": [
        {
          "indexed": true,
          "internalType": "address",
          "name": "beacon",
          "type": "address"
        }
      ],
      "name": "BeaconUpgraded",
      "type": "event"
    },
    {
      "anonymous": false,
      "inputs": [
        {
          "indexed": false,
          "internalType": "uint256",
          "name": "debtThreshold",
          "type": "uint256"
        }
      ],
      "name": "DebtThresholdUpdated",
      "type": "event"
    },
    {
      "anonymous": false,
      "inputs": [
        {
          "indexed": false,
          "internalType": "uint256",
          "name": "estimatedWorkGas",
          "type": "uint256"
        }
      ],
      "name": "EstimatedWorkGasUpdated",
      "type": "event"
    },
    {
      "anonymous": false,
      "inputs": [
        {
          "indexed": false,
          "internalType": "uint256",
          "name": "profit",
          "type": "uint256"
        },
        {
          "indexed": false,
          "internalType": "uint256",
          "name": "loss",
          "type": "uint256"
        },
        {
          "indexed": false,
          "internalType": "uint256",
          "name": "debtPayment",
          "type": "uint256"
        },
        {
          "indexed": false,
          "internalType": "uint256",
          "name": "outstandingDebt",
          "type": "uint256"
        }
      ],
      "name": "Harvested",
      "type": "event"
    },
    {
      "anonymous": false,
      "inputs": [
        {
          "indexed": false,
          "internalType": "address",
          "name": "",
          "type": "address"
        }
      ],
      "name": "HealthCheckChanged",
      "type": "event"
    },
    {
      "anonymous": false,
      "inputs": [
        {
          "indexed": false,
          "internalType": "bool",
          "name": "",
          "type": "bool"
        }
      ],
      "name": "HealthCheckEnabledChanged",
      "type": "event"
    },
    {
      "anonymous": false,
      "inputs": [
        {
          "indexed": false,
          "internalType": "uint8",
          "name": "version",
          "type": "uint8"
        }
      ],
      "name": "Initialized",
      "type": "event"
    },
    {
      "anonymous": false,
      "inputs": [
        {
          "indexed": true,
          "internalType": "address",
          "name": "previousOwner",
          "type": "address"
        },
        {
          "indexed": true,
          "internalType": "address",
          "name": "newOwner",
          "type": "address"
        }
      ],
      "name": "OwnershipTransferred",
      "type": "event"
    },
    {
      "anonymous": false,
      "inputs": [
        {
          "indexed": false,
          "internalType": "address",
          "name": "account",
          "type": "address"
        }
      ],
      "name": "Paused",
      "type": "event"
    },
    {
      "anonymous": false,
      "inputs": [
        {
          "indexed": false,
          "internalType": "address",
          "name": "account",
          "type": "address"
        }
      ],
      "name": "Unpaused",
      "type": "event"
    },
    {
      "anonymous": false,
      "inputs": [
        {
          "indexed": false,
          "internalType": "uint256",
          "name": "profitFactor",
          "type": "uint256"
        }
      ],
      "name": "UpdatedProfitFactor",
      "type": "event"
    },
    {
      "anonymous": false,
      "inputs": [
        {
          "indexed": true,
          "internalType": "address",
          "name": "implementation",
          "type": "address"
        }
      ],
      "name": "Upgraded",
      "type": "event"
    },
    {
      "anonymous": false,
      "inputs": [
        {
          "indexed": true,
          "internalType": "address",
          "name": "worker",
          "type": "address"
        }
      ],
      "name": "Worked",
      "type": "event"
    },
    {
      "inputs": [],
      "name": "BANANA",
      "outputs": [
        {
          "internalType": "address",
          "name": "",
          "type": "address"
        }
      ],
      "stateMutability": "view",
      "type": "function"
    },
    {
      "inputs": [],
      "name": "PANCAKE_ROUTER",
      "outputs": [
        {
          "internalType": "address",
          "name": "",
          "type": "address"
        }
      ],
      "stateMutability": "view",
      "type": "function"
    },
    {
      "inputs": [],
      "name": "RAIN_MAKER",
      "outputs": [
        {
          "internalType": "address",
          "name": "",
          "type": "address"
        }
      ],
      "stateMutability": "view",
      "type": "function"
    },
    {
      "inputs": [],
      "name": "REWARD_ESTIMATION_ACCURACY",
      "outputs": [
        {
          "internalType": "uint256",
          "name": "",
          "type": "uint256"
        }
      ],
      "stateMutability": "view",
      "type": "function"
    },
    {
      "inputs": [],
      "name": "SECONDS_PER_BLOCK",
      "outputs": [
        {
          "internalType": "uint256",
          "name": "",
          "type": "uint256"
        }
      ],
      "stateMutability": "view",
      "type": "function"
    },
    {
      "inputs": [],
      "name": "WBNB",
      "outputs": [
        {
          "internalType": "address",
          "name": "",
          "type": "address"
        }
      ],
      "stateMutability": "view",
      "type": "function"
    },
    {
      "inputs": [
        {
          "internalType": "contract IStrategiesLender",
          "name": "_lender",
          "type": "address"
        },
        {
          "internalType": "contract IERC20Upgradeable",
          "name": "_asset",
          "type": "address"
        },
        {
          "internalType": "contract ICToken",
          "name": "_cToken",
          "type": "address"
        },
        {
          "internalType": "contract IRainMaker",
          "name": "_rainMaker",
          "type": "address"
        },
        {
          "internalType": "contract IERC20Upgradeable",
          "name": "_compToken",
          "type": "address"
        },
        {
          "internalType": "contract IOps",
          "name": "_ops",
          "type": "address"
        },
        {
          "internalType": "contract AggregatorV3Interface",
          "name": "_nativeTokenPriceFeed",
          "type": "address"
        },
        {
          "internalType": "contract AggregatorV3Interface",
          "name": "_assetPriceFeed",
          "type": "address"
        },
        {
          "internalType": "uint256",
          "name": "_minReportInterval",
          "type": "uint256"
        },
        {
          "internalType": "bool",
          "name": "_isPrepaid",
          "type": "bool"
        }
      ],
      "name": "__CTokenBaseStrategy_init",
      "outputs": [],
      "stateMutability": "nonpayable",
      "type": "function"
    },
    {
      "inputs": [],
      "name": "accrueInterest",
      "outputs": [
        {
          "internalType": "uint256",
          "name": "",
          "type": "uint256"
        }
      ],
      "stateMutability": "nonpayable",
      "type": "function"
    },
    {
      "inputs": [],
      "name": "asset",
      "outputs": [
        {
          "internalType": "contract IERC20Upgradeable",
          "name": "",
          "type": "address"
        }
      ],
      "stateMutability": "view",
      "type": "function"
    },
    {
      "inputs": [],
      "name": "borrowRatePerBlock",
      "outputs": [
        {
          "internalType": "uint256",
          "name": "",
          "type": "uint256"
        }
      ],
      "stateMutability": "view",
      "type": "function"
    },
    {
      "inputs": [],
      "name": "cToken",
      "outputs": [
        {
          "internalType": "contract ICToken",
          "name": "",
          "type": "address"
        }
      ],
      "stateMutability": "view",
      "type": "function"
    },
    {
      "inputs": [],
      "name": "canWork",
      "outputs": [
        {
          "internalType": "bool",
          "name": "",
          "type": "bool"
        }
      ],
      "stateMutability": "view",
      "type": "function"
    },
    {
      "inputs": [],
      "name": "checker",
      "outputs": [
        {
          "internalType": "bool",
          "name": "canExec",
          "type": "bool"
        },
        {
          "internalType": "bytes",
          "name": "execPayload",
          "type": "bytes"
        }
      ],
      "stateMutability": "view",
      "type": "function"
    },
    {
      "inputs": [],
      "name": "compToken",
      "outputs": [
        {
          "internalType": "contract IERC20Upgradeable",
          "name": "",
          "type": "address"
        }
      ],
      "stateMutability": "view",
      "type": "function"
    },
    {
      "inputs": [],
      "name": "debtThreshold",
      "outputs": [
        {
          "internalType": "uint256",
          "name": "",
          "type": "uint256"
        }
      ],
      "stateMutability": "view",
      "type": "function"
    },
    {
      "inputs": [],
      "name": "depositedBalance",
      "outputs": [
        {
          "internalType": "uint256",
          "name": "",
          "type": "uint256"
        }
      ],
      "stateMutability": "nonpayable",
      "type": "function"
    },
    {
      "inputs": [],
      "name": "depositedBalanceSnapshot",
      "outputs": [
        {
          "internalType": "uint256",
          "name": "",
          "type": "uint256"
        }
      ],
      "stateMutability": "view",
      "type": "function"
    },
    {
      "inputs": [],
      "name": "estimatedTotalAssets",
      "outputs": [
        {
          "internalType": "uint256",
          "name": "",
          "type": "uint256"
        }
      ],
      "stateMutability": "view",
      "type": "function"
    },
    {
      "inputs": [],
      "name": "estimatedWorkGas",
      "outputs": [
        {
          "internalType": "uint256",
          "name": "",
          "type": "uint256"
        }
      ],
      "stateMutability": "view",
      "type": "function"
    },
    {
      "inputs": [],
      "name": "exchangeRateCurrent",
      "outputs": [
        {
          "internalType": "uint256",
          "name": "",
          "type": "uint256"
        }
      ],
      "stateMutability": "nonpayable",
      "type": "function"
    },
    {
      "inputs": [],
      "name": "exchangeRateStored",
      "outputs": [
        {
          "internalType": "uint256",
          "name": "",
          "type": "uint256"
        }
      ],
      "stateMutability": "view",
      "type": "function"
    },
    {
      "inputs": [],
      "name": "gelato",
      "outputs": [
        {
          "internalType": "address payable",
          "name": "",
          "type": "address"
        }
      ],
      "stateMutability": "view",
      "type": "function"
    },
    {
      "inputs": [],
      "name": "healthCheck",
      "outputs": [
        {
          "internalType": "contract IHealthCheck",
          "name": "",
          "type": "address"
        }
      ],
      "stateMutability": "view",
      "type": "function"
    },
    {
      "inputs": [],
      "name": "healthCheckEnabled",
      "outputs": [
        {
          "internalType": "bool",
          "name": "",
          "type": "bool"
        }
      ],
      "stateMutability": "view",
      "type": "function"
    },
    {
      "inputs": [
        {
          "internalType": "address",
          "name": "_vault",
          "type": "address"
        },
        {
          "internalType": "address",
          "name": "_asset",
          "type": "address"
        },
        {
          "internalType": "address",
          "name": "_cToken",
          "type": "address"
        },
        {
          "internalType": "address",
          "name": "_ops",
          "type": "address"
        },
        {
          "internalType": "address",
          "name": "_nativeTokenPriceFeed",
          "type": "address"
        },
        {
          "internalType": "address",
          "name": "_assetPriceFeed",
          "type": "address"
        },
        {
          "internalType": "uint256",
          "name": "_minReportInterval",
          "type": "uint256"
        },
        {
          "internalType": "bool",
          "name": "_isPrepaid",
          "type": "bool"
        }
      ],
      "name": "initialize",
      "outputs": [],
      "stateMutability": "nonpayable",
      "type": "function"
    },
    {
      "inputs": [],
      "name": "interestRatePerBlock",
      "outputs": [
        {
          "internalType": "uint256",
          "name": "",
          "type": "uint256"
        }
      ],
      "stateMutability": "view",
      "type": "function"
    },
    {
      "inputs": [],
      "name": "isPrepaid",
      "outputs": [
        {
          "internalType": "bool",
          "name": "",
          "type": "bool"
        }
      ],
      "stateMutability": "view",
      "type": "function"
    },
    {
      "inputs": [],
      "name": "lastWorkTime",
      "outputs": [
        {
          "internalType": "uint256",
          "name": "",
          "type": "uint256"
        }
      ],
      "stateMutability": "view",
      "type": "function"
    },
    {
      "inputs": [],
      "name": "lender",
      "outputs": [
        {
          "internalType": "contract IStrategiesLender",
          "name": "",
          "type": "address"
        }
      ],
      "stateMutability": "view",
      "type": "function"
    },
    {
      "inputs": [],
      "name": "minBananaToSell",
      "outputs": [
        {
          "internalType": "uint256",
          "name": "",
          "type": "uint256"
        }
      ],
      "stateMutability": "view",
      "type": "function"
    },
    {
      "inputs": [],
      "name": "minimumBetweenExecutions",
      "outputs": [
        {
          "internalType": "uint256",
          "name": "",
          "type": "uint256"
        }
      ],
      "stateMutability": "view",
      "type": "function"
    },
    {
      "inputs": [],
      "name": "name",
      "outputs": [
        {
          "internalType": "string",
          "name": "",
          "type": "string"
        }
      ],
      "stateMutability": "view",
      "type": "function"
    },
    {
      "inputs": [],
      "name": "ops",
      "outputs": [
        {
          "internalType": "contract IOps",
          "name": "",
          "type": "address"
        }
      ],
      "stateMutability": "view",
      "type": "function"
    },
    {
      "inputs": [],
      "name": "owner",
      "outputs": [
        {
          "internalType": "address",
          "name": "",
          "type": "address"
        }
      ],
      "stateMutability": "view",
      "type": "function"
    },
    {
      "inputs": [],
      "name": "pancakeRouter",
      "outputs": [
        {
          "internalType": "contract IPancakeRouter",
          "name": "",
          "type": "address"
        }
      ],
      "stateMutability": "view",
      "type": "function"
    },
    {
      "inputs": [],
      "name": "paused",
      "outputs": [
        {
          "internalType": "bool",
          "name": "",
          "type": "bool"
        }
      ],
      "stateMutability": "view",
      "type": "function"
    },
    {
      "inputs": [],
      "name": "payableWork",
      "outputs": [],
      "stateMutability": "nonpayable",
      "type": "function"
    },
    {
      "inputs": [],
      "name": "profitFactor",
      "outputs": [
        {
          "internalType": "uint256",
          "name": "",
          "type": "uint256"
        }
      ],
      "stateMutability": "view",
      "type": "function"
    },
    {
      "inputs": [],
      "name": "proxiableUUID",
      "outputs": [
        {
          "internalType": "bytes32",
          "name": "",
          "type": "bytes32"
        }
      ],
      "stateMutability": "view",
      "type": "function"
    },
    {
      "inputs": [],
      "name": "rainMaker",
      "outputs": [
        {
          "internalType": "contract IRainMaker",
          "name": "",
          "type": "address"
        }
      ],
      "stateMutability": "view",
      "type": "function"
    },
    {
      "inputs": [],
      "name": "renounceOwnership",
      "outputs": [],
      "stateMutability": "nonpayable",
      "type": "function"
    },
    {
      "inputs": [],
      "name": "secondPerBlock",
      "outputs": [
        {
          "internalType": "uint256",
          "name": "",
          "type": "uint256"
        }
      ],
      "stateMutability": "view",
      "type": "function"
    },
    {
      "inputs": [
        {
          "internalType": "uint256",
          "name": "_debtThreshold",
          "type": "uint256"
        }
      ],
      "name": "setDebtThreshold",
      "outputs": [],
      "stateMutability": "nonpayable",
      "type": "function"
    },
    {
      "inputs": [
        {
          "internalType": "uint256",
          "name": "_estimatedWorkGas",
          "type": "uint256"
        }
      ],
      "name": "setEstimatedWorkGas",
      "outputs": [],
      "stateMutability": "nonpayable",
      "type": "function"
    },
    {
      "inputs": [
        {
          "internalType": "address",
          "name": "_healthCheck",
          "type": "address"
        }
      ],
      "name": "setHealthCheck",
      "outputs": [],
      "stateMutability": "nonpayable",
      "type": "function"
    },
    {
      "inputs": [
        {
          "internalType": "bool",
          "name": "_healthCheckEnabled",
          "type": "bool"
        }
      ],
      "name": "setHealthCheckEnabled",
      "outputs": [],
      "stateMutability": "nonpayable",
      "type": "function"
    },
    {
      "inputs": [
        {
          "internalType": "uint256",
          "name": "_minBananaToSell",
          "type": "uint256"
        }
      ],
      "name": "setMinBananaToSell",
      "outputs": [],
      "stateMutability": "nonpayable",
      "type": "function"
    },
    {
      "inputs": [
        {
          "internalType": "uint256",
          "name": "_profitFactor",
          "type": "uint256"
        }
      ],
      "name": "setProfitFactor",
      "outputs": [],
      "stateMutability": "nonpayable",
      "type": "function"
    },
    {
      "inputs": [],
      "name": "shutdown",
      "outputs": [],
      "stateMutability": "nonpayable",
      "type": "function"
    },
    {
      "inputs": [],
      "name": "supplyRatePerBlock",
      "outputs": [
        {
          "internalType": "uint256",
          "name": "",
          "type": "uint256"
        }
      ],
      "stateMutability": "view",
      "type": "function"
    },
    {
      "inputs": [],
      "name": "timeFromLastExecution",
      "outputs": [
        {
          "internalType": "uint256",
          "name": "",
          "type": "uint256"
        }
      ],
      "stateMutability": "view",
      "type": "function"
    },
    {
      "inputs": [
        {
          "internalType": "address",
          "name": "newOwner",
          "type": "address"
        }
      ],
      "name": "transferOwnership",
      "outputs": [],
      "stateMutability": "nonpayable",
      "type": "function"
    },
    {
      "inputs": [
        {
          "internalType": "address",
          "name": "newImplementation",
          "type": "address"
        }
      ],
      "name": "upgradeTo",
      "outputs": [],
      "stateMutability": "nonpayable",
      "type": "function"
    },
    {
      "inputs": [
        {
          "internalType": "address",
          "name": "newImplementation",
          "type": "address"
        },
        {
          "internalType": "bytes",
          "name": "data",
          "type": "bytes"
        }
      ],
      "name": "upgradeToAndCall",
      "outputs": [],
      "stateMutability": "payable",
      "type": "function"
    },
    {
      "inputs": [],
      "name": "version",
      "outputs": [
        {
          "internalType": "string",
          "name": "",
          "type": "string"
        }
      ],
      "stateMutability": "pure",
      "type": "function"
    },
    {
      "inputs": [
        {
          "internalType": "uint256",
          "name": "assets",
          "type": "uint256"
        }
      ],
      "name": "withdraw",
      "outputs": [
        {
          "internalType": "uint256",
          "name": "loss",
          "type": "uint256"
        }
      ],
      "stateMutability": "nonpayable",
      "type": "function"
    },
    {
      "inputs": [],
      "name": "work",
      "outputs": [],
      "stateMutability": "nonpayable",
      "type": "function"
    }
  ],
  "transactionHash": "0xb431272005fa13226c0db9a0cfdfe10b84dfdc3a06fdf11aa189a8d952efa513",
  "args": [
    true
  ],
  "numDeployments": 1,
  "solcInputHash": "fd20c73eedf443b76be4165c8097076f",
  "bytecode": "0x60a0604052306080523480156200001557600080fd5b5060405162004d2638038062004d26833981016040819052620000389162000113565b8080156200004a576200004a62000052565b50506200013e565b600054610100900460ff1615620000bf5760405162461bcd60e51b815260206004820152602760248201527f496e697469616c697a61626c653a20636f6e747261637420697320696e697469604482015266616c697a696e6760c81b606482015260840160405180910390fd5b60005460ff9081161462000111576000805460ff191660ff9081179091556040519081527f7f26b83ff96e1f2b6a682f133852f6798a09c465da95921460cefb38474024989060200160405180910390a15b565b6000602082840312156200012657600080fd5b815180151581146200013757600080fd5b9392505050565b608051614bb06200017660003960008181610c5301528181610c9c01528181610dc501528181610e050152610e980152614bb06000f3fe6080604052600436106103765760003560e01c80638cdfe166116101d1578063c2fa3cae11610102578063e08836dd116100a0578063efbb5cb01161006f578063efbb5cb01461099a578063f2fde38b146109af578063f8f9da28146109cf578063fc0e74d1146109e457600080fd5b8063e08836dd1461091c578063e4ada24b14610944578063e70abe9214610964578063eb6782141461098557600080fd5b8063cdb72659116100dc578063cdb726591461089f578063cee2b04e146108c0578063cf5303cf146108e2578063d98a1c171461090557600080fd5b8063c2fa3cae1461084b578063c467d55914610860578063c8b35c7a1461087757600080fd5b8063a6afed951161016f578063bcead63e11610149578063bcead63e146107df578063bd6d894d14610800578063c1d7425814610815578063c21ebd071461082a57600080fd5b8063a6afed9514610794578063ae9d70b0146107a9578063b252720b146107be57600080fd5b80638efdfe46116101ab5780638efdfe461461071f57806391397ab41461073f57806391b00bd91461075f578063981d12eb1461077457600080fd5b80638cdfe166146106c15780638da5cb5b146106d85780638dd95002146106f757600080fd5b80634f1ef286116102ab5780635c975abb116102495780636848d47d116102235780636848d47d1461064357806369e527da14610663578063715018a6146106845780638011cc9d1461069957600080fd5b80635c975abb146105f3578063635005d61461060c5780636605dfa71461062257600080fd5b806354fd4d501161028557806354fd4d5014610578578063573ea575146105a6578063574a00cb146105c757806359cad75d146105dc57600080fd5b80634f1ef2861461053b57806352d1902d1461054e57806353c309de1461056357600080fd5b8063322e9f0411610318578063417a570d116102f2578063417a570d146104c557806344bfc6bf146104e557806347eb98a2146104fa57806347f76df21461052557600080fd5b8063322e9f04146104575780633659cfe61461046c57806338d52e0f1461048c57600080fd5b8063182df0f511610354578063182df0f5146103e85780631d12f28b1461040b5780632e1a7d4d146104225780632ff7709e1461044257600080fd5b806306fdde031461037b5780630f969b87146103a657806311bc8245146103c8575b600080fd5b34801561038757600080fd5b506103906109f9565b60405161039d919061421c565b60405180910390f35b3480156103b257600080fd5b506103c66103c136600461422f565b610a90565b005b3480156103d457600080fd5b506103c66103e336600461425d565b610ad5565b3480156103f457600080fd5b506103fd610b2c565b60405190815260200161039d565b34801561041757600080fd5b506103fd6102615481565b34801561042e57600080fd5b506103fd61043d36600461422f565b610ba0565b34801561044e57600080fd5b506103fd610bfe565b34801561046357600080fd5b506103c6610c08565b34801561047857600080fd5b506103c661048736600461425d565b610c49565b34801561049857600080fd5b50610260546104ad906001600160a01b031681565b6040516001600160a01b03909116815260200161039d565b3480156104d157600080fd5b506103c66104e036600461422f565b610d31565b3480156104f157600080fd5b506103fd610d6f565b34801561050657600080fd5b50610163546105159060ff1681565b604051901515815260200161039d565b34801561053157600080fd5b506103fd60fc5481565b6103c66105493660046142f0565b610dbb565b34801561055a57600080fd5b506103fd610e8b565b34801561056f57600080fd5b506103c6610f3e565b34801561058457600080fd5b50604080518082019091526005815264181719971960d91b6020820152610390565b3480156105b257600080fd5b50610130546104ad906001600160a01b031681565b3480156105d357600080fd5b506103fd605a81565b3480156105e857600080fd5b506103fd6102625481565b3480156105ff57600080fd5b5061022d5460ff16610515565b34801561061857600080fd5b506103fd60fb5481565b34801561062e57600080fd5b5061029b546104ad906001600160a01b031681565b34801561064f57600080fd5b506103c661065e366004614391565b610fca565b34801561066f57600080fd5b50610299546104ad906001600160a01b031681565b34801561069057600080fd5b506103c6611020565b3480156106a557600080fd5b506104ad735cb93c0ade6b7f2760ec4389833b0cccb5e4efda81565b3480156106cd57600080fd5b506103fd6102635481565b3480156106e457600080fd5b50610196546001600160a01b03166104ad565b34801561070357600080fd5b506104ad73bb4cdb9cbd36b01bd1cbaebf2de08d9173bc095c81565b34801561072b57600080fd5b506103c661073a36600461422f565b611032565b34801561074b57600080fd5b506103c661075a36600461422f565b611040565b34801561076b57600080fd5b506103fd61107e565b34801561078057600080fd5b506103c661078f3660046143ae565b61108e565b3480156107a057600080fd5b506103fd6110dd565b3480156107b557600080fd5b506103fd611129565b3480156107ca57600080fd5b506101fa546104ad906001600160a01b031681565b3480156107eb57600080fd5b5061025f546104ad906001600160a01b031681565b34801561080c57600080fd5b506103fd611277565b34801561082157600080fd5b506103fd600381565b34801561083657600080fd5b506102d0546104ad906001600160a01b031681565b34801561085757600080fd5b506103fd6112c3565b34801561086c57600080fd5b506103fd61029c5481565b34801561088357600080fd5b506104ad73603c7f932ed1fc6575303d8fb018fdcbb0f39a9581565b3480156108ab57600080fd5b5061029a546104ad906001600160a01b031681565b3480156108cc57600080fd5b506101fa5461051590600160a01b900460ff1681565b3480156108ee57600080fd5b506108f7611361565b60405161039d929190614475565b34801561091157600080fd5b506103fd6102cf5481565b34801561092857600080fd5b506104ad7310ed43c718714eb63d5aa57b78b54704e256024e81565b34801561095057600080fd5b506103c661095f366004614490565b6113c8565b34801561097057600080fd5b5061012f546104ad906001600160a01b031681565b34801561099157600080fd5b5061051561154d565b3480156109a657600080fd5b506103fd611569565b3480156109bb57600080fd5b506103c66109ca36600461425d565b6115fc565b3480156109db57600080fd5b506103fd611672565b3480156109f057600080fd5b506103c6611792565b61026054604080516395d89b4160e01b815290516060926001600160a01b0316916395d89b419160048083019260009291908290030181865afa158015610a44573d6000803e3d6000fd5b505050506040513d6000823e601f3d908101601f19168201604052610a6c9190810190614530565b604051602001610a7c91906145a7565b604051602081830303815290604052905090565b610a98611812565b6102618190556040518181527fc9535537e8d84b9f2b1de4393633cf857ba693878894a0f280211615d850d7e8906020015b60405180910390a150565b610add611812565b6101fa80546001600160a01b0319166001600160a01b0383169081179091556040519081527f237b727bcd9a5527fd4043c1560a9bdf8eb934bc035e4656ee6e4bebca7a6b4790602001610aca565b610299546040805163182df0f560e01b815290516000926001600160a01b03169163182df0f59160048083019260209291908290030181865afa158015610b77573d6000803e3d6000fd5b505050506040513d601f19601f82011682018060405250810190610b9b91906145df565b905090565b61025f546000906001600160a01b03163314610bcf57604051633a0c5cef60e01b815260040160405180910390fd5b6000610bda8361186d565b61026054909350909150610bf8906001600160a01b031633836119be565b50919050565b6000610b9b611129565b610c10611a26565b610c1861154d565b610c3557604051630728f52160e21b815260040160405180910390fd5b610c3d611a7f565b610c47600160c955565b565b6001600160a01b037f0000000000000000000000000000000000000000000000000000000000000000163003610c9a5760405162461bcd60e51b8152600401610c91906145f8565b60405180910390fd5b7f00000000000000000000000000000000000000000000000000000000000000006001600160a01b0316610ce3600080516020614b34833981519152546001600160a01b031690565b6001600160a01b031614610d095760405162461bcd60e51b8152600401610c9190614644565b610d1281611ac4565b60408051600080825260208201909252610d2e91839190611acc565b50565b610d39611812565b6102628190556040518181527f76a2e56642491d2ca27c5ad2ac9a12dc4264911b4ddcc90fc0b2c44fb2a01fea90602001610aca565b61029954604051633af9e66960e01b81523060048201526000916001600160a01b031690633af9e669906024016020604051808303816000875af1158015610b77573d6000803e3d6000fd5b6001600160a01b037f0000000000000000000000000000000000000000000000000000000000000000163003610e035760405162461bcd60e51b8152600401610c91906145f8565b7f00000000000000000000000000000000000000000000000000000000000000006001600160a01b0316610e4c600080516020614b34833981519152546001600160a01b031690565b6001600160a01b031614610e725760405162461bcd60e51b8152600401610c9190614644565b610e7b82611ac4565b610e8782826001611acc565b5050565b6000306001600160a01b037f00000000000000000000000000000000000000000000000000000000000000001614610f2b5760405162461bcd60e51b815260206004820152603860248201527f555550535570677261646561626c653a206d757374206e6f742062652063616c60448201527f6c6564207468726f7567682064656c656761746563616c6c00000000000000006064820152608401610c91565b50600080516020614b3483398151915290565b610f46611a26565b61012f546001600160a01b03163314610f955760405162461bcd60e51b81526020600482015260116024820152704f707352656164793a206f6e6c794f707360781b6044820152606401610c91565b6101635460ff1615610fba576040516301b5ad6760e01b815260040160405180910390fd5b610fc2611a7f565b610c3d611c37565b610fd2611812565b6101fa8054821515600160a01b0260ff60a01b199091161790556040517f3723564e400cf869a1ec2a588cf7f8c3e1d7564a7e00d6ef949b251b90c93f6990610aca90831515815260200190565b611028611812565b610c476000611cc3565b61103a611812565b6102cf55565b611048611812565b6102638190556040518181527fd94596337df4c2f0f44d30a7fc5db1c7bb60d9aca4185ed77c6fd96eb45ec29890602001610aca565b600060fb5442610b9b91906146a6565b600054610100900460ff166110b55760405162461bcd60e51b8152600401610c91906146b9565b6110c68a8a87858589896000611d16565b6110d1888888611d6f565b50505050505050505050565b610299546040805163a6afed9560e01b815290516000926001600160a01b03169163a6afed95916004808301926020929190829003018187875af1158015610b77573d6000803e3d6000fd5b610299546040805163b9ab55eb60e01b815290516000926001600160a01b03169163b9ab55eb9160048083019260209291908290030181865afa158015611174573d6000803e3d6000fd5b505050506040513d601f19601f820116820180604052508101906111989190614704565b156111f15761029960009054906101000a90046001600160a01b03166001600160a01b031663ae9d70b06040518163ffffffff1660e01b8152600401602060405180830381865afa158015610b77573d6000803e3d6000fd5b61029c5461029960009054906101000a90046001600160a01b03166001600160a01b031663ae9d70b06040518163ffffffff1660e01b8152600401602060405180830381865afa158015611249573d6000803e3d6000fd5b505050506040513d601f19601f8201168201806040525081019061126d91906145df565b610b9b9190614721565b610299546040805163bd6d894d60e01b815290516000926001600160a01b03169163bd6d894d916004808301926020929190829003018187875af1158015610b77573d6000803e3d6000fd5b610299546040516361bfb47160e11b8152306004820152600091829182916001600160a01b03169063c37f68e290602401608060405180830381865afa158015611311573d6000803e3d6000fd5b505050506040513d601f19601f820116820180604052508101906113359190614738565b935050925050670de0b6b3a764000081836113509190614721565b61135a919061476e565b9250505090565b6000606061136d61154d565b6101635490925060ff16611388576329e184ef60e11b611391565b630c8ba7c160e21b5b6040805160048152602481019091526020810180516001600160e01b03166001600160e01b03199093169290921790915291929050565b600054610100900460ff16158080156113e85750600054600160ff909116105b806114025750303b158015611402575060005460ff166001145b6114655760405162461bcd60e51b815260206004820152602e60248201527f496e697469616c697a61626c653a20636f6e747261637420697320616c72656160448201526d191e481a5b9a5d1a585b1a5e995960921b6064820152608401610c91565b6000805460ff191660011790558015611488576000805461ff0019166101001790555b611490611f22565b6114ca898989735cb93c0ade6b7f2760ec4389833b0cccb5e4efda73603c7f932ed1fc6575303d8fb018fdcbb0f39a958b8b8b8b8b61108e565b6114fc73603c7f932ed1fc6575303d8fb018fdcbb0f39a957310ed43c718714eb63d5aa57b78b54704e256024e611f51565b8015611542576000805461ff0019169055604051600181527f7f26b83ff96e1f2b6a682f133852f6798a09c465da95921460cefb38474024989060200160405180910390a15b505050505050505050565b600061155a60fc54611fab565b8015610b9b5750610b9b611fbd565b600061157361218b565b61157b6112c3565b610260546040516370a0823160e01b81523060048201526001600160a01b03909116906370a0823190602401602060405180830381865afa1580156115c4573d6000803e3d6000fd5b505050506040513d601f19601f820116820180604052508101906115e891906145df565b6115f29190614790565b610b9b9190614790565b611604611812565b6001600160a01b0381166116695760405162461bcd60e51b815260206004820152602660248201527f4f776e61626c653a206e6577206f776e657220697320746865207a65726f206160448201526564647265737360d01b6064820152608401610c91565b610d2e81611cc3565b610299546040805163b9ab55eb60e01b815290516000926001600160a01b03169163b9ab55eb9160048083019260209291908290030181865afa1580156116bd573d6000803e3d6000fd5b505050506040513d601f19601f820116820180604052508101906116e19190614704565b1561173a5761029960009054906101000a90046001600160a01b03166001600160a01b031663f8f9da286040518163ffffffff1660e01b8152600401602060405180830381865afa158015610b77573d6000803e3d6000fd5b61029c5461029960009054906101000a90046001600160a01b03166001600160a01b031663f8f9da286040518163ffffffff1660e01b8152600401602060405180830381865afa158015611249573d6000803e3d6000fd5b61179a611a26565b6117a2611812565b6117aa6122a9565b61025f5460405163177329a960e31b81523060048201526001600160a01b039091169063bb994d4890602401600060405180830381600087803b1580156117f057600080fd5b505af1158015611804573d6000803e3d6000fd5b50505050610c47600160c955565b610196546001600160a01b03163314610c475760405162461bcd60e51b815260206004820181905260248201527f4f776e61626c653a2063616c6c6572206973206e6f7420746865206f776e65726044820152606401610c91565b610260546040516370a0823160e01b8152306004820152600091829182916001600160a01b0316906370a0823190602401602060405180830381865afa1580156118bb573d6000803e3d6000fd5b505050506040513d601f19601f820116820180604052508101906118df91906145df565b9050838110156119b45760006118f3610d6f565b905060006119018287612304565b6102995460405163852a12e360e01b8152600481018390529192506000916001600160a01b039091169063852a12e3906024016020604051808303816000875af1158015611953573d6000803e3d6000fd5b505050506040513d601f19601f8201168201806040525081019061197791906145df565b9050801561199b576040516305ee2ff160e11b815260048101829052602401610c91565b81955085876119aa91906146a6565b94505050506119b8565b8392505b50915091565b6040516001600160a01b038316602482015260448101829052611a2190849063a9059cbb60e01b906064015b60408051601f198184030181529190526020810180516001600160e01b03166001600160e01b03199093169290921790915261231e565b505050565b600260c95403611a785760405162461bcd60e51b815260206004820152601f60248201527f5265656e7472616e637947756172643a207265656e7472616e742063616c6c006044820152606401610c91565b600260c955565b611a884260fb55565b611a906123f3565b60405133907f8065c96ce68645eb5e1342fb74a5b4646b6712a1bb6a5e86280c1526eca8d25690600090a2565b600160c955565b610d2e611812565b7f4910fdfa16fed3260ed0e7147f7cc6da11a60208b5b9406d12a635614ffd91435460ff1615611aff57611a21836127df565b826001600160a01b03166352d1902d6040518163ffffffff1660e01b8152600401602060405180830381865afa925050508015611b59575060408051601f3d908101601f19168201909252611b56918101906145df565b60015b611bbc5760405162461bcd60e51b815260206004820152602e60248201527f45524331393637557067726164653a206e657720696d706c656d656e7461746960448201526d6f6e206973206e6f74205555505360901b6064820152608401610c91565b600080516020614b348339815191528114611c2b5760405162461bcd60e51b815260206004820152602960248201527f45524331393637557067726164653a20756e737570706f727465642070726f786044820152681a58589b195555525160ba1b6064820152608401610c91565b50611a2183838361287b565b61012f5460408051635c08631b60e11b8152815160009384936001600160a01b039091169263b810c63692600480830193928290030181865afa158015611c82573d6000803e3d6000fd5b505050506040513d601f19601f82011682018060405250810190611ca691906147a3565b610130549193509150610e87906001600160a01b031682846128a6565b61019680546001600160a01b038381166001600160a01b0319831681179093556040519116919082907f8be0079c531659141344cd1fd0a4f28419497f9722a3daafe3b4186f6b6457e090600090a35050565b600054610100900460ff16611d3d5760405162461bcd60e51b8152600401610c91906146b9565b611d46816128e0565b611d4e612918565b611d59868686612947565b611d6588888585612989565b5050505050505050565b600054610100900460ff16611d965760405162461bcd60e51b8152600401610c91906146b9565b600361029c5561029980546001600160a01b038086166001600160a01b0319928316811790935561029a805486831690841617905561029b8054918516919092161790556040805163313ce56760e01b8152905163313ce567916004808201926020929091908290030181865afa158015611e15573d6000803e3d6000fd5b505050506040513d601f19601f82011682018060405250810190611e3991906147d3565b60ff166008141580611e4f575061026654601214155b15611e6d57604051636a78e98160e11b815260040160405180910390fd5b610260546102995460408051636f307dc360e01b815290516001600160a01b039384169390921691636f307dc3916004808201926020929091908290030181865afa158015611ec0573d6000803e3d6000fd5b505050506040513d601f19601f82011682018060405250810190611ee491906147f6565b6001600160a01b031614611f0b5760405163bd3cf18d60e01b815260040160405180910390fd5b61026054611a21906001600160a01b031684612b9b565b600054610100900460ff16611f495760405162461bcd60e51b8152600401610c91906146b9565b610c47612bb1565b600054610100900460ff16611f785760405162461bcd60e51b8152600401610c91906146b9565b6102d080546001600160a01b0319166001600160a01b03831617905567016345785d8a00006102cf55610e878282612b9b565b600081611fb661107e565b1192915050565b61025f54604080516312a307ed60e21b815290516000926001600160a01b031691634a8c1fb49160048083019260209291908290030181865afa158015612008573d6000803e3d6000fd5b505050506040513d601f19601f8201168201806040525081019061202c9190614704565b6120365750600090565b61025f54604080516306f94a0d60e01b815290516000926001600160a01b0316916306f94a0d9160048083019260209291908290030181865afa158015612081573d6000803e3d6000fd5b505050506040513d601f19601f820116820180604052508101906120a591906145df565b9050610261548111156120ba57600191505090565b60006120c4611569565b9050600061025f60009054906101000a90046001600160a01b03166001600160a01b031663759076e56040518163ffffffff1660e01b8152600401602060405180830381865afa15801561211c573d6000803e3d6000fd5b505050506040513d601f19601f8201168201806040525081019061214091906145df565b90508061026154836121529190614790565b1015612162576001935050505090565b6000818311156121795761217682846146a6565b90505b61218281612bd8565b94505050505090565b600080612196612c99565b61219e612d52565b6121a89190614790565b9050806000036121ba57600091505090565b6102d054610260546000916001600160a01b039081169163d06ca61f9185916121f99173603c7f932ed1fc6575303d8fb018fdcbb0f39a959116612d9c565b6040518363ffffffff1660e01b8152600401612216929190614857565b600060405180830381865afa158015612233573d6000803e3d6000fd5b505050506040513d6000823e601f3d908101601f1916820160405261225b9190810190614870565b90506000816001835161226e91906146a6565b8151811061227e5761227e61490a565b602002602001015190506064605a826122979190614721565b6122a1919061476e565b935050505090565b6122b1612f36565b61022d805460ff191660011790557f62e78cea01bee320cd4e420270b5ea74000d11b0c9f74754ebdbfc544b05a2586122e73390565b6040516001600160a01b03909116815260200160405180910390a1565b60008183106123135781612315565b825b90505b92915050565b6000612373826040518060400160405280602081526020017f5361666545524332303a206c6f772d6c6576656c2063616c6c206661696c6564815250856001600160a01b0316612f7d9092919063ffffffff16565b90508051600014806123945750808060200190518101906123949190614704565b611a215760405162461bcd60e51b815260206004820152602a60248201527f5361666545524332303a204552433230206f7065726174696f6e20646964206e6044820152691bdd081cdd58d8d9595960b21b6064820152608401610c91565b60008060008061025f60009054906101000a90046001600160a01b03166001600160a01b03166306f94a0d6040518163ffffffff1660e01b8152600401602060405180830381865afa15801561244d573d6000803e3d6000fd5b505050506040513d601f19601f8201168201806040525081019061247191906145df565b905061248061022d5460ff1690565b1561249a5761248e81612f94565b919550935091506124ab565b6124a381612fe5565b919550935091505b831561251c5761025f5460405163dd723c1b60e01b815260048101869052602481018490526001600160a01b039091169063dd723c1b90604401600060405180830381600087803b1580156124ff57600080fd5b505af1158015612513573d6000803e3d6000fd5b50505050612583565b61025f546040516339d97c5360e01b815260048101859052602481018490526001600160a01b03909116906339d97c5390604401600060405180830381600087803b15801561256a57600080fd5b505af115801561257e573d6000803e3d6000fd5b505050505b61025f60009054906101000a90046001600160a01b03166001600160a01b03166306f94a0d6040518163ffffffff1660e01b8152600401602060405180830381865afa1580156125d7573d6000803e3d6000fd5b505050506040513d601f19601f820116820180604052508101906125fb91906145df565b905061025f60009054906101000a90046001600160a01b03166001600160a01b0316630baabd7a6040518163ffffffff1660e01b8152600401602060405180830381865afa158015612651573d6000803e3d6000fd5b505050506040513d601f19601f8201168201806040525081019061267591906145df565b15806126f4575061025f60009054906101000a90046001600160a01b03166001600160a01b0316635c975abb6040518163ffffffff1660e01b8152600401602060405180830381865afa1580156126d0573d6000803e3d6000fd5b505050506040513d601f19601f820116820180604052508101906126f49190614704565b6126fe5780612706565b612706611569565b905061271181613278565b61025f546040805163759076e560e01b815290516000926001600160a01b03169163759076e59160048083019260209291908290030181865afa15801561275c573d6000803e3d6000fd5b505050506040513d601f19601f8201168201806040525081019061278091906145df565b905061279030868686868661342e565b6040805186815260208101869052908101849052606081018390527f4c0f499ffe6befa0ca7c826b0916cf87bea98de658013e76938489368d60d5099060800160405180910390a15050505050565b6001600160a01b0381163b61284c5760405162461bcd60e51b815260206004820152602d60248201527f455243313936373a206e657720696d706c656d656e746174696f6e206973206e60448201526c1bdd08184818dbdb9d1c9858dd609a1b6064820152608401610c91565b600080516020614b3483398151915280546001600160a01b0319166001600160a01b0392909216919091179055565b6128848361351e565b6000825111806128915750805b15611a21576128a0838361355e565b50505050565b73eeeeeeeeeeeeeeeeeeeeeeeeeeeeeeeeeeeeeeed196001600160a01b038316016128d557611a218382613583565b611a218284836119be565b600054610100900460ff166129075760405162461bcd60e51b8152600401610c91906146b9565b61290f61361f565b610d2e8161364e565b600054610100900460ff1661293f5760405162461bcd60e51b8152600401610c91906146b9565b610c47613688565b600054610100900460ff1661296e5760405162461bcd60e51b8152600401610c91906146b9565b612977836136bc565b61298082613785565b611a21816137c5565b600054610100900460ff166129b05760405162461bcd60e51b8152600401610c91906146b9565b61025f80546001600160a01b038087166001600160a01b03199283161790925561026080548684169083161790556000610261819055610262556064610263556102648054858416908316179055610265805492841692909116821790556040805163313ce56760e01b8152905163313ce567916004808201926020929091908290030181865afa158015612a49573d6000803e3d6000fd5b505050506040513d601f19601f82011682018060405250810190612a6d91906147d3565b60ff1661026460009054906101000a90046001600160a01b03166001600160a01b031663313ce5676040518163ffffffff1660e01b8152600401602060405180830381865afa158015612ac4573d6000803e3d6000fd5b505050506040513d601f19601f82011682018060405250810190612ae891906147d3565b60ff1614612b09576040516362655f5160e01b815260040160405180910390fd5b61026060009054906101000a90046001600160a01b03166001600160a01b031663313ce5676040518163ffffffff1660e01b8152600401602060405180830381865afa158015612b5d573d6000803e3d6000fd5b505050506040513d601f19601f82011682018060405250810190612b8191906147d3565b60ff1661026655610260546128a0906001600160a01b0316855b610e876001600160a01b03831682600019613800565b600054610100900460ff16610c475760405162461bcd60e51b8152600401610c91906146b9565b60008061025f60009054906101000a90046001600160a01b03166001600160a01b03166307cc692f6040518163ffffffff1660e01b8152600401602060405180830381865afa158015612c2f573d6000803e3d6000fd5b505050506040513d601f19601f82011682018060405250810190612c5391906145df565b9050600061026254612c63613915565b612c6d9190614721565b9050612c81612c7c8584614790565b613931565b8161026354612c909190614721565b10949350505050565b600080612ca4613951565b905080600003612cb657600091505090565b6000600361025f60009054906101000a90046001600160a01b03166001600160a01b031663c3535b526040518163ffffffff1660e01b8152600401602060405180830381865afa158015612d0e573d6000803e3d6000fd5b505050506040513d601f19601f82011682018060405250810190612d3291906145df565b612d3c90426146a6565b612d46919061476e565b905061135a8282614721565b61029b546040516370a0823160e01b81523060048201526000916001600160a01b0316906370a0823190602401602060405180830381865afa158015610b77573d6000803e3d6000fd5b606060006001600160a01b03841673bb4cdb9cbd36b01bd1cbaebf2de08d9173bc095c1480612de757506001600160a01b03831673bb4cdb9cbd36b01bd1cbaebf2de08d9173bc095c145b905080612df5576003612df8565b60025b60ff1667ffffffffffffffff811115612e1357612e13614281565b604051908082528060200260200182016040528015612e3c578160200160208202803683370190505b5091508382600081518110612e5357612e5361490a565b60200260200101906001600160a01b031690816001600160a01b0316815250508015612eb2578282600181518110612e8d57612e8d61490a565b60200260200101906001600160a01b031690816001600160a01b031681525050612f2f565b73bb4cdb9cbd36b01bd1cbaebf2de08d9173bc095c82600181518110612eda57612eda61490a565b60200260200101906001600160a01b031690816001600160a01b0316815250508282600281518110612f0e57612f0e61490a565b60200260200101906001600160a01b031690816001600160a01b0316815250505b5092915050565b61022d5460ff1615610c475760405162461bcd60e51b815260206004820152601060248201526f14185d5cd8589b194e881c185d5cd95960821b6044820152606401610c91565b6060612f8c8484600085613b12565b949350505050565b600080600080612fa2613bed565b905084811015612fbd57612fb681866146a6565b9250612fd2565b84811115612fd257612fcf85826146a6565b93505b612fdc83866146a6565b93959294505050565b610299546040516370a0823160e01b8152306004820152600091829182916001600160a01b0316906370a0823190602401602060405180830381865afa158015613033573d6000803e3d6000fd5b505050506040513d601f19601f8201168201806040525081019061305791906145df565b6000036130da57610260546040516370a0823160e01b81523060048201526130d3916001600160a01b0316906370a0823190602401602060405180830381865afa1580156130a9573d6000803e3d6000fd5b505050506040513d601f19601f820116820180604052508101906130cd91906145df565b85612304565b9050613271565b60006130e4610d6f565b90506130ee613c92565b6130f6613d49565b610260546040516370a0823160e01b81523060048201526000916001600160a01b0316906370a0823190602401602060405180830381865afa158015613140573d6000803e3d6000fd5b505050506040513d601f19601f8201168201806040525081019061316491906145df565b905060006131728284614790565b9050600061025f60009054906101000a90046001600160a01b03166001600160a01b031663759076e56040518163ffffffff1660e01b8152600401602060405180830381865afa1580156131ca573d6000803e3d6000fd5b505050506040513d601f19601f820116820180604052508101906131ee91906145df565b9050808211156132535761320281836146a6565b965086831015613229576132168389612304565b945061322285846146a6565b965061326c565b6132338888614790565b8311156132425787945061326c565b61324c87846146a6565b945061326c565b61325d82826146a6565b95506132698389612304565b94505b505050505b9193909250565b61022d5460ff16156132875750565b610260546040516370a0823160e01b81523060048201526000916001600160a01b0316906370a0823190602401602060405180830381865afa1580156132d1573d6000803e3d6000fd5b505050506040513d601f19601f820116820180604052508101906132f591906145df565b90508181101561338557610299546040516370a0823160e01b81523060048201526001916001600160a01b0316906370a0823190602401602060405180830381865afa158015613349573d6000803e3d6000fd5b505050506040513d601f19601f8201168201806040525081019061336d91906145df565b1115610e87576128a061338082846146a6565b61186d565b600061339183836146a6565b90508015611a21576102995460405163140e25ad60e31b8152600481018390526000916001600160a01b03169063a0712d68906024016020604051808303816000875af11580156133e6573d6000803e3d6000fd5b505050506040513d601f19601f8201168201806040525081019061340a91906145df565b905080156128a057604051638c32d69360e01b815260048101829052602401610c91565b6101fa546001600160a01b031615613516576101fa54600160a01b900460ff166134615761345c6001610fca565b613516565b6101fa546040516301afebc160e21b81526001600160a01b0388811660048301526024820188905260448201879052606482018690526084820185905260a4820184905260009216906306bfaf049060c401602060405180830381865afa1580156134d0573d6000803e3d6000fd5b505050506040513d601f19601f820116820180604052508101906134f49190614704565b9050806135145760405163c196dcf360e01b815260040160405180910390fd5b505b505050505050565b613527816127df565b6040516001600160a01b038216907fbc7cd75a20ee27fd9adebab32041f755214dbc6bffa90cc0225b39da2e5c2d3b90600090a250565b60606123158383604051806060016040528060278152602001614b5460279139613e60565b6000826001600160a01b03168260405160006040518083038185875af1925050503d80600081146135d0576040519150601f19603f3d011682016040523d82523d6000602084013e6135d5565b606091505b5050905080611a215760405162461bcd60e51b815260206004820152601660248201527513985d1a5d99481d1c985b9cd9995c8819985a5b195960521b6044820152606401610c91565b600054610100900460ff166136465760405162461bcd60e51b8152600401610c91906146b9565b610c47613ed8565b600054610100900460ff166136755760405162461bcd60e51b8152600401610c91906146b9565b61367e81610ad5565b610d2e6001610fca565b600054610100900460ff166136af5760405162461bcd60e51b8152600401610c91906146b9565b61022d805460ff19169055565b600054610100900460ff166136e35760405162461bcd60e51b8152600401610c91906146b9565b61012f80546001600160a01b0319166001600160a01b0383169081179091556040805163573ea57560e01b8152905163573ea575916004808201926020929091908290030181865afa15801561373d573d6000803e3d6000fd5b505050506040513d601f19601f8201168201806040525081019061376191906147f6565b61013080546001600160a01b0319166001600160a01b039290921691909117905550565b600054610100900460ff166137ac5760405162461bcd60e51b8152600401610c91906146b9565b6137b4612bb1565b6137bc613f08565b610d2e81613f37565b600054610100900460ff166137ec5760405162461bcd60e51b8152600401610c91906146b9565b610163805460ff1916911515919091179055565b80158061387a5750604051636eb1769f60e11b81523060048201526001600160a01b03838116602483015284169063dd62ed3e90604401602060405180830381865afa158015613854573d6000803e3d6000fd5b505050506040513d601f19601f8201168201806040525081019061387891906145df565b155b6138e55760405162461bcd60e51b815260206004820152603660248201527f5361666545524332303a20617070726f76652066726f6d206e6f6e2d7a65726f60448201527520746f206e6f6e2d7a65726f20616c6c6f77616e636560501b6064820152608401610c91565b6040516001600160a01b038316602482015260448101829052611a2190849063095ea7b360e01b906064016119ea565b61026454600090610b9b906001600160a01b03163a6012613f67565b6102665461026554600091612318916001600160a01b0316908490613f67565b60008061395c6112c3565b90508060000361396e57600091505090565b61029a5461029954604051636aa875b560e01b81526001600160a01b0391821660048201526000929190911690636aa875b590602401602060405180830381865afa1580156139c1573d6000803e3d6000fd5b505050506040513d601f19601f820116820180604052508101906139e591906145df565b90506000670de0b6b3a764000061029960009054906101000a90046001600160a01b03166001600160a01b031663182df0f56040518163ffffffff1660e01b8152600401602060405180830381865afa158015613a46573d6000803e3d6000fd5b505050506040513d601f19601f82011682018060405250810190613a6a91906145df565b61029960009054906101000a90046001600160a01b03166001600160a01b03166318160ddd6040518163ffffffff1660e01b8152600401602060405180830381865afa158015613abe573d6000803e3d6000fd5b505050506040513d601f19601f82011682018060405250810190613ae291906145df565b613aec9190614721565b613af6919061476e565b905060008111613b075760006122a1565b806122978385614721565b606082471015613b735760405162461bcd60e51b815260206004820152602660248201527f416464726573733a20696e73756666696369656e742062616c616e636520666f6044820152651c8818d85b1b60d21b6064820152608401610c91565b600080866001600160a01b03168587604051613b8f9190614920565b60006040518083038185875af1925050503d8060008114613bcc576040519150601f19603f3d011682016040523d82523d6000602084013e613bd1565b606091505b5091509150613be2878383876140b2565b979650505050505050565b600080613bf8610d6f565b6102995460405163852a12e360e01b8152600481018390529192506000916001600160a01b039091169063852a12e3906024016020604051808303816000875af1158015613c4a573d6000803e3d6000fd5b505050506040513d601f19601f82011682018060405250810190613c6e91906145df565b90508015610bf8576040516305ee2ff160e11b815260048101829052602401610c91565b6040805160018082528183019092526000916020808301908036833750506102995482519293506001600160a01b031691839150600090613cd557613cd561490a565b6001600160a01b03928316602091820292909201015261029a5460405162e1ed9760e51b8152911690631c3db2e090613d14903090859060040161493c565b600060405180830381600087803b158015613d2e57600080fd5b505af1158015613d42573d6000803e3d6000fd5b5050505050565b61029b546040516370a0823160e01b81523060048201526000916001600160a01b0316906370a0823190602401602060405180830381865afa158015613d93573d6000803e3d6000fd5b505050506040513d601f19601f82011682018060405250810190613db791906145df565b90506102cf54811015613dc75750565b6102d05461029b54610260546001600160a01b03928316926338ed1739928592600092613df79281169116612d9c565b30426040518663ffffffff1660e01b8152600401613e19959493929190614998565b6000604051808303816000875af1158015613e38573d6000803e3d6000fd5b505050506040513d6000823e601f3d908101601f19168201604052610e879190810190614870565b6060600080856001600160a01b031685604051613e7d9190614920565b600060405180830381855af49150503d8060008114613eb8576040519150601f19603f3d011682016040523d82523d6000602084013e613ebd565b606091505b5091509150613ece868383876140b2565b9695505050505050565b600054610100900460ff16613eff5760405162461bcd60e51b8152600401610c91906146b9565b610c4733611cc3565b600054610100900460ff16613f2f5760405162461bcd60e51b8152600401610c91906146b9565b610c4761412b565b600054610100900460ff16613f5e5760405162461bcd60e51b8152600401610c91906146b9565b610d2e81614152565b600080846001600160a01b031663feaf968c6040518163ffffffff1660e01b815260040160a060405180830381865afa158015613fa8573d6000803e3d6000fd5b505050506040513d601f19601f82011682018060405250810190613fcc91906149f3565b5050509150506000811215613ff4576040516330e53b6960e11b815260040160405180910390fd5b6000856001600160a01b031663313ce5676040518163ffffffff1660e01b8152600401602060405180830381865afa158015614034573d6000803e3d6000fd5b505050506040513d601f19601f8201168201806040525081019061405891906147d3565b60ff169050600061406a60128361417c565b91506000905061407b82600a614b27565b6140859085614721565b905061409286600a614b27565b61409c8289614721565b6140a6919061476e565b98975050505050505050565b6060831561412157825160000361411a576001600160a01b0385163b61411a5760405162461bcd60e51b815260206004820152601d60248201527f416464726573733a2063616c6c20746f206e6f6e2d636f6e74726163740000006044820152606401610c91565b5081612f8c565b612f8c83836141a2565b600054610100900460ff16611abd5760405162461bcd60e51b8152600401610c91906146b9565b6103e881116141775760405163034b4ee160e01b815260048101829052602401610c91565b60fc55565b600080838311156141925750600090508061419b565b50600190508183035b9250929050565b8151156141b25781518083602001fd5b8060405162461bcd60e51b8152600401610c91919061421c565b60005b838110156141e75781810151838201526020016141cf565b50506000910152565b600081518084526142088160208601602086016141cc565b601f01601f19169290920160200192915050565b60208152600061231560208301846141f0565b60006020828403121561424157600080fd5b5035919050565b6001600160a01b0381168114610d2e57600080fd5b60006020828403121561426f57600080fd5b813561427a81614248565b9392505050565b634e487b7160e01b600052604160045260246000fd5b604051601f8201601f1916810167ffffffffffffffff811182821017156142c0576142c0614281565b604052919050565b600067ffffffffffffffff8211156142e2576142e2614281565b50601f01601f191660200190565b6000806040838503121561430357600080fd5b823561430e81614248565b9150602083013567ffffffffffffffff81111561432a57600080fd5b8301601f8101851361433b57600080fd5b803561434e614349826142c8565b614297565b81815286602083850101111561436357600080fd5b816020840160208301376000602083830101528093505050509250929050565b8015158114610d2e57600080fd5b6000602082840312156143a357600080fd5b813561427a81614383565b6000806000806000806000806000806101408b8d0312156143ce57600080fd5b8a356143d981614248565b995060208b01356143e981614248565b985060408b01356143f981614248565b975060608b013561440981614248565b965060808b013561441981614248565b955060a08b013561442981614248565b945060c08b013561443981614248565b935060e08b013561444981614248565b92506101008b013591506101208b013561446281614383565b809150509295989b9194979a5092959850565b8215158152604060208201526000612f8c60408301846141f0565b600080600080600080600080610100898b0312156144ad57600080fd5b88356144b881614248565b975060208901356144c881614248565b965060408901356144d881614248565b955060608901356144e881614248565b945060808901356144f881614248565b935060a089013561450881614248565b925060c0890135915060e089013561451f81614383565b809150509295985092959890939650565b60006020828403121561454257600080fd5b815167ffffffffffffffff81111561455957600080fd5b8201601f8101841361456a57600080fd5b8051614578614349826142c8565b81815285602083850101111561458d57600080fd5b61459e8260208301602086016141cc565b95945050505050565b600082516145b98184602087016141cc565b73204170654c656e64696e6720537472617465677960601b920191825250601401919050565b6000602082840312156145f157600080fd5b5051919050565b6020808252602c908201527f46756e6374696f6e206d7573742062652063616c6c6564207468726f7567682060408201526b19195b1959d85d1958d85b1b60a21b606082015260800190565b6020808252602c908201527f46756e6374696f6e206d7573742062652063616c6c6564207468726f7567682060408201526b6163746976652070726f787960a01b606082015260800190565b634e487b7160e01b600052601160045260246000fd5b8181038181111561231857612318614690565b6020808252602b908201527f496e697469616c697a61626c653a20636f6e7472616374206973206e6f74206960408201526a6e697469616c697a696e6760a81b606082015260800190565b60006020828403121561471657600080fd5b815161427a81614383565b808202811582820484141761231857612318614690565b6000806000806080858703121561474e57600080fd5b505082516020840151604085015160609095015191969095509092509050565b60008261478b57634e487b7160e01b600052601260045260246000fd5b500490565b8082018082111561231857612318614690565b600080604083850312156147b657600080fd5b8251915060208301516147c881614248565b809150509250929050565b6000602082840312156147e557600080fd5b815160ff8116811461427a57600080fd5b60006020828403121561480857600080fd5b815161427a81614248565b600081518084526020808501945080840160005b8381101561484c5781516001600160a01b031687529582019590820190600101614827565b509495945050505050565b828152604060208201526000612f8c6040830184614813565b6000602080838503121561488357600080fd5b825167ffffffffffffffff8082111561489b57600080fd5b818501915085601f8301126148af57600080fd5b8151818111156148c1576148c1614281565b8060051b91506148d2848301614297565b81815291830184019184810190888411156148ec57600080fd5b938501935b838510156140a6578451825293850193908501906148f1565b634e487b7160e01b600052603260045260246000fd5b600082516149328184602087016141cc565b9190910192915050565b6001600160a01b038381168252604060208084018290528451918401829052600092858201929091906060860190855b8181101561498a57855185168352948301949183019160010161496c565b509098975050505050505050565b85815284602082015260a0604082015260006149b760a0830186614813565b6001600160a01b0394909416606083015250608001529392505050565b805169ffffffffffffffffffff811681146149ee57600080fd5b919050565b600080600080600060a08688031215614a0b57600080fd5b614a14866149d4565b9450602086015193506040860151925060608601519150614a37608087016149d4565b90509295509295909350565b600181815b80851115614a7e578160001904821115614a6457614a64614690565b80851615614a7157918102915b93841c9390800290614a48565b509250929050565b600082614a9557506001612318565b81614aa257506000612318565b8160018114614ab85760028114614ac257614ade565b6001915050612318565b60ff841115614ad357614ad3614690565b50506001821b612318565b5060208310610133831016604e8410600b8410161715614b01575081810a612318565b614b0b8383614a43565b8060001904821115614b1f57614b1f614690565b029392505050565b60006123158383614a8656fe360894a13ba1a3210667c828492db98dca3e2076cc3735a920a3ca505d382bbc416464726573733a206c6f772d6c6576656c2064656c65676174652063616c6c206661696c6564a26469706673582212208792e641ece3391be6f8b022c98562442c615f991573753976867501e02ae59464736f6c63430008130033",
  "devdoc": {
    "events": {
      "AdminChanged(address,address)": {
        "details": "Emitted when the admin account has changed."
      },
      "BeaconUpgraded(address)": {
        "details": "Emitted when the beacon is changed."
      },
      "Initialized(uint8)": {
        "details": "Triggered when the contract has been initialized or reinitialized."
      },
      "Paused(address)": {
        "details": "Emitted when the pause is triggered by `account`."
      },
      "Unpaused(address)": {
        "details": "Emitted when the pause is lifted by `account`."
      },
      "Upgraded(address)": {
        "details": "Emitted when the implementation is upgraded."
      }
    },
    "kind": "dev",
    "methods": {
      "accrueInterest()": {
        "details": "This calculates interest accrued from the last checkpointed block   up to the current block and writes new checkpoint to storage."
      },
      "borrowRatePerBlock()": {
        "returns": {
          "_0": "The borrow interest rate per block, scaled by 1e18"
        }
      },
      "canWork()": {
        "details": "Will be executed by keeper and before `work` method execution."
      },
      "constructor": {
        "custom:oz-upgrades-unsafe-allow": "constructor"
      },
      "depositedBalance()": {
        "details": "Unlike the snapshot function, this function recalculates the value of the deposit."
      },
      "depositedBalanceSnapshot()": {
        "details": "The exchange rate is recalculated at the last time someone touched the cToken contract.      Transactions are not performed too often on this contract, perhaps we should consider recalculating the rate ourselves."
      },
      "exchangeRateCurrent()": {
        "returns": {
          "_0": "Calculated exchange rate scaled by 1e18"
        }
      },
      "exchangeRateStored()": {
        "details": "This function does not accrue interest before calculating the exchange rate",
        "returns": {
          "_0": "Calculated exchange rate scaled by 1e18"
        }
      },
      "interestRatePerBlock()": {
        "details": "Can be calculated not for all strategies and usally not such accurate as sliding window averages,  but still can be usafull for on chain calculations and as fallback method.",
        "returns": {
          "_0": "The interest rate per block, scaled by 1e18"
        }
      },
      "owner()": {
        "details": "Returns the address of the current owner."
      },
      "paused()": {
        "details": "Returns true if the contract is paused, and false otherwise."
      },
      "proxiableUUID()": {
        "details": "Implementation of the ERC1822 {proxiableUUID} function. This returns the storage slot used by the implementation. It is used to validate the implementation's compatibility when performing an upgrade. IMPORTANT: A proxy pointing at a proxiable contract should not be considered proxiable itself, because this risks bricking a proxy that upgrades to it, by delegating to itself until out of gas. Thus it is critical that this function revert if invoked through a proxy. This is guaranteed by the `notDelegated` modifier."
      },
      "renounceOwnership()": {
        "details": "Leaves the contract without owner. It will not be possible to call `onlyOwner` functions. Can only be called by the current owner. NOTE: Renouncing ownership will leave the contract without an owner, thereby disabling any functionality that is only available to the owner."
      },
      "setDebtThreshold(uint256)": {
        "params": {
          "_debtThreshold": "The new debt threshold value."
        }
      },
      "setEstimatedWorkGas(uint256)": {
        "params": {
          "_estimatedWorkGas": "The estimated \"work\" gas value."
        }
      },
      "setHealthCheck(address)": {
        "details": "Emits the \"HealthCheckChanged\" event.",
        "params": {
          "_healthCheck": "A new health check contract address."
        }
      },
      "setHealthCheckEnabled(bool)": {
        "details": "Emits the \"HealthCheckEnabledChanged\" event. Do not disable the health check, unless you need to perform \"report\" in an emergency.",
        "params": {
          "_healthCheckEnabled": "If \"true\" - health check will be disabled."
        }
      },
      "setProfitFactor(uint256)": {
        "params": {
          "_profitFactor": "The new profit factor value."
        }
      },
      "supplyRatePerBlock()": {
        "returns": {
          "_0": "The supply interest rate per block, scaled by 1e18"
        }
      },
      "timeFromLastExecution()": {
        "returns": {
          "_0": "seconds from last execution in a range of 900 seconds"
        }
      },
      "transferOwnership(address)": {
        "details": "Transfers ownership of the contract to a new account (`newOwner`). Can only be called by the current owner."
      },
      "upgradeTo(address)": {
        "custom:oz-upgrades-unsafe-allow-reachable": "delegatecall",
        "details": "Upgrade the implementation of the proxy to `newImplementation`. Calls {_authorizeUpgrade}. Emits an {Upgraded} event."
      },
      "upgradeToAndCall(address,bytes)": {
        "custom:oz-upgrades-unsafe-allow-reachable": "delegatecall",
        "details": "Upgrade the implementation of the proxy to `newImplementation`, and subsequently execute the function call encoded in `data`. Calls {_authorizeUpgrade}. Emits an {Upgraded} event."
      },
      "version()": {
        "returns": {
          "_0": "a version in semantic versioning format"
        }
      },
      "withdraw(uint256)": {
        "params": {
          "assets": "A amount of tokens to withdraw."
        },
        "returns": {
          "loss": "A number of tokens that the strategy could not return."
        }
      },
      "work()": {
        "details": "`nonReentrant` modifier might be excess there, since we have `isTimePassFromLastExecution` check and `refreshLastWorkTime` at start (see `onlyWhenCanWork` modifier). Let's keep it, as `canWork` can be overridden."
      }
    },
    "stateVariables": {
      "__gap": {
        "details": "This empty reserved space is put in place to allow future versions to add new variables without shifting down storage in the inheritance chain. See https://docs.openzeppelin.com/contracts/4.x/upgradeable#storage_gaps"
      }
    },
    "version": 1
  },
  "userdoc": {
    "errors": {
      "CannotWorkNow()": [
        {
          "notice": "Someone tried to execute work function while `canWork` is `false`"
        }
      ],
      "PayableWorkNotAllowed()": [
        {
          "notice": "Contract expect work will be prepayd, so it cannot pay for work"
        }
      ],
      "TimeMinimumBetweenExecutionsIncorrect(uint256)": [
        {
          "notice": "Given time minimum between execution must be greater then 1000"
        }
      ]
    },
    "events": {
      "Worked(address)": {
        "notice": "Job work function was executed by worker bot"
      }
    },
    "kind": "user",
    "methods": {
      "accrueInterest()": {
        "notice": "Applies accrued interest to total borrows and reserves"
      },
      "asset()": {
        "notice": "Returns the contract address of the underlying asset of this strategy."
      },
      "borrowRatePerBlock()": {
        "notice": "Returns the current per-block borrow interest rate for this cToken"
      },
      "cToken()": {
        "notice": "Market on top of which strategy operates "
      },
      "canWork()": {
        "notice": "If work can be executed by keeper at this moment returns true"
      },
      "checker()": {
        "notice": "Resolver checker that says if the work can be performed and with what params."
      },
      "compToken()": {
        "notice": "Token which is used for reward, COMP for Compund "
      },
      "debtThreshold()": {
        "notice": "Use this to adjust the threshold at which running a debt causes a work trigger."
      },
      "depositedBalance()": {
        "notice": "Returns current deposited balance (in asset)."
      },
      "depositedBalanceSnapshot()": {
        "notice": "Returns current deposited balance (in asset)."
      },
      "estimatedTotalAssets()": {
        "notice": "Estimates the total amount of strategy funds (including those invested in the base protocol)."
      },
      "estimatedWorkGas()": {
        "notice": "The estimated amount of gas required for the \"work\" execution."
      },
      "exchangeRateCurrent()": {
        "notice": "Accrue interest then return the up-to-date exchange rate"
      },
      "exchangeRateStored()": {
        "notice": "Calculates the exchange rate from the underlying to the CToken"
      },
      "interestRatePerBlock()": {
        "notice": "Returns interst rate of strategy per block, for current block or block prior to this one."
      },
      "isPrepaid()": {
        "notice": "If job is prepaid, then it not will try to pay on executed work."
      },
      "lastWorkTime()": {
        "notice": "Timestamp of last work execution block in seconds."
      },
      "lender()": {
        "notice": "Returns the contract address of the Lender to which this strategy is connected."
      },
      "minBananaToSell()": {
        "notice": "Minimum BANANA token amount to sell."
      },
      "minimumBetweenExecutions()": {
        "notice": "Mininmal time which must pass between executions of the job in seconds. Better set hours, but at least set to greater then 900 seconds, node opperators able to manipulate timestamp in 900 seconds range, on some blockchains maybe bigger."
      },
      "name()": {
        "notice": "Returns the name of this strategy."
      },
      "payableWork()": {
        "notice": "Bot will call this method when `checker` returns `true`. Will pay caller `_doWork` method stay as it is, to allow a call off-chain"
      },
      "profitFactor()": {
        "notice": "Shows how many times the gas price spent for the \"work\" function should be lower than the profit to trigger."
      },
      "rainMaker()": {
        "notice": "Contract which allow claim compToken reward "
      },
      "secondPerBlock()": {
        "notice": "Required for mapping of interest rate calculated per second to rate calculated per block "
      },
      "setDebtThreshold(uint256)": {
        "notice": "Sets the debt threshold."
      },
      "setEstimatedWorkGas(uint256)": {
        "notice": "Sets the estimated gas that will be required for \"work\" function."
      },
      "setHealthCheck(address)": {
        "notice": "Sets the health check implementation contract."
      },
      "setHealthCheckEnabled(bool)": {
        "notice": "Enables or disables the health check."
      },
      "setMinBananaToSell(uint256)": {
        "notice": "Sets the minimum number of BANANA tokens that must be on the contract to sell."
      },
      "setProfitFactor(uint256)": {
        "notice": "Sets the profit factor."
      },
      "shutdown()": {
        "notice": "Shutdown the strategy and revoke it form the lender."
      },
      "supplyRatePerBlock()": {
        "notice": "Returns the current per-block supply interest rate for this cToken"
      },
      "timeFromLastExecution()": {
        "notice": "Time that passed since the last exection"
      },
      "version()": {
        "notice": "Returns the current version of this contract"
      },
      "withdraw(uint256)": {
        "notice": "Transfers a specified amount of tokens to the vault."
      },
      "work()": {
        "notice": "A handle that allows the `_doWork` function to be invoked externally by everyone. Perform a `canWork` check to avoid unnecessary and (maybe) malicious calls."
      }
    },
    "version": 1
  },
  "storageLayout": {
    "storage": [
      {
        "astId": 986,
        "contract": "src/strategies/ApeLendingStrategy.sol:ApeLendingStrategy",
        "label": "_initialized",
        "offset": 0,
        "slot": "0",
        "type": "t_uint8"
      },
      {
        "astId": 989,
        "contract": "src/strategies/ApeLendingStrategy.sol:ApeLendingStrategy",
        "label": "_initializing",
        "offset": 1,
        "slot": "0",
        "type": "t_bool"
      },
      {
        "astId": 968,
        "contract": "src/strategies/ApeLendingStrategy.sol:ApeLendingStrategy",
        "label": "__gap",
        "offset": 0,
        "slot": "1",
        "type": "t_array(t_uint256)50_storage"
      },
      {
        "astId": 1283,
        "contract": "src/strategies/ApeLendingStrategy.sol:ApeLendingStrategy",
        "label": "__gap",
        "offset": 0,
        "slot": "51",
        "type": "t_array(t_uint256)50_storage"
      },
      {
        "astId": 17189,
        "contract": "src/strategies/ApeLendingStrategy.sol:ApeLendingStrategy",
        "label": "__gap",
        "offset": 0,
        "slot": "101",
        "type": "t_array(t_uint256)50_storage"
      },
      {
        "astId": 5398,
        "contract": "src/strategies/ApeLendingStrategy.sol:ApeLendingStrategy",
        "label": "__gap",
        "offset": 0,
        "slot": "151",
        "type": "t_array(t_uint256)50_storage"
      },
      {
        "astId": 1425,
        "contract": "src/strategies/ApeLendingStrategy.sol:ApeLendingStrategy",
        "label": "_status",
        "offset": 0,
        "slot": "201",
        "type": "t_uint256"
      },
      {
        "astId": 1494,
        "contract": "src/strategies/ApeLendingStrategy.sol:ApeLendingStrategy",
        "label": "__gap",
        "offset": 0,
        "slot": "202",
        "type": "t_array(t_uint256)49_storage"
      },
      {
        "astId": 10118,
        "contract": "src/strategies/ApeLendingStrategy.sol:ApeLendingStrategy",
        "label": "lastWorkTime",
        "offset": 0,
        "slot": "251",
        "type": "t_uint256"
      },
      {
        "astId": 10121,
        "contract": "src/strategies/ApeLendingStrategy.sol:ApeLendingStrategy",
        "label": "minimumBetweenExecutions",
        "offset": 0,
        "slot": "252",
        "type": "t_uint256"
      },
      {
        "astId": 10126,
        "contract": "src/strategies/ApeLendingStrategy.sol:ApeLendingStrategy",
        "label": "__gap",
        "offset": 0,
        "slot": "253",
        "type": "t_array(t_uint256)50_storage"
      },
      {
        "astId": 10529,
        "contract": "src/strategies/ApeLendingStrategy.sol:ApeLendingStrategy",
        "label": "ops",
        "offset": 0,
        "slot": "303",
        "type": "t_contract(IOps)10501"
      },
      {
        "astId": 10531,
        "contract": "src/strategies/ApeLendingStrategy.sol:ApeLendingStrategy",
        "label": "gelato",
        "offset": 0,
        "slot": "304",
        "type": "t_address_payable"
      },
      {
        "astId": 10543,
        "contract": "src/strategies/ApeLendingStrategy.sol:ApeLendingStrategy",
        "label": "__gap",
        "offset": 0,
        "slot": "305",
        "type": "t_array(t_uint256)50_storage"
      },
      {
        "astId": 9993,
        "contract": "src/strategies/ApeLendingStrategy.sol:ApeLendingStrategy",
        "label": "isPrepaid",
        "offset": 0,
        "slot": "355",
        "type": "t_bool"
      },
      {
        "astId": 9998,
        "contract": "src/strategies/ApeLendingStrategy.sol:ApeLendingStrategy",
        "label": "__gap",
        "offset": 0,
        "slot": "356",
        "type": "t_array(t_uint256)50_storage"
      },
      {
        "astId": 465,
        "contract": "src/strategies/ApeLendingStrategy.sol:ApeLendingStrategy",
        "label": "_owner",
        "offset": 0,
        "slot": "406",
        "type": "t_address"
      },
      {
        "astId": 585,
        "contract": "src/strategies/ApeLendingStrategy.sol:ApeLendingStrategy",
        "label": "__gap",
        "offset": 0,
        "slot": "407",
        "type": "t_array(t_uint256)49_storage"
      },
      {
        "astId": 17223,
        "contract": "src/strategies/ApeLendingStrategy.sol:ApeLendingStrategy",
        "label": "__gap",
        "offset": 0,
        "slot": "456",
        "type": "t_array(t_uint256)50_storage"
      },
      {
        "astId": 10624,
        "contract": "src/strategies/ApeLendingStrategy.sol:ApeLendingStrategy",
        "label": "healthCheck",
        "offset": 0,
        "slot": "506",
        "type": "t_contract(IHealthCheck)10777"
      },
      {
        "astId": 10626,
        "contract": "src/strategies/ApeLendingStrategy.sol:ApeLendingStrategy",
        "label": "healthCheckEnabled",
        "offset": 20,
        "slot": "506",
        "type": "t_bool"
      },
      {
        "astId": 10631,
        "contract": "src/strategies/ApeLendingStrategy.sol:ApeLendingStrategy",
        "label": "__gap",
        "offset": 0,
        "slot": "507",
        "type": "t_array(t_uint256)50_storage"
      },
      {
        "astId": 1305,
        "contract": "src/strategies/ApeLendingStrategy.sol:ApeLendingStrategy",
        "label": "_paused",
        "offset": 0,
        "slot": "557",
        "type": "t_bool"
      },
      {
        "astId": 1410,
        "contract": "src/strategies/ApeLendingStrategy.sol:ApeLendingStrategy",
        "label": "__gap",
        "offset": 0,
        "slot": "558",
        "type": "t_array(t_uint256)49_storage"
      },
      {
        "astId": 13211,
        "contract": "src/strategies/ApeLendingStrategy.sol:ApeLendingStrategy",
        "label": "lender",
        "offset": 0,
        "slot": "607",
        "type": "t_contract(IStrategiesLender)10871"
      },
      {
        "astId": 13214,
        "contract": "src/strategies/ApeLendingStrategy.sol:ApeLendingStrategy",
        "label": "asset",
        "offset": 0,
        "slot": "608",
        "type": "t_contract(IERC20Upgradeable)1573"
      },
      {
        "astId": 13217,
        "contract": "src/strategies/ApeLendingStrategy.sol:ApeLendingStrategy",
        "label": "debtThreshold",
        "offset": 0,
        "slot": "609",
        "type": "t_uint256"
      },
      {
        "astId": 13220,
        "contract": "src/strategies/ApeLendingStrategy.sol:ApeLendingStrategy",
        "label": "estimatedWorkGas",
        "offset": 0,
        "slot": "610",
        "type": "t_uint256"
      },
      {
        "astId": 13223,
        "contract": "src/strategies/ApeLendingStrategy.sol:ApeLendingStrategy",
        "label": "profitFactor",
        "offset": 0,
        "slot": "611",
        "type": "t_uint256"
      },
      {
        "astId": 13227,
        "contract": "src/strategies/ApeLendingStrategy.sol:ApeLendingStrategy",
        "label": "_nativeTokenPriceFeed",
        "offset": 0,
        "slot": "612",
        "type": "t_contract(AggregatorV3Interface)45"
      },
      {
        "astId": 13231,
        "contract": "src/strategies/ApeLendingStrategy.sol:ApeLendingStrategy",
        "label": "_assetPriceFeed",
        "offset": 0,
        "slot": "613",
        "type": "t_contract(AggregatorV3Interface)45"
      },
      {
        "astId": 13234,
        "contract": "src/strategies/ApeLendingStrategy.sol:ApeLendingStrategy",
        "label": "_assetDecimals",
        "offset": 0,
        "slot": "614",
        "type": "t_uint256"
      },
      {
        "astId": 13239,
        "contract": "src/strategies/ApeLendingStrategy.sol:ApeLendingStrategy",
        "label": "__gap",
        "offset": 0,
        "slot": "615",
        "type": "t_array(t_uint256)50_storage"
      },
      {
        "astId": 13895,
        "contract": "src/strategies/ApeLendingStrategy.sol:ApeLendingStrategy",
        "label": "cToken",
        "offset": 0,
        "slot": "665",
        "type": "t_contract(ICToken)14430"
      },
      {
        "astId": 13899,
        "contract": "src/strategies/ApeLendingStrategy.sol:ApeLendingStrategy",
        "label": "rainMaker",
        "offset": 0,
        "slot": "666",
        "type": "t_contract(IRainMaker)14534"
      },
      {
        "astId": 13903,
        "contract": "src/strategies/ApeLendingStrategy.sol:ApeLendingStrategy",
        "label": "compToken",
        "offset": 0,
        "slot": "667",
        "type": "t_contract(IERC20Upgradeable)1573"
      },
      {
        "astId": 13906,
        "contract": "src/strategies/ApeLendingStrategy.sol:ApeLendingStrategy",
        "label": "secondPerBlock",
        "offset": 0,
        "slot": "668",
        "type": "t_uint256"
      },
      {
        "astId": 13911,
        "contract": "src/strategies/ApeLendingStrategy.sol:ApeLendingStrategy",
        "label": "__gap",
        "offset": 0,
        "slot": "669",
        "type": "t_array(t_uint256)50_storage"
      },
      {
        "astId": 12356,
        "contract": "src/strategies/ApeLendingStrategy.sol:ApeLendingStrategy",
        "label": "minBananaToSell",
        "offset": 0,
        "slot": "719",
        "type": "t_uint256"
      },
      {
        "astId": 12359,
        "contract": "src/strategies/ApeLendingStrategy.sol:ApeLendingStrategy",
        "label": "pancakeRouter",
        "offset": 0,
        "slot": "720",
        "type": "t_contract(IPancakeRouter)14462"
      },
      {
        "astId": 12364,
        "contract": "src/strategies/ApeLendingStrategy.sol:ApeLendingStrategy",
        "label": "__gap",
        "offset": 0,
        "slot": "721",
        "type": "t_array(t_uint256)50_storage"
      }
    ],
    "types": {
      "t_address": {
        "encoding": "inplace",
        "label": "address",
        "numberOfBytes": "20"
      },
      "t_address_payable": {
        "encoding": "inplace",
        "label": "address payable",
        "numberOfBytes": "20"
      },
      "t_array(t_uint256)49_storage": {
        "base": "t_uint256",
        "encoding": "inplace",
        "label": "uint256[49]",
        "numberOfBytes": "1568"
      },
      "t_array(t_uint256)50_storage": {
        "base": "t_uint256",
        "encoding": "inplace",
        "label": "uint256[50]",
        "numberOfBytes": "1600"
      },
      "t_bool": {
        "encoding": "inplace",
        "label": "bool",
        "numberOfBytes": "1"
      },
      "t_contract(AggregatorV3Interface)45": {
        "encoding": "inplace",
        "label": "contract AggregatorV3Interface",
        "numberOfBytes": "20"
      },
      "t_contract(ICToken)14430": {
        "encoding": "inplace",
        "label": "contract ICToken",
        "numberOfBytes": "20"
      },
      "t_contract(IERC20Upgradeable)1573": {
        "encoding": "inplace",
        "label": "contract IERC20Upgradeable",
        "numberOfBytes": "20"
      },
      "t_contract(IHealthCheck)10777": {
        "encoding": "inplace",
        "label": "contract IHealthCheck",
        "numberOfBytes": "20"
      },
      "t_contract(IOps)10501": {
        "encoding": "inplace",
        "label": "contract IOps",
        "numberOfBytes": "20"
      },
      "t_contract(IPancakeRouter)14462": {
        "encoding": "inplace",
        "label": "contract IPancakeRouter",
        "numberOfBytes": "20"
      },
      "t_contract(IRainMaker)14534": {
        "encoding": "inplace",
        "label": "contract IRainMaker",
        "numberOfBytes": "20"
      },
      "t_contract(IStrategiesLender)10871": {
        "encoding": "inplace",
        "label": "contract IStrategiesLender",
        "numberOfBytes": "20"
      },
      "t_uint256": {
        "encoding": "inplace",
        "label": "uint256",
        "numberOfBytes": "32"
      },
      "t_uint8": {
        "encoding": "inplace",
        "label": "uint8",
        "numberOfBytes": "1"
      }
    }
  }
}