{
  "address": "0x88424450693E846968c584e448EE2B5531840B0D",
  "abi": [
    {
      "inputs": [
        {
          "internalType": "bool",
          "name": "needDisableInitializers",
          "type": "bool"
        }
      ],
      "stateMutability": "nonpayable",
      "type": "constructor"
    },
    {
      "inputs": [],
      "name": "ExceededMaximumLossRatioValue",
      "type": "error"
    },
    {
      "inputs": [],
      "name": "HealthCheckFailed",
      "type": "error"
    },
    {
      "anonymous": false,
      "inputs": [
        {
          "indexed": false,
          "internalType": "address",
          "name": "previousAdmin",
          "type": "address"
        },
        {
          "indexed": false,
          "internalType": "address",
          "name": "newAdmin",
          "type": "address"
        }
      ],
      "name": "AdminChanged",
      "type": "event"
    },
    {
      "anonymous": false,
      "inputs": [
        {
          "indexed": true,
          "internalType": "address",
          "name": "beacon",
          "type": "address"
        }
      ],
      "name": "BeaconUpgraded",
      "type": "event"
    },
    {
      "anonymous": false,
      "inputs": [
        {
          "indexed": false,
          "internalType": "uint8",
          "name": "version",
          "type": "uint8"
        }
      ],
      "name": "Initialized",
      "type": "event"
    },
    {
      "anonymous": false,
      "inputs": [
        {
          "indexed": true,
          "internalType": "address",
          "name": "previousOwner",
          "type": "address"
        },
        {
          "indexed": true,
          "internalType": "address",
          "name": "newOwner",
          "type": "address"
        }
      ],
      "name": "OwnershipTransferred",
      "type": "event"
    },
    {
      "anonymous": false,
      "inputs": [
        {
          "indexed": false,
          "internalType": "uint256",
          "name": "ratio",
          "type": "uint256"
        }
      ],
      "name": "ShutdownLossRatioChanged",
      "type": "event"
    },
    {
      "anonymous": false,
      "inputs": [
        {
          "indexed": true,
          "internalType": "address",
          "name": "implementation",
          "type": "address"
        }
      ],
      "name": "Upgraded",
      "type": "event"
    },
    {
      "inputs": [],
      "name": "MAX_BPS",
      "outputs": [
        {
          "internalType": "uint256",
          "name": "",
          "type": "uint256"
        }
      ],
      "stateMutability": "view",
      "type": "function"
    },
    {
      "inputs": [
        {
          "internalType": "address",
          "name": "strategy",
          "type": "address"
        },
        {
          "internalType": "uint256",
          "name": "profit",
          "type": "uint256"
        },
        {
          "internalType": "uint256",
          "name": "loss",
          "type": "uint256"
        },
        {
          "internalType": "uint256",
          "name": "",
          "type": "uint256"
        },
        {
          "internalType": "uint256",
          "name": "",
          "type": "uint256"
        },
        {
          "internalType": "uint256",
          "name": "totalDebt",
          "type": "uint256"
        },
        {
          "internalType": "uint256",
          "name": "",
          "type": "uint256"
        }
      ],
      "name": "check",
      "outputs": [
        {
          "internalType": "uint8",
          "name": "",
          "type": "uint8"
        }
      ],
      "stateMutability": "view",
      "type": "function"
    },
    {
      "inputs": [
        {
          "internalType": "uint256",
          "name": "_shutdownLossRatio",
          "type": "uint256"
        }
      ],
      "name": "initialize",
      "outputs": [],
      "stateMutability": "nonpayable",
      "type": "function"
    },
    {
      "inputs": [],
      "name": "owner",
      "outputs": [
        {
          "internalType": "address",
          "name": "",
          "type": "address"
        }
      ],
      "stateMutability": "view",
      "type": "function"
    },
    {
      "inputs": [],
      "name": "proxiableUUID",
      "outputs": [
        {
          "internalType": "bytes32",
          "name": "",
          "type": "bytes32"
        }
      ],
      "stateMutability": "view",
      "type": "function"
    },
    {
      "inputs": [],
      "name": "renounceOwnership",
      "outputs": [],
      "stateMutability": "nonpayable",
      "type": "function"
    },
    {
      "inputs": [
        {
          "internalType": "uint256",
          "name": "_shutdownLossRatio",
          "type": "uint256"
        }
      ],
      "name": "setShutdownLossRatio",
      "outputs": [],
      "stateMutability": "nonpayable",
      "type": "function"
    },
    {
      "inputs": [],
      "name": "shutdownLossRatio",
      "outputs": [
        {
          "internalType": "uint256",
          "name": "",
          "type": "uint256"
        }
      ],
      "stateMutability": "view",
      "type": "function"
    },
    {
      "inputs": [
        {
          "internalType": "address",
          "name": "newOwner",
          "type": "address"
        }
      ],
      "name": "transferOwnership",
      "outputs": [],
      "stateMutability": "nonpayable",
      "type": "function"
    },
    {
      "inputs": [
        {
          "internalType": "address",
          "name": "newImplementation",
          "type": "address"
        }
      ],
      "name": "upgradeTo",
      "outputs": [],
      "stateMutability": "nonpayable",
      "type": "function"
    },
    {
      "inputs": [
        {
          "internalType": "address",
          "name": "newImplementation",
          "type": "address"
        },
        {
          "internalType": "bytes",
          "name": "data",
          "type": "bytes"
        }
      ],
      "name": "upgradeToAndCall",
      "outputs": [],
      "stateMutability": "payable",
      "type": "function"
    },
    {
      "inputs": [],
      "name": "version",
      "outputs": [
        {
          "internalType": "string",
          "name": "",
          "type": "string"
        }
      ],
      "stateMutability": "pure",
      "type": "function"
    }
  ],
  "transactionHash": "0x535ceebc574f71f9fa05328a27d9434e4af8e5444ec287fcafe4a752b9627083",
  "args": [
    true
  ],
  "numDeployments": 2,
  "solcInputHash": "b32f4a2a58555fd591e9e2410e42c6aa",
  "bytecode": "0x60a06040523060805234801561001457600080fd5b506040516111e63803806111e683398101604081905261003391610108565b80801561004257610042610049565b5050610131565b600054610100900460ff16156100b55760405162461bcd60e51b815260206004820152602760248201527f496e697469616c697a61626c653a20636f6e747261637420697320696e697469604482015266616c697a696e6760c81b606482015260840160405180910390fd5b60005460ff90811614610106576000805460ff191660ff9081179091556040519081527f7f26b83ff96e1f2b6a682f133852f6798a09c465da95921460cefb38474024989060200160405180910390a15b565b60006020828403121561011a57600080fd5b8151801515811461012a57600080fd5b9392505050565b60805161107e6101686000396000818161023801528181610281015281816103fa0152818161043a01526104b6015261107e6000f3fe6080604052600436106100975760003560e01c80633659cfe61461009c5780634085810d146100be578063408ddb01146100de5780634f1ef2861461011557806352d1902d1461012857806354fd4d501461014b578063715018a61461017f5780638da5cb5b14610194578063eef6c16b146101c1578063f2fde38b146101d8578063fd967f47146101f8578063fe4b84df1461020e575b600080fd5b3480156100a857600080fd5b506100bc6100b7366004610cf1565b61022e565b005b3480156100ca57600080fd5b506100bc6100d9366004610d0c565b6102ff565b3480156100ea57600080fd5b506100fe6100f9366004610d25565b610366565b60405160ff90911681526020015b60405180910390f35b6100bc610123366004610d8e565b6103f0565b34801561013457600080fd5b5061013d6104a9565b60405190815260200161010c565b34801561015757600080fd5b5060408051808201825260058152640312e302e360dc1b6020820152905161010c9190610e73565b34801561018b57600080fd5b506100bc610557565b3480156101a057600080fd5b506101a961056b565b6040516001600160a01b03909116815260200161010c565b3480156101cd57600080fd5b5061013d61012d5481565b3480156101e457600080fd5b506100bc6101f3366004610cf1565b61057a565b34801561020457600080fd5b5061013d61271081565b34801561021a57600080fd5b506100bc610229366004610d0c565b6105f0565b6001600160a01b037f000000000000000000000000000000000000000000000000000000000000000016300361027f5760405162461bcd60e51b815260040161027690610ea6565b60405180910390fd5b7f00000000000000000000000000000000000000000000000000000000000000006001600160a01b03166102b1610711565b6001600160a01b0316146102d75760405162461bcd60e51b815260040161027690610ee0565b6102e08161072d565b604080516000808252602082019092526102fc91839190610735565b50565b6103076108a5565b61271081111561032a5760405163f9fb3ee560e01b815260040160405180910390fd5b61012d8190556040518181527f2bb09db7c9b45548ddc1f6d04817cff900b9581c00647f75b7fc474e7f2abcba9060200160405180910390a150565b60006001600160a01b03881661038f5760405163c196dcf360e01b815260040160405180910390fd5b600087118061039c575085155b156103a9575060006103e5565b6000861180156103d4575061271061012d54846103c69190610f1a565b6103d09190610f3f565b8611155b156103e1575060016103e5565b5060025b979650505050505050565b6001600160a01b037f00000000000000000000000000000000000000000000000000000000000000001630036104385760405162461bcd60e51b815260040161027690610ea6565b7f00000000000000000000000000000000000000000000000000000000000000006001600160a01b031661046a610711565b6001600160a01b0316146104905760405162461bcd60e51b815260040161027690610ee0565b6104998261072d565b6104a582826001610735565b5050565b6000306001600160a01b037f000000000000000000000000000000000000000000000000000000000000000016146105445760405162461bcd60e51b815260206004820152603860248201527f555550535570677261646561626c653a206d757374206e6f742062652063616c6044820152771b1959081d1a1c9bdd59da0819195b1959d85d1958d85b1b60421b6064820152608401610276565b5060008051602061100283398151915290565b61055f6108a5565b6105696000610904565b565b60c9546001600160a01b031690565b6105826108a5565b6001600160a01b0381166105e75760405162461bcd60e51b815260206004820152602660248201527f4f776e61626c653a206e6577206f776e657220697320746865207a65726f206160448201526564647265737360d01b6064820152608401610276565b6102fc81610904565b600054610100900460ff16158080156106105750600054600160ff909116105b80610631575061061f30610956565b158015610631575060005460ff166001145b6106945760405162461bcd60e51b815260206004820152602e60248201527f496e697469616c697a61626c653a20636f6e747261637420697320616c72656160448201526d191e481a5b9a5d1a585b1a5e995960921b6064820152608401610276565b6000805460ff1916600117905580156106b7576000805461ff0019166101001790555b6106bf610965565b6106c88261099c565b80156104a5576000805461ff0019169055604051600181527f7f26b83ff96e1f2b6a682f133852f6798a09c465da95921460cefb38474024989060200160405180910390a15050565b600080516020611002833981519152546001600160a01b031690565b6102fc6108a5565b7f4910fdfa16fed3260ed0e7147f7cc6da11a60208b5b9406d12a635614ffd91435460ff161561076d57610768836109cc565b505050565b826001600160a01b03166352d1902d6040518163ffffffff1660e01b8152600401602060405180830381865afa9250505080156107c7575060408051601f3d908101601f191682019092526107c491810190610f61565b60015b61082a5760405162461bcd60e51b815260206004820152602e60248201527f45524331393637557067726164653a206e657720696d706c656d656e7461746960448201526d6f6e206973206e6f74205555505360901b6064820152608401610276565b60008051602061100283398151915281146108995760405162461bcd60e51b815260206004820152602960248201527f45524331393637557067726164653a20756e737570706f727465642070726f786044820152681a58589b195555525160ba1b6064820152608401610276565b50610768838383610a66565b336108ae61056b565b6001600160a01b0316146105695760405162461bcd60e51b815260206004820181905260248201527f4f776e61626c653a2063616c6c6572206973206e6f7420746865206f776e65726044820152606401610276565b60c980546001600160a01b038381166001600160a01b0319831681179093556040519116919082907f8be0079c531659141344cd1fd0a4f28419497f9722a3daafe3b4186f6b6457e090600090a35050565b6001600160a01b03163b151590565b600054610100900460ff1661098c5760405162461bcd60e51b815260040161027690610f7a565b610994610a91565b610569610ac0565b600054610100900460ff166109c35760405162461bcd60e51b815260040161027690610f7a565b6102fc816102ff565b6109d581610956565b610a375760405162461bcd60e51b815260206004820152602d60248201527f455243313936373a206e657720696d706c656d656e746174696f6e206973206e60448201526c1bdd08184818dbdb9d1c9858dd609a1b6064820152608401610276565b60008051602061100283398151915280546001600160a01b0319166001600160a01b0392909216919091179055565b610a6f83610aef565b600082511180610a7c5750805b1561076857610a8b8383610b2f565b50505050565b600054610100900460ff16610ab85760405162461bcd60e51b815260040161027690610f7a565b610569610b5d565b600054610100900460ff16610ae75760405162461bcd60e51b815260040161027690610f7a565b610569610b84565b610af8816109cc565b6040516001600160a01b038216907fbc7cd75a20ee27fd9adebab32041f755214dbc6bffa90cc0225b39da2e5c2d3b90600090a250565b6060610b54838360405180606001604052806027815260200161102260279139610bb4565b90505b92915050565b600054610100900460ff166105695760405162461bcd60e51b815260040161027690610f7a565b600054610100900460ff16610bab5760405162461bcd60e51b815260040161027690610f7a565b61056933610904565b6060600080856001600160a01b031685604051610bd19190610fc5565b600060405180830381855af49150503d8060008114610c0c576040519150601f19603f3d011682016040523d82523d6000602084013e610c11565b606091505b5091509150610c2286838387610c2c565b9695505050505050565b60608315610c99578251600003610c9257610c4685610956565b610c925760405162461bcd60e51b815260206004820152601d60248201527f416464726573733a2063616c6c20746f206e6f6e2d636f6e74726163740000006044820152606401610276565b5081610ca3565b610ca38383610cab565b949350505050565b815115610cbb5781518083602001fd5b8060405162461bcd60e51b81526004016102769190610e73565b80356001600160a01b0381168114610cec57600080fd5b919050565b600060208284031215610d0357600080fd5b610b5482610cd5565b600060208284031215610d1e57600080fd5b5035919050565b600080600080600080600060e0888a031215610d4057600080fd5b610d4988610cd5565b9960208901359950604089013598606081013598506080810135975060a0810135965060c00135945092505050565b634e487b7160e01b600052604160045260246000fd5b60008060408385031215610da157600080fd5b610daa83610cd5565b915060208301356001600160401b0380821115610dc657600080fd5b818501915085601f830112610dda57600080fd5b813581811115610dec57610dec610d78565b604051601f8201601f19908116603f01168101908382118183101715610e1457610e14610d78565b81604052828152886020848701011115610e2d57600080fd5b8260208601602083013760006020848301015280955050505050509250929050565b60005b83811015610e6a578181015183820152602001610e52565b50506000910152565b6020815260008251806020840152610e92816040850160208701610e4f565b601f01601f19169190910160400192915050565b6020808252602c90820152600080516020610fe283398151915260408201526b19195b1959d85d1958d85b1b60a21b606082015260800190565b6020808252602c90820152600080516020610fe283398151915260408201526b6163746976652070726f787960a01b606082015260800190565b8082028115828204841417610b5757634e487b7160e01b600052601160045260246000fd5b600082610f5c57634e487b7160e01b600052601260045260246000fd5b500490565b600060208284031215610f7357600080fd5b5051919050565b6020808252602b908201527f496e697469616c697a61626c653a20636f6e7472616374206973206e6f74206960408201526a6e697469616c697a696e6760a81b606082015260800190565b60008251610fd7818460208701610e4f565b919091019291505056fe46756e6374696f6e206d7573742062652063616c6c6564207468726f75676820360894a13ba1a3210667c828492db98dca3e2076cc3735a920a3ca505d382bbc416464726573733a206c6f772d6c6576656c2064656c65676174652063616c6c206661696c6564a2646970667358221220e85c75b0c2a432873526bc874a804413ea188e2acca3eeab83f121ce76c14e0d64736f6c63430008130033",
  "devdoc": {
    "events": {
      "AdminChanged(address,address)": {
        "details": "Emitted when the admin account has changed."
      },
      "BeaconUpgraded(address)": {
        "details": "Emitted when the beacon is changed."
      },
      "Initialized(uint8)": {
        "details": "Triggered when the contract has been initialized or reinitialized."
      },
      "Upgraded(address)": {
        "details": "Emitted when the implementation is upgraded."
      }
    },
    "kind": "dev",
    "methods": {
      "check(address,uint256,uint256,uint256,uint256,uint256,uint256)": {
        "params": {
          "debtOutstanding": "Outstanding strategy debt.",
          "debtPayment": "The amount of funds that the strategy spent to pay the debt.",
          "gasCost": "cost of transaction for strategy",
          "loss": "The amount of funds that the strategy realised as loss.",
          "profit": "The amount of funds that the strategy realised as profit.",
          "strategy": "Address of the strategy to be checked.",
          "totalDebt": "The total amount of funds borrowed by the strategy from the vault."
        },
        "returns": {
          "_0": "The status of a completed health check as enumerated. 0 is strategy is healthy and profitable, 1 is strategy is healthy but cost of transaction bigger than profit so it shouldn't be collected, 2 is strategy is unhealthy"
        }
      },
      "constructor": {
        "custom:oz-upgrades-unsafe-allow": "constructor"
      },
      "owner()": {
        "details": "Returns the address of the current owner."
      },
      "proxiableUUID()": {
        "details": "Implementation of the ERC1822 {proxiableUUID} function. This returns the storage slot used by the implementation. It is used to validate the implementation's compatibility when performing an upgrade. IMPORTANT: A proxy pointing at a proxiable contract should not be considered proxiable itself, because this risks bricking a proxy that upgrades to it, by delegating to itself until out of gas. Thus it is critical that this function revert if invoked through a proxy. This is guaranteed by the `notDelegated` modifier."
      },
      "renounceOwnership()": {
        "details": "Leaves the contract without owner. It will not be possible to call `onlyOwner` functions. Can only be called by the current owner. NOTE: Renouncing ownership will leave the contract without an owner, thereby disabling any functionality that is only available to the owner."
      },
      "setShutdownLossRatio(uint256)": {
        "details": "Emits the \"ShutdownLossRatioChanged\" event.",
        "params": {
          "_shutdownLossRatio": "represents percents of loss in comparison with total debt."
        }
      },
      "transferOwnership(address)": {
        "details": "Transfers ownership of the contract to a new account (`newOwner`). Can only be called by the current owner."
      },
      "upgradeTo(address)": {
        "custom:oz-upgrades-unsafe-allow-reachable": "delegatecall",
        "details": "Upgrade the implementation of the proxy to `newImplementation`. Calls {_authorizeUpgrade}. Emits an {Upgraded} event."
      },
      "upgradeToAndCall(address,bytes)": {
        "custom:oz-upgrades-unsafe-allow-reachable": "delegatecall",
        "details": "Upgrade the implementation of the proxy to `newImplementation`, and subsequently execute the function call encoded in `data`. Calls {_authorizeUpgrade}. Emits an {Upgraded} event."
      },
      "version()": {
        "returns": {
          "_0": "a version in semantic versioning format"
        }
      }
    },
    "stateVariables": {
      "__gap": {
        "details": "This empty reserved space is put in place to allow future versions to add new variables without shifting down storage in the inheritance chain. See https://docs.openzeppelin.com/contracts/4.x/upgradeable#storage_gaps"
      }
    },
    "version": 1
  },
  "userdoc": {
    "kind": "user",
    "methods": {
      "check(address,uint256,uint256,uint256,uint256,uint256,uint256)": {
        "notice": "Checks the overall state of the strategy"
      },
      "setShutdownLossRatio(uint256)": {
        "notice": "Sets the ratio of the loss that will used to stop strategy."
      },
      "version()": {
        "notice": "Returns the current version of this contract"
      }
    },
    "version": 1
  },
  "storageLayout": {
    "storage": [
      {
        "astId": 986,
        "contract": "src/healthcheck/LossRatioHealthCheck.sol:LossRatioHealthCheck",
        "label": "_initialized",
        "offset": 0,
        "slot": "0",
        "type": "t_uint8"
      },
      {
        "astId": 989,
        "contract": "src/healthcheck/LossRatioHealthCheck.sol:LossRatioHealthCheck",
        "label": "_initializing",
        "offset": 1,
        "slot": "0",
        "type": "t_bool"
      },
      {
        "astId": 968,
        "contract": "src/healthcheck/LossRatioHealthCheck.sol:LossRatioHealthCheck",
        "label": "__gap",
        "offset": 0,
        "slot": "1",
        "type": "t_array(t_uint256)50_storage"
      },
      {
        "astId": 1283,
        "contract": "src/healthcheck/LossRatioHealthCheck.sol:LossRatioHealthCheck",
        "label": "__gap",
        "offset": 0,
        "slot": "51",
        "type": "t_array(t_uint256)50_storage"
      },
      {
        "astId": 17810,
        "contract": "src/healthcheck/LossRatioHealthCheck.sol:LossRatioHealthCheck",
        "label": "__gap",
        "offset": 0,
        "slot": "101",
        "type": "t_array(t_uint256)50_storage"
      },
      {
        "astId": 5398,
        "contract": "src/healthcheck/LossRatioHealthCheck.sol:LossRatioHealthCheck",
        "label": "__gap",
        "offset": 0,
        "slot": "151",
        "type": "t_array(t_uint256)50_storage"
      },
      {
        "astId": 465,
        "contract": "src/healthcheck/LossRatioHealthCheck.sol:LossRatioHealthCheck",
        "label": "_owner",
        "offset": 0,
        "slot": "201",
        "type": "t_address"
      },
      {
        "astId": 585,
        "contract": "src/healthcheck/LossRatioHealthCheck.sol:LossRatioHealthCheck",
        "label": "__gap",
        "offset": 0,
        "slot": "202",
        "type": "t_array(t_uint256)49_storage"
      },
      {
        "astId": 17844,
        "contract": "src/healthcheck/LossRatioHealthCheck.sol:LossRatioHealthCheck",
        "label": "__gap",
        "offset": 0,
        "slot": "251",
        "type": "t_array(t_uint256)50_storage"
      },
      {
        "astId": 10814,
        "contract": "src/healthcheck/LossRatioHealthCheck.sol:LossRatioHealthCheck",
        "label": "shutdownLossRatio",
        "offset": 0,
        "slot": "301",
        "type": "t_uint256"
      },
      {
        "astId": 10819,
        "contract": "src/healthcheck/LossRatioHealthCheck.sol:LossRatioHealthCheck",
        "label": "__gap",
        "offset": 0,
        "slot": "302",
        "type": "t_array(t_uint256)50_storage"
      }
    ],
    "types": {
      "t_address": {
        "encoding": "inplace",
        "label": "address",
        "numberOfBytes": "20"
      },
      "t_array(t_uint256)49_storage": {
        "base": "t_uint256",
        "encoding": "inplace",
        "label": "uint256[49]",
        "numberOfBytes": "1568"
      },
      "t_array(t_uint256)50_storage": {
        "base": "t_uint256",
        "encoding": "inplace",
        "label": "uint256[50]",
        "numberOfBytes": "1600"
      },
      "t_bool": {
        "encoding": "inplace",
        "label": "bool",
        "numberOfBytes": "1"
      },
      "t_uint256": {
        "encoding": "inplace",
        "label": "uint256",
        "numberOfBytes": "32"
      },
      "t_uint8": {
        "encoding": "inplace",
        "label": "uint8",
        "numberOfBytes": "1"
      }
    }
  }
}