{
  "address": "0xB3519044B8935E8bFc74ceE8460BDFDA83e69E80",
  "abi": [
    {
      "inputs": [
        {
          "internalType": "bool",
          "name": "needDisableInitializers",
          "type": "bool"
        }
      ],
      "stateMutability": "nonpayable",
      "type": "constructor"
    },
    {
      "anonymous": false,
      "inputs": [
        {
          "indexed": false,
          "internalType": "address",
          "name": "previousAdmin",
          "type": "address"
        },
        {
          "indexed": false,
          "internalType": "address",
          "name": "newAdmin",
          "type": "address"
        }
      ],
      "name": "AdminChanged",
      "type": "event"
    },
    {
      "anonymous": false,
      "inputs": [
        {
          "indexed": true,
          "internalType": "address",
          "name": "owner",
          "type": "address"
        },
        {
          "indexed": true,
          "internalType": "address",
          "name": "approved",
          "type": "address"
        },
        {
          "indexed": true,
          "internalType": "uint256",
          "name": "tokenId",
          "type": "uint256"
        }
      ],
      "name": "Approval",
      "type": "event"
    },
    {
      "anonymous": false,
      "inputs": [
        {
          "indexed": true,
          "internalType": "address",
          "name": "owner",
          "type": "address"
        },
        {
          "indexed": true,
          "internalType": "address",
          "name": "operator",
          "type": "address"
        },
        {
          "indexed": false,
          "internalType": "bool",
          "name": "approved",
          "type": "bool"
        }
      ],
      "name": "ApprovalForAll",
      "type": "event"
    },
    {
      "anonymous": false,
      "inputs": [
        {
          "indexed": false,
          "internalType": "uint256",
          "name": "_fromTokenId",
          "type": "uint256"
        },
        {
          "indexed": false,
          "internalType": "uint256",
          "name": "_toTokenId",
          "type": "uint256"
        }
      ],
      "name": "BatchMetadataUpdate",
      "type": "event"
    },
    {
      "anonymous": false,
      "inputs": [
        {
          "indexed": true,
          "internalType": "address",
          "name": "beacon",
          "type": "address"
        }
      ],
      "name": "BeaconUpgraded",
      "type": "event"
    },
    {
      "anonymous": false,
      "inputs": [
        {
          "indexed": true,
          "internalType": "address",
          "name": "founder",
          "type": "address"
        },
        {
          "indexed": false,
          "internalType": "uint256",
          "name": "requiredPrice",
          "type": "uint256"
        },
        {
          "indexed": false,
          "internalType": "uint256",
          "name": "tokenPrice",
          "type": "uint256"
        },
        {
          "indexed": false,
          "internalType": "uint256",
          "name": "nextTokenPrice",
          "type": "uint256"
        },
        {
          "indexed": false,
          "internalType": "uint256",
          "name": "nextTokenPriceMultiplier",
          "type": "uint256"
        }
      ],
      "name": "FounderAdded",
      "type": "event"
    },
    {
      "anonymous": false,
      "inputs": [
        {
          "indexed": false,
          "internalType": "uint8",
          "name": "version",
          "type": "uint8"
        }
      ],
      "name": "Initialized",
      "type": "event"
    },
    {
      "anonymous": false,
      "inputs": [
        {
          "indexed": true,
          "internalType": "address",
          "name": "from",
          "type": "address"
        },
        {
          "indexed": true,
          "internalType": "address",
          "name": "to",
          "type": "address"
        },
        {
          "indexed": true,
          "internalType": "uint256",
          "name": "tokenId",
          "type": "uint256"
        },
        {
          "indexed": false,
          "internalType": "enum IERC5484.BurnAuth",
          "name": "burnAuth",
          "type": "uint8"
        }
      ],
      "name": "Issued",
      "type": "event"
    },
    {
      "anonymous": false,
      "inputs": [
        {
          "indexed": false,
          "internalType": "uint256",
          "name": "_tokenId",
          "type": "uint256"
        }
      ],
      "name": "MetadataUpdate",
      "type": "event"
    },
    {
      "anonymous": false,
      "inputs": [
        {
          "indexed": false,
          "internalType": "address",
          "name": "owner",
          "type": "address"
        },
        {
          "indexed": false,
          "internalType": "uint256",
          "name": "index",
          "type": "uint256"
        }
      ],
      "name": "OwnerAdded",
      "type": "event"
    },
    {
      "anonymous": false,
      "inputs": [
        {
          "indexed": true,
          "internalType": "address",
          "name": "previousOwner",
          "type": "address"
        },
        {
          "indexed": true,
          "internalType": "address",
          "name": "newOwner",
          "type": "address"
        }
      ],
      "name": "OwnershipTransferred",
      "type": "event"
    },
    {
      "anonymous": false,
      "inputs": [
        {
          "indexed": false,
          "internalType": "uint256",
          "name": "reward",
          "type": "uint256"
        },
        {
          "indexed": false,
          "internalType": "address",
          "name": "receiver",
          "type": "address"
        }
      ],
      "name": "RewardClaimed",
      "type": "event"
    },
    {
      "anonymous": false,
      "inputs": [
        {
          "indexed": false,
          "internalType": "address",
          "name": "sender",
          "type": "address"
        },
        {
          "indexed": false,
          "internalType": "uint256",
          "name": "value",
          "type": "uint256"
        }
      ],
      "name": "RewardDeposited",
      "type": "event"
    },
    {
      "anonymous": false,
      "inputs": [
        {
          "indexed": true,
          "internalType": "bytes32",
          "name": "role",
          "type": "bytes32"
        },
        {
          "indexed": true,
          "internalType": "bytes32",
          "name": "previousAdminRole",
          "type": "bytes32"
        },
        {
          "indexed": true,
          "internalType": "bytes32",
          "name": "newAdminRole",
          "type": "bytes32"
        }
      ],
      "name": "RoleAdminChanged",
      "type": "event"
    },
    {
      "anonymous": false,
      "inputs": [
        {
          "indexed": true,
          "internalType": "bytes32",
          "name": "role",
          "type": "bytes32"
        },
        {
          "indexed": true,
          "internalType": "address",
          "name": "account",
          "type": "address"
        },
        {
          "indexed": true,
          "internalType": "address",
          "name": "sender",
          "type": "address"
        }
      ],
      "name": "RoleGranted",
      "type": "event"
    },
    {
      "anonymous": false,
      "inputs": [
        {
          "indexed": true,
          "internalType": "bytes32",
          "name": "role",
          "type": "bytes32"
        },
        {
          "indexed": true,
          "internalType": "address",
          "name": "account",
          "type": "address"
        },
        {
          "indexed": true,
          "internalType": "address",
          "name": "sender",
          "type": "address"
        }
      ],
      "name": "RoleRevoked",
      "type": "event"
    },
    {
      "anonymous": false,
      "inputs": [
        {
          "indexed": true,
          "internalType": "address",
          "name": "from",
          "type": "address"
        },
        {
          "indexed": true,
          "internalType": "address",
          "name": "to",
          "type": "address"
        },
        {
          "indexed": true,
          "internalType": "uint256",
          "name": "tokenId",
          "type": "uint256"
        }
      ],
      "name": "Transfer",
      "type": "event"
    },
    {
      "anonymous": false,
      "inputs": [
        {
          "indexed": true,
          "internalType": "address",
          "name": "implementation",
          "type": "address"
        }
      ],
      "name": "Upgraded",
      "type": "event"
    },
    {
      "inputs": [],
      "name": "BALANCE_UPDATER_ROLE",
      "outputs": [
        {
          "internalType": "bytes32",
          "name": "",
          "type": "bytes32"
        }
      ],
      "stateMutability": "view",
      "type": "function"
    },
    {
      "inputs": [],
      "name": "BURNER_ROLE",
      "outputs": [
        {
          "internalType": "bytes32",
          "name": "",
          "type": "bytes32"
        }
      ],
      "stateMutability": "view",
      "type": "function"
    },
    {
      "inputs": [],
      "name": "DEFAULT_ADMIN_ROLE",
      "outputs": [
        {
          "internalType": "bytes32",
          "name": "",
          "type": "bytes32"
        }
      ],
      "stateMutability": "view",
      "type": "function"
    },
    {
      "inputs": [],
      "name": "MAX_BPS",
      "outputs": [
        {
          "internalType": "uint256",
          "name": "",
          "type": "uint256"
        }
      ],
      "stateMutability": "view",
      "type": "function"
    },
    {
      "inputs": [],
      "name": "MINTER_ROLE",
      "outputs": [
        {
          "internalType": "bytes32",
          "name": "",
          "type": "bytes32"
        }
      ],
      "stateMutability": "view",
      "type": "function"
    },
    {
      "inputs": [
        {
          "components": [
            {
              "internalType": "uint256",
              "name": "assets",
              "type": "uint256"
            },
            {
              "internalType": "uint256",
              "name": "shares",
              "type": "uint256"
            },
            {
              "internalType": "address",
              "name": "requestSender",
              "type": "address"
            },
            {
              "internalType": "uint256",
              "name": "senderMaxWithdraw",
              "type": "uint256"
            }
          ],
          "internalType": "struct ERC4626HookPayload",
          "name": "request",
          "type": "tuple"
        }
      ],
      "name": "afterDepositTrigger",
      "outputs": [],
      "stateMutability": "nonpayable",
      "type": "function"
    },
    {
      "inputs": [
        {
          "internalType": "address",
          "name": "to",
          "type": "address"
        },
        {
          "internalType": "uint256",
          "name": "tokenId",
          "type": "uint256"
        }
      ],
      "name": "approve",
      "outputs": [],
      "stateMutability": "nonpayable",
      "type": "function"
    },
    {
      "inputs": [
        {
          "internalType": "address",
          "name": "owner",
          "type": "address"
        }
      ],
      "name": "balanceOf",
      "outputs": [
        {
          "internalType": "uint256",
          "name": "",
          "type": "uint256"
        }
      ],
      "stateMutability": "view",
      "type": "function"
    },
    {
      "inputs": [
        {
          "components": [
            {
              "internalType": "uint256",
              "name": "assets",
              "type": "uint256"
            },
            {
              "internalType": "uint256",
              "name": "shares",
              "type": "uint256"
            },
            {
              "internalType": "address",
              "name": "requestSender",
              "type": "address"
            },
            {
              "internalType": "uint256",
              "name": "senderMaxWithdraw",
              "type": "uint256"
            }
          ],
          "internalType": "struct ERC4626HookPayload",
          "name": "request",
          "type": "tuple"
        }
      ],
      "name": "beforeWithdrawTrigger",
      "outputs": [],
      "stateMutability": "nonpayable",
      "type": "function"
    },
    {
      "inputs": [
        {
          "internalType": "uint256",
          "name": "tokenId",
          "type": "uint256"
        }
      ],
      "name": "burn",
      "outputs": [],
      "stateMutability": "nonpayable",
      "type": "function"
    },
    {
      "inputs": [
        {
          "internalType": "uint256",
          "name": "tokenId",
          "type": "uint256"
        }
      ],
      "name": "burnAuth",
      "outputs": [
        {
          "internalType": "enum IERC5484.BurnAuth",
          "name": "",
          "type": "uint8"
        }
      ],
      "stateMutability": "view",
      "type": "function"
    },
    {
      "inputs": [],
      "name": "calcReward",
      "outputs": [
        {
          "internalType": "uint256",
          "name": "",
          "type": "uint256"
        }
      ],
      "stateMutability": "view",
      "type": "function"
    },
    {
      "inputs": [],
      "name": "claimReward",
      "outputs": [],
      "stateMutability": "nonpayable",
      "type": "function"
    },
    {
      "inputs": [
        {
          "internalType": "uint256",
          "name": "plusReward",
          "type": "uint256"
        }
      ],
      "name": "depositReward",
      "outputs": [],
      "stateMutability": "nonpayable",
      "type": "function"
    },
    {
      "inputs": [
        {
          "internalType": "uint256",
          "name": "tokenId",
          "type": "uint256"
        }
      ],
      "name": "getApproved",
      "outputs": [
        {
          "internalType": "address",
          "name": "",
          "type": "address"
        }
      ],
      "stateMutability": "view",
      "type": "function"
    },
    {
      "inputs": [
        {
          "internalType": "bytes32",
          "name": "role",
          "type": "bytes32"
        }
      ],
      "name": "getRoleAdmin",
      "outputs": [
        {
          "internalType": "bytes32",
          "name": "",
          "type": "bytes32"
        }
      ],
      "stateMutability": "view",
      "type": "function"
    },
    {
      "inputs": [
        {
          "internalType": "bytes32",
          "name": "role",
          "type": "bytes32"
        },
        {
          "internalType": "address",
          "name": "account",
          "type": "address"
        }
      ],
      "name": "grantRole",
      "outputs": [],
      "stateMutability": "nonpayable",
      "type": "function"
    },
    {
      "inputs": [
        {
          "internalType": "bytes32",
          "name": "role",
          "type": "bytes32"
        },
        {
          "internalType": "address",
          "name": "account",
          "type": "address"
        }
      ],
      "name": "hasRole",
      "outputs": [
        {
          "internalType": "bool",
          "name": "",
          "type": "bool"
        }
      ],
      "stateMutability": "view",
      "type": "function"
    },
    {
      "inputs": [
        {
          "internalType": "uint256",
          "name": "maxCountTokens_",
          "type": "uint256"
        },
        {
          "internalType": "uint256",
          "name": "nextTokenPriceMultiplier_",
          "type": "uint256"
        },
        {
          "internalType": "uint256",
          "name": "initialTokenPrice_",
          "type": "uint256"
        }
      ],
      "name": "initialize",
      "outputs": [],
      "stateMutability": "nonpayable",
      "type": "function"
    },
    {
      "inputs": [
        {
          "internalType": "address",
          "name": "owner",
          "type": "address"
        },
        {
          "internalType": "address",
          "name": "operator",
          "type": "address"
        }
      ],
      "name": "isApprovedForAll",
      "outputs": [
        {
          "internalType": "bool",
          "name": "",
          "type": "bool"
        }
      ],
      "stateMutability": "view",
      "type": "function"
    },
    {
      "inputs": [],
      "name": "maxCountTokens",
      "outputs": [
        {
          "internalType": "uint256",
          "name": "",
          "type": "uint256"
        }
      ],
      "stateMutability": "view",
      "type": "function"
    },
    {
      "inputs": [],
      "name": "name",
      "outputs": [
        {
          "internalType": "string",
          "name": "",
          "type": "string"
        }
      ],
      "stateMutability": "view",
      "type": "function"
    },
    {
      "inputs": [],
      "name": "nextTokenPrice",
      "outputs": [
        {
          "internalType": "uint256",
          "name": "",
          "type": "uint256"
        }
      ],
      "stateMutability": "view",
      "type": "function"
    },
    {
      "inputs": [],
      "name": "nextTokenPriceMultiplier",
      "outputs": [
        {
          "internalType": "uint256",
          "name": "",
          "type": "uint256"
        }
      ],
      "stateMutability": "view",
      "type": "function"
    },
    {
      "inputs": [],
      "name": "numberCoins",
      "outputs": [
        {
          "internalType": "uint16",
          "name": "",
          "type": "uint16"
        }
      ],
      "stateMutability": "view",
      "type": "function"
    },
    {
      "inputs": [],
      "name": "owner",
      "outputs": [
        {
          "internalType": "address",
          "name": "",
          "type": "address"
        }
      ],
      "stateMutability": "view",
      "type": "function"
    },
    {
      "inputs": [
        {
          "internalType": "uint256",
          "name": "tokenId",
          "type": "uint256"
        }
      ],
      "name": "ownerOf",
      "outputs": [
        {
          "internalType": "address",
          "name": "",
          "type": "address"
        }
      ],
      "stateMutability": "view",
      "type": "function"
    },
    {
      "inputs": [],
      "name": "proxiableUUID",
      "outputs": [
        {
          "internalType": "bytes32",
          "name": "",
          "type": "bytes32"
        }
      ],
      "stateMutability": "view",
      "type": "function"
    },
    {
      "inputs": [],
      "name": "renounceOwnership",
      "outputs": [],
      "stateMutability": "nonpayable",
      "type": "function"
    },
    {
      "inputs": [
        {
          "internalType": "bytes32",
          "name": "role",
          "type": "bytes32"
        },
        {
          "internalType": "address",
          "name": "account",
          "type": "address"
        }
      ],
      "name": "renounceRole",
      "outputs": [],
      "stateMutability": "nonpayable",
      "type": "function"
    },
    {
      "inputs": [
        {
          "internalType": "bytes32",
          "name": "role",
          "type": "bytes32"
        },
        {
          "internalType": "address",
          "name": "account",
          "type": "address"
        }
      ],
      "name": "revokeRole",
      "outputs": [],
      "stateMutability": "nonpayable",
      "type": "function"
    },
    {
      "inputs": [],
      "name": "rewardIndex",
      "outputs": [
        {
          "internalType": "uint256",
          "name": "",
          "type": "uint256"
        }
      ],
      "stateMutability": "view",
      "type": "function"
    },
    {
      "inputs": [
        {
          "internalType": "address",
          "name": "",
          "type": "address"
        }
      ],
      "name": "rewardOwnerIndex",
      "outputs": [
        {
          "internalType": "uint256",
          "name": "",
          "type": "uint256"
        }
      ],
      "stateMutability": "view",
      "type": "function"
    },
    {
      "inputs": [
        {
          "internalType": "address",
          "name": "from",
          "type": "address"
        },
        {
          "internalType": "address",
          "name": "to",
          "type": "address"
        },
        {
          "internalType": "uint256",
          "name": "tokenId",
          "type": "uint256"
        }
      ],
      "name": "safeTransferFrom",
      "outputs": [],
      "stateMutability": "nonpayable",
      "type": "function"
    },
    {
      "inputs": [
        {
          "internalType": "address",
          "name": "from",
          "type": "address"
        },
        {
          "internalType": "address",
          "name": "to",
          "type": "address"
        },
        {
          "internalType": "uint256",
          "name": "tokenId",
          "type": "uint256"
        },
        {
          "internalType": "bytes",
          "name": "data",
          "type": "bytes"
        }
      ],
      "name": "safeTransferFrom",
      "outputs": [],
      "stateMutability": "nonpayable",
      "type": "function"
    },
    {
      "inputs": [
        {
          "internalType": "address",
          "name": "operator",
          "type": "address"
        },
        {
          "internalType": "bool",
          "name": "approved",
          "type": "bool"
        }
      ],
      "name": "setApprovalForAll",
      "outputs": [],
      "stateMutability": "nonpayable",
      "type": "function"
    },
    {
      "inputs": [
        {
          "internalType": "uint256",
          "name": "nextTokenPriceMultiplier_",
          "type": "uint256"
        }
      ],
      "name": "setNextTokenMultiplier",
      "outputs": [],
      "stateMutability": "nonpayable",
      "type": "function"
    },
    {
      "inputs": [
        {
          "internalType": "string",
          "name": "_tokenURI",
          "type": "string"
        },
        {
          "internalType": "uint256",
          "name": "tokenId",
          "type": "uint256"
        }
      ],
      "name": "setTokenURI",
      "outputs": [],
      "stateMutability": "nonpayable",
      "type": "function"
    },
    {
      "inputs": [
        {
          "internalType": "string",
          "name": "_tokenURI",
          "type": "string"
        }
      ],
      "name": "setTokenURI",
      "outputs": [],
      "stateMutability": "nonpayable",
      "type": "function"
    },
    {
      "inputs": [
        {
          "internalType": "contract Vault",
          "name": "vault_",
          "type": "address"
        }
      ],
      "name": "setVault",
      "outputs": [],
      "stateMutability": "nonpayable",
      "type": "function"
    },
    {
      "inputs": [
        {
          "internalType": "bytes4",
          "name": "interfaceId",
          "type": "bytes4"
        }
      ],
      "name": "supportsInterface",
      "outputs": [
        {
          "internalType": "bool",
          "name": "",
          "type": "bool"
        }
      ],
      "stateMutability": "view",
      "type": "function"
    },
    {
      "inputs": [],
      "name": "symbol",
      "outputs": [
        {
          "internalType": "string",
          "name": "",
          "type": "string"
        }
      ],
      "stateMutability": "view",
      "type": "function"
    },
    {
      "inputs": [
        {
          "internalType": "uint256",
          "name": "index",
          "type": "uint256"
        }
      ],
      "name": "tokenByIndex",
      "outputs": [
        {
          "internalType": "uint256",
          "name": "",
          "type": "uint256"
        }
      ],
      "stateMutability": "view",
      "type": "function"
    },
    {
      "inputs": [
        {
          "internalType": "address",
          "name": "owner",
          "type": "address"
        },
        {
          "internalType": "uint256",
          "name": "index",
          "type": "uint256"
        }
      ],
      "name": "tokenOfOwnerByIndex",
      "outputs": [
        {
          "internalType": "uint256",
          "name": "",
          "type": "uint256"
        }
      ],
      "stateMutability": "view",
      "type": "function"
    },
    {
      "inputs": [
        {
          "internalType": "uint256",
          "name": "tokenId",
          "type": "uint256"
        }
      ],
      "name": "tokenURI",
      "outputs": [
        {
          "internalType": "string",
          "name": "",
          "type": "string"
        }
      ],
      "stateMutability": "view",
      "type": "function"
    },
    {
      "inputs": [],
      "name": "totalSupply",
      "outputs": [
        {
          "internalType": "uint256",
          "name": "",
          "type": "uint256"
        }
      ],
      "stateMutability": "view",
      "type": "function"
    },
    {
      "inputs": [
        {
          "internalType": "address",
          "name": "from",
          "type": "address"
        },
        {
          "internalType": "address",
          "name": "to",
          "type": "address"
        },
        {
          "internalType": "uint256",
          "name": "tokenId",
          "type": "uint256"
        }
      ],
      "name": "transferFrom",
      "outputs": [],
      "stateMutability": "nonpayable",
      "type": "function"
    },
    {
      "inputs": [
        {
          "internalType": "address",
          "name": "newOwner",
          "type": "address"
        }
      ],
      "name": "transferOwnership",
      "outputs": [],
      "stateMutability": "nonpayable",
      "type": "function"
    },
    {
      "inputs": [
        {
          "internalType": "address",
          "name": "to",
          "type": "address"
        },
        {
          "internalType": "string",
          "name": "uri",
          "type": "string"
        },
        {
          "internalType": "uint256",
          "name": "amount",
          "type": "uint256"
        }
      ],
      "name": "tryToMint",
      "outputs": [
        {
          "internalType": "bool",
          "name": "",
          "type": "bool"
        }
      ],
      "stateMutability": "nonpayable",
      "type": "function"
    },
    {
      "inputs": [
        {
          "internalType": "address",
          "name": "newImplementation",
          "type": "address"
        }
      ],
      "name": "upgradeTo",
      "outputs": [],
      "stateMutability": "nonpayable",
      "type": "function"
    },
    {
      "inputs": [
        {
          "internalType": "address",
          "name": "newImplementation",
          "type": "address"
        },
        {
          "internalType": "bytes",
          "name": "data",
          "type": "bytes"
        }
      ],
      "name": "upgradeToAndCall",
      "outputs": [],
      "stateMutability": "payable",
      "type": "function"
    },
    {
      "inputs": [],
      "name": "vault",
      "outputs": [
        {
          "internalType": "contract Vault",
          "name": "",
          "type": "address"
        }
      ],
      "stateMutability": "view",
      "type": "function"
    },
    {
      "inputs": [],
      "name": "version",
      "outputs": [
        {
          "internalType": "string",
          "name": "",
          "type": "string"
        }
      ],
      "stateMutability": "pure",
      "type": "function"
    }
  ],
  "transactionHash": "0xff403b83fa94fb9ef14ef26f90c15a34f3f3bf47b0c228cb2d5d0e7c0ba7a875",
  "args": [
    true
  ],
  "numDeployments": 6,
  "solcInputHash": "23e18428f374718784ca9d12b9e8b78f",
  "bytecode": "0x60a060405230608052600161028d553480156200001b57600080fd5b50604051620043a2380380620043a28339810160408190526200003e9162000119565b80801562000050576200005062000058565b505062000144565b600054610100900460ff1615620000c55760405162461bcd60e51b815260206004820152602760248201527f496e697469616c697a61626c653a20636f6e747261637420697320696e697469604482015266616c697a696e6760c81b606482015260840160405180910390fd5b60005460ff9081161462000117576000805460ff191660ff9081179091556040519081527f7f26b83ff96e1f2b6a682f133852f6798a09c465da95921460cefb38474024989060200160405180910390a15b565b6000602082840312156200012c57600080fd5b815180151581146200013d57600080fd5b9392505050565b6080516142266200017c60003960008181610e5101528181610e9101528181610f6901528181610fa901526110cd01526142266000f3fe60806040526004361061031a5760003560e01c806370a08231116101ab578063b88d4fde116100f7578063e9ee2fa911610095578063f2fde38b1161006f578063f2fde38b14610977578063f584f31214610997578063fbfa77cf146109b7578063fd967f47146109de57600080fd5b8063e9ee2fa91461091e578063ec6a5f8314610935578063ed0693ff1461095557600080fd5b8063d5391393116100d1578063d539139314610872578063d547741f14610894578063e0df5b6f146108b4578063e985e9c5146108d457600080fd5b8063b88d4fde1461081d578063c87b56dd1461083d578063cb40bb5f1461085d57600080fd5b806391d14854116101645780639c76796c1161013e5780639c76796c146107b3578063a217fddf146107d3578063a22cb465146107e8578063b88a802f1461080857600080fd5b806391d148541461076757806392c854991461078757806395d89b411461079e57600080fd5b806370a08231146106ae578063715018a6146106ce57806376a93944146106e357806380d85911146106fa578063899cf3611461071a5780638da5cb5b1461074857600080fd5b80632f745c591161026a5780634f1ef2861161022357806354fd4d50116101fd57806354fd4d50146106115780636352211e1461063f578063675cccfe1461065f5780636817031b1461068e57600080fd5b80634f1ef286146105c95780634f6ccce7146105dc57806352d1902d146105fc57600080fd5b80632f745c591461050b57806336568abe1461052b5780633659cfe61461054b57806342842e0e1461056b57806342966c681461058b578063496327f6146105ab57600080fd5b806309a3beef116102d757806323b872dd116102b157806323b872dd14610478578063248a9ca314610498578063282c51f3146104c95780632f2ff15d146104eb57600080fd5b806309a3beef1461042257806318160ddd146104425780631e2720ff1461045857600080fd5b806301ffc9a71461031f5780630489b56f1461035457806305deb99f1461038157806306fdde03146103a6578063081812fc146103c8578063095ea7b314610400575b600080fd5b34801561032b57600080fd5b5061033f61033a366004613708565b6109f4565b60405190151581526020015b60405180910390f35b34801561036057600080fd5b5061037461036f366004613725565b610a05565b60405161034b9190613754565b34801561038d57600080fd5b506103986102c35481565b60405190815260200161034b565b3480156103b257600080fd5b506103bb610a7a565b60405161034b91906137cc565b3480156103d457600080fd5b506103e86103e3366004613725565b610b0c565b6040516001600160a01b03909116815260200161034b565b34801561040c57600080fd5b5061042061041b3660046137f4565b610b33565b005b34801561042e57600080fd5b5061042061043d3660046138c3565b610c48565b34801561044e57600080fd5b5061019354610398565b34801561046457600080fd5b50610420610473366004613725565b610c5d565b34801561048457600080fd5b50610420610493366004613908565b610cdf565b3480156104a457600080fd5b506103986104b3366004613725565b60009081526101f5602052604090206001015490565b3480156104d557600080fd5b5061039860008051602061414a83398151915281565b3480156104f757600080fd5b50610420610506366004613949565b610d10565b34801561051757600080fd5b506103986105263660046137f4565b610d36565b34801561053757600080fd5b50610420610546366004613949565b610dcd565b34801561055757600080fd5b50610420610566366004613979565b610e47565b34801561057757600080fd5b50610420610586366004613908565b610f23565b34801561059757600080fd5b506104206105a6366004613725565b610f3e565b3480156105b757600080fd5b506104206105c6366004613996565b50565b6104206105d7366004613a04565b610f5f565b3480156105e857600080fd5b506103986105f7366004613725565b61102b565b34801561060857600080fd5b506103986110c0565b34801561061d57600080fd5b50604080518082019091526005815264302e312e3160d81b60208201526103bb565b34801561064b57600080fd5b506103e861065a366004613725565b611173565b34801561066b57600080fd5b5061028f5461067b9061ffff1681565b60405161ffff909116815260200161034b565b34801561069a57600080fd5b506104206106a9366004613979565b6111d3565b3480156106ba57600080fd5b506103986106c9366004613979565b61122f565b3480156106da57600080fd5b506104206112b5565b3480156106ef57600080fd5b506103986102c45481565b34801561070657600080fd5b50610420610715366004613a54565b6112c9565b34801561072657600080fd5b50610398610735366004613979565b61028e6020526000908152604090205481565b34801561075457600080fd5b5061012d546001600160a01b03166103e8565b34801561077357600080fd5b5061033f610782366004613949565b61145e565b34801561079357600080fd5b506103986102c25481565b3480156107aa57600080fd5b506103bb61148a565b3480156107bf57600080fd5b506104206107ce366004613725565b611499565b3480156107df57600080fd5b50610398600081565b3480156107f457600080fd5b50610420610803366004613a8e565b6114f0565b34801561081457600080fd5b506104206114fb565b34801561082957600080fd5b50610420610838366004613abc565b611699565b34801561084957600080fd5b506103bb610858366004613725565b6116cb565b34801561086957600080fd5b506103986116d6565b34801561087e57600080fd5b506103986000805160206141d183398151915281565b3480156108a057600080fd5b506104206108af366004613949565b611740565b3480156108c057600080fd5b506104206108cf366004613b28565b611766565b3480156108e057600080fd5b5061033f6108ef366004613b5d565b6001600160a01b0391821660009081526101006020908152604080832093909416825291909152205460ff1690565b34801561092a57600080fd5b5061039861028d5481565b34801561094157600080fd5b50610420610950366004613996565b61177f565b34801561096157600080fd5b5061039860008051602061418a83398151915281565b34801561098357600080fd5b50610420610992366004613979565b6117a1565b3480156109a357600080fd5b5061033f6109b2366004613b8b565b611817565b3480156109c357600080fd5b5061028f546103e8906201000090046001600160a01b031681565b3480156109ea57600080fd5b5061039861271081565b60006109ff826118e4565b92915050565b600081815260fd60205260408120546001600160a01b0316610a6e5760405162461bcd60e51b815260206004820152601d60248201527f455243353438343a20746f6b656e20646f65736e27742065786973747300000060448201526064015b60405180910390fd5b50506102285460ff1690565b606060fb8054610a8990613be4565b80601f0160208091040260200160405190810160405280929190818152602001828054610ab590613be4565b8015610b025780601f10610ad757610100808354040283529160200191610b02565b820191906000526020600020905b815481529060010190602001808311610ae557829003601f168201915b5050505050905090565b6000610b1782611924565b50600090815260ff60205260409020546001600160a01b031690565b6000610b3e82611173565b9050806001600160a01b0316836001600160a01b031603610bab5760405162461bcd60e51b815260206004820152602160248201527f4552433732313a20617070726f76616c20746f2063757272656e74206f776e656044820152603960f91b6064820152608401610a65565b336001600160a01b0382161480610bc75750610bc781336108ef565b610c395760405162461bcd60e51b815260206004820152603d60248201527f4552433732313a20617070726f76652063616c6c6572206973206e6f7420746f60448201527f6b656e206f776e6572206f7220617070726f76656420666f7220616c6c0000006064820152608401610a65565b610c438383611983565b505050565b6000610c53816119f1565b610c4382846119fb565b60008051602061418a833981519152610c75816119f1565b610c7d611ac8565b8161028d6000828254610c909190613c34565b9091555050604080513381526020810184905281517f7dbc080e4530c8bcf265eb5c9a35ae096ca1eb607b7e802b96581ef4c5e1a703929181900390910190a1610cdb600161025b55565b5050565b610ce93382611b2b565b610d055760405162461bcd60e51b8152600401610a6590613c47565b610c43838383611bab565b60008281526101f56020526040902060010154610d2c816119f1565b610c438383611d1c565b6000610d418361122f565b8210610da35760405162461bcd60e51b815260206004820152602b60248201527f455243373231456e756d657261626c653a206f776e657220696e646578206f7560448201526a74206f6620626f756e647360a81b6064820152608401610a65565b506001600160a01b0391909116600090815261019160209081526040808320938352929052205490565b6001600160a01b0381163314610e3d5760405162461bcd60e51b815260206004820152602f60248201527f416363657373436f6e74726f6c3a2063616e206f6e6c792072656e6f756e636560448201526e103937b632b9903337b91039b2b63360891b6064820152608401610a65565b610cdb8282611da3565b6001600160a01b037f0000000000000000000000000000000000000000000000000000000000000000163003610e8f5760405162461bcd60e51b8152600401610a6590613c94565b7f00000000000000000000000000000000000000000000000000000000000000006001600160a01b0316610ed860008051602061416a833981519152546001600160a01b031690565b6001600160a01b031614610efe5760405162461bcd60e51b8152600401610a6590613ce0565b610f0781611e0b565b604080516000808252602082019092526105c691839190611e13565b610c4383838360405180602001604052806000815250611699565b60008051602061414a833981519152610f56816119f1565b610cdb82611f7e565b6001600160a01b037f0000000000000000000000000000000000000000000000000000000000000000163003610fa75760405162461bcd60e51b8152600401610a6590613c94565b7f00000000000000000000000000000000000000000000000000000000000000006001600160a01b0316610ff060008051602061416a833981519152546001600160a01b031690565b6001600160a01b0316146110165760405162461bcd60e51b8152600401610a6590613ce0565b61101f82611e0b565b610cdb82826001611e13565b60006110376101935490565b821061109a5760405162461bcd60e51b815260206004820152602c60248201527f455243373231456e756d657261626c653a20676c6f62616c20696e646578206f60448201526b7574206f6620626f756e647360a01b6064820152608401610a65565b61019382815481106110ae576110ae613d2c565b90600052602060002001549050919050565b6000306001600160a01b037f000000000000000000000000000000000000000000000000000000000000000016146111605760405162461bcd60e51b815260206004820152603860248201527f555550535570677261646561626c653a206d757374206e6f742062652063616c60448201527f6c6564207468726f7567682064656c656761746563616c6c00000000000000006064820152608401610a65565b5060008051602061416a83398151915290565b600081815260fd60205260408120546001600160a01b0316806109ff5760405162461bcd60e51b8152602060048201526018602482015277115490cdcc8c4e881a5b9d985b1a59081d1bdad95b88125160421b6044820152606401610a65565b60006111de816119f1565b61028f546201000090046001600160a01b03161561120e5761120e6000805160206141d183398151915283611740565b61121782611f87565b610cdb6000805160206141d183398151915283610d10565b60006001600160a01b0382166112995760405162461bcd60e51b815260206004820152602960248201527f4552433732313a2061646472657373207a65726f206973206e6f7420612076616044820152683634b21037bbb732b960b91b6064820152608401610a65565b506001600160a01b0316600090815260fe602052604090205490565b6112bd61201d565b6112c76000612078565b565b600054610100900460ff16158080156112e95750600054600160ff909116105b806113035750303b158015611303575060005460ff166001145b6113665760405162461bcd60e51b815260206004820152602e60248201527f496e697469616c697a61626c653a20636f6e747261637420697320616c72656160448201526d191e481a5b9a5d1a585b1a5e995960921b6064820152608401610a65565b6000805460ff191660011790558015611389576000805461ff0019166101001790555b6113916120cb565b6113f06040518060400160405280601a81526020017f456f6e69616e205661756c7420466f756e64657220546f6b656e000000000000815250604051806040016040528060048152602001631155919560e21b81525060036001612102565b6113f8612155565b611400612184565b6102c28490556102c38390556102c48290558015611458576000805461ff0019169055604051600181527f7f26b83ff96e1f2b6a682f133852f6798a09c465da95921460cefb38474024989060200160405180910390a15b50505050565b60009182526101f5602090815260408084206001600160a01b0393909316845291905290205460ff1690565b606060fc8054610a8990613be4565b60006114a4816119f1565b6102c3546127106102c4546114b99190613d42565b6114c39190613d59565b6102c48190556102c3839055612710906114de908490613d42565b6114e89190613d59565b6102c4555050565b610cdb3383836121b6565b611503611ac8565b61028f546201000090046001600160a01b03166115535760405162461bcd60e51b815260206004820152600e60248201526d2b30bab63a103737ba1039b2ba1760911b6044820152606401610a65565b33600090815261028e602052604081205490036115b25760405162461bcd60e51b815260206004820152601b60248201527f43616c6c657220646f65736e27742068617665207265776172642e00000000006044820152606401610a65565b60006115bc6116d6565b61028d5433600081815261028e6020526040908190209290925561028f54915163a9059cbb60e01b81526004810191909152602481018390529192506201000090046001600160a01b03169063a9059cbb906044016020604051808303816000875af1158015611630573d6000803e3d6000fd5b505050506040513d601f19601f820116820180604052508101906116549190613d7b565b50604080518281523360208201527f5dd59f4285b36241394b73f8f7ae03d0290b030a86803cf2562ecf33eeb617bd910160405180910390a1506112c7600161025b55565b6116a33383611b2b565b6116bf5760405162461bcd60e51b8152600401610a6590613c47565b61145884848484612285565b60606109ff826122b8565b61028f5460009061ffff1615806116fb575033600090815261028e6020526040902054155b156117065750600090565b33600090815261028e602052604081205461028d546117259190613d98565b61028f5490915061173a9061ffff1682613d59565b91505090565b60008281526101f5602052604090206001015461175c816119f1565b610c438383611da3565b3360006117738282610d36565b9050610c4381846119fb565b610cdb8160400151604051806020016040528060008152508360600151611817565b6117a961201d565b6001600160a01b03811661180e5760405162461bcd60e51b815260206004820152602660248201527f4f776e61626c653a206e6577206f776e657220697320746865207a65726f206160448201526564647265737360d01b6064820152608401610a65565b6105c681612078565b60006102c45482108061183057506102c2546101935410155b1561183d575060006118dd565b61184784846123c1565b611853575060006118dd565b61185c846124ee565b60006127106102c354846118709190613d42565b61187a9190613d59565b6102c4546102c3546040805192835260208301879052820183905260608201529091506001600160a01b038616907f66e5f204dadf0b0406343d72ad369d71133c465340700994fed9d5454b0bc1d29060800160405180910390a26102c4555060015b9392505050565b60006001600160e01b03198216630489b56f60e01b148061191557506001600160e01b03198216637965db0b60e01b145b806109ff57506109ff8261259d565b600081815260fd60205260409020546001600160a01b03166105c65760405162461bcd60e51b8152602060048201526018602482015277115490cdcc8c4e881a5b9d985b1a59081d1bdad95b88125160421b6044820152606401610a65565b600081815260ff6020526040902080546001600160a01b0319166001600160a01b03841690811790915581906119b882611173565b6001600160a01b03167f8c5be1e5ebec7d5bd14f71427d1e84f3dd0314c0f7b2291e5b200ac8c7c3b92560405160405180910390a45050565b6105c681336125c2565b600082815260fd60205260409020546001600160a01b0316611a765760405162461bcd60e51b815260206004820152602e60248201527f45524337323155524953746f726167653a2055524920736574206f66206e6f6e60448201526d32bc34b9ba32b73a103a37b5b2b760911b6064820152608401610a65565b60008281526101c360205260409020611a8f8282613df9565b506040518281527ff8e1a15aba9398e019f0b49df1a4fde98ee17ae345cb5f6b5e2c27f5033e8ce7906020015b60405180910390a15050565b600261025b5403611b1b5760405162461bcd60e51b815260206004820152601f60248201527f5265656e7472616e637947756172643a207265656e7472616e742063616c6c006044820152606401610a65565b600261025b55565b600161025b55565b600080611b3783611173565b9050806001600160a01b0316846001600160a01b03161480611b7f57506001600160a01b038082166000908152610100602090815260408083209388168352929052205460ff165b80611ba35750836001600160a01b0316611b9884610b0c565b6001600160a01b0316145b949350505050565b826001600160a01b0316611bbe82611173565b6001600160a01b031614611be45760405162461bcd60e51b8152600401610a6590613eb9565b6001600160a01b038216611c465760405162461bcd60e51b8152602060048201526024808201527f4552433732313a207472616e7366657220746f20746865207a65726f206164646044820152637265737360e01b6064820152608401610a65565b611c53838383600161261b565b826001600160a01b0316611c6682611173565b6001600160a01b031614611c8c5760405162461bcd60e51b8152600401610a6590613eb9565b600081815260ff6020908152604080832080546001600160a01b03199081169091556001600160a01b0387811680865260fe855283862080546000190190559087168086528386208054600101905586865260fd90945282852080549092168417909155905184937fddf252ad1be2c89b69c2b068fc378daa952ba7f163c4a11628f55a4df523b3ef91a4505050565b611d26828261145e565b610cdb5760008281526101f5602090815260408083206001600160a01b03851684529091529020805460ff19166001179055611d5f3390565b6001600160a01b0316816001600160a01b0316837f2f8788117e7eff1d82e926ec794901d17c78024a50270940304540a733656f0d60405160405180910390a45050565b611dad828261145e565b15610cdb5760008281526101f5602090815260408083206001600160a01b0385168085529252808320805460ff1916905551339285917ff6391f5c32d9c69d2a47ea670b442974b53935d1edc7fd64eb21e047a839171b9190a45050565b6105c661201d565b7f4910fdfa16fed3260ed0e7147f7cc6da11a60208b5b9406d12a635614ffd91435460ff1615611e4657610c43836127e1565b826001600160a01b03166352d1902d6040518163ffffffff1660e01b8152600401602060405180830381865afa925050508015611ea0575060408051601f3d908101601f19168201909252611e9d91810190613efe565b60015b611f035760405162461bcd60e51b815260206004820152602e60248201527f45524331393637557067726164653a206e657720696d706c656d656e7461746960448201526d6f6e206973206e6f74205555505360901b6064820152608401610a65565b60008051602061416a8339815191528114611f725760405162461bcd60e51b815260206004820152602960248201527f45524331393637557067726164653a20756e737570706f727465642070726f786044820152681a58589b195555525160ba1b6064820152608401610a65565b50610c4383838361287d565b6105c6816128a2565b6000611f92816119f1565b61028f546201000090046001600160a01b031615611fd65761028f54611fd69060008051602061418a833981519152906201000090046001600160a01b0316611740565b61028f805462010000600160b01b031916620100006001600160a01b0385811682029290921792839055610cdb9260008051602061418a8339815191529291900416610d10565b61012d546001600160a01b031633146112c75760405162461bcd60e51b815260206004820181905260248201527f4f776e61626c653a2063616c6c6572206973206e6f7420746865206f776e65726044820152606401610a65565b61012d80546001600160a01b038381166001600160a01b0319831681179093556040519116919082907f8be0079c531659141344cd1fd0a4f28419497f9722a3daafe3b4186f6b6457e090600090a35050565b600054610100900460ff166120f25760405162461bcd60e51b8152600401610a6590613f17565b6120fa6128e4565b6112c7612913565b600054610100900460ff166121295760405162461bcd60e51b8152600401610a6590613f17565b6121338484612942565b61213b612973565b612143612973565b61214b612973565b611458828261299a565b600054610100900460ff1661217c5760405162461bcd60e51b8152600401610a6590613f17565b6112c7612a05565b600054610100900460ff166121ab5760405162461bcd60e51b8152600401610a6590613f17565b6112c7600033612a2c565b816001600160a01b0316836001600160a01b0316036122175760405162461bcd60e51b815260206004820152601960248201527f4552433732313a20617070726f766520746f2063616c6c6572000000000000006044820152606401610a65565b6001600160a01b0383811660008181526101006020908152604080832094871680845294825291829020805460ff191686151590811790915591519182527f17307eab39ab6107e8899845ad3d59bd9653f200f220920489ca2b5937696c31910160405180910390a3505050565b612290848484611bab565b61229c84848484612a36565b6114585760405162461bcd60e51b8152600401610a6590613f62565b60606122c382611924565b60008281526101c36020526040812080546122dd90613be4565b80601f016020809104026020016040519081016040528092919081815260200182805461230990613be4565b80156123565780601f1061232b57610100808354040283529160200191612356565b820191906000526020600020905b81548152906001019060200180831161233957829003601f168201915b50505050509050600061237460408051602081019091526000815290565b90508051600003612386575092915050565b8151156123b85780826040516020016123a0929190613fb4565b60405160208183030381529060405292505050919050565b611ba384612b37565b60006000805160206141d18339815191526123db816119f1565b61022854610100900460ff1680156123fa57506123f78461122f565b15155b1561240857600091506124e7565b60006124146102275490565b905061242561022780546001019055565b61242f8582612baa565b61243981856119fb565b60016102285460ff1660038111156124535761245361373e565b1480612476575060026102285460ff1660038111156124745761247461373e565b145b156124935761249360008051602061414a83398151915286612a2c565b6102285460405182916001600160a01b038816916000917f135ffb3383e06280e062ac5095bbf8faa98517161e596a2536bd98a9a8b64a88916124d99160ff1690613754565b60405180910390a460019250505b5092915050565b60008051602061418a833981519152612506816119f1565b61028d546001600160a01b038316600090815261028e602052604081209190915561028f805461ffff169161253a83613fe3565b91906101000a81548161ffff021916908361ffff160217905550507f567d314b1f4bef0cf41b5eea6a621ebe9b67dfafe183c591176a3efce5ecc0df8261028d54604051611abc9291906001600160a01b03929092168252602082015260400190565b60006001600160e01b03198216637965db0b60e01b14806109ff57506109ff82612bc4565b6125cc828261145e565b610cdb576125d981612be9565b6125e4836020612bfb565b6040516020016125f5929190614004565b60408051601f198184030181529082905262461bcd60e51b8252610a65916004016137cc565b8284836001600160a01b03821615600061264360008051602061414a8339815191523361145e565b905060008215801561265c57506001600160a01b038616155b905060036102285460ff1660038111156126785761267861373e565b0361269f578261269a5760405162461bcd60e51b8152600401610a6590614079565b6127c9565b60006102285460ff1660038111156126b9576126b961373e565b036126f75760008280156126ca5750815b905083806126d55750805b6126f15760405162461bcd60e51b8152600401610a6590614079565b506127c9565b60016102285460ff1660038111156127115761271161373e565b0361277d57600084815260fd60205260408120546001600160a01b03163314801561274f575061274f60008051602061414a8339815191523361145e565b905083806126d557508080156126d55750816126f15760405162461bcd60e51b8152600401610a6590614079565b60026102285460ff1660038111156127975761279761373e565b036127c95782806127ad57508080156127ad5750815b6127c95760405162461bcd60e51b8152600401610a6590614079565b6127d58a8a8a8a612d97565b50505050505050505050565b6001600160a01b0381163b61284e5760405162461bcd60e51b815260206004820152602d60248201527f455243313936373a206e657720696d706c656d656e746174696f6e206973206e60448201526c1bdd08184818dbdb9d1c9858dd609a1b6064820152608401610a65565b60008051602061416a83398151915280546001600160a01b0319166001600160a01b0392909216919091179055565b61288683612ecd565b6000825111806128935750805b15610c43576114588383612f0d565b6128ab81612f32565b60008181526101c36020526040902080546128c590613be4565b1590506105c65760008181526101c3602052604081206105c6916136a4565b600054610100900460ff1661290b5760405162461bcd60e51b8152600401610a6590613f17565b6112c7612973565b600054610100900460ff1661293a5760405162461bcd60e51b8152600401610a6590613f17565b6112c7612fd5565b600054610100900460ff166129695760405162461bcd60e51b8152600401610a6590613f17565b610cdb8282613005565b600054610100900460ff166112c75760405162461bcd60e51b8152600401610a6590613f17565b600054610100900460ff166129c15760405162461bcd60e51b8152600401610a6590613f17565b610228805483919060ff191660018360038111156129e1576129e161373e565b0217905550610228805461ff00191661010083151502179055610cdb600033612a2c565b600054610100900460ff16611b235760405162461bcd60e51b8152600401610a6590613f17565b610cdb8282611d1c565b60006001600160a01b0384163b15612b2c57604051630a85bd0160e11b81526001600160a01b0385169063150b7a0290612a7a9033908990889088906004016140b0565b6020604051808303816000875af1925050508015612ab5575060408051601f3d908101601f19168201909252612ab2918101906140e3565b60015b612b12573d808015612ae3576040519150601f19603f3d011682016040523d82523d6000602084013e612ae8565b606091505b508051600003612b0a5760405162461bcd60e51b8152600401610a6590613f62565b805181602001fd5b6001600160e01b031916630a85bd0160e11b149050611ba3565b506001949350505050565b6060612b4282611924565b6000612b5960408051602081019091526000815290565b90506000815111612b7957604051806020016040528060008152506118dd565b80612b8384613045565b604051602001612b94929190613fb4565b6040516020818303038152906040529392505050565b610cdb8282604051806020016040528060008152506130d8565b60006001600160e01b03198216632483248360e11b14806109ff57506109ff8261310b565b60606109ff6001600160a01b03831660145b60606000612c0a836002613d42565b612c15906002613c34565b67ffffffffffffffff811115612c2d57612c2d613820565b6040519080825280601f01601f191660200182016040528015612c57576020820181803683370190505b509050600360fc1b81600081518110612c7257612c72613d2c565b60200101906001600160f81b031916908160001a905350600f60fb1b81600181518110612ca157612ca1613d2c565b60200101906001600160f81b031916908160001a9053506000612cc5846002613d42565b612cd0906001613c34565b90505b6001811115612d48576f181899199a1a9b1b9c1cb0b131b232b360811b85600f1660108110612d0457612d04613d2c565b1a60f81b828281518110612d1a57612d1a613d2c565b60200101906001600160f81b031916908160001a90535060049490941c93612d4181614100565b9050612cd3565b5083156118dd5760405162461bcd60e51b815260206004820181905260248201527f537472696e67733a20686578206c656e67746820696e73756666696369656e746044820152606401610a65565b6001811115612e065760405162461bcd60e51b815260206004820152603560248201527f455243373231456e756d657261626c653a20636f6e7365637574697665207472604482015274185b9cd9995c9cc81b9bdd081cdd5c1c1bdc9d1959605a1b6064820152608401610a65565b816001600160a01b038516612e6457612e5f816101938054600083815261019460205260408120829055600182018355919091527ffc8af01f449989052b52093a58fc9f42d0b11f0c6dd5dca0463dab62346ccc680155565b612e87565b836001600160a01b0316856001600160a01b031614612e8757612e878582613130565b6001600160a01b038416612ea357612e9e816131d2565b612ec6565b846001600160a01b0316846001600160a01b031614612ec657612ec68482613287565b5050505050565b612ed6816127e1565b6040516001600160a01b038216907fbc7cd75a20ee27fd9adebab32041f755214dbc6bffa90cc0225b39da2e5c2d3b90600090a250565b60606118dd83836040518060600160405280602781526020016141aa602791396132cd565b6000612f3d82611173565b9050612f4d81600084600161261b565b612f5682611173565b600083815260ff6020908152604080832080546001600160a01b03199081169091556001600160a01b03851680855260fe8452828520805460001901905587855260fd909352818420805490911690555192935084927fddf252ad1be2c89b69c2b068fc378daa952ba7f163c4a11628f55a4df523b3ef908390a45050565b600054610100900460ff16612ffc5760405162461bcd60e51b8152600401610a6590613f17565b6112c733612078565b600054610100900460ff1661302c5760405162461bcd60e51b8152600401610a6590613f17565b60fb6130388382613df9565b5060fc610c438282613df9565b6060600061305283613345565b600101905060008167ffffffffffffffff81111561307257613072613820565b6040519080825280601f01601f19166020018201604052801561309c576020820181803683370190505b5090508181016020015b600019016f181899199a1a9b1b9c1cb0b131b232b360811b600a86061a8153600a85049450846130a657509392505050565b6130e2838361341d565b6130ef6000848484612a36565b610c435760405162461bcd60e51b8152600401610a6590613f62565b60006001600160e01b0319821663780e9d6360e01b14806109ff57506109ff826135b6565b6000600161313d8461122f565b6131479190613d98565b6000838152610192602052604090205490915080821461319d576001600160a01b038416600090815261019160209081526040808320858452825280832054848452818420819055835261019290915290208190555b506000918252610192602090815260408084208490556001600160a01b03909416835261019181528383209183525290812055565b610193546000906131e590600190613d98565b60008381526101946020526040812054610193805493945090928490811061320f5761320f613d2c565b9060005260206000200154905080610193838154811061323157613231613d2c565b6000918252602080832090910192909255828152610194909152604080822084905585825281205561019380548061326b5761326b614117565b6001900381819060005260206000200160009055905550505050565b60006132928361122f565b6001600160a01b0390931660009081526101916020908152604080832086845282528083208590559382526101929052919091209190915550565b6060600080856001600160a01b0316856040516132ea919061412d565b600060405180830381855af49150503d8060008114613325576040519150601f19603f3d011682016040523d82523d6000602084013e61332a565b606091505b509150915061333b86838387613606565b9695505050505050565b60008072184f03e93ff9f4daa797ed6e38ed64bf6a1f0160401b83106133845772184f03e93ff9f4daa797ed6e38ed64bf6a1f0160401b830492506040015b6d04ee2d6d415b85acef810000000083106133b0576d04ee2d6d415b85acef8100000000830492506020015b662386f26fc1000083106133ce57662386f26fc10000830492506010015b6305f5e10083106133e6576305f5e100830492506008015b61271083106133fa57612710830492506004015b6064831061340c576064830492506002015b600a83106109ff5760010192915050565b6001600160a01b0382166134735760405162461bcd60e51b815260206004820181905260248201527f4552433732313a206d696e7420746f20746865207a65726f20616464726573736044820152606401610a65565b600081815260fd60205260409020546001600160a01b0316156134d85760405162461bcd60e51b815260206004820152601c60248201527f4552433732313a20746f6b656e20616c7265616479206d696e746564000000006044820152606401610a65565b6134e660008383600161261b565b600081815260fd60205260409020546001600160a01b03161561354b5760405162461bcd60e51b815260206004820152601c60248201527f4552433732313a20746f6b656e20616c7265616479206d696e746564000000006044820152606401610a65565b6001600160a01b038216600081815260fe602090815260408083208054600101905584835260fd90915280822080546001600160a01b0319168417905551839291907fddf252ad1be2c89b69c2b068fc378daa952ba7f163c4a11628f55a4df523b3ef908290a45050565b60006001600160e01b031982166380ac58cd60e01b14806135e757506001600160e01b03198216635b5e139f60e01b145b806109ff57506301ffc9a760e01b6001600160e01b03198316146109ff565b6060831561367557825160000361366e576001600160a01b0385163b61366e5760405162461bcd60e51b815260206004820152601d60248201527f416464726573733a2063616c6c20746f206e6f6e2d636f6e74726163740000006044820152606401610a65565b5081611ba3565b611ba3838381511561368a5781518083602001fd5b8060405162461bcd60e51b8152600401610a6591906137cc565b5080546136b090613be4565b6000825580601f106136c0575050565b601f0160209004906000526020600020908101906105c691905b808211156136ee57600081556001016136da565b5090565b6001600160e01b0319811681146105c657600080fd5b60006020828403121561371a57600080fd5b81356118dd816136f2565b60006020828403121561373757600080fd5b5035919050565b634e487b7160e01b600052602160045260246000fd5b602081016004831061377657634e487b7160e01b600052602160045260246000fd5b91905290565b60005b8381101561379757818101518382015260200161377f565b50506000910152565b600081518084526137b881602086016020860161377c565b601f01601f19169290920160200192915050565b6020815260006118dd60208301846137a0565b6001600160a01b03811681146105c657600080fd5b6000806040838503121561380757600080fd5b8235613812816137df565b946020939093013593505050565b634e487b7160e01b600052604160045260246000fd5b600082601f83011261384757600080fd5b813567ffffffffffffffff8082111561386257613862613820565b604051601f8301601f19908116603f0116810190828211818310171561388a5761388a613820565b816040528381528660208588010111156138a357600080fd5b836020870160208301376000602085830101528094505050505092915050565b600080604083850312156138d657600080fd5b823567ffffffffffffffff8111156138ed57600080fd5b6138f985828601613836565b95602094909401359450505050565b60008060006060848603121561391d57600080fd5b8335613928816137df565b92506020840135613938816137df565b929592945050506040919091013590565b6000806040838503121561395c57600080fd5b82359150602083013561396e816137df565b809150509250929050565b60006020828403121561398b57600080fd5b81356118dd816137df565b6000608082840312156139a857600080fd5b6040516080810181811067ffffffffffffffff821117156139cb576139cb613820565b8060405250823581526020830135602082015260408301356139ec816137df565b60408201526060928301359281019290925250919050565b60008060408385031215613a1757600080fd5b8235613a22816137df565b9150602083013567ffffffffffffffff811115613a3e57600080fd5b613a4a85828601613836565b9150509250929050565b600080600060608486031215613a6957600080fd5b505081359360208301359350604090920135919050565b80151581146105c657600080fd5b60008060408385031215613aa157600080fd5b8235613aac816137df565b9150602083013561396e81613a80565b60008060008060808587031215613ad257600080fd5b8435613add816137df565b93506020850135613aed816137df565b925060408501359150606085013567ffffffffffffffff811115613b1057600080fd5b613b1c87828801613836565b91505092959194509250565b600060208284031215613b3a57600080fd5b813567ffffffffffffffff811115613b5157600080fd5b611ba384828501613836565b60008060408385031215613b7057600080fd5b8235613b7b816137df565b9150602083013561396e816137df565b600080600060608486031215613ba057600080fd5b8335613bab816137df565b9250602084013567ffffffffffffffff811115613bc757600080fd5b613bd386828701613836565b925050604084013590509250925092565b600181811c90821680613bf857607f821691505b602082108103613c1857634e487b7160e01b600052602260045260246000fd5b50919050565b634e487b7160e01b600052601160045260246000fd5b808201808211156109ff576109ff613c1e565b6020808252602d908201527f4552433732313a2063616c6c6572206973206e6f7420746f6b656e206f776e6560408201526c1c881bdc88185c1c1c9bdd9959609a1b606082015260800190565b6020808252602c908201527f46756e6374696f6e206d7573742062652063616c6c6564207468726f7567682060408201526b19195b1959d85d1958d85b1b60a21b606082015260800190565b6020808252602c908201527f46756e6374696f6e206d7573742062652063616c6c6564207468726f7567682060408201526b6163746976652070726f787960a01b606082015260800190565b634e487b7160e01b600052603260045260246000fd5b80820281158282048414176109ff576109ff613c1e565b600082613d7657634e487b7160e01b600052601260045260246000fd5b500490565b600060208284031215613d8d57600080fd5b81516118dd81613a80565b818103818111156109ff576109ff613c1e565b601f821115610c4357600081815260208120601f850160051c81016020861015613dd25750805b601f850160051c820191505b81811015613df157828155600101613dde565b505050505050565b815167ffffffffffffffff811115613e1357613e13613820565b613e2781613e218454613be4565b84613dab565b602080601f831160018114613e5c5760008415613e445750858301515b600019600386901b1c1916600185901b178555613df1565b600085815260208120601f198616915b82811015613e8b57888601518255948401946001909101908401613e6c565b5085821015613ea95787850151600019600388901b60f8161c191681555b5050505050600190811b01905550565b60208082526025908201527f4552433732313a207472616e736665722066726f6d20696e636f72726563742060408201526437bbb732b960d91b606082015260800190565b600060208284031215613f1057600080fd5b5051919050565b6020808252602b908201527f496e697469616c697a61626c653a20636f6e7472616374206973206e6f74206960408201526a6e697469616c697a696e6760a81b606082015260800190565b60208082526032908201527f4552433732313a207472616e7366657220746f206e6f6e20455243373231526560408201527131b2b4bb32b91034b6b83632b6b2b73a32b960711b606082015260800190565b60008351613fc681846020880161377c565b835190830190613fda81836020880161377c565b01949350505050565b600061ffff808316818103613ffa57613ffa613c1e565b6001019392505050565b7f416363657373436f6e74726f6c3a206163636f756e742000000000000000000081526000835161403c81601785016020880161377c565b7001034b99036b4b9b9b4b733903937b6329607d1b601791840191820152835161406d81602884016020880161377c565b01602801949350505050565b6020808252601d908201527f455243353438343a2063616e2774206265207472616e73666572726564000000604082015260600190565b6001600160a01b038581168252841660208201526040810183905260806060820181905260009061333b908301846137a0565b6000602082840312156140f557600080fd5b81516118dd816136f2565b60008161410f5761410f613c1e565b506000190190565b634e487b7160e01b600052603160045260246000fd5b6000825161413f81846020870161377c565b919091019291505056fe3c11d16cbaffd01df69ce1c404f6340ee057498f5f00246190ea54220576a848360894a13ba1a3210667c828492db98dca3e2076cc3735a920a3ca505d382bbcbb788f92e65e1a823e2c502bc4e7f9c3e55531bd56bfc7c0a895fb3ac9eb7716416464726573733a206c6f772d6c6576656c2064656c65676174652063616c6c206661696c65649f2df0fed2c77648de5860a4cc508cd0818c85b8b8a1ab4ceeef8d981c8956a6a2646970667358221220b9b256b52b2070f0354c2eae94d67ab240dbaf732f6417c448f0ebf9129f9cc164736f6c63430008130033",
  "devdoc": {
    "events": {
      "AdminChanged(address,address)": {
        "details": "Emitted when the admin account has changed."
      },
      "Approval(address,address,uint256)": {
        "details": "Emitted when `owner` enables `approved` to manage the `tokenId` token."
      },
      "ApprovalForAll(address,address,bool)": {
        "details": "Emitted when `owner` enables or disables (`approved`) `operator` to manage all of its assets."
      },
      "BatchMetadataUpdate(uint256,uint256)": {
        "details": "This event emits when the metadata of a range of tokens is changed. So that the third-party platforms such as NFT market could timely update the images and related attributes of the NFTs."
      },
      "BeaconUpgraded(address)": {
        "details": "Emitted when the beacon is changed."
      },
      "FounderAdded(address,uint256,uint256,uint256,uint256)": {
        "params": {
          "founder": "Address of the founder.",
          "nextTokenPrice": "Price of the next token.",
          "nextTokenPriceMultiplier": "Next token price multiplier in percents.",
          "requiredPrice": "Required price for the token.",
          "tokenPrice": "Price of the token."
        }
      },
      "Initialized(uint8)": {
        "details": "Triggered when the contract has been initialized or reinitialized."
      },
      "Issued(address,address,uint256,uint8)": {
        "details": "This emit is an add-on to nft's transfer emit in order to distinguish sbt from vanilla nft while providing backward compatibility.",
        "params": {
          "from": "The issuer",
          "to": "The receiver",
          "tokenId": "The id of the issued token"
        }
      },
      "MetadataUpdate(uint256)": {
        "details": "This event emits when the metadata of a token is changed. So that the third-party platforms such as NFT market could timely update the images and related attributes of the NFT."
      },
      "RoleAdminChanged(bytes32,bytes32,bytes32)": {
        "details": "Emitted when `newAdminRole` is set as ``role``'s admin role, replacing `previousAdminRole` `DEFAULT_ADMIN_ROLE` is the starting admin for all roles, despite {RoleAdminChanged} not being emitted signaling this. _Available since v3.1._"
      },
      "RoleGranted(bytes32,address,address)": {
        "details": "Emitted when `account` is granted `role`. `sender` is the account that originated the contract call, an admin role bearer except when using {AccessControl-_setupRole}."
      },
      "RoleRevoked(bytes32,address,address)": {
        "details": "Emitted when `account` is revoked `role`. `sender` is the account that originated the contract call:   - if using `revokeRole`, it is the admin role bearer   - if using `renounceRole`, it is the role bearer (i.e. `account`)"
      },
      "Transfer(address,address,uint256)": {
        "details": "Emitted when `tokenId` token is transferred from `from` to `to`."
      },
      "Upgraded(address)": {
        "details": "Emitted when the implementation is upgraded."
      }
    },
    "kind": "dev",
    "methods": {
      "approve(address,uint256)": {
        "details": "See {IERC721-approve}."
      },
      "balanceOf(address)": {
        "details": "See {IERC721-balanceOf}."
      },
      "burn(uint256)": {
        "details": "Burns `tokenId`. See {ERC721-_burn}."
      },
      "burnAuth(uint256)": {
        "details": "unassigned tokenIds are invalid, and queries do throw",
        "params": {
          "tokenId": "The identifier for a token."
        }
      },
      "claimReward()": {
        "details": "claim reward for token owner"
      },
      "constructor": {
        "custom:oz-upgrades-unsafe-allow": "constructor"
      },
      "depositReward(uint256)": {
        "details": "deposit reward to the contract to be claimed by token owners",
        "params": {
          "plusReward": "amount of reward to be deposited"
        }
      },
      "getApproved(uint256)": {
        "details": "See {IERC721-getApproved}."
      },
      "getRoleAdmin(bytes32)": {
        "details": "Returns the admin role that controls `role`. See {grantRole} and {revokeRole}. To change a role's admin, use {_setRoleAdmin}."
      },
      "grantRole(bytes32,address)": {
        "details": "Grants `role` to `account`. If `account` had not been already granted `role`, emits a {RoleGranted} event. Requirements: - the caller must have ``role``'s admin role. May emit a {RoleGranted} event."
      },
      "hasRole(bytes32,address)": {
        "details": "Returns `true` if `account` has been granted `role`."
      },
      "isApprovedForAll(address,address)": {
        "details": "See {IERC721-isApprovedForAll}."
      },
      "name()": {
        "details": "See {IERC721Metadata-name}."
      },
      "owner()": {
        "details": "Returns the address of the current owner."
      },
      "ownerOf(uint256)": {
        "details": "See {IERC721-ownerOf}."
      },
      "proxiableUUID()": {
        "details": "Implementation of the ERC1822 {proxiableUUID} function. This returns the storage slot used by the implementation. It is used to validate the implementation's compatibility when performing an upgrade. IMPORTANT: A proxy pointing at a proxiable contract should not be considered proxiable itself, because this risks bricking a proxy that upgrades to it, by delegating to itself until out of gas. Thus it is critical that this function revert if invoked through a proxy. This is guaranteed by the `notDelegated` modifier."
      },
      "renounceOwnership()": {
        "details": "Leaves the contract without owner. It will not be possible to call `onlyOwner` functions. Can only be called by the current owner. NOTE: Renouncing ownership will leave the contract without an owner, thereby disabling any functionality that is only available to the owner."
      },
      "renounceRole(bytes32,address)": {
        "details": "Revokes `role` from the calling account. Roles are often managed via {grantRole} and {revokeRole}: this function's purpose is to provide a mechanism for accounts to lose their privileges if they are compromised (such as when a trusted device is misplaced). If the calling account had been revoked `role`, emits a {RoleRevoked} event. Requirements: - the caller must be `account`. May emit a {RoleRevoked} event."
      },
      "revokeRole(bytes32,address)": {
        "details": "Revokes `role` from `account`. If `account` had been granted `role`, emits a {RoleRevoked} event. Requirements: - the caller must have ``role``'s admin role. May emit a {RoleRevoked} event."
      },
      "safeTransferFrom(address,address,uint256)": {
        "details": "See {IERC721-safeTransferFrom}."
      },
      "safeTransferFrom(address,address,uint256,bytes)": {
        "details": "See {IERC721-safeTransferFrom}."
      },
      "setApprovalForAll(address,bool)": {
        "details": "See {IERC721-setApprovalForAll}."
      },
      "setNextTokenMultiplier(uint256)": {
        "details": "set multiplicator for the next token in percents in case nextTokenPriceMultiplier_ = 13_000 the next price of the token will be: curPrice * 130%",
        "params": {
          "nextTokenPriceMultiplier_": "persent multiplicator"
        }
      },
      "setTokenURI(string)": {
        "details": "set token metadata uri can be used as utility method and custom logic on front-end"
      },
      "setTokenURI(string,uint256)": {
        "details": "set token metadata uri can be used as utility method and custom logic on front-end by owner of the contract in case of end user has a wrong uri or somebody corrupted it"
      },
      "setVault(address)": {
        "details": "set vault"
      },
      "supportsInterface(bytes4)": {
        "details": "See {IERC165-supportsInterface}."
      },
      "symbol()": {
        "details": "See {IERC721Metadata-symbol}."
      },
      "tokenByIndex(uint256)": {
        "details": "See {IERC721Enumerable-tokenByIndex}."
      },
      "tokenOfOwnerByIndex(address,uint256)": {
        "details": "See {IERC721Enumerable-tokenOfOwnerByIndex}."
      },
      "tokenURI(uint256)": {
        "details": "See {IERC721Metadata-tokenURI}."
      },
      "totalSupply()": {
        "details": "See {IERC721Enumerable-totalSupply}."
      },
      "transferFrom(address,address,uint256)": {
        "details": "See {IERC721-transferFrom}."
      },
      "transferOwnership(address)": {
        "details": "Transfers ownership of the contract to a new account (`newOwner`). Can only be called by the current owner."
      },
      "tryToMint(address,string,uint256)": {
        "details": "function for mint new SBT token",
        "params": {
          "amount": "holder balance, used as token price",
          "to": "address of user who will receive token",
          "uri": "token metadata uri"
        },
        "returns": {
          "_0": "true if token was minted"
        }
      },
      "upgradeTo(address)": {
        "custom:oz-upgrades-unsafe-allow-reachable": "delegatecall",
        "details": "Upgrade the implementation of the proxy to `newImplementation`. Calls {_authorizeUpgrade}. Emits an {Upgraded} event."
      },
      "upgradeToAndCall(address,bytes)": {
        "custom:oz-upgrades-unsafe-allow-reachable": "delegatecall",
        "details": "Upgrade the implementation of the proxy to `newImplementation`, and subsequently execute the function call encoded in `data`. Calls {_authorizeUpgrade}. Emits an {Upgraded} event."
      },
      "version()": {
        "returns": {
          "_0": "a version in semantic versioning format"
        }
      }
    },
    "stateVariables": {
      "__gap": {
        "details": "This empty reserved space is put in place to allow future versions to add new variables without shifting down storage in the inheritance chain. See https://docs.openzeppelin.com/contracts/4.x/upgradeable#storage_gaps"
      },
      "nextTokenPrice": {
        "details": "return price for the next token"
      }
    },
    "version": 1
  },
  "userdoc": {
    "events": {
      "FounderAdded(address,uint256,uint256,uint256,uint256)": {
        "notice": "Emit when new token minted and token price updated."
      },
      "Issued(address,address,uint256,uint8)": {
        "notice": "Emitted when a soulbound token is issued."
      },
      "OwnerAdded(address,uint256)": {
        "notice": "Emitted when a new owner is added"
      },
      "RewardClaimed(uint256,address)": {
        "notice": "Emitted reward is claimed by a token owner"
      },
      "RewardDeposited(address,uint256)": {
        "notice": "Emitted when new rewards are deposited"
      }
    },
    "kind": "user",
    "methods": {
      "burnAuth(uint256)": {
        "notice": "provides burn authorization of the token id."
      },
      "depositReward(uint256)": {
        "notice": "only role with BALANCE_UPDATER_ROLE can call this function"
      },
      "rewardIndex()": {
        "notice": "Accumulator of the total earned interest rate since the opening of the token"
      },
      "rewardOwnerIndex(address)": {
        "notice": "The owners' reward indexes for eachas of the last time they accrued"
      },
      "setVault(address)": {
        "notice": "that is mandatory to be set before reward can be claimed"
      },
      "version()": {
        "notice": "Returns the current version of this contract"
      }
    },
    "version": 1
  },
  "storageLayout": {
    "storage": [
      {
        "astId": 986,
        "contract": "src/tokens/VaultFounderToken.sol:VaultFounderToken",
        "label": "_initialized",
        "offset": 0,
        "slot": "0",
        "type": "t_uint8"
      },
      {
        "astId": 989,
        "contract": "src/tokens/VaultFounderToken.sol:VaultFounderToken",
        "label": "_initializing",
        "offset": 1,
        "slot": "0",
        "type": "t_bool"
      },
      {
        "astId": 968,
        "contract": "src/tokens/VaultFounderToken.sol:VaultFounderToken",
        "label": "__gap",
        "offset": 0,
        "slot": "1",
        "type": "t_array(t_uint256)50_storage"
      },
      {
        "astId": 1283,
        "contract": "src/tokens/VaultFounderToken.sol:VaultFounderToken",
        "label": "__gap",
        "offset": 0,
        "slot": "51",
        "type": "t_array(t_uint256)50_storage"
      },
      {
        "astId": 17224,
        "contract": "src/tokens/VaultFounderToken.sol:VaultFounderToken",
        "label": "__gap",
        "offset": 0,
        "slot": "101",
        "type": "t_array(t_uint256)50_storage"
      },
      {
        "astId": 5398,
        "contract": "src/tokens/VaultFounderToken.sol:VaultFounderToken",
        "label": "__gap",
        "offset": 0,
        "slot": "151",
        "type": "t_array(t_uint256)50_storage"
      },
      {
        "astId": 5855,
        "contract": "src/tokens/VaultFounderToken.sol:VaultFounderToken",
        "label": "__gap",
        "offset": 0,
        "slot": "201",
        "type": "t_array(t_uint256)50_storage"
      },
      {
        "astId": 2039,
        "contract": "src/tokens/VaultFounderToken.sol:VaultFounderToken",
        "label": "_name",
        "offset": 0,
        "slot": "251",
        "type": "t_string_storage"
      },
      {
        "astId": 2041,
        "contract": "src/tokens/VaultFounderToken.sol:VaultFounderToken",
        "label": "_symbol",
        "offset": 0,
        "slot": "252",
        "type": "t_string_storage"
      },
      {
        "astId": 2045,
        "contract": "src/tokens/VaultFounderToken.sol:VaultFounderToken",
        "label": "_owners",
        "offset": 0,
        "slot": "253",
        "type": "t_mapping(t_uint256,t_address)"
      },
      {
        "astId": 2049,
        "contract": "src/tokens/VaultFounderToken.sol:VaultFounderToken",
        "label": "_balances",
        "offset": 0,
        "slot": "254",
        "type": "t_mapping(t_address,t_uint256)"
      },
      {
        "astId": 2053,
        "contract": "src/tokens/VaultFounderToken.sol:VaultFounderToken",
        "label": "_tokenApprovals",
        "offset": 0,
        "slot": "255",
        "type": "t_mapping(t_uint256,t_address)"
      },
      {
        "astId": 2059,
        "contract": "src/tokens/VaultFounderToken.sol:VaultFounderToken",
        "label": "_operatorApprovals",
        "offset": 0,
        "slot": "256",
        "type": "t_mapping(t_address,t_mapping(t_address,t_bool))"
      },
      {
        "astId": 2961,
        "contract": "src/tokens/VaultFounderToken.sol:VaultFounderToken",
        "label": "__gap",
        "offset": 0,
        "slot": "257",
        "type": "t_array(t_uint256)44_storage"
      },
      {
        "astId": 465,
        "contract": "src/tokens/VaultFounderToken.sol:VaultFounderToken",
        "label": "_owner",
        "offset": 0,
        "slot": "301",
        "type": "t_address"
      },
      {
        "astId": 585,
        "contract": "src/tokens/VaultFounderToken.sol:VaultFounderToken",
        "label": "__gap",
        "offset": 0,
        "slot": "302",
        "type": "t_array(t_uint256)49_storage"
      },
      {
        "astId": 17258,
        "contract": "src/tokens/VaultFounderToken.sol:VaultFounderToken",
        "label": "__gap",
        "offset": 0,
        "slot": "351",
        "type": "t_array(t_uint256)50_storage"
      },
      {
        "astId": 3126,
        "contract": "src/tokens/VaultFounderToken.sol:VaultFounderToken",
        "label": "_ownedTokens",
        "offset": 0,
        "slot": "401",
        "type": "t_mapping(t_address,t_mapping(t_uint256,t_uint256))"
      },
      {
        "astId": 3130,
        "contract": "src/tokens/VaultFounderToken.sol:VaultFounderToken",
        "label": "_ownedTokensIndex",
        "offset": 0,
        "slot": "402",
        "type": "t_mapping(t_uint256,t_uint256)"
      },
      {
        "astId": 3133,
        "contract": "src/tokens/VaultFounderToken.sol:VaultFounderToken",
        "label": "_allTokens",
        "offset": 0,
        "slot": "403",
        "type": "t_array(t_uint256)dyn_storage"
      },
      {
        "astId": 3137,
        "contract": "src/tokens/VaultFounderToken.sol:VaultFounderToken",
        "label": "_allTokensIndex",
        "offset": 0,
        "slot": "404",
        "type": "t_mapping(t_uint256,t_uint256)"
      },
      {
        "astId": 3469,
        "contract": "src/tokens/VaultFounderToken.sol:VaultFounderToken",
        "label": "__gap",
        "offset": 0,
        "slot": "405",
        "type": "t_array(t_uint256)46_storage"
      },
      {
        "astId": 3501,
        "contract": "src/tokens/VaultFounderToken.sol:VaultFounderToken",
        "label": "_tokenURIs",
        "offset": 0,
        "slot": "451",
        "type": "t_mapping(t_uint256,t_string_storage)"
      },
      {
        "astId": 3645,
        "contract": "src/tokens/VaultFounderToken.sol:VaultFounderToken",
        "label": "__gap",
        "offset": 0,
        "slot": "452",
        "type": "t_array(t_uint256)49_storage"
      },
      {
        "astId": 85,
        "contract": "src/tokens/VaultFounderToken.sol:VaultFounderToken",
        "label": "_roles",
        "offset": 0,
        "slot": "501",
        "type": "t_mapping(t_bytes32,t_struct(RoleData)80_storage)"
      },
      {
        "astId": 380,
        "contract": "src/tokens/VaultFounderToken.sol:VaultFounderToken",
        "label": "__gap",
        "offset": 0,
        "slot": "502",
        "type": "t_array(t_uint256)49_storage"
      },
      {
        "astId": 15660,
        "contract": "src/tokens/VaultFounderToken.sol:VaultFounderToken",
        "label": "_tokenIdCounter",
        "offset": 0,
        "slot": "551",
        "type": "t_struct(Counter)5405_storage"
      },
      {
        "astId": 15664,
        "contract": "src/tokens/VaultFounderToken.sol:VaultFounderToken",
        "label": "_burnAuth",
        "offset": 0,
        "slot": "552",
        "type": "t_enum(BurnAuth)16240"
      },
      {
        "astId": 15667,
        "contract": "src/tokens/VaultFounderToken.sol:VaultFounderToken",
        "label": "_mintOnce",
        "offset": 1,
        "slot": "552",
        "type": "t_bool"
      },
      {
        "astId": 15672,
        "contract": "src/tokens/VaultFounderToken.sol:VaultFounderToken",
        "label": "__gap",
        "offset": 0,
        "slot": "553",
        "type": "t_array(t_uint256)50_storage"
      },
      {
        "astId": 1425,
        "contract": "src/tokens/VaultFounderToken.sol:VaultFounderToken",
        "label": "_status",
        "offset": 0,
        "slot": "603",
        "type": "t_uint256"
      },
      {
        "astId": 1494,
        "contract": "src/tokens/VaultFounderToken.sol:VaultFounderToken",
        "label": "__gap",
        "offset": 0,
        "slot": "604",
        "type": "t_array(t_uint256)49_storage"
      },
      {
        "astId": 16373,
        "contract": "src/tokens/VaultFounderToken.sol:VaultFounderToken",
        "label": "rewardIndex",
        "offset": 0,
        "slot": "653",
        "type": "t_uint256"
      },
      {
        "astId": 16378,
        "contract": "src/tokens/VaultFounderToken.sol:VaultFounderToken",
        "label": "rewardOwnerIndex",
        "offset": 0,
        "slot": "654",
        "type": "t_mapping(t_address,t_uint256)"
      },
      {
        "astId": 16381,
        "contract": "src/tokens/VaultFounderToken.sol:VaultFounderToken",
        "label": "numberCoins",
        "offset": 0,
        "slot": "655",
        "type": "t_uint16"
      },
      {
        "astId": 16384,
        "contract": "src/tokens/VaultFounderToken.sol:VaultFounderToken",
        "label": "vault",
        "offset": 2,
        "slot": "655",
        "type": "t_contract(Vault)9991"
      },
      {
        "astId": 16389,
        "contract": "src/tokens/VaultFounderToken.sol:VaultFounderToken",
        "label": "__gap",
        "offset": 0,
        "slot": "656",
        "type": "t_array(t_uint256)50_storage"
      },
      {
        "astId": 16891,
        "contract": "src/tokens/VaultFounderToken.sol:VaultFounderToken",
        "label": "maxCountTokens",
        "offset": 0,
        "slot": "706",
        "type": "t_uint256"
      },
      {
        "astId": 16893,
        "contract": "src/tokens/VaultFounderToken.sol:VaultFounderToken",
        "label": "nextTokenPriceMultiplier",
        "offset": 0,
        "slot": "707",
        "type": "t_uint256"
      },
      {
        "astId": 16896,
        "contract": "src/tokens/VaultFounderToken.sol:VaultFounderToken",
        "label": "nextTokenPrice",
        "offset": 0,
        "slot": "708",
        "type": "t_uint256"
      },
      {
        "astId": 16901,
        "contract": "src/tokens/VaultFounderToken.sol:VaultFounderToken",
        "label": "__gap",
        "offset": 0,
        "slot": "709",
        "type": "t_array(t_uint256)50_storage"
      }
    ],
    "types": {
      "t_address": {
        "encoding": "inplace",
        "label": "address",
        "numberOfBytes": "20"
      },
      "t_array(t_uint256)44_storage": {
        "base": "t_uint256",
        "encoding": "inplace",
        "label": "uint256[44]",
        "numberOfBytes": "1408"
      },
      "t_array(t_uint256)46_storage": {
        "base": "t_uint256",
        "encoding": "inplace",
        "label": "uint256[46]",
        "numberOfBytes": "1472"
      },
      "t_array(t_uint256)49_storage": {
        "base": "t_uint256",
        "encoding": "inplace",
        "label": "uint256[49]",
        "numberOfBytes": "1568"
      },
      "t_array(t_uint256)50_storage": {
        "base": "t_uint256",
        "encoding": "inplace",
        "label": "uint256[50]",
        "numberOfBytes": "1600"
      },
      "t_array(t_uint256)dyn_storage": {
        "base": "t_uint256",
        "encoding": "dynamic_array",
        "label": "uint256[]",
        "numberOfBytes": "32"
      },
      "t_bool": {
        "encoding": "inplace",
        "label": "bool",
        "numberOfBytes": "1"
      },
      "t_bytes32": {
        "encoding": "inplace",
        "label": "bytes32",
        "numberOfBytes": "32"
      },
      "t_contract(Vault)9991": {
        "encoding": "inplace",
        "label": "contract Vault",
        "numberOfBytes": "20"
      },
      "t_enum(BurnAuth)16240": {
        "encoding": "inplace",
        "label": "enum IERC5484.BurnAuth",
        "numberOfBytes": "1"
      },
      "t_mapping(t_address,t_bool)": {
        "encoding": "mapping",
        "key": "t_address",
        "label": "mapping(address => bool)",
        "numberOfBytes": "32",
        "value": "t_bool"
      },
      "t_mapping(t_address,t_mapping(t_address,t_bool))": {
        "encoding": "mapping",
        "key": "t_address",
        "label": "mapping(address => mapping(address => bool))",
        "numberOfBytes": "32",
        "value": "t_mapping(t_address,t_bool)"
      },
      "t_mapping(t_address,t_mapping(t_uint256,t_uint256))": {
        "encoding": "mapping",
        "key": "t_address",
        "label": "mapping(address => mapping(uint256 => uint256))",
        "numberOfBytes": "32",
        "value": "t_mapping(t_uint256,t_uint256)"
      },
      "t_mapping(t_address,t_uint256)": {
        "encoding": "mapping",
        "key": "t_address",
        "label": "mapping(address => uint256)",
        "numberOfBytes": "32",
        "value": "t_uint256"
      },
      "t_mapping(t_bytes32,t_struct(RoleData)80_storage)": {
        "encoding": "mapping",
        "key": "t_bytes32",
        "label": "mapping(bytes32 => struct AccessControlUpgradeable.RoleData)",
        "numberOfBytes": "32",
        "value": "t_struct(RoleData)80_storage"
      },
      "t_mapping(t_uint256,t_address)": {
        "encoding": "mapping",
        "key": "t_uint256",
        "label": "mapping(uint256 => address)",
        "numberOfBytes": "32",
        "value": "t_address"
      },
      "t_mapping(t_uint256,t_string_storage)": {
        "encoding": "mapping",
        "key": "t_uint256",
        "label": "mapping(uint256 => string)",
        "numberOfBytes": "32",
        "value": "t_string_storage"
      },
      "t_mapping(t_uint256,t_uint256)": {
        "encoding": "mapping",
        "key": "t_uint256",
        "label": "mapping(uint256 => uint256)",
        "numberOfBytes": "32",
        "value": "t_uint256"
      },
      "t_string_storage": {
        "encoding": "bytes",
        "label": "string",
        "numberOfBytes": "32"
      },
      "t_struct(Counter)5405_storage": {
        "encoding": "inplace",
        "label": "struct CountersUpgradeable.Counter",
        "members": [
          {
            "astId": 5404,
            "contract": "src/tokens/VaultFounderToken.sol:VaultFounderToken",
            "label": "_value",
            "offset": 0,
            "slot": "0",
            "type": "t_uint256"
          }
        ],
        "numberOfBytes": "32"
      },
      "t_struct(RoleData)80_storage": {
        "encoding": "inplace",
        "label": "struct AccessControlUpgradeable.RoleData",
        "members": [
          {
            "astId": 77,
            "contract": "src/tokens/VaultFounderToken.sol:VaultFounderToken",
            "label": "members",
            "offset": 0,
            "slot": "0",
            "type": "t_mapping(t_address,t_bool)"
          },
          {
            "astId": 79,
            "contract": "src/tokens/VaultFounderToken.sol:VaultFounderToken",
            "label": "adminRole",
            "offset": 0,
            "slot": "1",
            "type": "t_bytes32"
          }
        ],
        "numberOfBytes": "64"
      },
      "t_uint16": {
        "encoding": "inplace",
        "label": "uint16",
        "numberOfBytes": "2"
      },
      "t_uint256": {
        "encoding": "inplace",
        "label": "uint256",
        "numberOfBytes": "32"
      },
      "t_uint8": {
        "encoding": "inplace",
        "label": "uint8",
        "numberOfBytes": "1"
      }
    }
  }
}