{
  "address": "0xc3e8AD67C9B1EB8A764B4Df71b366EFdf1c1B959",
  "abi": [
    {
      "inputs": [],
      "name": "CannotWorkNow",
      "type": "error"
    },
    {
      "inputs": [],
      "name": "PaybleWorkNotAllowed",
      "type": "error"
    },
    {
      "inputs": [
        {
          "internalType": "uint256",
          "name": "_givenTime",
          "type": "uint256"
        }
      ],
      "name": "TimeMinimumBetweenExecutionsIncorrect",
      "type": "error"
    },
    {
      "anonymous": false,
      "inputs": [
        {
          "indexed": false,
          "internalType": "uint8",
          "name": "version",
          "type": "uint8"
        }
      ],
      "name": "Initialized",
      "type": "event"
    },
    {
      "anonymous": false,
      "inputs": [
        {
          "indexed": true,
          "internalType": "address",
          "name": "previousOwner",
          "type": "address"
        },
        {
          "indexed": true,
          "internalType": "address",
          "name": "newOwner",
          "type": "address"
        }
      ],
      "name": "OwnershipTransferred",
      "type": "event"
    },
    {
      "anonymous": false,
      "inputs": [
        {
          "indexed": true,
          "internalType": "address",
          "name": "worker",
          "type": "address"
        }
      ],
      "name": "Worked",
      "type": "event"
    },
    {
      "inputs": [],
      "name": "allowWorkNow",
      "outputs": [],
      "stateMutability": "nonpayable",
      "type": "function"
    },
    {
      "inputs": [],
      "name": "canWork",
      "outputs": [
        {
          "internalType": "bool",
          "name": "",
          "type": "bool"
        }
      ],
      "stateMutability": "view",
      "type": "function"
    },
    {
      "inputs": [],
      "name": "canWorkResult",
      "outputs": [
        {
          "internalType": "bool",
          "name": "",
          "type": "bool"
        }
      ],
      "stateMutability": "view",
      "type": "function"
    },
    {
      "inputs": [],
      "name": "checker",
      "outputs": [
        {
          "internalType": "bool",
          "name": "canExec",
          "type": "bool"
        },
        {
          "internalType": "bytes",
          "name": "execPayload",
          "type": "bytes"
        }
      ],
      "stateMutability": "view",
      "type": "function"
    },
    {
      "inputs": [],
      "name": "gelato",
      "outputs": [
        {
          "internalType": "address payable",
          "name": "",
          "type": "address"
        }
      ],
      "stateMutability": "view",
      "type": "function"
    },
    {
      "inputs": [
        {
          "internalType": "address",
          "name": "_ops",
          "type": "address"
        },
        {
          "internalType": "uint256",
          "name": "_minimumBetweenExecutions",
          "type": "uint256"
        },
        {
          "internalType": "bool",
          "name": "_isPrepayd",
          "type": "bool"
        }
      ],
      "name": "initialize",
      "outputs": [],
      "stateMutability": "nonpayable",
      "type": "function"
    },
    {
      "inputs": [],
      "name": "isPrepayd",
      "outputs": [
        {
          "internalType": "bool",
          "name": "",
          "type": "bool"
        }
      ],
      "stateMutability": "view",
      "type": "function"
    },
    {
      "inputs": [],
      "name": "lastWorkTime",
      "outputs": [
        {
          "internalType": "uint256",
          "name": "",
          "type": "uint256"
        }
      ],
      "stateMutability": "view",
      "type": "function"
    },
    {
      "inputs": [],
      "name": "minimumBetweenExecutions",
      "outputs": [
        {
          "internalType": "uint256",
          "name": "",
          "type": "uint256"
        }
      ],
      "stateMutability": "view",
      "type": "function"
    },
    {
      "inputs": [],
      "name": "ops",
      "outputs": [
        {
          "internalType": "contract IOps",
          "name": "",
          "type": "address"
        }
      ],
      "stateMutability": "view",
      "type": "function"
    },
    {
      "inputs": [],
      "name": "owner",
      "outputs": [
        {
          "internalType": "address",
          "name": "",
          "type": "address"
        }
      ],
      "stateMutability": "view",
      "type": "function"
    },
    {
      "inputs": [],
      "name": "payableWork",
      "outputs": [],
      "stateMutability": "nonpayable",
      "type": "function"
    },
    {
      "inputs": [],
      "name": "renounceOwnership",
      "outputs": [],
      "stateMutability": "nonpayable",
      "type": "function"
    },
    {
      "inputs": [
        {
          "internalType": "bool",
          "name": "_canWorkResult",
          "type": "bool"
        }
      ],
      "name": "setCanWorkResult",
      "outputs": [],
      "stateMutability": "nonpayable",
      "type": "function"
    },
    {
      "inputs": [
        {
          "internalType": "bool",
          "name": "_isPrepayd",
          "type": "bool"
        }
      ],
      "name": "setIsPrepayd",
      "outputs": [],
      "stateMutability": "nonpayable",
      "type": "function"
    },
    {
      "inputs": [
        {
          "internalType": "uint256",
          "name": "_time",
          "type": "uint256"
        }
      ],
      "name": "setMinimumBetweenExecutions",
      "outputs": [],
      "stateMutability": "nonpayable",
      "type": "function"
    },
    {
      "inputs": [],
      "name": "timeFromLastExecution",
      "outputs": [
        {
          "internalType": "uint256",
          "name": "",
          "type": "uint256"
        }
      ],
      "stateMutability": "view",
      "type": "function"
    },
    {
      "inputs": [
        {
          "internalType": "address",
          "name": "newOwner",
          "type": "address"
        }
      ],
      "name": "transferOwnership",
      "outputs": [],
      "stateMutability": "nonpayable",
      "type": "function"
    },
    {
      "inputs": [],
      "name": "work",
      "outputs": [],
      "stateMutability": "nonpayable",
      "type": "function"
    },
    {
      "inputs": [],
      "name": "workMethodCalledCounter",
      "outputs": [
        {
          "internalType": "uint256",
          "name": "",
          "type": "uint256"
        }
      ],
      "stateMutability": "view",
      "type": "function"
    },
    {
      "stateMutability": "payable",
      "type": "receive"
    }
  ],
  "transactionHash": "0xd47da4eafa32e287ea52dd76d1f3178a53cb5f9c92c56c314fbde69308d38282",
  "args": [],
  "numDeployments": 1,
  "solcInputHash": "7972876429fa7de31a880163aa5ac5a0",
  "bytecode": "0x60806040526000609c60006101000a81548160ff02191690831515021790555034801561002b57600080fd5b506121048061003b6000396000f3fe6080604052600436106101235760003560e01c80638da5cb5b116100a0578063cf5303cf11610064578063cf5303cf1461035c578063e70abe9214610388578063eb678214146103b3578063f0bdc772146103de578063f2fde38b146104095761012a565b80638da5cb5b1461028957806391b00bd9146102b4578063990bb4e9146102df578063a37b32991461030a578063a91eadd2146103335761012a565b806347f76df2116100e757806347f76df2146101da57806353c309de14610205578063573ea5751461021c578063635005d614610247578063715018a6146102725761012a565b8063076301721461012f57806312b6cbbf1461014657806330da53c21461016f578063322e9f0414610198578063334e221f146101af5761012a565b3661012a57005b600080fd5b34801561013b57600080fd5b50610144610432565b005b34801561015257600080fd5b5061016d6004803603810190610168919061152a565b610444565b005b34801561017b57600080fd5b50610196600480360381019061019191906115ed565b610458565b005b3480156101a457600080fd5b506101ad6105a4565b005b3480156101bb57600080fd5b506101c461068c565b6040516101d1919061164f565b60405180910390f35b3480156101e657600080fd5b506101ef61069f565b6040516101fc9190611679565b60405180910390f35b34801561021157600080fd5b5061021a6106a5565b005b34801561022857600080fd5b5061023161078e565b60405161023e91906116b5565b60405180910390f35b34801561025357600080fd5b5061025c6107b4565b6040516102699190611679565b60405180910390f35b34801561027e57600080fd5b506102876107ba565b005b34801561029557600080fd5b5061029e6107ce565b6040516102ab91906116df565b60405180910390f35b3480156102c057600080fd5b506102c96107f8565b6040516102d69190611679565b60405180910390f35b3480156102eb57600080fd5b506102f461080d565b604051610301919061164f565b60405180910390f35b34801561031657600080fd5b50610331600480360381019061032c91906116fa565b610820565b005b34801561033f57600080fd5b5061035a600480360381019061035591906116fa565b610845565b005b34801561036857600080fd5b5061037161086a565b60405161037f9291906117c0565b60405180910390f35b34801561039457600080fd5b5061039d61090b565b6040516103aa919061184f565b60405180910390f35b3480156103bf57600080fd5b506103c8610931565b6040516103d5919061164f565b60405180910390f35b3480156103ea57600080fd5b506103f3610953565b6040516104009190611679565b60405180910390f35b34801561041557600080fd5b50610430600480360381019061042b919061186a565b610959565b005b61043a6109dc565b6000606581905550565b61044c6109dc565b61045581610a5a565b50565b60008060019054906101000a900460ff161590508080156104895750600160008054906101000a900460ff1660ff16105b806104b6575061049830610aaa565b1580156104b55750600160008054906101000a900460ff1660ff16145b5b6104f5576040517f08c379a00000000000000000000000000000000000000000000000000000000081526004016104ec9061191a565b60405180910390fd5b60016000806101000a81548160ff021916908360ff1602179055508015610532576001600060016101000a81548160ff0219169083151502179055505b61053d848484610acd565b610545610b45565b801561059e5760008060016101000a81548160ff0219169083151502179055507f7f26b83ff96e1f2b6a682f133852f6798a09c465da95921460cefb384740249860016040516105959190611982565b60405180910390a15b50505050565b6002603354036105e9576040517f08c379a00000000000000000000000000000000000000000000000000000000081526004016105e0906119e9565b60405180910390fd5b60026033819055506105f9610931565b61062f576040517f1ca3d48400000000000000000000000000000000000000000000000000000000815260040160405180910390fd5b610637610b9e565b61063f610ba7565b3373ffffffffffffffffffffffffffffffffffffffff167f8065c96ce68645eb5e1342fb74a5b4646b6712a1bb6a5e86280c1526eca8d25660405160405180910390a26001603381905550565b609c60009054906101000a900460ff1681565b60665481565b606760009054906101000a900473ffffffffffffffffffffffffffffffffffffffff1673ffffffffffffffffffffffffffffffffffffffff163373ffffffffffffffffffffffffffffffffffffffff1614610735576040517f08c379a000000000000000000000000000000000000000000000000000000000815260040161072c90611a55565b60405180910390fd5b606860149054906101000a900460ff161561077c576040517fed54334600000000000000000000000000000000000000000000000000000000815260040160405180910390fd5b6107846105a4565b61078c610bc1565b565b606860009054906101000a900473ffffffffffffffffffffffffffffffffffffffff1681565b60655481565b6107c26109dc565b6107cc6000610ca9565b565b6000606960009054906101000a900473ffffffffffffffffffffffffffffffffffffffff16905090565b6000606554426108089190611aa4565b905090565b606860149054906101000a900460ff1681565b6108286109dc565b80606860146101000a81548160ff02191690831515021790555050565b61084d6109dc565b80609c60006101000a81548160ff02191690831515021790555050565b60006060610876610931565b9150606860149054906101000a900460ff16610899576353c309de60e01b6108a2565b63322e9f0460e01b5b604051602401604051602081830303815290604052907bffffffffffffffffffffffffffffffffffffffffffffffffffffffff19166020820180517bffffffffffffffffffffffffffffffffffffffffffffffffffffffff838183161783525050505090509091565b606760009054906101000a900473ffffffffffffffffffffffffffffffffffffffff1681565b600061093e606654610d6f565b801561094e575061094d610d82565b5b905090565b609b5481565b6109616109dc565b600073ffffffffffffffffffffffffffffffffffffffff168173ffffffffffffffffffffffffffffffffffffffff16036109d0576040517f08c379a00000000000000000000000000000000000000000000000000000000081526004016109c790611b4a565b60405180910390fd5b6109d981610ca9565b50565b6109e4610d99565b73ffffffffffffffffffffffffffffffffffffffff16610a026107ce565b73ffffffffffffffffffffffffffffffffffffffff1614610a58576040517f08c379a0000000000000000000000000000000000000000000000000000000008152600401610a4f90611bb6565b60405180910390fd5b565b6103e88111610aa057806040517f034b4ee1000000000000000000000000000000000000000000000000000000008152600401610a979190611679565b60405180910390fd5b8060668190555050565b6000808273ffffffffffffffffffffffffffffffffffffffff163b119050919050565b600060019054906101000a900460ff16610b1c576040517f08c379a0000000000000000000000000000000000000000000000000000000008152600401610b1390611c48565b60405180910390fd5b610b2583610da1565b610b2e82610f05565b606860149054906101000a900460ff169050505050565b600060019054906101000a900460ff16610b94576040517f08c379a0000000000000000000000000000000000000000000000000000000008152600401610b8b90611c48565b60405180910390fd5b610b9c610f70565b565b42606581905550565b609b6000815480929190610bba90611c68565b9190505550565b600080606760009054906101000a900473ffffffffffffffffffffffffffffffffffffffff1673ffffffffffffffffffffffffffffffffffffffff1663b810c6366040518163ffffffff1660e01b81526004016040805180830381865afa158015610c30573d6000803e3d6000fd5b505050506040513d601f19601f82011682018060405250810190610c549190611cda565b91509150610ca58183606860009054906101000a900473ffffffffffffffffffffffffffffffffffffffff1673ffffffffffffffffffffffffffffffffffffffff16610fd19092919063ffffffff16565b5050565b6000606960009054906101000a900473ffffffffffffffffffffffffffffffffffffffff16905081606960006101000a81548173ffffffffffffffffffffffffffffffffffffffff021916908373ffffffffffffffffffffffffffffffffffffffff1602179055508173ffffffffffffffffffffffffffffffffffffffff168173ffffffffffffffffffffffffffffffffffffffff167f8be0079c531659141344cd1fd0a4f28419497f9722a3daafe3b4186f6b6457e060405160405180910390a35050565b600081610d7a6107f8565b119050919050565b6000609c60009054906101000a900460ff16905090565b600033905090565b600060019054906101000a900460ff16610df0576040517f08c379a0000000000000000000000000000000000000000000000000000000008152600401610de790611c48565b60405180910390fd5b80606760006101000a81548173ffffffffffffffffffffffffffffffffffffffff021916908373ffffffffffffffffffffffffffffffffffffffff160217905550606760009054906101000a900473ffffffffffffffffffffffffffffffffffffffff1673ffffffffffffffffffffffffffffffffffffffff1663573ea5756040518163ffffffff1660e01b8152600401602060405180830381865afa158015610e9e573d6000803e3d6000fd5b505050506040513d601f19601f82011682018060405250810190610ec29190611d46565b606860006101000a81548173ffffffffffffffffffffffffffffffffffffffff021916908373ffffffffffffffffffffffffffffffffffffffff16021790555050565b600060019054906101000a900460ff16610f54576040517f08c379a0000000000000000000000000000000000000000000000000000000008152600401610f4b90611c48565b60405180910390fd5b610f5c611038565b610f64611089565b610f6d81610a5a565b50565b600060019054906101000a900460ff16610fbf576040517f08c379a0000000000000000000000000000000000000000000000000000000008152600401610fb690611c48565b60405180910390fd5b610fcf610fca610d99565b610ca9565b565b73eeeeeeeeeeeeeeeeeeeeeeeeeeeeeeeeeeeeeeee73ffffffffffffffffffffffffffffffffffffffff168273ffffffffffffffffffffffffffffffffffffffff16036110275761102283826110e2565b611033565b611032828483611193565b5b505050565b600060019054906101000a900460ff16611087576040517f08c379a000000000000000000000000000000000000000000000000000000000815260040161107e90611c48565b60405180910390fd5b565b600060019054906101000a900460ff166110d8576040517f08c379a00000000000000000000000000000000000000000000000000000000081526004016110cf90611c48565b60405180910390fd5b6110e0611219565b565b60008273ffffffffffffffffffffffffffffffffffffffff168260405161110890611da4565b60006040518083038185875af1925050503d8060008114611145576040519150601f19603f3d011682016040523d82523d6000602084013e61114a565b606091505b505090508061118e576040517f08c379a000000000000000000000000000000000000000000000000000000000815260040161118590611e05565b60405180910390fd5b505050565b6112148363a9059cbb60e01b84846040516024016111b2929190611e25565b604051602081830303815290604052907bffffffffffffffffffffffffffffffffffffffffffffffffffffffff19166020820180517bffffffffffffffffffffffffffffffffffffffffffffffffffffffff8381831617835250505050611272565b505050565b600060019054906101000a900460ff16611268576040517f08c379a000000000000000000000000000000000000000000000000000000000815260040161125f90611c48565b60405180910390fd5b6001603381905550565b60006112d4826040518060400160405280602081526020017f5361666545524332303a206c6f772d6c6576656c2063616c6c206661696c65648152508573ffffffffffffffffffffffffffffffffffffffff166113399092919063ffffffff16565b905060008151111561133457808060200190518101906112f49190611e63565b611333576040517f08c379a000000000000000000000000000000000000000000000000000000000815260040161132a90611f02565b60405180910390fd5b5b505050565b60606113488484600085611351565b90509392505050565b606082471015611396576040517f08c379a000000000000000000000000000000000000000000000000000000000815260040161138d90611f94565b60405180910390fd5b61139f85611465565b6113de576040517f08c379a00000000000000000000000000000000000000000000000000000000081526004016113d590612000565b60405180910390fd5b6000808673ffffffffffffffffffffffffffffffffffffffff1685876040516114079190612051565b60006040518083038185875af1925050503d8060008114611444576040519150601f19603f3d011682016040523d82523d6000602084013e611449565b606091505b5091509150611459828286611488565b92505050949350505050565b6000808273ffffffffffffffffffffffffffffffffffffffff163b119050919050565b60608315611498578290506114e8565b6000835111156114ab5782518084602001fd5b816040517f08c379a00000000000000000000000000000000000000000000000000000000081526004016114df91906120ac565b60405180910390fd5b9392505050565b600080fd5b6000819050919050565b611507816114f4565b811461151257600080fd5b50565b600081359050611524816114fe565b92915050565b6000602082840312156115405761153f6114ef565b5b600061154e84828501611515565b91505092915050565b600073ffffffffffffffffffffffffffffffffffffffff82169050919050565b600061158282611557565b9050919050565b61159281611577565b811461159d57600080fd5b50565b6000813590506115af81611589565b92915050565b60008115159050919050565b6115ca816115b5565b81146115d557600080fd5b50565b6000813590506115e7816115c1565b92915050565b600080600060608486031215611606576116056114ef565b5b6000611614868287016115a0565b935050602061162586828701611515565b9250506040611636868287016115d8565b9150509250925092565b611649816115b5565b82525050565b60006020820190506116646000830184611640565b92915050565b611673816114f4565b82525050565b600060208201905061168e600083018461166a565b92915050565b600061169f82611557565b9050919050565b6116af81611694565b82525050565b60006020820190506116ca60008301846116a6565b92915050565b6116d981611577565b82525050565b60006020820190506116f460008301846116d0565b92915050565b6000602082840312156117105761170f6114ef565b5b600061171e848285016115d8565b91505092915050565b600081519050919050565b600082825260208201905092915050565b60005b83811015611761578082015181840152602081019050611746565b83811115611770576000848401525b50505050565b6000601f19601f8301169050919050565b600061179282611727565b61179c8185611732565b93506117ac818560208601611743565b6117b581611776565b840191505092915050565b60006040820190506117d56000830185611640565b81810360208301526117e78184611787565b90509392505050565b6000819050919050565b600061181561181061180b84611557565b6117f0565b611557565b9050919050565b6000611827826117fa565b9050919050565b60006118398261181c565b9050919050565b6118498161182e565b82525050565b60006020820190506118646000830184611840565b92915050565b6000602082840312156118805761187f6114ef565b5b600061188e848285016115a0565b91505092915050565b600082825260208201905092915050565b7f496e697469616c697a61626c653a20636f6e747261637420697320616c72656160008201527f647920696e697469616c697a6564000000000000000000000000000000000000602082015250565b6000611904602e83611897565b915061190f826118a8565b604082019050919050565b60006020820190508181036000830152611933816118f7565b9050919050565b6000819050919050565b600060ff82169050919050565b600061196c6119676119628461193a565b6117f0565b611944565b9050919050565b61197c81611951565b82525050565b60006020820190506119976000830184611973565b92915050565b7f5265656e7472616e637947756172643a207265656e7472616e742063616c6c00600082015250565b60006119d3601f83611897565b91506119de8261199d565b602082019050919050565b60006020820190508181036000830152611a02816119c6565b9050919050565b7f4f707352656164793a206f6e6c794f7073000000000000000000000000000000600082015250565b6000611a3f601183611897565b9150611a4a82611a09565b602082019050919050565b60006020820190508181036000830152611a6e81611a32565b9050919050565b7f4e487b7100000000000000000000000000000000000000000000000000000000600052601160045260246000fd5b6000611aaf826114f4565b9150611aba836114f4565b925082821015611acd57611acc611a75565b5b828203905092915050565b7f4f776e61626c653a206e6577206f776e657220697320746865207a65726f206160008201527f6464726573730000000000000000000000000000000000000000000000000000602082015250565b6000611b34602683611897565b9150611b3f82611ad8565b604082019050919050565b60006020820190508181036000830152611b6381611b27565b9050919050565b7f4f776e61626c653a2063616c6c6572206973206e6f7420746865206f776e6572600082015250565b6000611ba0602083611897565b9150611bab82611b6a565b602082019050919050565b60006020820190508181036000830152611bcf81611b93565b9050919050565b7f496e697469616c697a61626c653a20636f6e7472616374206973206e6f74206960008201527f6e697469616c697a696e67000000000000000000000000000000000000000000602082015250565b6000611c32602b83611897565b9150611c3d82611bd6565b604082019050919050565b60006020820190508181036000830152611c6181611c25565b9050919050565b6000611c73826114f4565b91507fffffffffffffffffffffffffffffffffffffffffffffffffffffffffffffffff8203611ca557611ca4611a75565b5b600182019050919050565b600081519050611cbf816114fe565b92915050565b600081519050611cd481611589565b92915050565b60008060408385031215611cf157611cf06114ef565b5b6000611cff85828601611cb0565b9250506020611d1085828601611cc5565b9150509250929050565b611d2381611694565b8114611d2e57600080fd5b50565b600081519050611d4081611d1a565b92915050565b600060208284031215611d5c57611d5b6114ef565b5b6000611d6a84828501611d31565b91505092915050565b600081905092915050565b50565b6000611d8e600083611d73565b9150611d9982611d7e565b600082019050919050565b6000611daf82611d81565b9150819050919050565b7f4e6174697665207472616e73666572206661696c656400000000000000000000600082015250565b6000611def601683611897565b9150611dfa82611db9565b602082019050919050565b60006020820190508181036000830152611e1e81611de2565b9050919050565b6000604082019050611e3a60008301856116d0565b611e47602083018461166a565b9392505050565b600081519050611e5d816115c1565b92915050565b600060208284031215611e7957611e786114ef565b5b6000611e8784828501611e4e565b91505092915050565b7f5361666545524332303a204552433230206f7065726174696f6e20646964206e60008201527f6f74207375636365656400000000000000000000000000000000000000000000602082015250565b6000611eec602a83611897565b9150611ef782611e90565b604082019050919050565b60006020820190508181036000830152611f1b81611edf565b9050919050565b7f416464726573733a20696e73756666696369656e742062616c616e636520666f60008201527f722063616c6c0000000000000000000000000000000000000000000000000000602082015250565b6000611f7e602683611897565b9150611f8982611f22565b604082019050919050565b60006020820190508181036000830152611fad81611f71565b9050919050565b7f416464726573733a2063616c6c20746f206e6f6e2d636f6e7472616374000000600082015250565b6000611fea601d83611897565b9150611ff582611fb4565b602082019050919050565b6000602082019050818103600083015261201981611fdd565b9050919050565b600061202b82611727565b6120358185611d73565b9350612045818560208601611743565b80840191505092915050565b600061205d8284612020565b915081905092915050565b600081519050919050565b600061207e82612068565b6120888185611897565b9350612098818560208601611743565b6120a181611776565b840191505092915050565b600060208201905081810360008301526120c68184612073565b90509291505056fea2646970667358221220bbb13070fc1e100f5f129121da2fe021d3b9ab7bec97bbfd5a0198885631e80e64736f6c634300080f0033",
  "devdoc": {
    "kind": "dev",
    "methods": {
      "canWork()": {
        "details": "Will be executed by keeper and before `work` method execution."
      },
      "owner()": {
        "details": "Returns the address of the current owner."
      },
      "renounceOwnership()": {
        "details": "Leaves the contract without owner. It will not be possible to call `onlyOwner` functions anymore. Can only be called by the current owner. NOTE: Renouncing ownership will leave the contract without an owner, thereby removing any functionality that is only available to the owner."
      },
      "timeFromLastExecution()": {
        "returns": {
          "_0": "seconds from last execution in a range of 900 seconds"
        }
      },
      "transferOwnership(address)": {
        "details": "Transfers ownership of the contract to a new account (`newOwner`). Can only be called by the current owner."
      },
      "work()": {
        "details": "possible do not use `nonReentrant` modifier if we have isTimePassFromLastExecution check and refreshLastWorkTime at start  as it inside `onlyWhenCanWork` modifier.  But do not will delete it as `canWork` can be overriden.  Possible to optimize this at the end contact"
      }
    },
    "version": 1
  },
  "userdoc": {
    "errors": {
      "CannotWorkNow()": [
        {
          "notice": "Someone tried to execute work function while `canWork` is `false`"
        }
      ],
      "PaybleWorkNotAllowed()": [
        {
          "notice": "Contract expect work will be prepayd, so it cannot pay for work"
        }
      ],
      "TimeMinimumBetweenExecutionsIncorrect(uint256)": [
        {
          "notice": "Given time minimum between execution must be greater then 1000"
        }
      ]
    },
    "events": {
      "Worked(address)": {
        "notice": "Job work function was executed by worker bot"
      }
    },
    "kind": "user",
    "methods": {
      "canWork()": {
        "notice": "If work can be executed by keeper at this moment returns true"
      },
      "checker()": {
        "notice": "Resolver checker which say if work can be performed and with which params."
      },
      "isPrepayd()": {
        "notice": "If job is preaped, then it not will try to pay on executed work."
      },
      "lastWorkTime()": {
        "notice": "Timestamp of last work execution block in seconds."
      },
      "minimumBetweenExecutions()": {
        "notice": "Mininmal time which must pass between executions of the job in seconds. Better set hours, but at least set to greater then 900 seconds,  node opperators able to manipulate timestamp in 900 seconds range, on some blockchains maybe bigger."
      },
      "payableWork()": {
        "notice": "Bot will call this method when `checker` returns `true`. Will pay caller `work` method stay as it is, to allow call id of-chain"
      },
      "timeFromLastExecution()": {
        "notice": "Time which pass from last exection"
      },
      "work()": {
        "notice": "Important work which will be executed by keeper."
      }
    },
    "version": 1
  },
  "storageLayout": {
    "storage": [
      {
        "astId": 138,
        "contract": "src/automation/example/SimpleGelatoJob.sol:SimpleGelatoJob",
        "label": "_initialized",
        "offset": 0,
        "slot": "0",
        "type": "t_uint8"
      },
      {
        "astId": 141,
        "contract": "src/automation/example/SimpleGelatoJob.sol:SimpleGelatoJob",
        "label": "_initializing",
        "offset": 1,
        "slot": "0",
        "type": "t_bool"
      },
      {
        "astId": 625,
        "contract": "src/automation/example/SimpleGelatoJob.sol:SimpleGelatoJob",
        "label": "__gap",
        "offset": 0,
        "slot": "1",
        "type": "t_array(t_uint256)50_storage"
      },
      {
        "astId": 296,
        "contract": "src/automation/example/SimpleGelatoJob.sol:SimpleGelatoJob",
        "label": "_status",
        "offset": 0,
        "slot": "51",
        "type": "t_uint256"
      },
      {
        "astId": 340,
        "contract": "src/automation/example/SimpleGelatoJob.sol:SimpleGelatoJob",
        "label": "__gap",
        "offset": 0,
        "slot": "52",
        "type": "t_array(t_uint256)49_storage"
      },
      {
        "astId": 1443,
        "contract": "src/automation/example/SimpleGelatoJob.sol:SimpleGelatoJob",
        "label": "lastWorkTime",
        "offset": 0,
        "slot": "101",
        "type": "t_uint256"
      },
      {
        "astId": 1446,
        "contract": "src/automation/example/SimpleGelatoJob.sol:SimpleGelatoJob",
        "label": "minimumBetweenExecutions",
        "offset": 0,
        "slot": "102",
        "type": "t_uint256"
      },
      {
        "astId": 1792,
        "contract": "src/automation/example/SimpleGelatoJob.sol:SimpleGelatoJob",
        "label": "ops",
        "offset": 0,
        "slot": "103",
        "type": "t_contract(IOps)1764"
      },
      {
        "astId": 1794,
        "contract": "src/automation/example/SimpleGelatoJob.sol:SimpleGelatoJob",
        "label": "gelato",
        "offset": 0,
        "slot": "104",
        "type": "t_address_payable"
      },
      {
        "astId": 1337,
        "contract": "src/automation/example/SimpleGelatoJob.sol:SimpleGelatoJob",
        "label": "isPrepayd",
        "offset": 20,
        "slot": "104",
        "type": "t_bool"
      },
      {
        "astId": 10,
        "contract": "src/automation/example/SimpleGelatoJob.sol:SimpleGelatoJob",
        "label": "_owner",
        "offset": 0,
        "slot": "105",
        "type": "t_address"
      },
      {
        "astId": 130,
        "contract": "src/automation/example/SimpleGelatoJob.sol:SimpleGelatoJob",
        "label": "__gap",
        "offset": 0,
        "slot": "106",
        "type": "t_array(t_uint256)49_storage"
      },
      {
        "astId": 1591,
        "contract": "src/automation/example/SimpleGelatoJob.sol:SimpleGelatoJob",
        "label": "workMethodCalledCounter",
        "offset": 0,
        "slot": "155",
        "type": "t_uint256"
      },
      {
        "astId": 1594,
        "contract": "src/automation/example/SimpleGelatoJob.sol:SimpleGelatoJob",
        "label": "canWorkResult",
        "offset": 0,
        "slot": "156",
        "type": "t_bool"
      }
    ],
    "types": {
      "t_address": {
        "encoding": "inplace",
        "label": "address",
        "numberOfBytes": "20"
      },
      "t_address_payable": {
        "encoding": "inplace",
        "label": "address payable",
        "numberOfBytes": "20"
      },
      "t_array(t_uint256)49_storage": {
        "base": "t_uint256",
        "encoding": "inplace",
        "label": "uint256[49]",
        "numberOfBytes": "1568"
      },
      "t_array(t_uint256)50_storage": {
        "base": "t_uint256",
        "encoding": "inplace",
        "label": "uint256[50]",
        "numberOfBytes": "1600"
      },
      "t_bool": {
        "encoding": "inplace",
        "label": "bool",
        "numberOfBytes": "1"
      },
      "t_contract(IOps)1764": {
        "encoding": "inplace",
        "label": "contract IOps",
        "numberOfBytes": "20"
      },
      "t_uint256": {
        "encoding": "inplace",
        "label": "uint256",
        "numberOfBytes": "32"
      },
      "t_uint8": {
        "encoding": "inplace",
        "label": "uint8",
        "numberOfBytes": "1"
      }
    }
  }
}