{
  "address": "0x408d2c31C9637Ee33C278fB21ceE5C13135Be627",
  "abi": [
    {
      "inputs": [
        {
          "internalType": "bool",
          "name": "needDisableInitializers",
          "type": "bool"
        }
      ],
      "stateMutability": "nonpayable",
      "type": "constructor"
    },
    {
      "inputs": [
        {
          "internalType": "address",
          "name": "caller",
          "type": "address"
        }
      ],
      "name": "AccessDeniedForCaller",
      "type": "error"
    },
    {
      "inputs": [],
      "name": "BorrowerAlreadyExists",
      "type": "error"
    },
    {
      "inputs": [],
      "name": "BorrowerDoesNotExist",
      "type": "error"
    },
    {
      "inputs": [],
      "name": "BorrowerHasDebt",
      "type": "error"
    },
    {
      "inputs": [],
      "name": "CallerIsNotABorrower",
      "type": "error"
    },
    {
      "inputs": [],
      "name": "ExceededMaximumFeeValue",
      "type": "error"
    },
    {
      "inputs": [],
      "name": "FalsePositiveReport",
      "type": "error"
    },
    {
      "inputs": [],
      "name": "InappropriateStrategy",
      "type": "error"
    },
    {
      "inputs": [
        {
          "internalType": "uint256",
          "name": "assets",
          "type": "uint256"
        },
        {
          "internalType": "uint256",
          "name": "shares",
          "type": "uint256"
        }
      ],
      "name": "InsufficientVaultBalance",
      "type": "error"
    },
    {
      "inputs": [
        {
          "internalType": "uint256",
          "name": "durationInSeconds",
          "type": "uint256"
        }
      ],
      "name": "InvalidLockedProfitReleaseRate",
      "type": "error"
    },
    {
      "inputs": [
        {
          "internalType": "uint256",
          "name": "freeRatio",
          "type": "uint256"
        }
      ],
      "name": "LenderRatioExceeded",
      "type": "error"
    },
    {
      "inputs": [],
      "name": "ListsDoNotMatch",
      "type": "error"
    },
    {
      "inputs": [],
      "name": "StrategyAlreadyExists",
      "type": "error"
    },
    {
      "inputs": [],
      "name": "StrategyNotFound",
      "type": "error"
    },
    {
      "inputs": [],
      "name": "UnexpectedZeroAddress",
      "type": "error"
    },
    {
      "anonymous": false,
      "inputs": [
        {
          "indexed": false,
          "internalType": "address",
          "name": "previousAdmin",
          "type": "address"
        },
        {
          "indexed": false,
          "internalType": "address",
          "name": "newAdmin",
          "type": "address"
        }
      ],
      "name": "AdminChanged",
      "type": "event"
    },
    {
      "anonymous": false,
      "inputs": [
        {
          "indexed": true,
          "internalType": "address",
          "name": "owner",
          "type": "address"
        },
        {
          "indexed": true,
          "internalType": "address",
          "name": "spender",
          "type": "address"
        },
        {
          "indexed": false,
          "internalType": "uint256",
          "name": "value",
          "type": "uint256"
        }
      ],
      "name": "Approval",
      "type": "event"
    },
    {
      "anonymous": false,
      "inputs": [
        {
          "indexed": true,
          "internalType": "address",
          "name": "operator",
          "type": "address"
        },
        {
          "indexed": true,
          "internalType": "address",
          "name": "tokenHolder",
          "type": "address"
        }
      ],
      "name": "AuthorizedOperator",
      "type": "event"
    },
    {
      "anonymous": false,
      "inputs": [
        {
          "indexed": true,
          "internalType": "address",
          "name": "beacon",
          "type": "address"
        }
      ],
      "name": "BeaconUpgraded",
      "type": "event"
    },
    {
      "anonymous": false,
      "inputs": [
        {
          "indexed": true,
          "internalType": "address",
          "name": "borrower",
          "type": "address"
        },
        {
          "indexed": false,
          "internalType": "uint256",
          "name": "debtPayment",
          "type": "uint256"
        },
        {
          "indexed": false,
          "internalType": "uint256",
          "name": "freeFunds",
          "type": "uint256"
        },
        {
          "indexed": false,
          "internalType": "uint256",
          "name": "fundsGiven",
          "type": "uint256"
        },
        {
          "indexed": false,
          "internalType": "uint256",
          "name": "fundsTaken",
          "type": "uint256"
        },
        {
          "indexed": false,
          "internalType": "uint256",
          "name": "loss",
          "type": "uint256"
        }
      ],
      "name": "BorrowerDebtManagementReported",
      "type": "event"
    },
    {
      "anonymous": false,
      "inputs": [
        {
          "indexed": true,
          "internalType": "address",
          "name": "operator",
          "type": "address"
        },
        {
          "indexed": true,
          "internalType": "address",
          "name": "from",
          "type": "address"
        },
        {
          "indexed": false,
          "internalType": "uint256",
          "name": "amount",
          "type": "uint256"
        },
        {
          "indexed": false,
          "internalType": "bytes",
          "name": "data",
          "type": "bytes"
        },
        {
          "indexed": false,
          "internalType": "bytes",
          "name": "operatorData",
          "type": "bytes"
        }
      ],
      "name": "Burned",
      "type": "event"
    },
    {
      "anonymous": false,
      "inputs": [
        {
          "indexed": true,
          "internalType": "address",
          "name": "caller",
          "type": "address"
        },
        {
          "indexed": true,
          "internalType": "address",
          "name": "owner",
          "type": "address"
        },
        {
          "indexed": false,
          "internalType": "uint256",
          "name": "assets",
          "type": "uint256"
        },
        {
          "indexed": false,
          "internalType": "uint256",
          "name": "shares",
          "type": "uint256"
        }
      ],
      "name": "Deposit",
      "type": "event"
    },
    {
      "anonymous": false,
      "inputs": [
        {
          "indexed": false,
          "internalType": "uint8",
          "name": "version",
          "type": "uint8"
        }
      ],
      "name": "Initialized",
      "type": "event"
    },
    {
      "anonymous": false,
      "inputs": [
        {
          "indexed": false,
          "internalType": "uint256",
          "name": "rate",
          "type": "uint256"
        }
      ],
      "name": "LockedProfitReleaseRateChanged",
      "type": "event"
    },
    {
      "anonymous": false,
      "inputs": [
        {
          "indexed": true,
          "internalType": "address",
          "name": "operator",
          "type": "address"
        },
        {
          "indexed": true,
          "internalType": "address",
          "name": "to",
          "type": "address"
        },
        {
          "indexed": false,
          "internalType": "uint256",
          "name": "amount",
          "type": "uint256"
        },
        {
          "indexed": false,
          "internalType": "bytes",
          "name": "data",
          "type": "bytes"
        },
        {
          "indexed": false,
          "internalType": "bytes",
          "name": "operatorData",
          "type": "bytes"
        }
      ],
      "name": "Minted",
      "type": "event"
    },
    {
      "anonymous": false,
      "inputs": [
        {
          "indexed": true,
          "internalType": "address",
          "name": "previousOwner",
          "type": "address"
        },
        {
          "indexed": true,
          "internalType": "address",
          "name": "newOwner",
          "type": "address"
        }
      ],
      "name": "OwnershipTransferred",
      "type": "event"
    },
    {
      "anonymous": false,
      "inputs": [
        {
          "indexed": false,
          "internalType": "address",
          "name": "account",
          "type": "address"
        }
      ],
      "name": "Paused",
      "type": "event"
    },
    {
      "anonymous": false,
      "inputs": [
        {
          "indexed": true,
          "internalType": "address",
          "name": "operator",
          "type": "address"
        },
        {
          "indexed": true,
          "internalType": "address",
          "name": "tokenHolder",
          "type": "address"
        }
      ],
      "name": "RevokedOperator",
      "type": "event"
    },
    {
      "anonymous": false,
      "inputs": [
        {
          "indexed": true,
          "internalType": "address",
          "name": "operator",
          "type": "address"
        },
        {
          "indexed": true,
          "internalType": "address",
          "name": "from",
          "type": "address"
        },
        {
          "indexed": true,
          "internalType": "address",
          "name": "to",
          "type": "address"
        },
        {
          "indexed": false,
          "internalType": "uint256",
          "name": "amount",
          "type": "uint256"
        },
        {
          "indexed": false,
          "internalType": "bytes",
          "name": "data",
          "type": "bytes"
        },
        {
          "indexed": false,
          "internalType": "bytes",
          "name": "operatorData",
          "type": "bytes"
        }
      ],
      "name": "Sent",
      "type": "event"
    },
    {
      "anonymous": false,
      "inputs": [
        {
          "indexed": true,
          "internalType": "address",
          "name": "strategy",
          "type": "address"
        },
        {
          "indexed": false,
          "internalType": "uint256",
          "name": "debtRatio",
          "type": "uint256"
        }
      ],
      "name": "StrategyAdded",
      "type": "event"
    },
    {
      "anonymous": false,
      "inputs": [
        {
          "indexed": true,
          "internalType": "address",
          "name": "strategy",
          "type": "address"
        },
        {
          "indexed": false,
          "internalType": "bool",
          "name": "fromQueueOnly",
          "type": "bool"
        }
      ],
      "name": "StrategyRemoved",
      "type": "event"
    },
    {
      "anonymous": false,
      "inputs": [
        {
          "indexed": true,
          "internalType": "address",
          "name": "strategy",
          "type": "address"
        }
      ],
      "name": "StrategyReturnedToQueue",
      "type": "event"
    },
    {
      "anonymous": false,
      "inputs": [
        {
          "indexed": true,
          "internalType": "address",
          "name": "strategy",
          "type": "address"
        }
      ],
      "name": "StrategyRevoked",
      "type": "event"
    },
    {
      "anonymous": false,
      "inputs": [
        {
          "indexed": true,
          "internalType": "address",
          "name": "from",
          "type": "address"
        },
        {
          "indexed": true,
          "internalType": "address",
          "name": "to",
          "type": "address"
        },
        {
          "indexed": false,
          "internalType": "uint256",
          "name": "value",
          "type": "uint256"
        }
      ],
      "name": "Transfer",
      "type": "event"
    },
    {
      "anonymous": false,
      "inputs": [
        {
          "indexed": false,
          "internalType": "address",
          "name": "account",
          "type": "address"
        }
      ],
      "name": "Unpaused",
      "type": "event"
    },
    {
      "anonymous": false,
      "inputs": [
        {
          "indexed": true,
          "internalType": "address",
          "name": "implementation",
          "type": "address"
        }
      ],
      "name": "Upgraded",
      "type": "event"
    },
    {
      "anonymous": false,
      "inputs": [
        {
          "indexed": true,
          "internalType": "address",
          "name": "caller",
          "type": "address"
        },
        {
          "indexed": true,
          "internalType": "address",
          "name": "receiver",
          "type": "address"
        },
        {
          "indexed": true,
          "internalType": "address",
          "name": "owner",
          "type": "address"
        },
        {
          "indexed": false,
          "internalType": "uint256",
          "name": "assets",
          "type": "uint256"
        },
        {
          "indexed": false,
          "internalType": "uint256",
          "name": "shares",
          "type": "uint256"
        }
      ],
      "name": "Withdraw",
      "type": "event"
    },
    {
      "inputs": [],
      "name": "LOCKED_PROFIT_RELEASE_SCALE",
      "outputs": [
        {
          "internalType": "uint256",
          "name": "",
          "type": "uint256"
        }
      ],
      "stateMutability": "view",
      "type": "function"
    },
    {
      "inputs": [],
      "name": "MAX_BPS",
      "outputs": [
        {
          "internalType": "uint256",
          "name": "",
          "type": "uint256"
        }
      ],
      "stateMutability": "view",
      "type": "function"
    },
    {
      "inputs": [
        {
          "internalType": "address",
          "name": "strategy",
          "type": "address"
        },
        {
          "internalType": "uint256",
          "name": "debtRatio",
          "type": "uint256"
        }
      ],
      "name": "addStrategy",
      "outputs": [],
      "stateMutability": "nonpayable",
      "type": "function"
    },
    {
      "inputs": [
        {
          "internalType": "address",
          "name": "strategy",
          "type": "address"
        }
      ],
      "name": "addStrategyToQueue",
      "outputs": [],
      "stateMutability": "nonpayable",
      "type": "function"
    },
    {
      "inputs": [
        {
          "internalType": "address",
          "name": "holder",
          "type": "address"
        },
        {
          "internalType": "address",
          "name": "spender",
          "type": "address"
        }
      ],
      "name": "allowance",
      "outputs": [
        {
          "internalType": "uint256",
          "name": "",
          "type": "uint256"
        }
      ],
      "stateMutability": "view",
      "type": "function"
    },
    {
      "inputs": [
        {
          "internalType": "address",
          "name": "spender",
          "type": "address"
        },
        {
          "internalType": "uint256",
          "name": "value",
          "type": "uint256"
        }
      ],
      "name": "approve",
      "outputs": [
        {
          "internalType": "bool",
          "name": "",
          "type": "bool"
        }
      ],
      "stateMutability": "nonpayable",
      "type": "function"
    },
    {
      "inputs": [],
      "name": "asset",
      "outputs": [
        {
          "internalType": "contract IERC20Upgradeable",
          "name": "",
          "type": "address"
        }
      ],
      "stateMutability": "view",
      "type": "function"
    },
    {
      "inputs": [
        {
          "internalType": "address",
          "name": "operator",
          "type": "address"
        }
      ],
      "name": "authorizeOperator",
      "outputs": [],
      "stateMutability": "nonpayable",
      "type": "function"
    },
    {
      "inputs": [],
      "name": "availableCredit",
      "outputs": [
        {
          "internalType": "uint256",
          "name": "",
          "type": "uint256"
        }
      ],
      "stateMutability": "view",
      "type": "function"
    },
    {
      "inputs": [
        {
          "internalType": "address",
          "name": "tokenHolder",
          "type": "address"
        }
      ],
      "name": "balanceOf",
      "outputs": [
        {
          "internalType": "uint256",
          "name": "",
          "type": "uint256"
        }
      ],
      "stateMutability": "view",
      "type": "function"
    },
    {
      "inputs": [
        {
          "internalType": "address",
          "name": "",
          "type": "address"
        }
      ],
      "name": "borrowersData",
      "outputs": [
        {
          "internalType": "uint256",
          "name": "activationTimestamp",
          "type": "uint256"
        },
        {
          "internalType": "uint256",
          "name": "lastReportTimestamp",
          "type": "uint256"
        },
        {
          "internalType": "uint256",
          "name": "debt",
          "type": "uint256"
        },
        {
          "internalType": "uint256",
          "name": "debtRatio",
          "type": "uint256"
        }
      ],
      "stateMutability": "view",
      "type": "function"
    },
    {
      "inputs": [
        {
          "internalType": "uint256",
          "name": "amount",
          "type": "uint256"
        },
        {
          "internalType": "bytes",
          "name": "data",
          "type": "bytes"
        }
      ],
      "name": "burn",
      "outputs": [],
      "stateMutability": "nonpayable",
      "type": "function"
    },
    {
      "inputs": [
        {
          "internalType": "uint256",
          "name": "shares",
          "type": "uint256"
        }
      ],
      "name": "convertToAssets",
      "outputs": [
        {
          "internalType": "uint256",
          "name": "",
          "type": "uint256"
        }
      ],
      "stateMutability": "view",
      "type": "function"
    },
    {
      "inputs": [
        {
          "internalType": "uint256",
          "name": "assets",
          "type": "uint256"
        }
      ],
      "name": "convertToShares",
      "outputs": [
        {
          "internalType": "uint256",
          "name": "",
          "type": "uint256"
        }
      ],
      "stateMutability": "view",
      "type": "function"
    },
    {
      "inputs": [],
      "name": "currentDebt",
      "outputs": [
        {
          "internalType": "uint256",
          "name": "",
          "type": "uint256"
        }
      ],
      "stateMutability": "view",
      "type": "function"
    },
    {
      "inputs": [
        {
          "internalType": "address",
          "name": "borrower",
          "type": "address"
        }
      ],
      "name": "currentDebt",
      "outputs": [
        {
          "internalType": "uint256",
          "name": "",
          "type": "uint256"
        }
      ],
      "stateMutability": "view",
      "type": "function"
    },
    {
      "inputs": [],
      "name": "currentDebtRatio",
      "outputs": [
        {
          "internalType": "uint256",
          "name": "",
          "type": "uint256"
        }
      ],
      "stateMutability": "view",
      "type": "function"
    },
    {
      "inputs": [],
      "name": "debtRatio",
      "outputs": [
        {
          "internalType": "uint256",
          "name": "",
          "type": "uint256"
        }
      ],
      "stateMutability": "view",
      "type": "function"
    },
    {
      "inputs": [],
      "name": "decimals",
      "outputs": [
        {
          "internalType": "uint8",
          "name": "",
          "type": "uint8"
        }
      ],
      "stateMutability": "pure",
      "type": "function"
    },
    {
      "inputs": [],
      "name": "defaultOperators",
      "outputs": [
        {
          "internalType": "address[]",
          "name": "",
          "type": "address[]"
        }
      ],
      "stateMutability": "view",
      "type": "function"
    },
    {
      "inputs": [
        {
          "internalType": "uint256",
          "name": "assets",
          "type": "uint256"
        },
        {
          "internalType": "address",
          "name": "",
          "type": "address"
        }
      ],
      "name": "deposit",
      "outputs": [
        {
          "internalType": "uint256",
          "name": "shares",
          "type": "uint256"
        }
      ],
      "stateMutability": "nonpayable",
      "type": "function"
    },
    {
      "inputs": [
        {
          "internalType": "uint256",
          "name": "assets",
          "type": "uint256"
        }
      ],
      "name": "deposit",
      "outputs": [
        {
          "internalType": "uint256",
          "name": "shares",
          "type": "uint256"
        }
      ],
      "stateMutability": "nonpayable",
      "type": "function"
    },
    {
      "inputs": [
        {
          "internalType": "uint256",
          "name": "",
          "type": "uint256"
        }
      ],
      "name": "depositHooks",
      "outputs": [
        {
          "internalType": "contract IVaultHook",
          "name": "",
          "type": "address"
        }
      ],
      "stateMutability": "view",
      "type": "function"
    },
    {
      "inputs": [],
      "name": "founders",
      "outputs": [
        {
          "internalType": "address",
          "name": "",
          "type": "address"
        }
      ],
      "stateMutability": "view",
      "type": "function"
    },
    {
      "inputs": [],
      "name": "foundersFee",
      "outputs": [
        {
          "internalType": "uint256",
          "name": "",
          "type": "uint256"
        }
      ],
      "stateMutability": "view",
      "type": "function"
    },
    {
      "inputs": [],
      "name": "fundAssets",
      "outputs": [
        {
          "internalType": "uint256",
          "name": "",
          "type": "uint256"
        }
      ],
      "stateMutability": "view",
      "type": "function"
    },
    {
      "inputs": [],
      "name": "getQueueSize",
      "outputs": [
        {
          "internalType": "uint256",
          "name": "",
          "type": "uint256"
        }
      ],
      "stateMutability": "view",
      "type": "function"
    },
    {
      "inputs": [],
      "name": "granularity",
      "outputs": [
        {
          "internalType": "uint256",
          "name": "",
          "type": "uint256"
        }
      ],
      "stateMutability": "view",
      "type": "function"
    },
    {
      "inputs": [
        {
          "internalType": "address",
          "name": "_asset",
          "type": "address"
        },
        {
          "internalType": "address",
          "name": "_rewards",
          "type": "address"
        },
        {
          "internalType": "uint256",
          "name": "_managementFee",
          "type": "uint256"
        },
        {
          "internalType": "uint256",
          "name": "_lockedProfitReleaseRate",
          "type": "uint256"
        },
        {
          "internalType": "string",
          "name": "_name",
          "type": "string"
        },
        {
          "internalType": "string",
          "name": "_symbol",
          "type": "string"
        },
        {
          "internalType": "address[]",
          "name": "_defaultOperators",
          "type": "address[]"
        },
        {
          "internalType": "uint256",
          "name": "_foundersFee",
          "type": "uint256"
        }
      ],
      "name": "initialize",
      "outputs": [],
      "stateMutability": "nonpayable",
      "type": "function"
    },
    {
      "inputs": [],
      "name": "interestRatePerBlock",
      "outputs": [
        {
          "internalType": "uint256",
          "name": "",
          "type": "uint256"
        },
        {
          "internalType": "uint256",
          "name": "",
          "type": "uint256"
        }
      ],
      "stateMutability": "view",
      "type": "function"
    },
    {
      "inputs": [],
      "name": "isActivated",
      "outputs": [
        {
          "internalType": "bool",
          "name": "",
          "type": "bool"
        }
      ],
      "stateMutability": "view",
      "type": "function"
    },
    {
      "inputs": [
        {
          "internalType": "address",
          "name": "borrower",
          "type": "address"
        }
      ],
      "name": "isActivated",
      "outputs": [
        {
          "internalType": "bool",
          "name": "",
          "type": "bool"
        }
      ],
      "stateMutability": "view",
      "type": "function"
    },
    {
      "inputs": [
        {
          "internalType": "address",
          "name": "operator",
          "type": "address"
        },
        {
          "internalType": "address",
          "name": "tokenHolder",
          "type": "address"
        }
      ],
      "name": "isOperatorFor",
      "outputs": [
        {
          "internalType": "bool",
          "name": "",
          "type": "bool"
        }
      ],
      "stateMutability": "view",
      "type": "function"
    },
    {
      "inputs": [
        {
          "internalType": "address",
          "name": "borrower",
          "type": "address"
        }
      ],
      "name": "lastReport",
      "outputs": [
        {
          "internalType": "uint256",
          "name": "",
          "type": "uint256"
        }
      ],
      "stateMutability": "view",
      "type": "function"
    },
    {
      "inputs": [],
      "name": "lastReport",
      "outputs": [
        {
          "internalType": "uint256",
          "name": "",
          "type": "uint256"
        }
      ],
      "stateMutability": "view",
      "type": "function"
    },
    {
      "inputs": [],
      "name": "lastReportTimestamp",
      "outputs": [
        {
          "internalType": "uint256",
          "name": "",
          "type": "uint256"
        }
      ],
      "stateMutability": "view",
      "type": "function"
    },
    {
      "inputs": [],
      "name": "lockedProfitBaseline",
      "outputs": [
        {
          "internalType": "uint256",
          "name": "",
          "type": "uint256"
        }
      ],
      "stateMutability": "view",
      "type": "function"
    },
    {
      "inputs": [],
      "name": "lockedProfitReleaseRate",
      "outputs": [
        {
          "internalType": "uint256",
          "name": "",
          "type": "uint256"
        }
      ],
      "stateMutability": "view",
      "type": "function"
    },
    {
      "inputs": [],
      "name": "managementFee",
      "outputs": [
        {
          "internalType": "uint256",
          "name": "",
          "type": "uint256"
        }
      ],
      "stateMutability": "view",
      "type": "function"
    },
    {
      "inputs": [
        {
          "internalType": "address",
          "name": "",
          "type": "address"
        }
      ],
      "name": "maxDeposit",
      "outputs": [
        {
          "internalType": "uint256",
          "name": "",
          "type": "uint256"
        }
      ],
      "stateMutability": "view",
      "type": "function"
    },
    {
      "inputs": [
        {
          "internalType": "address",
          "name": "",
          "type": "address"
        }
      ],
      "name": "maxMint",
      "outputs": [
        {
          "internalType": "uint256",
          "name": "",
          "type": "uint256"
        }
      ],
      "stateMutability": "view",
      "type": "function"
    },
    {
      "inputs": [
        {
          "internalType": "address",
          "name": "owner",
          "type": "address"
        }
      ],
      "name": "maxRedeem",
      "outputs": [
        {
          "internalType": "uint256",
          "name": "",
          "type": "uint256"
        }
      ],
      "stateMutability": "view",
      "type": "function"
    },
    {
      "inputs": [
        {
          "internalType": "address",
          "name": "owner",
          "type": "address"
        }
      ],
      "name": "maxWithdraw",
      "outputs": [
        {
          "internalType": "uint256",
          "name": "",
          "type": "uint256"
        }
      ],
      "stateMutability": "view",
      "type": "function"
    },
    {
      "inputs": [
        {
          "internalType": "uint256",
          "name": "shares",
          "type": "uint256"
        },
        {
          "internalType": "address",
          "name": "",
          "type": "address"
        }
      ],
      "name": "mint",
      "outputs": [
        {
          "internalType": "uint256",
          "name": "assets",
          "type": "uint256"
        }
      ],
      "stateMutability": "nonpayable",
      "type": "function"
    },
    {
      "inputs": [
        {
          "internalType": "uint256",
          "name": "shares",
          "type": "uint256"
        }
      ],
      "name": "mint",
      "outputs": [
        {
          "internalType": "uint256",
          "name": "assets",
          "type": "uint256"
        }
      ],
      "stateMutability": "nonpayable",
      "type": "function"
    },
    {
      "inputs": [],
      "name": "name",
      "outputs": [
        {
          "internalType": "string",
          "name": "",
          "type": "string"
        }
      ],
      "stateMutability": "view",
      "type": "function"
    },
    {
      "inputs": [
        {
          "internalType": "address",
          "name": "account",
          "type": "address"
        },
        {
          "internalType": "uint256",
          "name": "amount",
          "type": "uint256"
        },
        {
          "internalType": "bytes",
          "name": "data",
          "type": "bytes"
        },
        {
          "internalType": "bytes",
          "name": "operatorData",
          "type": "bytes"
        }
      ],
      "name": "operatorBurn",
      "outputs": [],
      "stateMutability": "nonpayable",
      "type": "function"
    },
    {
      "inputs": [
        {
          "internalType": "address",
          "name": "sender",
          "type": "address"
        },
        {
          "internalType": "address",
          "name": "recipient",
          "type": "address"
        },
        {
          "internalType": "uint256",
          "name": "amount",
          "type": "uint256"
        },
        {
          "internalType": "bytes",
          "name": "data",
          "type": "bytes"
        },
        {
          "internalType": "bytes",
          "name": "operatorData",
          "type": "bytes"
        }
      ],
      "name": "operatorSend",
      "outputs": [],
      "stateMutability": "nonpayable",
      "type": "function"
    },
    {
      "inputs": [],
      "name": "outstandingDebt",
      "outputs": [
        {
          "internalType": "uint256",
          "name": "",
          "type": "uint256"
        }
      ],
      "stateMutability": "view",
      "type": "function"
    },
    {
      "inputs": [],
      "name": "owner",
      "outputs": [
        {
          "internalType": "address",
          "name": "",
          "type": "address"
        }
      ],
      "stateMutability": "view",
      "type": "function"
    },
    {
      "inputs": [],
      "name": "paused",
      "outputs": [
        {
          "internalType": "bool",
          "name": "",
          "type": "bool"
        }
      ],
      "stateMutability": "view",
      "type": "function"
    },
    {
      "inputs": [
        {
          "internalType": "uint256",
          "name": "assets",
          "type": "uint256"
        }
      ],
      "name": "previewDeposit",
      "outputs": [
        {
          "internalType": "uint256",
          "name": "",
          "type": "uint256"
        }
      ],
      "stateMutability": "view",
      "type": "function"
    },
    {
      "inputs": [
        {
          "internalType": "uint256",
          "name": "shares",
          "type": "uint256"
        }
      ],
      "name": "previewMint",
      "outputs": [
        {
          "internalType": "uint256",
          "name": "",
          "type": "uint256"
        }
      ],
      "stateMutability": "view",
      "type": "function"
    },
    {
      "inputs": [
        {
          "internalType": "uint256",
          "name": "shares",
          "type": "uint256"
        }
      ],
      "name": "previewRedeem",
      "outputs": [
        {
          "internalType": "uint256",
          "name": "",
          "type": "uint256"
        }
      ],
      "stateMutability": "view",
      "type": "function"
    },
    {
      "inputs": [
        {
          "internalType": "uint256",
          "name": "assets",
          "type": "uint256"
        }
      ],
      "name": "previewWithdraw",
      "outputs": [
        {
          "internalType": "uint256",
          "name": "",
          "type": "uint256"
        }
      ],
      "stateMutability": "view",
      "type": "function"
    },
    {
      "inputs": [],
      "name": "proxiableUUID",
      "outputs": [
        {
          "internalType": "bytes32",
          "name": "",
          "type": "bytes32"
        }
      ],
      "stateMutability": "view",
      "type": "function"
    },
    {
      "inputs": [
        {
          "internalType": "uint256",
          "name": "shares",
          "type": "uint256"
        },
        {
          "internalType": "address",
          "name": "",
          "type": "address"
        },
        {
          "internalType": "address",
          "name": "",
          "type": "address"
        }
      ],
      "name": "redeem",
      "outputs": [
        {
          "internalType": "uint256",
          "name": "assets",
          "type": "uint256"
        }
      ],
      "stateMutability": "nonpayable",
      "type": "function"
    },
    {
      "inputs": [
        {
          "internalType": "uint256",
          "name": "shares",
          "type": "uint256"
        }
      ],
      "name": "redeem",
      "outputs": [
        {
          "internalType": "uint256",
          "name": "assets",
          "type": "uint256"
        }
      ],
      "stateMutability": "nonpayable",
      "type": "function"
    },
    {
      "inputs": [
        {
          "internalType": "address",
          "name": "strategy",
          "type": "address"
        },
        {
          "internalType": "bool",
          "name": "fromQueueOnly",
          "type": "bool"
        }
      ],
      "name": "removeStrategy",
      "outputs": [],
      "stateMutability": "nonpayable",
      "type": "function"
    },
    {
      "inputs": [],
      "name": "renounceOwnership",
      "outputs": [],
      "stateMutability": "nonpayable",
      "type": "function"
    },
    {
      "inputs": [
        {
          "internalType": "address[]",
          "name": "queue",
          "type": "address[]"
        }
      ],
      "name": "reorderWithdrawalQueue",
      "outputs": [],
      "stateMutability": "nonpayable",
      "type": "function"
    },
    {
      "inputs": [
        {
          "internalType": "uint256",
          "name": "loss",
          "type": "uint256"
        },
        {
          "internalType": "uint256",
          "name": "debtPayment",
          "type": "uint256"
        }
      ],
      "name": "reportNegativeDebtManagement",
      "outputs": [],
      "stateMutability": "nonpayable",
      "type": "function"
    },
    {
      "inputs": [
        {
          "internalType": "uint256",
          "name": "extraFreeFunds",
          "type": "uint256"
        },
        {
          "internalType": "uint256",
          "name": "debtPayment",
          "type": "uint256"
        }
      ],
      "name": "reportPositiveDebtManagement",
      "outputs": [],
      "stateMutability": "nonpayable",
      "type": "function"
    },
    {
      "inputs": [
        {
          "internalType": "address",
          "name": "operator",
          "type": "address"
        }
      ],
      "name": "revokeOperator",
      "outputs": [],
      "stateMutability": "nonpayable",
      "type": "function"
    },
    {
      "inputs": [
        {
          "internalType": "address",
          "name": "strategy",
          "type": "address"
        }
      ],
      "name": "revokeStrategy",
      "outputs": [],
      "stateMutability": "nonpayable",
      "type": "function"
    },
    {
      "inputs": [],
      "name": "rewards",
      "outputs": [
        {
          "internalType": "address",
          "name": "",
          "type": "address"
        }
      ],
      "stateMutability": "view",
      "type": "function"
    },
    {
      "inputs": [
        {
          "internalType": "address",
          "name": "recipient",
          "type": "address"
        },
        {
          "internalType": "uint256",
          "name": "amount",
          "type": "uint256"
        },
        {
          "internalType": "bytes",
          "name": "data",
          "type": "bytes"
        }
      ],
      "name": "send",
      "outputs": [],
      "stateMutability": "nonpayable",
      "type": "function"
    },
    {
      "inputs": [
        {
          "internalType": "bool",
          "name": "shutdown",
          "type": "bool"
        }
      ],
      "name": "setEmergencyShutdown",
      "outputs": [],
      "stateMutability": "nonpayable",
      "type": "function"
    },
    {
      "inputs": [
        {
          "internalType": "address",
          "name": "_founders",
          "type": "address"
        }
      ],
      "name": "setFounders",
      "outputs": [],
      "stateMutability": "nonpayable",
      "type": "function"
    },
    {
      "inputs": [
        {
          "internalType": "uint256",
          "name": "_foundersFee",
          "type": "uint256"
        }
      ],
      "name": "setFoundersFee",
      "outputs": [],
      "stateMutability": "nonpayable",
      "type": "function"
    },
    {
      "inputs": [
        {
          "internalType": "uint256",
          "name": "rate",
          "type": "uint256"
        }
      ],
      "name": "setLockedProfitReleaseRate",
      "outputs": [],
      "stateMutability": "nonpayable",
      "type": "function"
    },
    {
      "inputs": [
        {
          "internalType": "uint256",
          "name": "_managementFee",
          "type": "uint256"
        }
      ],
      "name": "setManagementFee",
      "outputs": [],
      "stateMutability": "nonpayable",
      "type": "function"
    },
    {
      "inputs": [
        {
          "internalType": "address",
          "name": "_rewards",
          "type": "address"
        }
      ],
      "name": "setRewards",
      "outputs": [],
      "stateMutability": "nonpayable",
      "type": "function"
    },
    {
      "inputs": [
        {
          "internalType": "address",
          "name": "strategy",
          "type": "address"
        }
      ],
      "name": "strategyDebt",
      "outputs": [
        {
          "internalType": "uint256",
          "name": "",
          "type": "uint256"
        }
      ],
      "stateMutability": "view",
      "type": "function"
    },
    {
      "inputs": [
        {
          "internalType": "address",
          "name": "strategy",
          "type": "address"
        }
      ],
      "name": "strategyRatio",
      "outputs": [
        {
          "internalType": "uint256",
          "name": "",
          "type": "uint256"
        }
      ],
      "stateMutability": "view",
      "type": "function"
    },
    {
      "inputs": [],
      "name": "symbol",
      "outputs": [
        {
          "internalType": "string",
          "name": "",
          "type": "string"
        }
      ],
      "stateMutability": "view",
      "type": "function"
    },
    {
      "inputs": [],
      "name": "totalAssets",
      "outputs": [
        {
          "internalType": "uint256",
          "name": "",
          "type": "uint256"
        }
      ],
      "stateMutability": "view",
      "type": "function"
    },
    {
      "inputs": [],
      "name": "totalDebt",
      "outputs": [
        {
          "internalType": "uint256",
          "name": "",
          "type": "uint256"
        }
      ],
      "stateMutability": "view",
      "type": "function"
    },
    {
      "inputs": [],
      "name": "totalSupply",
      "outputs": [
        {
          "internalType": "uint256",
          "name": "",
          "type": "uint256"
        }
      ],
      "stateMutability": "view",
      "type": "function"
    },
    {
      "inputs": [
        {
          "internalType": "address",
          "name": "recipient",
          "type": "address"
        },
        {
          "internalType": "uint256",
          "name": "amount",
          "type": "uint256"
        }
      ],
      "name": "transfer",
      "outputs": [
        {
          "internalType": "bool",
          "name": "",
          "type": "bool"
        }
      ],
      "stateMutability": "nonpayable",
      "type": "function"
    },
    {
      "inputs": [
        {
          "internalType": "address",
          "name": "holder",
          "type": "address"
        },
        {
          "internalType": "address",
          "name": "recipient",
          "type": "address"
        },
        {
          "internalType": "uint256",
          "name": "amount",
          "type": "uint256"
        }
      ],
      "name": "transferFrom",
      "outputs": [
        {
          "internalType": "bool",
          "name": "",
          "type": "bool"
        }
      ],
      "stateMutability": "nonpayable",
      "type": "function"
    },
    {
      "inputs": [
        {
          "internalType": "address",
          "name": "newOwner",
          "type": "address"
        }
      ],
      "name": "transferOwnership",
      "outputs": [],
      "stateMutability": "nonpayable",
      "type": "function"
    },
    {
      "inputs": [
        {
          "internalType": "address",
          "name": "newImplementation",
          "type": "address"
        }
      ],
      "name": "upgradeTo",
      "outputs": [],
      "stateMutability": "nonpayable",
      "type": "function"
    },
    {
      "inputs": [
        {
          "internalType": "address",
          "name": "newImplementation",
          "type": "address"
        },
        {
          "internalType": "bytes",
          "name": "data",
          "type": "bytes"
        }
      ],
      "name": "upgradeToAndCall",
      "outputs": [],
      "stateMutability": "payable",
      "type": "function"
    },
    {
      "inputs": [
        {
          "internalType": "address",
          "name": "borrower",
          "type": "address"
        }
      ],
      "name": "utilizationRate",
      "outputs": [
        {
          "internalType": "uint256",
          "name": "",
          "type": "uint256"
        }
      ],
      "stateMutability": "view",
      "type": "function"
    },
    {
      "inputs": [],
      "name": "version",
      "outputs": [
        {
          "internalType": "string",
          "name": "",
          "type": "string"
        }
      ],
      "stateMutability": "pure",
      "type": "function"
    },
    {
      "inputs": [
        {
          "internalType": "uint256",
          "name": "assets",
          "type": "uint256"
        }
      ],
      "name": "withdraw",
      "outputs": [
        {
          "internalType": "uint256",
          "name": "shares",
          "type": "uint256"
        }
      ],
      "stateMutability": "nonpayable",
      "type": "function"
    },
    {
      "inputs": [
        {
          "internalType": "uint256",
          "name": "assets",
          "type": "uint256"
        },
        {
          "internalType": "address",
          "name": "",
          "type": "address"
        },
        {
          "internalType": "address",
          "name": "",
          "type": "address"
        }
      ],
      "name": "withdraw",
      "outputs": [
        {
          "internalType": "uint256",
          "name": "shares",
          "type": "uint256"
        }
      ],
      "stateMutability": "nonpayable",
      "type": "function"
    },
    {
      "inputs": [
        {
          "internalType": "uint256",
          "name": "",
          "type": "uint256"
        }
      ],
      "name": "withdrawHooks",
      "outputs": [
        {
          "internalType": "contract IVaultHook",
          "name": "",
          "type": "address"
        }
      ],
      "stateMutability": "view",
      "type": "function"
    },
    {
      "inputs": [
        {
          "internalType": "uint256",
          "name": "",
          "type": "uint256"
        }
      ],
      "name": "withdrawalQueue",
      "outputs": [
        {
          "internalType": "address",
          "name": "",
          "type": "address"
        }
      ],
      "stateMutability": "view",
      "type": "function"
    }
  ],
  "transactionHash": "0x8ad62567b7c77823cdc4fef025590de942f9f4bedacd6ea5398ac70d9b1d6ece",
  "args": [
    true
  ],
  "numDeployments": 2,
  "solcInputHash": "6b0503132db46151d999e136107fe0a4",
  "bytecode": "0x60a0604052306080523480156200001557600080fd5b5060405162005e7138038062005e71833981016040819052620000389162000113565b8080156200004a576200004a62000052565b50506200013e565b600054610100900460ff1615620000bf5760405162461bcd60e51b815260206004820152602760248201527f496e697469616c697a61626c653a20636f6e747261637420697320696e697469604482015266616c697a696e6760c81b606482015260840160405180910390fd5b60005460ff9081161462000111576000805460ff191660ff9081179091556040519081527f7f26b83ff96e1f2b6a682f133852f6798a09c465da95921460cefb38474024989060200160405180910390a15b565b6000602082840312156200012657600080fd5b815180151581146200013757600080fd5b9392505050565b608051615cfb62000176600039600081816114da01528181611523015281816116c20152818161170201526117950152615cfb6000f3fe6080604052600436106104e15760003560e01c80638da5cb5b11610281578063c9faa7c51161015a578063ed8384f8116100cc578063fc673c4f11610085578063fc673c4f14610f97578063fc7b9c1814610fb7578063fd967f4714610fce578063fe41401514610fe4578063fe56e23214611004578063fe9d93031461102457600080fd5b8063ed8384f814610e94578063ef8b30f714610eb4578063f2fde38b14610ed4578063f5a3bfad14610ef4578063f76e4caa14610f57578063fad8b32a14610f7757600080fd5b8063d905777e1161011e578063d905777e14610dad578063d95b637114610dcd578063db006a7514610ded578063dd62ed3e14610e0d578063dd723c1b14610e54578063ec38a86214610e7457600080fd5b8063c9faa7c514610d07578063ce348c6f14610d40578063ce96cb7714610d56578063cea55f5714610d76578063cfbde32614610d8d57600080fd5b8063b3d7f6b9116101f3578063c17047ed116101b7578063c17047ed14610c47578063c3535b5214610c81578063c63d75b61461084a578063c6e6f59214610ca7578063c822adda14610cc7578063c9411e2214610ce757600080fd5b8063b3d7f6b914610ba7578063b460af9414610bc7578063b6b55f2514610be7578063ba08765214610c07578063bb994d4814610c2757600080fd5b806399089a4e1161024557806399089a4e14610aef5780639bd9bbc614610b0f5780639ec5a89414610b2f578063a0712d6814610b50578063a6f7f5d614610b70578063a9059cbb14610b8757600080fd5b80638da5cb5b14610a645780638dfa4f0714610a8357806394bf804d14610a9a578063959b8c3f14610aba57806395d89b4114610ada57600080fd5b80633659cfe6116103be57806354fd4d501161033057806370a08231116102e957806370a08231146109bf578063715018a6146109f5578063759076e51461062457806380d5785514610a0a578063861d68d914610a44578063884719f214610a0a57600080fd5b806354fd4d5014610911578063556f0dc71461093f57806357db845a146109535780635c975abb1461096a57806362ad1b831461097f5780636e553f651461099f57600080fd5b8063411b007e11610382578063411b007e1461086c5780634a8c1fb41461088d5780634cdad506146108b25780634f1ef286146108d257806352d1902d146108e5578063547ccc91146108fa57600080fd5b80633659cfe6146107d457806338d52e0f146107f457806339d97c53146108155780633c93b9f214610835578063402d267d1461084a57600080fd5b80631415fa481161045757806323b872dd1161041b57806323b872dd146106f8578063267c1408146107185780632e1a7d4d146107345780632ff7709e14610754578063313ce5671461077e5780633306bc5b1461079a57600080fd5b80631415fa481461066157806314c644021461068357806318160ddd146106a3578063201afd83146106b8578063207b27df146106d857600080fd5b806307cc692f116104a957806307cc692f14610587578063095ea7b31461059c5780630a28a477146105cc5780630a96bb53146105ec5780630baabd7a14610624578063125317291461064a57600080fd5b806301e1d114146104e657806306e485381461050e57806306f94a0d1461053057806306fdde031461054557806307a2d13a14610567575b600080fd5b3480156104f257600080fd5b506104fb611044565b6040519081526020015b60405180910390f35b34801561051a57600080fd5b50610523611065565b60405161050591906150d2565b34801561053c57600080fd5b506104fb6110c7565b34801561055157600080fd5b5061055a6110d2565b604051610505919061516f565b34801561057357600080fd5b506104fb610582366004615182565b61115b565b34801561059357600080fd5b506104fb611192565b3480156105a857600080fd5b506105bc6105b73660046151bb565b61119d565b6040519015158152602001610505565b3480156105d857600080fd5b506104fb6105e7366004615182565b6111b7565b3480156105f857600080fd5b5061060c610607366004615182565b6111e8565b6040516001600160a01b039091168152602001610505565b34801561063057600080fd5b5033600090815261016260205260409020600201546104fb565b34801561065657600080fd5b506104fb6102c75481565b34801561066d57600080fd5b5061068161067c366004615182565b611213565b005b34801561068f57600080fd5b5061068161069e3660046151f5565b611252565b3480156106af57600080fd5b5060fc546104fb565b3480156106c457600080fd5b506106816106d3366004615212565b611272565b3480156106e457600080fd5b506104fb6106f3366004615212565b6112d9565b34801561070457600080fd5b506105bc61071336600461522f565b611334565b34801561072457600080fd5b506104fb670de0b6b3a764000081565b34801561074057600080fd5b506104fb61074f366004615182565b61137a565b34801561076057600080fd5b506107696113ab565b60408051928352602083019190915201610505565b34801561078a57600080fd5b5060405160128152602001610505565b3480156107a657600080fd5b506104fb6107b5366004615212565b6001600160a01b03166000908152610162602052604090206001015490565b3480156107e057600080fd5b506106816107ef366004615212565b6114d0565b34801561080057600080fd5b506101f95461060c906001600160a01b031681565b34801561082157600080fd5b50610681610830366004615270565b6115b5565b34801561084157600080fd5b506104fb611695565b34801561085657600080fd5b506104fb610865366004615212565b5060001990565b34801561087857600080fd5b506102c95461060c906001600160a01b031681565b34801561089957600080fd5b50336000908152610162602052604090205415156105bc565b3480156108be57600080fd5b506104fb6108cd366004615182565b6116ad565b6106816108e0366004615357565b6116b8565b3480156108f157600080fd5b506104fb611788565b34801561090657600080fd5b506104fb6102ca5481565b34801561091d57600080fd5b50604080518082019091526005815264302e322e3160d81b602082015261055a565b34801561094b57600080fd5b5060016104fb565b34801561095f57600080fd5b506104fb6101615481565b34801561097657600080fd5b506105bc61183b565b34801561098b57600080fd5b5061068161099a3660046153a7565b611845565b3480156109ab57600080fd5b506104fb6109ba36600461543a565b611881565b3480156109cb57600080fd5b506104fb6109da366004615212565b6001600160a01b0316600090815260fb602052604090205490565b348015610a0157600080fd5b5061068161188c565b348015610a1657600080fd5b506104fb610a25366004615212565b6001600160a01b03166000908152610162602052604090206002015490565b348015610a5057600080fd5b50610681610a5f36600461546a565b6118a0565b348015610a7057600080fd5b50610195546001600160a01b031661060c565b348015610a8f57600080fd5b506104fb6102c85481565b348015610aa657600080fd5b506104fb610ab536600461543a565b61192e565b348015610ac657600080fd5b50610681610ad5366004615212565b611939565b348015610ae657600080fd5b5061055a611a59565b348015610afb57600080fd5b50610681610b0a366004615516565b611a68565b348015610b1b57600080fd5b50610681610b2a36600461554b565b611a91565b348015610b3b57600080fd5b506102c55461060c906001600160a01b031681565b348015610b5c57600080fd5b506104fb610b6b366004615182565b611ab4565b348015610b7c57600080fd5b506104fb6102c65481565b348015610b9357600080fd5b506105bc610ba23660046151bb565b611ad4565b348015610bb357600080fd5b506104fb610bc2366004615182565b611b0c565b348015610bd357600080fd5b506104fb610be23660046155a4565b611b3c565b348015610bf357600080fd5b506104fb610c02366004615182565b611b47565b348015610c1357600080fd5b506104fb610c223660046155a4565b611b5a565b348015610c3357600080fd5b50610681610c42366004615212565b611b65565b348015610c5357600080fd5b506104fb610c62366004615212565b6001600160a01b03166000908152610162602052604090206003015490565b348015610c8d57600080fd5b5033600090815261016260205260409020600101546104fb565b348015610cb357600080fd5b506104fb610cc2366004615182565b611c06565b348015610cd357600080fd5b5061060c610ce2366004615182565b611c37565b348015610cf357600080fd5b50610681610d023660046151bb565b611c48565b348015610d1357600080fd5b506105bc610d22366004615212565b6001600160a01b031660009081526101626020526040902054151590565b348015610d4c57600080fd5b5061025e546104fb565b348015610d6257600080fd5b506104fb610d71366004615212565b611ce5565b348015610d8257600080fd5b506104fb6101605481565b348015610d9957600080fd5b50610681610da8366004615182565b611d07565b348015610db957600080fd5b506104fb610dc8366004615212565b611d77565b348015610dd957600080fd5b506105bc610de83660046155e6565b611d95565b348015610df957600080fd5b506104fb610e08366004615182565b611e39565b348015610e1957600080fd5b506104fb610e283660046155e6565b6001600160a01b0391821660009081526101036020908152604080832093909416825291909152205490565b348015610e6057600080fd5b50610681610e6f366004615270565b611eaa565b348015610e8057600080fd5b50610681610e8f366004615212565b611f86565b348015610ea057600080fd5b5061060c610eaf366004615182565b611fb1565b348015610ec057600080fd5b506104fb610ecf366004615182565b611fc2565b348015610ee057600080fd5b50610681610eef366004615212565b611fcd565b348015610f0057600080fd5b50610f37610f0f366004615212565b6101626020526000908152604090208054600182015460028301546003909301549192909184565b604080519485526020850193909352918301526060820152608001610505565b348015610f6357600080fd5b50610681610f72366004615212565b612043565b348015610f8357600080fd5b50610681610f92366004615212565b612118565b348015610fa357600080fd5b50610681610fb2366004615614565b612236565b348015610fc357600080fd5b506104fb61015f5481565b348015610fda57600080fd5b506104fb61271081565b348015610ff057600080fd5b50610681610fff366004615694565b61226e565b34801561101057600080fd5b5061068161101f366004615182565b6124e5565b34801561103057600080fd5b5061068161103f36600461575b565b612524565b600061104e61253f565b611056611695565b61106091906157a2565b905090565b606060ff8054806020026020016040519081016040528092919081815260200182805480156110bd57602002820191906000526020600020905b81546001600160a01b0316815260019091019060200180831161109f575b5050505050905090565b6000611060336125b4565b606060fd80546110e1906157b5565b80601f016020809104026020016040519081016040528092919081815260200182805461110d906157b5565b80156110bd5780601f1061112f576101008083540402835291602001916110bd565b820191906000526020600020905b81548152906001019060200180831161113d57509395945050505050565b60008061116760fc5490565b905080600003611178575090919050565b61118b611183611044565b84908361264b565b9392505050565b60006110603361266a565b6000336111ab818585612758565b60019150505b92915050565b6000806111c360fc5490565b9050806000036111d4575090919050565b61118b816111e0611044565b859190612880565b61029181815481106111f957600080fd5b6000918252602090912001546001600160a01b0316905081565b61121b6128ae565b6127106102c6548261122d91906157ef565b111561124c57604051630bc4369360e21b815260040160405180910390fd5b6102ca55565b61125a6128ae565b8061126a57611267612909565b50565b61126761295b565b61127a6128ae565b6102c980546001600160a01b03929092166001600160a01b0319928316811790915561029280546001810182556000919091527f47dc9219577b597b6eada661683162be71a26f1593fe5b77c8b669bbbc7a8b1b018054909216179055565b6000806112e4611695565b6001600160a01b03841660009081526101626020526040812060020154919250829003611315575060009392505050565b8161132261271083615802565b61132c9190615819565b949350505050565b600033611342858285612998565b61136f85858560405180602001604052806000815250604051806020016040528060008152506000612a25565b506001949350505050565b6000611384612b21565b61138d826111b7565b905061139b82823333612b7c565b6113a6600161012d55565b919050565b60008060008061015f546000036113c85750600093849350915050565b60005b61025e548110156114b357600061025e82815481106113ec576113ec61583b565b60009182526020822001546001600160a01b0316915061140b826112d9565b905061141781866157ef565b9450612710826001600160a01b0316632ff7709e6040518163ffffffff1660e01b8152600401602060405180830381865afa15801561145a573d6000803e3d6000fd5b505050506040513d601f19601f8201168201806040525081019061147e9190615851565b6114889083615802565b6114929190615819565b61149c90856157ef565b9350505080806114ab9061586a565b9150506113cb565b50816000036114c85750600093849350915050565b939092509050565b6001600160a01b037f00000000000000000000000000000000000000000000000000000000000000001630036115215760405162461bcd60e51b815260040161151890615883565b60405180910390fd5b7f00000000000000000000000000000000000000000000000000000000000000006001600160a01b031661156a600080516020615c7f833981519152546001600160a01b031690565b6001600160a01b0316146115905760405162461bcd60e51b8152600401611518906158cf565b61159981612c36565b6040805160008082526020820190925261126791839190612c3e565b336000908152610162602052604081205490036115e557604051630160ef0b60e51b815260040160405180910390fd5b6115ed612b21565b806115f733612da9565b10156116455760405162461bcd60e51b815260206004820152601d60248201527f4e6f7420656e6f7567682061737365747320666f72207061796d656e740000006044820152606401611518565b8115611655576116553383612e19565b6116623382600085612f79565b61166b826130fa565b611676600161012d55565b5050426101618190553360009081526101626020526040902060010155565b600061015f546116a3613126565b61106091906157ef565b60006111b18261115b565b6001600160a01b037f00000000000000000000000000000000000000000000000000000000000000001630036117005760405162461bcd60e51b815260040161151890615883565b7f00000000000000000000000000000000000000000000000000000000000000006001600160a01b0316611749600080516020615c7f833981519152546001600160a01b031690565b6001600160a01b03161461176f5760405162461bcd60e51b8152600401611518906158cf565b61177882612c36565b61178482826001612c3e565b5050565b6000306001600160a01b037f000000000000000000000000000000000000000000000000000000000000000016146118285760405162461bcd60e51b815260206004820152603860248201527f555550535570677261646561626c653a206d757374206e6f742062652063616c60448201527f6c6564207468726f7567682064656c656761746563616c6c00000000000000006064820152608401611518565b50600080516020615c7f83398151915290565b6000611060613194565b61184f3386611d95565b61186b5760405162461bcd60e51b81526004016115189061591b565b61187a85858585856001612a25565b5050505050565b600061118b83611b47565b6118946128ae565b61189e600061319e565b565b6118a86128ae565b60006118b661025e846131f1565b9050806118d657604051632df15a4160e11b815260040160405180910390fd5b816118e4576118e483613326565b826001600160a01b03167fb6a4d3fee462ca7c56e3e87f5942581b478433cf0003d49e1750c1ad1539ee3083604051611921911515815260200190565b60405180910390a2505050565b600061118b83611ab4565b6001600160a01b038116330361199d5760405162461bcd60e51b8152602060048201526024808201527f4552433737373a20617574686f72697a696e672073656c66206173206f70657260448201526330ba37b960e11b6064820152608401611518565b6001600160a01b0381166000908152610100602052604090205460ff16156119f057336000908152610102602090815260408083206001600160a01b03851684529091529020805460ff19169055611a20565b336000908152610101602090815260408083206001600160a01b03851684529091529020805460ff191660011790555b60405133906001600160a01b038316907ff4caeb2d6ca8932a215a353d0703c326ec2d81fc68170f320eb2ab49e9df61f990600090a350565b606060fe80546110e1906157b5565b611a706128ae565b611a7c61025e82613390565b80516117849161025e91602090910190615058565b611aaf33848484604051806020016040528060008152506001612a25565b505050565b6000611abe612b21565b611ac782611b0c565b905061139b818333613482565b6000611b0333848460405180602001604052806000815250604051806020016040528060008152506000612a25565b50600192915050565b600080611b1860fc5490565b905080600003611b29575090919050565b61118b611b34611044565b849083612880565b600061132c8461137a565b6000611b51613515565b6111b18261355d565b600061132c84611e39565b80611b79610195546001600160a01b031690565b6001600160a01b0316336001600160a01b031614158015611ba35750336001600160a01b03821614155b15611bc357604051630869704160e41b8152336004820152602401611518565b611bce8260006135cd565b6040516001600160a01b038316907f4201c688d84c01154d321afa0c72f1bffe9eef53005c9de9d035074e71e9b32a90600090a25050565b600080611c1260fc5490565b905080600003611c23575090919050565b61118b81611c2f611044565b85919061264b565b61025e81815481106111f957600080fd5b611c506128ae565b611c58613515565b6001600160a01b038216611c7f5760405163f5bf603960e01b815260040160405180910390fd5b611c88826136b5565b611c9282826137c6565b611c9e61025e83613896565b816001600160a01b03167f2f564a83158ad1831793ad3e69257b52f39ece5d49cb0d8746708ecb9ef964da82604051611cd991815260200190565b60405180910390a25050565b6001600160a01b038116600090815260fb60205260408120546111b19061115b565b611d0f6128ae565b670de0b6b3a7640000811115611d3b57604051639058c3f760e01b815260048101829052602401611518565b6102c88190556040518181527f6619a135102d0d043ca15a77ad3878b0c97fb8ead5829208b0f79c00711fa7c79060200160405180910390a150565b6001600160a01b038116600090815260fb60205260408120546111b1565b6000816001600160a01b0316836001600160a01b03161480611e0257506001600160a01b0383166000908152610100602052604090205460ff168015611e0257506001600160a01b038083166000908152610102602090815260408083209387168352929052205460ff16155b8061118b5750506001600160a01b039081166000908152610101602090815260408083209490931682529290925290205460ff1690565b6000611e43612b21565b611e4c826116ad565b905080600003611e9e5760405162461bcd60e51b815260206004820181905260248201527f476976656e2073686172657320726573756c7420696e2030206173736574732e6044820152606401611518565b61139b81833333612b7c565b33600090815261016260205260408120549003611eda57604051630160ef0b60e51b815260040160405180910390fd5b611ee2612b21565b611eec81836157ef565b611ef533612da9565b1015611f145760405163112093df60e31b815260040160405180910390fd5b60008083118015611f375750336000908152610162602052604090206001015442115b8015611f525750336000908152610162602052604090205442115b15611f6357611f60836138ca565b90505b611f703383856000612f79565b611f7a8382613a1e565b50611676600161012d55565b611f8e6128ae565b6102c580546001600160a01b0319166001600160a01b0392909216919091179055565b61029281815481106111f957600080fd5b60006111b182611c06565b611fd56128ae565b6001600160a01b03811661203a5760405162461bcd60e51b815260206004820152602660248201527f4f776e61626c653a206e6577206f776e657220697320746865207a65726f206160448201526564647265737360d01b6064820152608401611518565b6112678161319e565b61204b6128ae565b6001600160a01b0381166120725760405163f5bf603960e01b815260040160405180910390fd5b61207e61025e82613a3c565b1561209c5760405163c45546f760e01b815260040160405180910390fd5b6001600160a01b0381166000908152610162602052604081205490036120d5576040516332ffc55b60e11b815260040160405180910390fd5b6120e161025e82613896565b6040516001600160a01b038216907f0bd7504c563a4658373bef3dbb51f91f63b8c6d5ba60806c678e75df33b4569890600090a250565b336001600160a01b0382160361217a5760405162461bcd60e51b815260206004820152602160248201527f4552433737373a207265766f6b696e672073656c66206173206f70657261746f6044820152603960f91b6064820152608401611518565b6001600160a01b0381166000908152610100602052604090205460ff16156121d057336000908152610102602090815260408083206001600160a01b03851684529091529020805460ff191660011790556121fd565b336000908152610101602090815260408083206001600160a01b03851684529091529020805460ff191690555b60405133906001600160a01b038316907f50546e66e5f44d728365dc3908c63bc5cfeeab470722c1677e3073a6ac294aa190600090a350565b6122403385611d95565b61225c5760405162461bcd60e51b81526004016115189061591b565b61226884848484613aa5565b50505050565b600054610100900460ff161580801561228e5750600054600160ff909116105b806122a85750303b1580156122a8575060005460ff166001145b61230b5760405162461bcd60e51b815260206004820152602e60248201527f496e697469616c697a61626c653a20636f6e747261637420697320616c72656160448201526d191e481a5b9a5d1a585b1a5e995960921b6064820152608401611518565b6000805460ff19166001179055801561232e576000805461ff0019166101001790555b612336613c5a565b61233e613c91565b61247089865160001461235157866123d7565b8a6001600160a01b03166395d89b416040518163ffffffff1660e01b8152600401600060405180830381865afa15801561238f573d6000803e3d6000fd5b505050506040513d6000823e601f3d908101601f191682016040526123b79190810190615967565b6040516020016123c791906159de565b6040516020818303038152906040525b8651156123e4578661246a565b8b6001600160a01b03166395d89b416040518163ffffffff1660e01b8152600401600060405180830381865afa158015612422573d6000803e3d6000fd5b505050506040513d6000823e601f3d908101601f1916820160405261244a9190810190615967565b60405160200161245a9190615a16565b6040516020818303038152906040525b86613d2b565b61247988611f86565b612482876124e5565b61248b86611d07565b61249482611213565b80156124da576000805461ff0019169055604051600181527f7f26b83ff96e1f2b6a682f133852f6798a09c465da95921460cefb38474024989060200160405180910390a15b505050505050505050565b6124ed6128ae565b6127106102ca54826124ff91906157ef565b111561251e57604051630bc4369360e21b815260040160405180910390fd5b6102c655565b61178433838360405180602001604052806000815250613aa5565b6000806102c854610161544261255591906157a2565b61255f9190615802565b9050670de0b6b3a7640000811061257857600091505090565b6000670de0b6b3a76400006102c754836125929190615802565b61259c9190615819565b9050806102c7546125ad91906157a2565b9250505090565b6001600160a01b038116600090815261016260205260408120600201546125d961183b565b806125e5575061016054155b156125f05792915050565b60006127106125fd611695565b6001600160a01b038616600090815261016260205260409020600301546126249190615802565b61262e9190615819565b9050808211612641575060009392505050565b61132c81836157a2565b82820281151584158583048514171661266357600080fd5b0492915050565b600061267461183b565b1561268157506000919050565b600061268b613d5e565b61015f54909150600061271061269f611695565b6001600160a01b038716600090815261016260205260409020600301546126c69190615802565b6126d09190615819565b6001600160a01b0386166000908152610162602052604090206002015490915082841115806126ff5750808211155b156127105750600095945050505050565b600061271c84866157a2565b9050600061272a83856157a2565b905060006127388383613d83565b905061274b81612746613126565b613d83565b9998505050505050505050565b6001600160a01b0383166127bc5760405162461bcd60e51b815260206004820152602560248201527f4552433737373a20617070726f76652066726f6d20746865207a65726f206164604482015264647265737360d81b6064820152608401611518565b6001600160a01b03821661281e5760405162461bcd60e51b815260206004820152602360248201527f4552433737373a20617070726f766520746f20746865207a65726f206164647260448201526265737360e81b6064820152608401611518565b6001600160a01b038381166000818152610103602090815260408083209487168084529482529182902085905590518481527f8c5be1e5ebec7d5bd14f71427d1e84f3dd0314c0f7b2291e5b200ac8c7c3b925910160405180910390a3505050565b82820281151584158583048514171661289857600080fd5b6001826001830304018115150290509392505050565b610195546001600160a01b0316331461189e5760405162461bcd60e51b815260206004820181905260248201527f4f776e61626c653a2063616c6c6572206973206e6f7420746865206f776e65726044820152606401611518565b612911613d99565b60c9805460ff191690557f5db9ee0a495bf2e6ff9c91a7834c1ba4fdd244a5e8aa4e537bd38aeae4b073aa335b6040516001600160a01b03909116815260200160405180910390a1565b612963613515565b60c9805460ff191660011790557f62e78cea01bee320cd4e420270b5ea74000d11b0c9f74754ebdbfc544b05a25861293e3390565b6001600160a01b038381166000908152610103602090815260408083209386168352929052205460001981146122685781811015612a185760405162461bcd60e51b815260206004820152601e60248201527f4552433737373a20696e73756666696369656e7420616c6c6f77616e636500006044820152606401611518565b6122688484848403612758565b6001600160a01b038616612a8a5760405162461bcd60e51b815260206004820152602660248201527f4552433737373a207472616e736665722066726f6d20746865207a65726f206160448201526564647265737360d01b6064820152608401611518565b6001600160a01b038516612aec5760405162461bcd60e51b8152602060048201526024808201527f4552433737373a207472616e7366657220746f20746865207a65726f206164646044820152637265737360e01b6064820152608401611518565b33612afb818888888888613de4565b612b09818888888888613f0b565b612b1881888888888888614071565b50505050505050565b600261012d5403612b745760405162461bcd60e51b815260206004820152601f60248201527f5265656e7472616e637947756172643a207265656e7472616e742063616c6c006044820152606401611518565b600261012d55565b336001600160a01b03821614612b9757612b97813385612998565b612ba18484614236565b612bcb81846040518060200160405280600081525060405180602001604052806000815250613aa5565b60408051858152602081018590526001600160a01b03808416929085169133917ffbde797d201c681b91056529119e0b02407c7bb96a4a2c75c01fc9667232c8db910160405180910390a46101f954612268906001600160a01b031683866143b0565b600161012d55565b6112676128ae565b7f4910fdfa16fed3260ed0e7147f7cc6da11a60208b5b9406d12a635614ffd91435460ff1615612c7157611aaf83614413565b826001600160a01b03166352d1902d6040518163ffffffff1660e01b8152600401602060405180830381865afa925050508015612ccb575060408051601f3d908101601f19168201909252612cc891810190615851565b60015b612d2e5760405162461bcd60e51b815260206004820152602e60248201527f45524331393637557067726164653a206e657720696d706c656d656e7461746960448201526d6f6e206973206e6f74205555505360901b6064820152608401611518565b600080516020615c7f8339815191528114612d9d5760405162461bcd60e51b815260206004820152602960248201527f45524331393637557067726164653a20756e737570706f727465642070726f786044820152681a58589b195555525160ba1b6064820152608401611518565b50611aaf8383836144af565b6101f9546040516370a0823160e01b81526001600160a01b03838116600483015260009216906370a0823190602401602060405180830381865afa158015612df5573d6000803e3d6000fd5b505050506040513d601f19601f820116820180604052508101906111b19190615851565b6001600160a01b0382166000908152610162602052604090206002015481811015612e865760405162461bcd60e51b815260206004820152601d60248201527f4c6f73732069732067726561746572207468616e2074686520646562740000006044820152606401611518565b6101605415612f29576000612ed361015f548461016054612ea79190615802565b612eb19190615819565b6001600160a01b03861660009081526101626020526040902060030154613d83565b90508015612f27576001600160a01b0384166000908152610162602052604081206003018054839290612f079084906157a2565b92505081905550806101606000828254612f2191906157a2565b90915550505b505b6001600160a01b0383166000908152610162602052604081206002018054849290612f559084906157a2565b925050819055508161015f6000828254612f6f91906157a2565b9091555050505050565b6000612f848561266a565b90506000612f91336125b4565b9050612f9d8582613d83565b94508415612ff1576001600160a01b0386166000908152610162602052604081206002018054879290612fd19084906157a2565b925050819055508461015f6000828254612feb91906157a2565b90915550505b8115613043576001600160a01b03861660009081526101626020526040812060020180548492906130239084906157ef565b925050819055508161015f600082825461303d91906157ef565b90915550505b600061304f86866157ef565b9050600080848310156130775761306683866157a2565b915061307289836144d4565b613095565b848311156130955761308985846157a2565b905061309589826144ec565b604080518981526020810189905290810183905260608101829052608081018790526001600160a01b038a16907f92a0cdbae2e10dc214d482504ecbf0461593fd2fbfbedad5a195f5ebb7dcee739060a00160405180910390a2505050505050505050565b600061310461253f565b905081811161311457600061311e565b61311e82826157a2565b6102c7555050565b6101f9546040516370a0823160e01b81523060048201526000916001600160a01b0316906370a0823190602401602060405180830381865afa158015613170573d6000803e3d6000fd5b505050506040513d601f19601f820116820180604052508101906110609190615851565b6000611060614505565b61019580546001600160a01b038381166001600160a01b0319831681179093556040519116919082907f8be0079c531659141344cd1fd0a4f28419497f9722a3daafe3b4186f6b6457e090600090a35050565b60008060005b84548110156132e657836001600160a01b031685828154811061321c5761321c61583b565b6000918252602090912001546001600160a01b03160361323b57600191505b81801561325457508454613251906001906157a2565b81105b156132d457846132658260016157ef565b815481106132755761327561583b565b9060005260206000200160009054906101000a90046001600160a01b03168582815481106132a5576132a561583b565b9060005260206000200160006101000a8154816001600160a01b0302191690836001600160a01b031602179055505b806132de8161586a565b9150506131f7565b50801561118b57838054806132fd576132fd615a41565b600082815260209020810160001990810180546001600160a01b03191690550190559392505050565b6001600160a01b03811660009081526101626020526040902060030154156133615760405163c69bfc5f60e01b815260040160405180910390fd5b6001600160a01b0316600090815261016260205260408120818155600181018290556002810182905560030155565b815481516060919081146133b7576040516336c2ff5d60e01b815260040160405180910390fd5b60005b818110156134795760008582815481106133d6576133d661583b565b60009182526020822001546001600160a01b031691505b83811015613464578581815181106134075761340761583b565b60200260200101516001600160a01b0316826001600160a01b03160315613464576134336001856157a2565b8103613452576040516336c2ff5d60e01b815260040160405180910390fd5b8061345c8161586a565b9150506133ed565b505080806134719061586a565b9150506133ba565b50919392505050565b6101f95461349b906001600160a01b0316333086614513565b6134c58183604051806020016040528060008152506040518060200160405280600081525061454b565b60408051848152602081018490526001600160a01b0383169133917fdcbc1c05240f31ff3ad067ef1ee35ce4997762752e3a095284754544f4c709d7910160405180910390a3611aaf8383614559565b61351d61183b565b1561189e5760405162461bcd60e51b815260206004820152601060248201526f14185d5cd8589b194e881c185d5cd95960821b6044820152606401611518565b6000613567612b21565b61357082611fc2565b9050806000036135c25760405162461bcd60e51b815260206004820181905260248201527f476976656e2061737365747320726573756c7420696e2030207368617265732e6044820152606401611518565b61139b828233613482565b6001600160a01b03821660009081526101626020526040902054613604576040516332ffc55b60e11b815260040160405180910390fd5b6001600160a01b038216600090815261016260205260408120600301546101608054919290916136359084906157a2565b90915550506001600160a01b038216600090815261016260205260408120600301829055610160805483929061366c9084906157ef565b909155505061016054612710101561178457806101605461368d91906157a2565b613699906127106157a2565b604051639eb4cd0560e01b815260040161151891815260200190565b806001600160a01b031663bcead63e6040518163ffffffff1660e01b8152600401602060405180830381865afa1580156136f3573d6000803e3d6000fd5b505050506040513d601f19601f820116820180604052508101906137179190615a57565b6001600160a01b0316306001600160a01b03161415806137a85750806001600160a01b03166338d52e0f6040518163ffffffff1660e01b8152600401602060405180830381865afa158015613770573d6000803e3d6000fd5b505050506040513d601f19601f820116820180604052508101906137949190615a57565b6101f9546001600160a01b03908116911614155b1561126757604051631120dc3360e21b815260040160405180910390fd5b6001600160a01b03821660009081526101626020526040902054156137fe576040516312635b0b60e21b815260040160405180910390fd5b612710816101605461381091906157ef565b11156138265761016054613699906127106157a2565b604080516080810182524280825260208083019182526000838501818152606085018781526001600160a01b03891683526101629093529481209351845591516001840155925160028301559151600390910155610160805483929061388d9084906157ef565b90915550505050565b81546001810183556000928352602090922090910180546001600160a01b0319166001600160a01b03909216919091179055565b6000806127106102c654846138df9190615802565b6138e99190615819565b90508015613932576102c554613932906001600160a01b031661390b83611c06565b60405180602001604052806000815250604051806020016040528060008152506000614563565b6102c9546001600160a01b03166139495792915050565b60006127106102ca548561395d9190615802565b6139679190615819565b90508015613a1457600061397a82611c06565b6102c9546040805160208082018352600080835283519182019093528281529394506139b3936001600160a01b03909316928592614563565b6102c954604051631e2720ff60e01b8152600481018390526001600160a01b0390911690631e2720ff90602401600060405180830381600087803b1580156139fa57600080fd5b505af1158015613a0e573d6000803e3d6000fd5b50505050505b61132c81836157ef565b8082613a2861253f565b613a3291906157ef565b61311e91906157a2565b6000805b8354811015613a9b57826001600160a01b0316848281548110613a6557613a6561583b565b6000918252602090912001546001600160a01b031603613a895760019150506111b1565b80613a938161586a565b915050613a40565b5060009392505050565b6001600160a01b038416613b065760405162461bcd60e51b815260206004820152602260248201527f4552433737373a206275726e2066726f6d20746865207a65726f206164647265604482015261737360f01b6064820152608401611518565b33613b1681866000878787613de4565b6001600160a01b038516600090815260fb602052604090205484811015613b8b5760405162461bcd60e51b815260206004820152602360248201527f4552433737373a206275726e20616d6f756e7420657863656564732062616c616044820152626e636560e81b6064820152608401611518565b6001600160a01b038616600090815260fb60205260408120868303905560fc8054879290613bba9084906157a2565b92505081905550856001600160a01b0316826001600160a01b03167fa78a9be3a7b862d26933ad85fb11d80ef66b8f972d7cbba06621d583943a4098878787604051613c0893929190615a74565b60405180910390a36040518581526000906001600160a01b038816907fddf252ad1be2c89b69c2b068fc378daa952ba7f163c4a11628f55a4df523b3ef906020015b60405180910390a3505050505050565b600054610100900460ff16613c815760405162461bcd60e51b815260040161151890615a9f565b613c896146a0565b61189e6146cf565b600054610100900460ff16613cb85760405162461bcd60e51b815260040161151890615a9f565b6000613ccd610195546001600160a01b031690565b6001600160a01b031603613d235760405162461bcd60e51b815260206004820181905260248201527f537472617465676965734c656e646572206d757374206265206f776e61626c656044820152606401611518565b61189e6146fe565b600054610100900460ff16613d525760405162461bcd60e51b815260040161151890615a9f565b6122688484848461473d565b6000612710613d6b611695565b61016054613d799190615802565b6110609190615819565b6000818310613d92578161118b565b5090919050565b613da161183b565b61189e5760405162461bcd60e51b815260206004820152601460248201527314185d5cd8589b194e881b9bdd081c185d5cd95960621b6044820152606401611518565b60405163555ddc6560e11b81526001600160a01b03861660048201527f29ddb589b1fb5fc7cf394961c1adf5f8c6454761adf795e67fe149f658abe8956024820152600090731820a4b7618bde71dce8cdc73aab6c95905fad249063aabbb8ca90604401602060405180830381865afa158015613e65573d6000803e3d6000fd5b505050506040513d601f19601f82011682018060405250810190613e899190615a57565b90506001600160a01b03811615612b1857604051633ad5cbc160e11b81526001600160a01b038216906375ab978290613ed0908a908a908a908a908a908a90600401615aea565b600060405180830381600087803b158015613eea57600080fd5b505af1158015613efe573d6000803e3d6000fd5b5050505050505050505050565b6001600160a01b038516600090815260fb602052604090205483811015613f845760405162461bcd60e51b815260206004820152602760248201527f4552433737373a207472616e7366657220616d6f756e7420657863656564732060448201526662616c616e636560c81b6064820152608401611518565b6001600160a01b03808716600090815260fb6020526040808220878503905591871681529081208054869290613fbb9084906157ef565b92505081905550846001600160a01b0316866001600160a01b0316886001600160a01b03167f06b541ddaa720db2b10a4d0cdac39b8d360425fc073085fac19bc8261467798787878760405161401393929190615a74565b60405180910390a4846001600160a01b0316866001600160a01b03167fddf252ad1be2c89b69c2b068fc378daa952ba7f163c4a11628f55a4df523b3ef8660405161406091815260200190565b60405180910390a350505050505050565b60405163555ddc6560e11b81526001600160a01b03861660048201527fb281fc8c12954d22544db45de3159a39272895b169a852b314f9cc762e44c53b6024820152600090731820a4b7618bde71dce8cdc73aab6c95905fad249063aabbb8ca90604401602060405180830381865afa1580156140f2573d6000803e3d6000fd5b505050506040513d601f19601f820116820180604052508101906141169190615a57565b90506001600160a01b03811615614192576040516223de2960e01b81526001600160a01b038216906223de299061415b908b908b908b908b908b908b90600401615aea565b600060405180830381600087803b15801561417557600080fd5b505af1158015614189573d6000803e3d6000fd5b5050505061422c565b811561422c576001600160a01b0386163b1561422c5760405162461bcd60e51b815260206004820152604d60248201527f4552433737373a20746f6b656e20726563697069656e7420636f6e747261637460448201527f20686173206e6f20696d706c656d656e74657220666f7220455243373737546f60648201526c1ad95b9cd49958da5c1a595b9d609a1b608482015260a401611518565b5050505050505050565b8161423f613126565b10614248575050565b60005b61025e54811015614373576000614260613126565b905080841161426f5750614373565b600061025e83815481106142855761428561583b565b60009182526020822001546001600160a01b031691506142ca6142a884886157a2565b6001600160a01b03841660009081526101626020526040902060020154613d83565b9050806000036142dc57505050614361565b604051632e1a7d4d60e01b8152600481018290526000906001600160a01b03841690632e1a7d4d906024016020604051808303816000875af1158015614326573d6000803e3d6000fd5b505050506040513d601f19601f8201168201806040525081019061434a9190615851565b9050801561435c5761435c8382612e19565b505050505b8061436b8161586a565b91505061424b565b508161437d613126565b10156143a65760405163bce5067160e01b81526004810183905260248101829052604401611518565b6117848282614780565b6040516001600160a01b038316602482015260448101829052611aaf90849063a9059cbb60e01b906064015b60408051601f198184030181529190526020810180516001600160e01b03166001600160e01b031990931692909217909152614884565b6001600160a01b0381163b6144805760405162461bcd60e51b815260206004820152602d60248201527f455243313936373a206e657720696d706c656d656e746174696f6e206973206e60448201526c1bdd08184818dbdb9d1c9858dd609a1b6064820152608401611518565b600080516020615c7f83398151915280546001600160a01b0319166001600160a01b0392909216919091179055565b6144b883614959565b6000825111806144c55750805b15611aaf576122688383614999565b6101f954611784906001600160a01b031683836143b0565b6101f954611784906001600160a01b0316833084614513565b600061106060c95460ff1690565b6040516001600160a01b03808516602483015283166044820152606481018290526122689085906323b872dd60e01b906084016143dc565b612268848484846001614563565b61178482826149be565b6001600160a01b0385166145b95760405162461bcd60e51b815260206004820181905260248201527f4552433737373a206d696e7420746f20746865207a65726f20616464726573736044820152606401611518565b60003390508460fc60008282546145d091906157ef565b90915550506001600160a01b038616600090815260fb6020526040812080548792906145fd9084906157ef565b9091555061461390508160008888888888614071565b856001600160a01b0316816001600160a01b03167f2fe5be0146f74c5bce36c0b80911af6c7d86ff27e89d5cfa61fc681327954e5d87878760405161465a93929190615a74565b60405180910390a36040518581526001600160a01b038716906000907fddf252ad1be2c89b69c2b068fc378daa952ba7f163c4a11628f55a4df523b3ef90602001613c4a565b600054610100900460ff166146c75760405162461bcd60e51b815260040161151890615a9f565b61189e614ac2565b600054610100900460ff166146f65760405162461bcd60e51b815260040161151890615a9f565b61189e614ae9565b600054610100900460ff166147255760405162461bcd60e51b815260040161151890615a9f565b61472d614b19565b614735614b48565b61189e614b77565b600054610100900460ff166147645760405162461bcd60e51b815260040161151890615a9f565b61476f838383614ba5565b614777614b48565b61226884614bd7565b6102915460000361478f575050565b60006040518060800160405280848152602001838152602001336001600160a01b031681526020016147c033611ce5565b9052905060005b6102915481101561226857600061029182815481106147e8576147e861583b565b60009182526020918290200154604080516324b193fb60e11b8152865160048201529286015160248401528501516001600160a01b03908116604484015260608601516064840152169150819063496327f690608401600060405180830381600087803b15801561485857600080fd5b505af115801561486c573d6000803e3d6000fd5b5050505050808061487c9061586a565b9150506147c7565b60006148d9826040518060400160405280602081526020017f5361666545524332303a206c6f772d6c6576656c2063616c6c206661696c6564815250856001600160a01b0316614c219092919063ffffffff16565b90508051600014806148fa5750808060200190518101906148fa9190615b37565b611aaf5760405162461bcd60e51b815260206004820152602a60248201527f5361666545524332303a204552433230206f7065726174696f6e20646964206e6044820152691bdd081cdd58d8d9595960b21b6064820152608401611518565b61496281614413565b6040516001600160a01b038216907fbc7cd75a20ee27fd9adebab32041f755214dbc6bffa90cc0225b39da2e5c2d3b90600090a250565b606061118b8383604051806060016040528060278152602001615c9f60279139614c30565b610292546000036149cd575050565b60006040518060800160405280848152602001838152602001336001600160a01b031681526020016149fe33611ce5565b9052905060005b610292548110156122685760006102928281548110614a2657614a2661583b565b600091825260209182902001546040805163ec6a5f8360e01b8152865160048201529286015160248401528501516001600160a01b03908116604484015260608601516064840152169150819063ec6a5f8390608401600060405180830381600087803b158015614a9657600080fd5b505af1158015614aaa573d6000803e3d6000fd5b50505050508080614aba9061586a565b915050614a05565b600054610100900460ff1661189e5760405162461bcd60e51b815260040161151890615a9f565b600054610100900460ff16614b105760405162461bcd60e51b815260040161151890615a9f565b61189e3361319e565b600054610100900460ff16614b405760405162461bcd60e51b815260040161151890615a9f565b61189e614ca8565b600054610100900460ff16614b6f5760405162461bcd60e51b815260040161151890615a9f565b61189e614cdb565b600054610100900460ff16614b9e5760405162461bcd60e51b815260040161151890615a9f565b4261016155565b600054610100900460ff16614bcc5760405162461bcd60e51b815260040161151890615a9f565b611aaf838383614d02565b600054610100900460ff16614bfe5760405162461bcd60e51b815260040161151890615a9f565b6101f980546001600160a01b0319166001600160a01b0392909216919091179055565b606061132c8484600085614edf565b6060600080856001600160a01b031685604051614c4d9190615b54565b600060405180830381855af49150503d8060008114614c88576040519150601f19603f3d011682016040523d82523d6000602084013e614c8d565b606091505b5091509150614c9e86838387614fba565b9695505050505050565b600054610100900460ff16614ccf5760405162461bcd60e51b815260040161151890615a9f565b60c9805460ff19169055565b600054610100900460ff16612c2e5760405162461bcd60e51b815260040161151890615a9f565b600054610100900460ff16614d295760405162461bcd60e51b815260040161151890615a9f565b60fd614d358482615bbe565b5060fe614d428382615bbe565b508051614d569060ff906020840190615058565b5060005b8151811015614dc05760016101006000848481518110614d7c57614d7c61583b565b6020908102919091018101516001600160a01b03168252810191909152604001600020805460ff191691151591909117905580614db88161586a565b915050614d5a565b506040516329965a1d60e01b815230600482018190527fac7fbab5f54a3ca8194167523c6753bfeb96a445279294b6125b68cce217705460248301526044820152731820a4b7618bde71dce8cdc73aab6c95905fad24906329965a1d90606401600060405180830381600087803b158015614e3a57600080fd5b505af1158015614e4e573d6000803e3d6000fd5b50506040516329965a1d60e01b815230600482018190527faea199e31a596269b42cdafd93407f14436db6e4cad65417994c2eb37381e05a60248301526044820152731820a4b7618bde71dce8cdc73aab6c95905fad2492506329965a1d9150606401600060405180830381600087803b158015614ecb57600080fd5b505af1158015612b18573d6000803e3d6000fd5b606082471015614f405760405162461bcd60e51b815260206004820152602660248201527f416464726573733a20696e73756666696369656e742062616c616e636520666f6044820152651c8818d85b1b60d21b6064820152608401611518565b600080866001600160a01b03168587604051614f5c9190615b54565b60006040518083038185875af1925050503d8060008114614f99576040519150601f19603f3d011682016040523d82523d6000602084013e614f9e565b606091505b5091509150614faf87838387614fba565b979650505050505050565b60608315615029578251600003615022576001600160a01b0385163b6150225760405162461bcd60e51b815260206004820152601d60248201527f416464726573733a2063616c6c20746f206e6f6e2d636f6e74726163740000006044820152606401611518565b508161132c565b61132c838381511561503e5781518083602001fd5b8060405162461bcd60e51b8152600401611518919061516f565b8280548282559060005260206000209081019282156150ad579160200282015b828111156150ad57825182546001600160a01b0319166001600160a01b03909116178255602090920191600190910190615078565b506150b99291506150bd565b5090565b5b808211156150b957600081556001016150be565b6020808252825182820181905260009190848201906040850190845b818110156151135783516001600160a01b0316835292840192918401916001016150ee565b50909695505050505050565b60005b8381101561513a578181015183820152602001615122565b50506000910152565b6000815180845261515b81602086016020860161511f565b601f01601f19169290920160200192915050565b60208152600061118b6020830184615143565b60006020828403121561519457600080fd5b5035919050565b6001600160a01b038116811461126757600080fd5b80356113a68161519b565b600080604083850312156151ce57600080fd5b82356151d98161519b565b946020939093013593505050565b801515811461126757600080fd5b60006020828403121561520757600080fd5b813561118b816151e7565b60006020828403121561522457600080fd5b813561118b8161519b565b60008060006060848603121561524457600080fd5b833561524f8161519b565b9250602084013561525f8161519b565b929592945050506040919091013590565b6000806040838503121561528357600080fd5b50508035926020909101359150565b634e487b7160e01b600052604160045260246000fd5b604051601f8201601f1916810167ffffffffffffffff811182821017156152d1576152d1615292565b604052919050565b600067ffffffffffffffff8211156152f3576152f3615292565b50601f01601f191660200190565b600082601f83011261531257600080fd5b8135615325615320826152d9565b6152a8565b81815284602083860101111561533a57600080fd5b816020850160208301376000918101602001919091529392505050565b6000806040838503121561536a57600080fd5b82356153758161519b565b9150602083013567ffffffffffffffff81111561539157600080fd5b61539d85828601615301565b9150509250929050565b600080600080600060a086880312156153bf57600080fd5b85356153ca8161519b565b945060208601356153da8161519b565b935060408601359250606086013567ffffffffffffffff808211156153fe57600080fd5b61540a89838a01615301565b9350608088013591508082111561542057600080fd5b5061542d88828901615301565b9150509295509295909350565b6000806040838503121561544d57600080fd5b82359150602083013561545f8161519b565b809150509250929050565b6000806040838503121561547d57600080fd5b82356154888161519b565b9150602083013561545f816151e7565b600082601f8301126154a957600080fd5b8135602067ffffffffffffffff8211156154c5576154c5615292565b8160051b6154d48282016152a8565b92835284810182019282810190878511156154ee57600080fd5b83870192505b84831015614faf5782356155078161519b565b825291830191908301906154f4565b60006020828403121561552857600080fd5b813567ffffffffffffffff81111561553f57600080fd5b61132c84828501615498565b60008060006060848603121561556057600080fd5b833561556b8161519b565b925060208401359150604084013567ffffffffffffffff81111561558e57600080fd5b61559a86828701615301565b9150509250925092565b6000806000606084860312156155b957600080fd5b8335925060208401356155cb8161519b565b915060408401356155db8161519b565b809150509250925092565b600080604083850312156155f957600080fd5b82356156048161519b565b9150602083013561545f8161519b565b6000806000806080858703121561562a57600080fd5b84356156358161519b565b935060208501359250604085013567ffffffffffffffff8082111561565957600080fd5b61566588838901615301565b9350606087013591508082111561567b57600080fd5b5061568887828801615301565b91505092959194509250565b600080600080600080600080610100898b0312156156b157600080fd5b6156ba896151b0565b97506156c860208a016151b0565b96506040890135955060608901359450608089013567ffffffffffffffff808211156156f357600080fd5b6156ff8c838d01615301565b955060a08b013591508082111561571557600080fd5b6157218c838d01615301565b945060c08b013591508082111561573757600080fd5b506157448b828c01615498565b92505060e089013590509295985092959890939650565b6000806040838503121561576e57600080fd5b82359150602083013567ffffffffffffffff81111561539157600080fd5b634e487b7160e01b600052601160045260246000fd5b818103818111156111b1576111b161578c565b600181811c908216806157c957607f821691505b6020821081036157e957634e487b7160e01b600052602260045260246000fd5b50919050565b808201808211156111b1576111b161578c565b80820281158282048414176111b1576111b161578c565b60008261583657634e487b7160e01b600052601260045260246000fd5b500490565b634e487b7160e01b600052603260045260246000fd5b60006020828403121561586357600080fd5b5051919050565b60006001820161587c5761587c61578c565b5060010190565b6020808252602c908201527f46756e6374696f6e206d7573742062652063616c6c6564207468726f7567682060408201526b19195b1959d85d1958d85b1b60a21b606082015260800190565b6020808252602c908201527f46756e6374696f6e206d7573742062652063616c6c6564207468726f7567682060408201526b6163746976652070726f787960a01b606082015260800190565b6020808252602c908201527f4552433737373a2063616c6c6572206973206e6f7420616e206f70657261746f60408201526b39103337b9103437b63232b960a11b606082015260800190565b60006020828403121561597957600080fd5b815167ffffffffffffffff81111561599057600080fd5b8201601f810184136159a157600080fd5b80516159af615320826152d9565b8181528560208385010111156159c457600080fd5b6159d582602083016020860161511f565b95945050505050565b600082516159f081846020870161511f565b7320456f6e69616e205661756c742053686172657360601b920191825250601401919050565b6232b7b760e91b815260008251615a3481600385016020870161511f565b9190910160030192915050565b634e487b7160e01b600052603160045260246000fd5b600060208284031215615a6957600080fd5b815161118b8161519b565b838152606060208201526000615a8d6060830185615143565b8281036040840152614c9e8185615143565b6020808252602b908201527f496e697469616c697a61626c653a20636f6e7472616374206973206e6f74206960408201526a6e697469616c697a696e6760a81b606082015260800190565b6001600160a01b0387811682528681166020830152851660408201526060810184905260c060808201819052600090615b2590830185615143565b82810360a084015261274b8185615143565b600060208284031215615b4957600080fd5b815161118b816151e7565b60008251615b6681846020870161511f565b9190910192915050565b601f821115611aaf57600081815260208120601f850160051c81016020861015615b975750805b601f850160051c820191505b81811015615bb657828155600101615ba3565b505050505050565b815167ffffffffffffffff811115615bd857615bd8615292565b615bec81615be684546157b5565b84615b70565b602080601f831160018114615c215760008415615c095750858301515b600019600386901b1c1916600185901b178555615bb6565b600085815260208120601f198616915b82811015615c5057888601518255948401946001909101908401615c31565b5085821015615c6e5787850151600019600388901b60f8161c191681555b5050505050600190811b0190555056fe360894a13ba1a3210667c828492db98dca3e2076cc3735a920a3ca505d382bbc416464726573733a206c6f772d6c6576656c2064656c65676174652063616c6c206661696c6564a2646970667358221220af853c46f3b641542c2ecc2cb97337abc11d42b808de32537b1f28bea5bcdaad64736f6c63430008130033",
  "devdoc": {
    "events": {
      "AdminChanged(address,address)": {
        "details": "Emitted when the admin account has changed."
      },
      "Approval(address,address,uint256)": {
        "details": "Emitted when the allowance of a `spender` for an `owner` is set by a call to {approve}. `value` is the new allowance."
      },
      "AuthorizedOperator(address,address)": {
        "details": "Emitted when `operator` is made operator for `tokenHolder`."
      },
      "BeaconUpgraded(address)": {
        "details": "Emitted when the beacon is changed."
      },
      "BorrowerDebtManagementReported(address,uint256,uint256,uint256,uint256,uint256)": {
        "params": {
          "borrower": "Borrower's contract address",
          "debtPayment": "Amount of outstanding debt repaid by the borrower",
          "freeFunds": "Free funds on the borrower's contract that remain after the debt is paid",
          "fundsGiven": "Funds issued to the borrower by this lender",
          "fundsTaken": "Funds that have been taken from the borrower by the lender",
          "loss": "Amount of funds that the borrower realised as loss"
        }
      },
      "Burned(address,address,uint256,bytes,bytes)": {
        "details": "Emitted when `operator` destroys `amount` tokens from `account`. Note that some additional user `data` and `operatorData` can be logged in the event."
      },
      "Initialized(uint8)": {
        "details": "Triggered when the contract has been initialized or reinitialized."
      },
      "Minted(address,address,uint256,bytes,bytes)": {
        "details": "Emitted when `amount` tokens are created by `operator` and assigned to `to`. Note that some additional user `data` and `operatorData` can be logged in the event."
      },
      "Paused(address)": {
        "details": "Emitted when the pause is triggered by `account`."
      },
      "RevokedOperator(address,address)": {
        "details": "Emitted when `operator` is revoked its operator status for `tokenHolder`."
      },
      "StrategyAdded(address,uint256)": {
        "params": {
          "debtRatio": "Maximum portion of the loan that the strategy can take (in BPS).",
          "strategy": "Address of the strategy contract."
        }
      },
      "StrategyRemoved(address,bool)": {
        "params": {
          "fromQueueOnly": "If \"true\", then the strategy has only been removed from the withdrawal queue.",
          "strategy": "Address of the strategy contract."
        }
      },
      "StrategyReturnedToQueue(address)": {
        "params": {
          "strategy": "Address of the strategy contract."
        }
      },
      "StrategyRevoked(address)": {
        "params": {
          "strategy": "Address of the strategy contract."
        }
      },
      "Transfer(address,address,uint256)": {
        "details": "Emitted when `value` tokens are moved from one account (`from`) to another (`to`). Note that `value` may be zero."
      },
      "Unpaused(address)": {
        "details": "Emitted when the pause is lifted by `account`."
      },
      "Upgraded(address)": {
        "details": "Emitted when the implementation is upgraded."
      }
    },
    "kind": "dev",
    "methods": {
      "addStrategy(address,uint256)": {
        "params": {
          "debtRatio": "a ratio that shows how much of the new strategy can take, relative to other strategies.",
          "strategy": "a new strategy address."
        }
      },
      "addStrategyToQueue(address)": {
        "params": {
          "strategy": "a strategy address."
        }
      },
      "allowance(address,address)": {
        "details": "See {IERC20-allowance}. Note that operator and allowance concepts are orthogonal: operators may not have allowance, and accounts with allowance may not be operators themselves."
      },
      "approve(address,uint256)": {
        "details": "See {IERC20-approve}. NOTE: If `value` is the maximum `uint256`, the allowance is not updated on `transferFrom`. This is semantically equivalent to an infinite approval. Note that accounts cannot have allowance issued by their operators."
      },
      "authorizeOperator(address)": {
        "details": "See {IERC777-authorizeOperator}."
      },
      "availableCredit()": {
        "returns": {
          "_0": "Available credit as amount of tokens"
        }
      },
      "balanceOf(address)": {
        "details": "Returns the amount of tokens owned by an account (`tokenHolder`)."
      },
      "burn(uint256,bytes)": {
        "details": "See {IERC777-burn}. Also emits a {IERC20-Transfer} event for ERC20 compatibility."
      },
      "constructor": {
        "custom:oz-upgrades-unsafe-allow": "constructor"
      },
      "currentDebt()": {
        "returns": {
          "_0": "Debt as amount of tokens"
        }
      },
      "decimals()": {
        "details": "See {ERC20-decimals}. Always returns 18, as per the [ERC777 EIP](https://eips.ethereum.org/EIPS/eip-777#backward-compatibility)."
      },
      "defaultOperators()": {
        "details": "See {IERC777-defaultOperators}."
      },
      "deposit(uint256)": {
        "details": "Override to add the \"whenNotPaused\" modifier"
      },
      "granularity()": {
        "details": "See {IERC777-granularity}. This implementation always returns `1`."
      },
      "interestRatePerBlock()": {
        "returns": {
          "_0": "- The interest rate per block, scaled by 1e18",
          "_1": "- The utilisation rate of the lender, in BPS (scaled by 1e4)"
        }
      },
      "isActivated()": {
        "returns": {
          "_0": "\"true\" if the borrower is active"
        }
      },
      "isOperatorFor(address,address)": {
        "details": "See {IERC777-isOperatorFor}."
      },
      "name()": {
        "details": "See {IERC777-name}."
      },
      "operatorBurn(address,uint256,bytes,bytes)": {
        "details": "See {IERC777-operatorBurn}. Emits {Burned} and {IERC20-Transfer} events."
      },
      "operatorSend(address,address,uint256,bytes,bytes)": {
        "details": "See {IERC777-operatorSend}. Emits {Sent} and {IERC20-Transfer} events."
      },
      "outstandingDebt()": {
        "returns": {
          "_0": "Outstanding debt as amount of tokens"
        }
      },
      "owner()": {
        "details": "Returns the address of the current owner."
      },
      "paused()": {
        "details": "Explicitly overridden here to keep this function exposed via \"ILender\" interface.",
        "returns": {
          "_0": "\"true\" if the contract is paused, and \"false\" otherwise."
        }
      },
      "proxiableUUID()": {
        "details": "Implementation of the ERC1822 {proxiableUUID} function. This returns the storage slot used by the implementation. It is used to validate the implementation's compatibility when performing an upgrade. IMPORTANT: A proxy pointing at a proxiable contract should not be considered proxiable itself, because this risks bricking a proxy that upgrades to it, by delegating to itself until out of gas. Thus it is critical that this function revert if invoked through a proxy. This is guaranteed by the `notDelegated` modifier."
      },
      "removeStrategy(address,bool)": {
        "params": {
          "fromQueueOnly": "if \"true\", then the strategy will only be removed from the withdrawal queue.",
          "strategy": "a strategy to remove."
        }
      },
      "renounceOwnership()": {
        "details": "Leaves the contract without owner. It will not be possible to call `onlyOwner` functions. Can only be called by the current owner. NOTE: Renouncing ownership will leave the contract without an owner, thereby disabling any functionality that is only available to the owner."
      },
      "reorderWithdrawalQueue(address[])": {
        "params": {
          "queue": "a new queue that will replace the existing one.        Should contain only those elements that already present in the existing queue."
        }
      },
      "reportNegativeDebtManagement(uint256,uint256)": {
        "params": {
          "debtPayment": "is the funds that the borrower must release in order to pay off his outstanding debt (if any).",
          "loss": "a number of tokens by which the borrower's balance has decreased since the last report.        May include a portion of the outstanding debt that the borrower was unable to repay."
        }
      },
      "reportPositiveDebtManagement(uint256,uint256)": {
        "params": {
          "debtPayment": "is the funds that the borrower must release in order to pay off his outstanding debt (if any).",
          "extraFreeFunds": "an extra amount of free funds borrower's contract has.                       This reporting amount must be greater than the borrower's outstanding debt."
        }
      },
      "revokeOperator(address)": {
        "details": "See {IERC777-revokeOperator}."
      },
      "revokeStrategy(address)": {
        "params": {
          "strategy": "a strategy to revoke."
        }
      },
      "send(address,uint256,bytes)": {
        "details": "See {IERC777-send}. Also emits a {IERC20-Transfer} event for ERC20 compatibility."
      },
      "setEmergencyShutdown(bool)": {
        "params": {
          "shutdown": "a new vault pause state. If \"true\" is passed, the vault will be paused."
        }
      },
      "setFounders(address)": {
        "params": {
          "_founders": "a new founder token contract address."
        }
      },
      "setFoundersFee(uint256)": {
        "params": {
          "_foundersFee": "a new founder token reward fee (in BPS)."
        }
      },
      "setLockedProfitReleaseRate(uint256)": {
        "params": {
          "rate": "the rate of release of locked profit (percent per second scaled to 1e18).             The desire value of this parameter can be calculated as 1e18 / DurationInSeconds."
        }
      },
      "setManagementFee(uint256)": {
        "params": {
          "_managementFee": "a new management fee value (in BPS)."
        }
      },
      "setRewards(address)": {
        "params": {
          "_rewards": "a new rewards address."
        }
      },
      "strategyDebt(address)": {
        "params": {
          "strategy": "the strategy address."
        }
      },
      "strategyRatio(address)": {
        "params": {
          "strategy": "the strategy address."
        }
      },
      "symbol()": {
        "details": "See {IERC777-symbol}."
      },
      "totalAssets()": {
        "details": "Must be implemented by child contract."
      },
      "totalSupply()": {
        "details": "See {IERC777-totalSupply}."
      },
      "transfer(address,uint256)": {
        "details": "See {IERC20-transfer}. Unlike `send`, `recipient` is _not_ required to implement the {IERC777Recipient} interface if it is a contract. Also emits a {Sent} event."
      },
      "transferFrom(address,address,uint256)": {
        "details": "See {IERC20-transferFrom}. NOTE: Does not update the allowance if the current allowance is the maximum `uint256`. Note that operator and allowance concepts are orthogonal: operators cannot call `transferFrom` (unless they have allowance), and accounts with allowance cannot call `operatorSend` (unless they are operators). Emits {Sent}, {IERC20-Transfer} and {IERC20-Approval} events."
      },
      "transferOwnership(address)": {
        "details": "Transfers ownership of the contract to a new account (`newOwner`). Can only be called by the current owner."
      },
      "upgradeTo(address)": {
        "custom:oz-upgrades-unsafe-allow-reachable": "delegatecall",
        "details": "Upgrade the implementation of the proxy to `newImplementation`. Calls {_authorizeUpgrade}. Emits an {Upgraded} event."
      },
      "upgradeToAndCall(address,bytes)": {
        "custom:oz-upgrades-unsafe-allow-reachable": "delegatecall",
        "details": "Upgrade the implementation of the proxy to `newImplementation`, and subsequently execute the function call encoded in `data`. Calls {_authorizeUpgrade}. Emits an {Upgraded} event."
      },
      "utilizationRate(address)": {
        "returns": {
          "_0": "percent of total assets taken by strategy in BPS"
        }
      },
      "version()": {
        "returns": {
          "_0": "a version in semantic versioning format"
        }
      }
    },
    "stateVariables": {
      "__gap": {
        "details": "This empty reserved space is put in place to allow future versions to add new      variables without shifting down storage in the inheritance chain.      See https://docs.openzeppelin.com/contracts/4.x/upgradeable#storage_gaps"
      }
    },
    "version": 1
  },
  "userdoc": {
    "events": {
      "BorrowerDebtManagementReported(address,uint256,uint256,uint256,uint256,uint256)": {
        "notice": "Event that must occur when the borrower reported the results of his debt management"
      },
      "Deposit(address,address,uint256,uint256)": {
        "notice": "`sender` has exchanged `assets` for `shares`, and transferred those `shares` to `owner`. emitted when tokens are deposited into the Vault via the mint and deposit methods."
      },
      "LockedProfitReleaseRateChanged(uint256)": {
        "notice": "Event that should happen when the locked-in profit release rate changed."
      },
      "StrategyAdded(address,uint256)": {
        "notice": "Event that should happen when the strategy connects to the vault."
      },
      "StrategyRemoved(address,bool)": {
        "notice": "Event that should happen when the strategy has been removed from the vault."
      },
      "StrategyReturnedToQueue(address)": {
        "notice": "Event that should happen when the strategy has been returned to the withdrawal queue."
      },
      "StrategyRevoked(address)": {
        "notice": "Event that should happen when the strategy has been revoked from the vault."
      },
      "Withdraw(address,address,address,uint256,uint256)": {
        "notice": "`sender` has exchanged `shares`, owned by `owner`, for `assets`, and transferred those `assets` to `receiver`. emitted when shares are withdrawn from the Vault in ERC4626.redeem or ERC4626.withdraw methods."
      }
    },
    "kind": "user",
    "methods": {
      "LOCKED_PROFIT_RELEASE_SCALE()": {
        "notice": "Represents the maximum value of the locked-in profit ratio scale (where 1e18 is 100%)."
      },
      "addStrategy(address,uint256)": {
        "notice": "Adds a new strategy to the vault."
      },
      "addStrategyToQueue(address)": {
        "notice": "Adds a strategy to the withdrawal queue. The strategy must already be registered as a borrower."
      },
      "asset()": {
        "notice": "The underlying token managed by the Vault. Has units defined by the corresponding ERC-20 contract. Stored as address of the underlying token used for the Vault for accounting, depositing, and withdrawing."
      },
      "availableCredit()": {
        "notice": "Returns the number of tokens the borrower (caller of this function) can take from the lender"
      },
      "borrowersData(address)": {
        "notice": "Records with information on each borrower using the lender's services"
      },
      "convertToAssets(uint256)": {
        "notice": "The amount of assets that the Vault would exchange for the amount of shares provided, in an ideal scenario where all the conditions are met. - is NOT inclusive of any fees that are charged against assets in the Vault. - do NOT show any variations depending on the caller. - do NOT reflect slippage or other on-chain conditions, when performing the actual exchange. - do NOT revert unless due to integer overflow caused by an unreasonably large input. - round down towards 0. This calculation MAY NOT reflect the per-user price-per-share, and instead should reflect the average-users price-per-share, meaning what the average user should expect to see when exchanging to and from."
      },
      "convertToShares(uint256)": {
        "notice": "The amount of shares that the Vault would exchange for the amount of assets provided, in an ideal scenario where all the conditions are met. - is NOT inclusive of any fees that are charged against assets in the Vault. - do NOT show any variations depending on the caller. - do NOT reflect slippage or other on-chain conditions, when performing the actual exchange. - do NOT revert unless due to integer overflow caused by an unreasonably large input. - round down towards 0. This calculation MAY NOT reflect the per-user price-per-share, and instead should reflect the average-users price-per-share, meaning what the average user should expect to see when exchanging to and from."
      },
      "currentDebt()": {
        "notice": "Returns the amount of funds taken by the borrower (caller of this function)."
      },
      "currentDebt(address)": {
        "notice": "Returns the current debt that the strategy has."
      },
      "currentDebtRatio()": {
        "notice": "Returns the debt ratio of the borrower (caller of this function)."
      },
      "debtRatio()": {
        "notice": "Debt ratio for the Lender across all borrowers (in BPS, <= 10k)"
      },
      "deposit(uint256)": {
        "notice": "Mints the Vault shares for msg.sender, according to the number of deposited base tokens. - emits the Deposit event. - support ERC-20 approve / transferFrom on asset as a deposit flow.   MAY support an additional flow in which the underlying tokens are owned by the Vault contract   before the deposit execution, and are accounted for during deposit. - revert if all of assets cannot be deposited (due to deposit limit being reached, slippage, the user not approving enough underlying tokens to the Vault contract, etc). Note that most implementations will require pre-approval of the Vault with the Vaults underlying asset token."
      },
      "deposit(uint256,address)": {
        "notice": "Mints Vault shares to receiver by depositing exactly amount of underlying tokens. - emits the Deposit event. - support ERC-20 approve / transferFrom on asset as a deposit flow.   MAY support an additional flow in which the underlying tokens are owned by the Vault contract   before the deposit execution, and are accounted for during deposit. - revert if all of assets cannot be deposited (due to deposit limit being reached, slippage,   the user not approving enough underlying tokens to the Vault contract, etc). Note that most implementations will require pre-approval of the Vault with the Vaults underlying asset token."
      },
      "founders()": {
        "notice": "Vault Founders Token contract where rewards for founders are sent to."
      },
      "foundersFee()": {
        "notice": "Vault founders reward (in BPS)."
      },
      "fundAssets()": {
        "notice": "Returns the total amount of all tokens (including those on the contract balance and taken by borrowers)"
      },
      "getQueueSize()": {
        "notice": "Returns the size of the withdrawal queue."
      },
      "interestRatePerBlock()": {
        "notice": "Returns average interst rate of lender per block.          Based on last report utilization rate and possibly cached interest rate of each strategy.         Can be outadated, but close enough to real state for on chain calculations.         Calculate average by combining utilisation rate of each strategy with its interest rate.         Returns additional total utilisation rate of lender, as additional product of calculation, usefull to safe gas."
      },
      "isActivated()": {
        "notice": "Returns the activation status of the borrower (caller of this function)."
      },
      "isActivated(address)": {
        "notice": "Returns the activation status of the specified borrower."
      },
      "lastReport()": {
        "notice": "Returns the last report timestamp of the borrower (caller of this function)."
      },
      "lastReport(address)": {
        "notice": "Returns the last report timestamp of the specified borrower."
      },
      "lastReportTimestamp()": {
        "notice": "Last time a report occurred by any borrower"
      },
      "lockedProfitBaseline()": {
        "notice": "The amount of funds that cannot be withdrawn by users.         Decreases with time at the rate of \"lockedProfitReleaseRate\"."
      },
      "lockedProfitReleaseRate()": {
        "notice": "The rate of \"lockedProfitBaseline\" decline on the locked-in profit scale (scaled to 1e18).         Represents the amount of funds that will be unlocked when one second passes."
      },
      "managementFee()": {
        "notice": "Vault management fee (in BPS)."
      },
      "maxDeposit(address)": {
        "notice": "Maximum amount of the underlying asset that can be deposited into the Vault for the receiver, through a deposit call. - returns the maximum amount of assets deposit would allow to be deposited   for receiver and not cause a revert, which MUST NOT be higher than the actual maximum   that would be accepted (it should underestimate if necessary).   This assumes that the user has infinite assets, i.e. MUST NOT rely on balanceOf of asset. - factor in both global and user-specific limits, like if deposits are entirely disabled (even temporarily) it MUST return 0. - return 2 ** 256 - 1 if there is no limit on the maximum amount of assets that may be deposited."
      },
      "maxMint(address)": {
        "notice": "Maximum amount of shares that can be minted from the Vault for the receiver, through a mint call. - return the maximum amount of shares mint would allow to be deposited to receiver   and not cause a revert, which MUST NOT be higher than the actual maximum   that would be accepted (it should underestimate if necessary).   This assumes that the user has infinite assets, i.e. MUST NOT rely on balanceOf of asset. - factor in both global and user-specific limits,   like if mints are entirely disabled (even temporarily) it MUST return 0. - return 2 ** 256 - 1 if there is no limit on the maximum amount of shares that may be minted."
      },
      "maxRedeem(address)": {
        "notice": "Maximum amount of Vault shares that can be redeemed from the owner balance in the Vault, through a redeem call. - return the maximum amount of shares that could be transferred from owner through redeem   and not cause a revert, which MUST NOT be higher than the actual maximum   that would be accepted (it should underestimate if necessary). - factor in both global and user-specific limits,   like if redemption is entirely disabled (even temporarily) it MUST return 0."
      },
      "maxWithdraw(address)": {
        "notice": "Maximum amount of the underlying asset that can be withdrawn from the owner balance in the Vault, through a withdraw call. - return the maximum amount of assets that could be transferred from owner through withdraw   and not cause a revert, which MUST NOT be higher than the actual maximum   that would be accepted (it should underestimate if necessary). - factor in both global and user-specific limits,   like if withdrawals are entirely disabled (even temporarily) it MUST return 0."
      },
      "mint(uint256)": {
        "notice": "Mints exactly requested Vault shares to msg.sender by depositing any required amount of underlying tokens. - emits the Deposit event. - support ERC-20 approve / transferFrom on asset as a deposit flow.   MAY support an additional flow in which the underlying tokens are owned by the Vault contract   before the deposit execution, and are accounted for during deposit. - revert if all of assets cannot be deposited (due to deposit limit being reached, slippage, the user not approving enough underlying tokens to the Vault contract, etc). Note that most implementations will require pre-approval of the Vault with the Vaults underlying asset token."
      },
      "mint(uint256,address)": {
        "notice": "Mints exactly shares Vault shares to receiver by depositing amount of underlying tokens. - emits the Deposit event. - support ERC-20 approve / transferFrom on asset as a deposit flow.   MAY support an additional flow in which the underlying tokens are owned by the Vault contract   before the deposit execution, and are accounted for during deposit. - revert if all of assets cannot be deposited (due to deposit limit being reached, slippage, the user not approving enough underlying tokens to the Vault contract, etc). Note that most implementations will require pre-approval of the Vault with the Vaults underlying asset token."
      },
      "outstandingDebt()": {
        "notice": "Returns the outstanding debt that the borrower (caller of this function) must repay"
      },
      "paused()": {
        "notice": "Indicates if the vault was shutted down or not."
      },
      "previewDeposit(uint256)": {
        "notice": "Allows an on-chain or off-chain user to simulate the effects of their deposit at the current block, given current on-chain conditions. - return as close to and no more than the exact amount of Vault shares that would be minted   in a deposit call in the same transaction.   I.e. deposit should return the same or more shares as previewDeposit if called in the same transaction. - NOT account for deposit limits like those returned from maxDeposit   and should always act as though the deposit would be accepted,   regardless if the user has enough tokens approved, etc. - inclusive of deposit fees. Integrators should be aware of the existence of deposit fees. - NOT revert due to vault specific user/global limits. MAY revert due to other conditions that would also cause deposit to revert. Note that any unfavorable discrepancy between convertToShares and previewDeposit SHOULD be considered slippage in share price or some other type of condition, meaning the depositor will lose assets by depositing."
      },
      "previewMint(uint256)": {
        "notice": "Allows an on-chain or off-chain user to simulate the effects of their mint at the current block, given current on-chain conditions. - return as close to and no fewer than the exact amount of assets that would be deposited   in a mint call in the same transaction.   I.e. mint should return the same or fewer assets as previewMint if called in the same transaction. - NOT account for mint limits like those returned from maxMint   and should always act as though the mint would be accepted,   regardless if the user has enough tokens approved, etc. - inclusive of deposit fees. Integrators should be aware of the existence of deposit fees. - NOT revert due to vault specific user/global limits.   MAY revert due to other conditions that would also cause mint to revert. Note that any unfavorable discrepancy between convertToAssets and previewMint SHOULD be considered slippage in share price or some other type of condition, meaning the depositor will lose assets by minting."
      },
      "previewRedeem(uint256)": {
        "notice": "Allows an on-chain or off-chain user to simulate the effects of their redeemption at the current block, given current on-chain conditions. - return as close to and no more than the exact amount of assets that would be withdrawn   in a redeem call in the same transaction.   I.e. redeem should return the same or more assets as previewRedeem   if called in the same transaction. - NOT account for redemption limits like those returned from maxRedeem   and should always act as though the redemption would be accepted,   regardless if the user has enough shares, etc. - inclusive of withdrawal fees. Integrators should be aware of the existence of withdrawal fees. - NOT revert due to vault specific user/global limits.   MAY revert due to other conditions that would also cause redeem to revert. Note that any unfavorable discrepancy between convertToAssets and previewRedeem SHOULD be considered slippage in share price or some other type of condition, meaning the depositor will lose assets by redeeming."
      },
      "previewWithdraw(uint256)": {
        "notice": "Allows an on-chain or off-chain user to simulate the effects of their withdrawal at the current block, given current on-chain conditions. - return as close to and no fewer than the exact amount of Vault shares   that would be burned in a withdraw call in the same transaction.   I.e. withdraw should return the same or fewer shares as previewWithdraw   if called in the same transaction. - NOT account for withdrawal limits like those returned from maxWithdraw   and should always act as though the withdrawal would be accepted,   regardless if the user has enough shares, etc. - inclusive of withdrawal fees. Integrators should be aware of the existence of withdrawal fees. - NOT revert due to vault specific user/global limits.   MAY revert due to other conditions that would also cause withdraw to revert. Note that any unfavorable discrepancy between convertToShares and previewWithdraw SHOULD be considered slippage in share price or some other type of condition, meaning the depositor will lose assets by depositing."
      },
      "redeem(uint256)": {
        "notice": "Burns exactly shares from msg.sender and sends assets of underlying tokens to msg.sender. - emit the Withdraw event. - support a redeem flow where the shares are burned from owner directly where owner is msg.sender. - MAY support an additional flow in which the shares are transferred to the Vault contract   before the redeem execution, and are accounted for during redeem. - revert if all of shares cannot be redeemed (due to withdrawal limit being reached,   slippage, the owner not having enough shares, etc). Note that some implementations will require pre-requesting to the Vault before a withdrawal may be performed. Those methods should be performed separately."
      },
      "redeem(uint256,address,address)": {
        "notice": "Burns exactly shares from owner and sends assets of underlying tokens to receiver. - emit the Withdraw event. - support a redeem flow where the shares are burned from owner directly where owner is msg.sender. - support a redeem flow where the shares are burned from owner directly where msg.sender   has ERC-20 approval over the shares of owner. - MAY support an additional flow in which the shares are transferred to the Vault contract   before the redeem execution, and are accounted for during redeem. - revert if all of shares cannot be redeemed (due to withdrawal limit being reached,   slippage, the owner not having enough shares, etc). Note that some implementations will require pre-requesting to the Vault before a withdrawal may be performed. Those methods should be performed separately."
      },
      "removeStrategy(address,bool)": {
        "notice": "Removes a strategy from the vault."
      },
      "reorderWithdrawalQueue(address[])": {
        "notice": "Sets the withdrawal queue."
      },
      "reportNegativeDebtManagement(uint256,uint256)": {
        "notice": "Reports a negative result of the borrower's debt management.         The borrower must call this function if he is unable to cover his outstanding debt or if he has incurred any losses."
      },
      "reportPositiveDebtManagement(uint256,uint256)": {
        "notice": "Reports a positive result of the borrower's debt management.         Borrower must call this function if he has made any profit         or/and has a free funds available to repay the outstanding debt (if any)."
      },
      "revokeStrategy(address)": {
        "notice": "Revokes a strategy from the vault.         Sets strategy's dept ratio to zero, so that the strategy cannot take funds from the vault."
      },
      "rewards()": {
        "notice": "Rewards contract where management fees are sent to."
      },
      "setEmergencyShutdown(bool)": {
        "notice": "Switches the vault pause state."
      },
      "setFounders(address)": {
        "notice": "Sets the vault founder token contract;"
      },
      "setFoundersFee(uint256)": {
        "notice": "Sets the vault founder token reward rate. Both management and foundersReward fee can't exceed 100%"
      },
      "setLockedProfitReleaseRate(uint256)": {
        "notice": "Changes the rate of release of locked-in profit."
      },
      "setManagementFee(uint256)": {
        "notice": "Sets the vault management fee. Both management and foundersReward fee can't exceed 100%"
      },
      "setRewards(address)": {
        "notice": "Sets the vault rewards address."
      },
      "strategyDebt(address)": {
        "notice": "Returns the current debt of the strategy."
      },
      "strategyRatio(address)": {
        "notice": "Returns the debt ratio of the strategy."
      },
      "totalAssets()": {
        "notice": "Total amount of the underlying asset that is managed by Vault. - include any compounding that occurs from yield. - inclusive of any fees that are charged against assets in the Vault. - is NOT revert"
      },
      "totalDebt()": {
        "notice": "Amount of tokens that all borrowers have taken"
      },
      "utilizationRate(address)": {
        "notice": "Calculate utilisation rate for specific borrowerBased on last report data, can be outdated, but close to latest state of fund"
      },
      "version()": {
        "notice": "Returns the current version of this contract"
      },
      "withdraw(uint256)": {
        "notice": "Burns shares from msg.sender and sends exactly assets of underlying tokens to msg.sender. - emit the Withdraw event. - support a withdraw flow where the shares are burned from owner directly where owner is msg.sender. - MAY support an additional flow in which the shares are transferred to the Vault contract   before the withdraw execution, and are accounted for during withdraw. - revert if all of assets cannot be withdrawn (due to withdrawal limit being reached,   slippage, the owner not having enough shares, etc). Note that some implementations will require pre-requesting to the Vault before a withdrawal may be performed. Those methods should be performed separately."
      },
      "withdraw(uint256,address,address)": {
        "notice": "Burns shares from owner and sends exactly assets of underlying tokens to receiver. - emit the Withdraw event. - support a withdraw flow where the shares are burned from owner directly where owner is msg.sender. - support a withdraw flow where the shares are burned from owner directly where msg.sender   has ERC-20 approval over the shares of owner. - MAY support an additional flow in which the shares are transferred to the Vault contract   before the withdraw execution, and are accounted for during withdraw. - revert if all of assets cannot be withdrawn (due to withdrawal limit being reached,   slippage, the owner not having enough shares, etc). Note that some implementations will require pre-requesting to the Vault before a withdrawal may be performed. Those methods should be performed separately."
      },
      "withdrawalQueue(uint256)": {
        "notice": "Arranged list of addresses of strategies, which defines the order for withdrawal."
      }
    },
    "version": 1
  },
  "storageLayout": {
    "storage": [
      {
        "astId": 986,
        "contract": "src/Vault.sol:Vault",
        "label": "_initialized",
        "offset": 0,
        "slot": "0",
        "type": "t_uint8"
      },
      {
        "astId": 989,
        "contract": "src/Vault.sol:Vault",
        "label": "_initializing",
        "offset": 1,
        "slot": "0",
        "type": "t_bool"
      },
      {
        "astId": 968,
        "contract": "src/Vault.sol:Vault",
        "label": "__gap",
        "offset": 0,
        "slot": "1",
        "type": "t_array(t_uint256)50_storage"
      },
      {
        "astId": 1283,
        "contract": "src/Vault.sol:Vault",
        "label": "__gap",
        "offset": 0,
        "slot": "51",
        "type": "t_array(t_uint256)50_storage"
      },
      {
        "astId": 17196,
        "contract": "src/Vault.sol:Vault",
        "label": "__gap",
        "offset": 0,
        "slot": "101",
        "type": "t_array(t_uint256)50_storage"
      },
      {
        "astId": 5398,
        "contract": "src/Vault.sol:Vault",
        "label": "__gap",
        "offset": 0,
        "slot": "151",
        "type": "t_array(t_uint256)50_storage"
      },
      {
        "astId": 1305,
        "contract": "src/Vault.sol:Vault",
        "label": "_paused",
        "offset": 0,
        "slot": "201",
        "type": "t_bool"
      },
      {
        "astId": 1410,
        "contract": "src/Vault.sol:Vault",
        "label": "__gap",
        "offset": 0,
        "slot": "202",
        "type": "t_array(t_uint256)49_storage"
      },
      {
        "astId": 3736,
        "contract": "src/Vault.sol:Vault",
        "label": "_balances",
        "offset": 0,
        "slot": "251",
        "type": "t_mapping(t_address,t_uint256)"
      },
      {
        "astId": 3738,
        "contract": "src/Vault.sol:Vault",
        "label": "_totalSupply",
        "offset": 0,
        "slot": "252",
        "type": "t_uint256"
      },
      {
        "astId": 3740,
        "contract": "src/Vault.sol:Vault",
        "label": "_name",
        "offset": 0,
        "slot": "253",
        "type": "t_string_storage"
      },
      {
        "astId": 3742,
        "contract": "src/Vault.sol:Vault",
        "label": "_symbol",
        "offset": 0,
        "slot": "254",
        "type": "t_string_storage"
      },
      {
        "astId": 3755,
        "contract": "src/Vault.sol:Vault",
        "label": "_defaultOperatorsArray",
        "offset": 0,
        "slot": "255",
        "type": "t_array(t_address)dyn_storage"
      },
      {
        "astId": 3759,
        "contract": "src/Vault.sol:Vault",
        "label": "_defaultOperators",
        "offset": 0,
        "slot": "256",
        "type": "t_mapping(t_address,t_bool)"
      },
      {
        "astId": 3765,
        "contract": "src/Vault.sol:Vault",
        "label": "_operators",
        "offset": 0,
        "slot": "257",
        "type": "t_mapping(t_address,t_mapping(t_address,t_bool))"
      },
      {
        "astId": 3771,
        "contract": "src/Vault.sol:Vault",
        "label": "_revokedDefaultOperators",
        "offset": 0,
        "slot": "258",
        "type": "t_mapping(t_address,t_mapping(t_address,t_bool))"
      },
      {
        "astId": 3777,
        "contract": "src/Vault.sol:Vault",
        "label": "_allowances",
        "offset": 0,
        "slot": "259",
        "type": "t_mapping(t_address,t_mapping(t_address,t_uint256))"
      },
      {
        "astId": 4823,
        "contract": "src/Vault.sol:Vault",
        "label": "__gap",
        "offset": 0,
        "slot": "260",
        "type": "t_array(t_uint256)41_storage"
      },
      {
        "astId": 1425,
        "contract": "src/Vault.sol:Vault",
        "label": "_status",
        "offset": 0,
        "slot": "301",
        "type": "t_uint256"
      },
      {
        "astId": 1494,
        "contract": "src/Vault.sol:Vault",
        "label": "__gap",
        "offset": 0,
        "slot": "302",
        "type": "t_array(t_uint256)49_storage"
      },
      {
        "astId": 10926,
        "contract": "src/Vault.sol:Vault",
        "label": "totalDebt",
        "offset": 0,
        "slot": "351",
        "type": "t_uint256"
      },
      {
        "astId": 10929,
        "contract": "src/Vault.sol:Vault",
        "label": "debtRatio",
        "offset": 0,
        "slot": "352",
        "type": "t_uint256"
      },
      {
        "astId": 10932,
        "contract": "src/Vault.sol:Vault",
        "label": "lastReportTimestamp",
        "offset": 0,
        "slot": "353",
        "type": "t_uint256"
      },
      {
        "astId": 10938,
        "contract": "src/Vault.sol:Vault",
        "label": "borrowersData",
        "offset": 0,
        "slot": "354",
        "type": "t_mapping(t_address,t_struct(BorrowerData)10920_storage)"
      },
      {
        "astId": 10943,
        "contract": "src/Vault.sol:Vault",
        "label": "__gap",
        "offset": 0,
        "slot": "355",
        "type": "t_array(t_uint256)50_storage"
      },
      {
        "astId": 465,
        "contract": "src/Vault.sol:Vault",
        "label": "_owner",
        "offset": 0,
        "slot": "405",
        "type": "t_address"
      },
      {
        "astId": 585,
        "contract": "src/Vault.sol:Vault",
        "label": "__gap",
        "offset": 0,
        "slot": "406",
        "type": "t_array(t_uint256)49_storage"
      },
      {
        "astId": 17230,
        "contract": "src/Vault.sol:Vault",
        "label": "__gap",
        "offset": 0,
        "slot": "455",
        "type": "t_array(t_uint256)50_storage"
      },
      {
        "astId": 15108,
        "contract": "src/Vault.sol:Vault",
        "label": "asset",
        "offset": 0,
        "slot": "505",
        "type": "t_contract(IERC20Upgradeable)1573"
      },
      {
        "astId": 15113,
        "contract": "src/Vault.sol:Vault",
        "label": "__gap",
        "offset": 0,
        "slot": "506",
        "type": "t_array(t_uint256)50_storage"
      },
      {
        "astId": 16598,
        "contract": "src/Vault.sol:Vault",
        "label": "__gap",
        "offset": 0,
        "slot": "556",
        "type": "t_array(t_uint256)50_storage"
      },
      {
        "astId": 11879,
        "contract": "src/Vault.sol:Vault",
        "label": "withdrawalQueue",
        "offset": 0,
        "slot": "606",
        "type": "t_array(t_address)dyn_storage"
      },
      {
        "astId": 11884,
        "contract": "src/Vault.sol:Vault",
        "label": "__gap",
        "offset": 0,
        "slot": "607",
        "type": "t_array(t_uint256)50_storage"
      },
      {
        "astId": 14828,
        "contract": "src/Vault.sol:Vault",
        "label": "withdrawHooks",
        "offset": 0,
        "slot": "657",
        "type": "t_array(t_contract(IVaultHook)16286)dyn_storage"
      },
      {
        "astId": 14832,
        "contract": "src/Vault.sol:Vault",
        "label": "depositHooks",
        "offset": 0,
        "slot": "658",
        "type": "t_array(t_contract(IVaultHook)16286)dyn_storage"
      },
      {
        "astId": 14837,
        "contract": "src/Vault.sol:Vault",
        "label": "__gap",
        "offset": 0,
        "slot": "659",
        "type": "t_array(t_uint256)50_storage"
      },
      {
        "astId": 9303,
        "contract": "src/Vault.sol:Vault",
        "label": "rewards",
        "offset": 0,
        "slot": "709",
        "type": "t_address"
      },
      {
        "astId": 9306,
        "contract": "src/Vault.sol:Vault",
        "label": "managementFee",
        "offset": 0,
        "slot": "710",
        "type": "t_uint256"
      },
      {
        "astId": 9309,
        "contract": "src/Vault.sol:Vault",
        "label": "lockedProfitBaseline",
        "offset": 0,
        "slot": "711",
        "type": "t_uint256"
      },
      {
        "astId": 9312,
        "contract": "src/Vault.sol:Vault",
        "label": "lockedProfitReleaseRate",
        "offset": 0,
        "slot": "712",
        "type": "t_uint256"
      },
      {
        "astId": 9315,
        "contract": "src/Vault.sol:Vault",
        "label": "founders",
        "offset": 0,
        "slot": "713",
        "type": "t_address"
      },
      {
        "astId": 9318,
        "contract": "src/Vault.sol:Vault",
        "label": "foundersFee",
        "offset": 0,
        "slot": "714",
        "type": "t_uint256"
      },
      {
        "astId": 9323,
        "contract": "src/Vault.sol:Vault",
        "label": "__gap",
        "offset": 0,
        "slot": "715",
        "type": "t_array(t_uint256)48_storage"
      }
    ],
    "types": {
      "t_address": {
        "encoding": "inplace",
        "label": "address",
        "numberOfBytes": "20"
      },
      "t_array(t_address)dyn_storage": {
        "base": "t_address",
        "encoding": "dynamic_array",
        "label": "address[]",
        "numberOfBytes": "32"
      },
      "t_array(t_contract(IVaultHook)16286)dyn_storage": {
        "base": "t_contract(IVaultHook)16286",
        "encoding": "dynamic_array",
        "label": "contract IVaultHook[]",
        "numberOfBytes": "32"
      },
      "t_array(t_uint256)41_storage": {
        "base": "t_uint256",
        "encoding": "inplace",
        "label": "uint256[41]",
        "numberOfBytes": "1312"
      },
      "t_array(t_uint256)48_storage": {
        "base": "t_uint256",
        "encoding": "inplace",
        "label": "uint256[48]",
        "numberOfBytes": "1536"
      },
      "t_array(t_uint256)49_storage": {
        "base": "t_uint256",
        "encoding": "inplace",
        "label": "uint256[49]",
        "numberOfBytes": "1568"
      },
      "t_array(t_uint256)50_storage": {
        "base": "t_uint256",
        "encoding": "inplace",
        "label": "uint256[50]",
        "numberOfBytes": "1600"
      },
      "t_bool": {
        "encoding": "inplace",
        "label": "bool",
        "numberOfBytes": "1"
      },
      "t_contract(IERC20Upgradeable)1573": {
        "encoding": "inplace",
        "label": "contract IERC20Upgradeable",
        "numberOfBytes": "20"
      },
      "t_contract(IVaultHook)16286": {
        "encoding": "inplace",
        "label": "contract IVaultHook",
        "numberOfBytes": "20"
      },
      "t_mapping(t_address,t_bool)": {
        "encoding": "mapping",
        "key": "t_address",
        "label": "mapping(address => bool)",
        "numberOfBytes": "32",
        "value": "t_bool"
      },
      "t_mapping(t_address,t_mapping(t_address,t_bool))": {
        "encoding": "mapping",
        "key": "t_address",
        "label": "mapping(address => mapping(address => bool))",
        "numberOfBytes": "32",
        "value": "t_mapping(t_address,t_bool)"
      },
      "t_mapping(t_address,t_mapping(t_address,t_uint256))": {
        "encoding": "mapping",
        "key": "t_address",
        "label": "mapping(address => mapping(address => uint256))",
        "numberOfBytes": "32",
        "value": "t_mapping(t_address,t_uint256)"
      },
      "t_mapping(t_address,t_struct(BorrowerData)10920_storage)": {
        "encoding": "mapping",
        "key": "t_address",
        "label": "mapping(address => struct Lender.BorrowerData)",
        "numberOfBytes": "32",
        "value": "t_struct(BorrowerData)10920_storage"
      },
      "t_mapping(t_address,t_uint256)": {
        "encoding": "mapping",
        "key": "t_address",
        "label": "mapping(address => uint256)",
        "numberOfBytes": "32",
        "value": "t_uint256"
      },
      "t_string_storage": {
        "encoding": "bytes",
        "label": "string",
        "numberOfBytes": "32"
      },
      "t_struct(BorrowerData)10920_storage": {
        "encoding": "inplace",
        "label": "struct Lender.BorrowerData",
        "members": [
          {
            "astId": 10910,
            "contract": "src/Vault.sol:Vault",
            "label": "activationTimestamp",
            "offset": 0,
            "slot": "0",
            "type": "t_uint256"
          },
          {
            "astId": 10913,
            "contract": "src/Vault.sol:Vault",
            "label": "lastReportTimestamp",
            "offset": 0,
            "slot": "1",
            "type": "t_uint256"
          },
          {
            "astId": 10916,
            "contract": "src/Vault.sol:Vault",
            "label": "debt",
            "offset": 0,
            "slot": "2",
            "type": "t_uint256"
          },
          {
            "astId": 10919,
            "contract": "src/Vault.sol:Vault",
            "label": "debtRatio",
            "offset": 0,
            "slot": "3",
            "type": "t_uint256"
          }
        ],
        "numberOfBytes": "128"
      },
      "t_uint256": {
        "encoding": "inplace",
        "label": "uint256",
        "numberOfBytes": "32"
      },
      "t_uint8": {
        "encoding": "inplace",
        "label": "uint8",
        "numberOfBytes": "1"
      }
    }
  }
}